:020000040800F2
:10000000180700209D010008010E000801030008E8
:1000100000000000000000000000000000000000E0
:10002000000000000000000000000000070E0008B3
:100030000000000000000000030E0008090E000888
:10004000AF01000800000000AF010008AF01000888
:10005000AF010008C5020008AF010008ED0200086A
:1000600000000000AF010008AF010008AF01000868
:10007000AF010008210E0008AF01000800000000D9
:10008000AF0100080000000000000000AF01000800
:1000900000000000AF0100081D0E0008AF010008BD
:1000A00000000000050E000800000000510E0008CE
:1000B000AF01000800000000000000000000000088
:1000C00000F002F800F03EF80CA030C80838241800
:1000D0002D18671EA246AB4654465D46AC4201D180
:1000E00000F030F87E460F3EB6460FCC0126334274
:1000F00000D0FB1A3343A246AB4618470814000051
:1001000028140000103A02D378C878C1FAD85207F0
:1001100001D330C830C101D504680C6070470000BD
:100120000023002400250026103A01D378C1FBD813
:10013000520700D330C100D50B6070471FB51FBDFB
:1001400010B510BD00F08AF81146FFF7F7FF00F078
:10015000DBFE00F0A2F803B4FFF7F2FF03BC00F0EF
:10016000A9F8000070B505460C46164602E00FCC13
:100170000FC5103E102EFAD2082E02D303CC03C5B1
:10018000083E042E07D301CC01C5361F03E02178B9
:100190002970641C6D1C761EF9D270BD074880471B
:1001A00007480047FEE7FEE7FEE7FEE7FEE7FEE75B
:1001B00004480549054A064B704700000D0E00082B
:1001C000C1000008180100201807002018030020B3
:1001D00018030020F8B5042A2CD3830712D00B781B
:1001E000491C0370401C521E83070BD00B78491C1E
:1001F0000370401C521E830704D00B78491C037007
:10020000401C521E8B079B0F05D0C91ADF0020230C
:10021000DE1B08C90AE0FFF7A5FFF8BD1D4608C9A7
:10022000FD401C46B4402C4310C0121F042AF5D2D6
:10023000F308C91A521EF0D40B78491C0370401CF5
:10024000521EEAD40B78491C0370401C012AE4D4E6
:1002500009780170F8BD704770477047754600F027
:1002600025F8AE46050069465346C008C0008546DD
:1002700018B020B5FFF79CFF60BCB64600260027EB
:10028000C0C5C0C5C0C5C0C5C0C5C0C5C0C5C0C546
:10029000403D490849008D46704710B50446C046A8
:1002A000C0462046FFF757FF10BD000000487047CA
:1002B0000800002001491820ABBEFEE7260002001E
:1002C000704700000D480168C90703D1016889071C
:1002D00007D4704701210160034A11800168890732
:1002E000F7D5022101607047100100200348016822
:1002F000090601D5802101607047C0460C180240F4
:10030000FEE70000014602680079002814D0002AA8
:100310001BD0487902281AD001281CD0002834D1DB
:1003200023484368934343600368134303600020FA
:10033000897903291AD92CE01D480168914301608D
:100340004168914341600020704700207047184881
:100350000368134302E0164803689343036043684D
:100360001343436000208979032912D8794409791D
:1003700049008F4401021014E6E70E494B6893438D
:100380004B600B6813430B60704701208979032988
:10039000ECD90120704707490B68934302E00549F7
:1003A0000B6813430B604B6813434B607047C046A8
:1003B0008018024000180240F0B584B00E460A686A
:1003C00011BA0B09744C23402140090159188B08BC
:1003D000724C23402140890059184B08704C23402F
:1003E000214049005B182027002A394605D1002BFF
:1003F0000CD11146F9400ED1C0E051421140694C78
:100400006143C90E68A4615C002BF2D00F4611460F
:10041000F94000D1B2E0039002960EE093007169BA
:1004200099400F229A40036A93430B4303627F1C57
:1004300032681146F94000D1A0E00125BD401540C9
:10044000F5D029BA0A09544B1A401940090151182C
:100450008A08524B1A401940890051184A08504BDB
:100460001A401940490051180368766809D0002DD8
:1004700009D06A422A404B484243D20E4AA0825CCD
:1004800002E0402404E0202254000322A2409343CF
:100490003246A2401A4303980260721E012A1BD8FA
:1004A00084680298836800290AD0002D009109D041
:1004B0006A422A403B484243D20E3BA0825C02E0A3
:1004C000402205E020225200032191408C430099F4
:1004D0009340234303988360C36800290AD0002D0A
:1004E00001960BD0684228402E494843C00E2EA1E9
:1004F0000A5C04E0022E029E99D110E02022029EA6
:1005000030695100884003248C40A343034303987F
:10051000C360019902298AD1290600D07EE70346EB
:100520002C0A20BA0109284A11401040000108187D
:100530008108264A11401040800008184108184AD6
:10054000114010404000081872695B6A09D0002C05
:100550000AD06042204013494843C00E12A1095CF2
:1005600003E08021039805E02021039889000F24EF
:100570008C40A3438A401A43426258E77168491E7F
:10058000012905D8F36853434168914319434160F9
:10059000002004B0F0BDC0460F0F0F0F33333333CC
:1005A0005555555531B57C0700011C021D0E180329
:1005B0001E16140F191104081F1B0D171513100711
:1005C0001A0C12060B050A09000F0F0F0033333304
:1005D00080B57D21C90000F069FE401E03494860D6
:1005E000002088600520086080BDC04610E000E063
:1005F00010B5114A116838230B403A49082B05D031
:100600001346083B1B689B045B0FD94001601368CD
:100610009B093C241C40354B1B591F242340D940C7
:1006200041601268920A1C2313402F4AD25822407C
:10063000D140816010BDC0460810024010B501468F
:100640000020032945D123494A6D03231A401B0486
:10065000D218214B9A4210D0204B9A4213D02048F6
:1006600082421BD18868382202401E48082A30D0B6
:1006700009688904490FC84010BD0120C203C86D34
:100680008003104010BD0A68520522D50868000694
:10069000400F411C134800F009FE10BD8868382245
:1006A00002401048082A03D00A689204520FD04032
:1006B0008A688968890A1C230B400B49C9581F2383
:1006C000194092093C241440084A12591A40D0405B
:1006D000C84010BD001002400300030002000300E8
:1006E00001000300006CDC02E4140008A4140008FC
:1006F00070B50268012352061A4629D40268174CC5
:1007000014400A6822434C681443CA6822430C69A7
:1007100014438A692243CD6915434A6915430C6A1B
:100720002543056045680E4E2E40120C32438D68FD
:100730002A434260EA0A04D10122120345681543A4
:100740004560012255030022AC4201D1898C016130
:10075000D902C3698B43C361104670BD4000FFFFDF
:10076000FBF0FFFF014908607047C0460000002011
:1007700010B504681D4A904202D01D4B98420FD11B
:1007800070239C434B6823431A4CA0420CDD9042DB
:1007900010D0194CA0420DD0184CA0420AD023E032
:1007A0002346144CA042F2DC114CA04202D0144C5F
:1007B000A04219D103242402A343CC681C43046043
:1007C0008B68C3620B888362904205D00A4A9042CC
:1007D00002D00A4A904201D10969016341690122AC
:1007E0000A434261002010BD1C46E8E7002C01408E
:1007F00000040040FF2B014000480140004401403C
:1008000000200040F0B583B004460068C00726D140
:100810000D4620682D490140A86808432969014315
:1008200068690843E96901432160032001036268A4
:100830008A43E968114361600002A1688143A869A5
:100840000843A0600126224884420CD021488442FB
:1008500033D10320FFF7F2FE00280AD12DE0012654
:10086000304603B0F0BD6846FFF7C2FE029800288C
:1008700023D06F68002F20D0296800260B291CD8B0
:10088000890015A2515800F011FD0121C903EA6940
:100890008A420BD1790840004018394600F006FD25
:1008A000194901400007400F401805E07908401839
:1008B000394600F0FBFC80B2E060E06A0F2188431B
:1008C00029880143E162304603B0F0BDF369FFEFD0
:1008D0000044004000380140010000000200000018
:1008E0000400000006000000080000000A000000EC
:1008F0000C0000001000000020000000400000007C
:100900008000000000010000F0FF0000F0B591B091
:1009100063480F9001240E9400250D950C950B95BE
:100920000A959B4801680422114301600168114047
:10093000134610911099016820220492114301601E
:10094000016811401091109901682143016001680C
:1009500021402646079410911099016802220692C0
:1009600011430160006810401090109805200407A2
:100970000093A36108200190A06110200290A06163
:1009800048484021039181620C9509950893464897
:1009900008AF3946FFF710FD0C950B950320059025
:1009A0000A9009960098089020463946FFF704FD02
:1009B0000C950B95059E0A9607980990019808904A
:1009C00020463946FFF7F8FC0C950B950A96079ED2
:1009D00009960298089020463946FFF7EDFC0A95E3
:1009E00006980990300208900B950C950D952046BD
:1009F0003946FFF7E1FC0C950B95059D0A95099684
:100A00000398089027483946FFF7D6FC2748016825
:100A1000072291430160110203688B4303601106B2
:100A200042688A4322495118491C41600EAE304643
:100A3000FFF768FC079FB771B78006980E903046A5
:100A4000FFF760FCB771B78080270E973046FFF73D
:100A500059FCE843E1680140E1600C21C943E268C8
:100A60000A40E2600F4EF268124B1A40F2602268B0
:100A700002402260206808402060306818403060E2
:100A8000FF2000020C490A6882430A60DA48049A8F
:100A900002600A68064B1A400A60076011B0F0BD98
:100AA00001000100000400500014005060180240D2
:100AB000FFFFFF00FF3FFFFF04E400E0F0B593B04D
:100AC0000327B903C948026A8A4302620123190352
:100AD000C2680A43C260C2680A4009920999016863
:100AE0000193194301600068184009900026089698
:100AF0000796069605970220029004902020039006
:100B000009980520040703AD20462946FFF754FC49
:100B10000896079606960597029804904020039041
:100B200020462946FFF748FC089607960696059743
:100B3000029804908020039020462946FFF73CFC51
:100B4000FF200002AB490A6882430A600198400610
:100B5000A9490860119610960D960C9609964120A9
:100B600080000A90FC300E900720129000020B903B
:100B700010240F94074D281F09A9FFF7B9FD286815
:100B8000A0432860286808210143296013B0F0BD04
:100B90003410024004300140B0B586B0002000900F
:100BA0000125A904364A13680B43136012680A40F2
:100BB00005920599FF2109040D4A13688B431360C0
:100BC000A9058D4A116069462F220A80049003907E
:100BD000084A02920190084C2046FFF7C9FD2068A0
:100BE00080218843206020682843206006B0B0BD83
:100BF00014E400E0FFFF000000480140B0B586B0FB
:100C0000002000900125E9021D4A13680B43136080
:100C100012680A4005920599FF210902194A1368D2
:100C20008B4313606903744A11606946164A0A804F
:100C300004900390092202920190144C2046FFF781
:100C400097FD8020C043216801402160A168104ABF
:100C50000A40A26061687022914361600F2109051A
:100C600062688A436260A1680140A160E843206134
:100C7000E0682843E06020682843206006B0B0BDEB
:100C8000401002400CE400E0BF120000002C0140C4
:100C9000F8BFFEFFF0B593B0534C206804210391D8
:100CA00088432060206808210191084320600026C5
:100CB00010964E48016A0322914301620125A9035F
:100CC000C2680A43C260C2680A400492049901687B
:100CD00029430160006828401290099508950795FE
:100CE0000220069002900590680204901298052058
:100CF000000704A9FFF760FBAF053D4801683943D1
:100D00000160FF2000063B490A6882430A60E8064A
:100D10003949086011960C200F900E960D960C968E
:100D200036480B900A960AA92046FFF76BFDEFF3B1
:100D3000108085F3108807214A07A3689343A360B6
:100D400080F31088EFF3108085F310884906A268BD
:100D50008A43A260019A80F3108868072168814362
:100D600021600920C002616881436160A06822217E
:100D70008843A060A0681043A060206828432060DA
:100D80006805E169014202D0E169394211D1E169A6
:100D9000014202D0E16939420BD1E169014202D03E
:100DA000E169394205D1E1690142EAD0E16939429C
:100DB000E7D0226203982062256202982062EFF356
:100DC000108085F31088216820220A43226080F376
:100DD0001088EFF3108085F31088A1682943A16083
:100DE00080F3108813B0F0BD003801403410024089
:100DF0000000014018E400E000E100E040420F0084
:100E0000FEE7704770477047704700000120C0063A
:100E1000014908607047C04608ED00E070470000D7
:100E200080B505480168C90702D00121C9430160A6
:100E300000F004F880BDC046102C01400348012199
:100E400001704168491C41607047C046B8000020ED
:100E5000B0B582B02848011F0A68920604D5024640
:100E6000203A1268920613D4096801910199490742
:100E70000BD40199C9072FD1019909072FD40199E2
:100E8000890731D5022104222BE00421012228E028
:100E90001A4900240C604068194D69684A1C6A6050
:100EA00069180873C0B20A2810D168684019807A9E
:100EB0000D280BD16A6828462E3029460C31FFF7E1
:100EC00089F96868A8606C6001202870686821282A
:100ED0000FD36C6002B0B0BD0121022201E00821F5
:100EE0000322084B1A6001600121CA020260490313
:100EF000016002B0B0BDC04620380140BC000020F7
:100F0000C00000201401002086B0DC4DA86B012336
:100F10001843A863A86B1840049004981807696BDD
:100F200001436963696B014005910598D4480168E4
:100F3000D44E31400322920789180160D2480168DB
:100F40000822039211430160016810220A430260E3
:100F5000CE480168194306229143016019022846D0
:100F6000083802680A43026001939A02016811423C
:100F700008D10168114205D10168114202D101680E
:100F80001142F3D000927F2109022A1F13688B437C
:100F900001998903591811600721CA020368934314
:100FA00003600F2000022A6882432A60C8432A682F
:100FB00002402A6028688006400F0BD0286880060F
:100FC000400F07D028688006400F03D028688006AD
:100FD000400FEFD10803296881432960AC4C2046BB
:100FE000FFF7F6FA2046FFF7BDFB28683040711C7A
:100FF00001432960FFF78AFCFFF74CFEFFF7FEFD77
:10100000FFF75CFDFFF7C8FD286830402121090685
:10101000401828609F4801461C390B680422029240
:1010200093430B600B68039A13430B607323C360F5
:1010300003681B0608D403681B0605D403681B0657
:1010400002D403681B06F3D57423C3600468240626
:1010500008D40468240605D40468240602D404686D
:101060002406F3D56124C4600468240608D4046807
:10107000240605D40468240602D404682406F3D5A3
:101080007224C4600468240608D40468240605D4C5
:101090000468240602D404682406F3D5C3600368F8
:1010A0001B0608D403681B0605D403681B0602D47C
:1010B00003681B06F3D52E23C3600468240608D4F6
:1010C0000468240605D40468240602D404682406AF
:1010D000F3D5C3600468240608D40468240605D444
:1010E0000468240602D404682406F3D5C3600368A8
:1010F0001B0608D403681B0605D403681B0602D42C
:1011000003681B06F3D5654C654D009B2678012EC0
:101110000AD1002626702E68761C2E606F687F1C10
:101120006F60642E04D292E02E68642E00D28EE0AE
:101130005C4AAA6000262E600E68029A96430E60F2
:101140000E68039A16430E602E7AC660066836064D
:1011500008D40668360605D40668360602D4066842
:101160003606F3D56E7AC6600668360608D4066879
:10117000360605D40668360602D406683606F3D568
:10118000AE7AC6600668360608D40668360605D408
:101190000668360602D406683606F3D5EE7AC660CF
:1011A0000668360608D40668360605D4066836068C
:1011B00002D406683606F3D53B4E00BF00BF00BF21
:1011C00000BF00BF00BF00BF00BF00BF00BF00BF27
:1011D00000BF00BF00BF00BF00BF00BF00BF00BF17
:1011E00000BF00BF00BF00BF00BF00BF00BF00BF07
:1011F00000BF00BF00BF00BF00BF00BF00BF00BFF7
:1012000000BF00BF00BF00BF00BF00BF00BF00BFE6
:1012100000BF00BF00BF00BF00BF00BF00BF00BFD6
:1012200000BF00BF00BF00BF00BF00BF00BF00BFC6
:1012300000BF00BF00BF00BF00BF4036BDD10E6879
:10124000039A96430E600E68029A16430E601E467D
:10125000193E6F68B74200D858E700266E600E4A04
:1012600016684027019A930532043E401A40009BBD
:1012700092197A40084E726048E7C0460810024052
:1012800020ED00E0FFFFFF000000014000200240D1
:10129000006CDC021C38014014040050B80000202F
:1012A0006800002055AA0D0AC0FEFFFF43088B42CC
:1012B0001AD3002203098B4279D3030A8B425ED3EF
:1012C000030B8B4242D3030C8B4227D30902FF222C
:1012D00012BA030C8B4202D31212090203D0030B81
:1012E0008B4233D31AE0D3E0411A8041401C70474F
:1012F00003460B4371D443088B42F5D30022030904
:101300008B4254D3030A8B4239D3030B8B421DD338
:10131000030C8B4202D394466EE0090AC30B8B4246
:1013200001D3CB03C01A5241830B8B4201D38B03F1
:10133000C01A5241430B8B4201D34B03C01A524196
:10134000030B8B4201D30B03C01A5241C30A8B42D9
:1013500001D3CB02C01A5241830A8B4201D38B02C4
:10136000C01A5241430A8B4201D34B02C01A524168
:10137000030A8B4201D30B02C01A5241CDD2C309DA
:101380008B4201D3CB01C01A524183098B4201D356
:101390008B01C01A524143098B4201D34B01C01A41
:1013A000524103098B4201D30B01C01A5241C308B9
:1013B0008B4201D3CB00C01A524183088B4201D328
:1013C0008B00C01A524143088B4201D34B00C01A14
:1013D0005241411A524110007047CA0F00D0494291
:1013E000031000D34042534000229C4603098B4225
:1013F0002DD3030A8B4212D38901FC2212BA030AAD
:101400008B420CD3890192118B4208D3890192112E
:101410008B4204D3890137D0921100E08909C309B6
:101420008B4201D3CB01C01A524183098B4201D3B5
:101430008B01C01A524143098B4201D34B01C01AA0
:10144000524103098B4201D30B01C01A5241C30818
:101450008B4201D3CB00C01A524183088B4201D387
:101460008B00C01A5241D9D243088B4201D34B00A2
:10147000C01A5241411A00D20146524110466346F9
:101480005B1000D34042704763465B1000D340427C
:1014900001B50021004201D0C9430846C046C046FC
:1014A00002BD00000000000000000000000000007D
:1014B000000000000000000000000000000000002C
:1014C0000000000001000000020000000300000016
:1014D00004000000060000000700000008000000F3
:1014E00009000000000000000000000000000000F3
:1014F00000000000010000000200000003000000E6
:10150000040000002815000800000020080000006A
:101510000401000830150008080000201007000032
:101520002001000800000000006CDC020000000048
:04000005080000C12E
:00000001FF
