:020000040800F2
:10000000680600205D010008C90600089B0300087F
:1000100000000000000000000000000000000000E0
:10002000000000000000000000000000830800083D
:10003000000000000000000081080008850800089A
:100040006F010008000000006F0100086F01000848
:100050006F0100086F0100086F0100086F010008C0
:10006000000000006F0100086F0100086F01000828
:100070006F0100086F0100086F0100080000000018
:100080006F0100086F0100086F0100086F01000890
:100090006F0100086F0100086F0100086F01000880
:1000A0006F0100086F0100086F0100086F01000870
:1000B0006F0100086F01000800F002F800F03EF840
:1000C0000CA030C8083824182D18A246671EAB466D
:1000D00054465D46AC4201D100F030F87E460F3EFA
:1000E0000FCCB6460126334200D0FB1AA246AB46DF
:1000F00033431847C0080000E0080000103A02D35C
:1001000078C878C1FAD8520701D330C830C101D5B8
:1001100004680C60704700000023002400250026BE
:10012000103A01D378C1FBD8520700D330C100D5B3
:100130000B6070471FB51FBD10B510BD00F0FAF879
:100140001146FFF7F7FF00F0F3FB00F012F903B4DC
:10015000FFF7F2FF03BC00F019F9000007488047E1
:1001600007480047FEE7FEE7FEE7FEE7FEE7FEE79B
:1001700004480549054A064B704700002D09000850
:10018000B90000086800002068060020680200200E
:100190006802002001E004C0091F0429FBD28B077C
:1001A00001D50280801CC90700D002707047002969
:1001B0000BD0C30702D00270401C491E022904D391
:1001C000830702D50280801C891EE3E70022EEE748
:1001D0000022DFE7002203098B422CD3030A8B4263
:1001E00011D300239C464EE003460B433CD400222F
:1001F00043088B4231D303098B421CD3030A8B4241
:1002000001D394463FE0C3098B4201D3CB01C01A0E
:10021000524183098B4201D38B01C01A52414309D9
:100220008B4201D34B01C01A524103098B4201D3C7
:100230000B01C01A5241C3088B4201D3CB00C01A34
:10024000524183088B4201D38B00C01A52414308AC
:100250008B4201D34B00C01A5241411A00D20146D1
:100260005241104670475DE0CA0F00D0494203106A
:1002700000D34042534000229C4603098B422DD3B9
:10028000030A8B4212D3FC22890112BA030A8B4261
:100290000CD3890192118B4208D3890192118B42B0
:1002A00004D389013AD0921100E08909C3098B4235
:1002B00001D3CB01C01A524183098B4201D38B0178
:1002C000C01A524143098B4201D34B01C01A52411B
:1002D00003098B4201D30B01C01A5241C3088B4260
:1002E00001D3CB00C01A524183088B4201D38B004B
:1002F000C01A5241D9D243088B4201D34B00C01AD5
:100300005241411A00D20146634652415B101046E9
:1003100001D34042002B00D54942704763465B1031
:1003200000D3404201B50020C046C04602BD704720
:1003300070477047754600F025F8AE4605006946DF
:100340005346C008C000854618B020B5FFF710FF1F
:1003500060BC00274908B6460026C0C5C0C5C0C558
:10036000C0C5C0C5C0C5C0C5C0C5403D49008D465B
:10037000704710B50446C046C0462046FFF7E7FE6A
:1003800010BD0000004870470400002001491820FB
:10039000ABBEFEE7260002007047FEE7F0B5002482
:1003A0004DE00123A3401A4048D04B68012B01D0F7
:1003B000022B10D18E688568134653435F00DF1906
:1003C000BD4373431D438560CD680B6846689E43FB
:1003D0006B431E4346600F69C668134653435D0076
:1003E0005D19AE435F433E43C6604E68022E1FD187
:1003F000FF2A0ED817464A69066A94461A467A4377
:100400007A431701BF1ABE4367467A431643066212
:100410000EE0160A324672434F6972437243BC467D
:100420001601B71A466ABE4367467A4316434662C8
:100430004A6806685343AE431E430660641C0A685C
:100440001346E340ADD10020F0BD000010B57D2182
:10045000C900FFF7BFFE0449401E486100208861C3
:100460000520086110BD000000E000E001490860BF
:100470007047000000000020F0B50268194B1A4CCC
:10048000984201D0A04203D17025AA434D682A4367
:10049000164D174E174F98420AD0A04208D0164C5E
:1004A000A04205D0A84203D0B04201D0B84204D146
:1004B00003242402A243CC68224302608A68C262F9
:1004C0000A888262984205D0A84203D0B04201D087
:1004D000B84201D1096901634169012211434161B7
:1004E0000020F0BD002C014000040040004001400D
:1004F00000440140004801400020004070B50B4618
:100500000121012B39D0102B3BD0FF3B5B1E3DD08E
:100510000F242402A3422ED1016A01252D03A943F1
:100520000162036A4168C46973263602B4431668DF
:10053000360234436E00B343166936033343AB438C
:1005400055682D032B43134DA84208D0124DA842E5
:1005500005D0124DA84202D0114DA84205D1012567
:10056000AD03A9439569AD0129434160C461D168D8
:10057000016403620021084670BD114600F0A6F830
:1005800002E0114600F0E8F80146F4E7114600F0F9
:100590002BF9F9E7002C01400040014000440140E4
:1005A0000048014008B506490A690092421C00D083
:1005B000401C0A69D20300D5401E0028F9D108BDAD
:1005C00000E000E008B505480121426949040A43FA
:1005D000426140690840009008BD000000100240E0
:1005E000F0B595B014216846FFF7F2FD202105A86B
:1005F000FFF7EEFD18210DA8FFF7EAFD2E4F0220B0
:10060000F9690143F961F96900260140FF2013915E
:10061000E030694608806320284C029001960396DA
:100620002046FFF729FF2068802108432060A0684A
:1006300023490840A06023480178204818300D184D
:1006400028682049C91D0A7808219140084328607C
:10065000602005901E2008900696079605AA0121A5
:1006600009962046FFF74AFF28681649C91D0A78EF
:10067000042191408843286060687021884360604D
:10068000A16880208143A16079698002014379617A
:1006900079690F96014040200D90139102200E9031
:1006A000119001201290092010960DA9C006FFF7A5
:1006B00075FE15B0F0BD00000010024000040040BF
:1006C000F8BFFFFFA4090008FEE7000030B5026A8A
:1006D000520852000262026A436884697025A408C5
:1006E000A400AC430D682C430225AA430D692A439C
:1006F00052084D6852002A43134DA84208D0134DAA
:10070000A84205D0124DA84202D0124DA84214D1E1
:100710000825AA434D69AD002A430425AA438D68E4
:10072000AD002A43FF250135AB438D692B430125DD
:100730006D02AB43CD696D002B4343608461C96892
:1007400041630262002030BD002C014000400140A6
:10075000004401400048014070B5026A1025AA43D8
:100760000262026A4368846973263602B4430E68E3
:10077000360234432026B2430E6936013243AA437F
:100780004D682D012A43144DA84208D0134DA842AC
:1007900005D0134DA84202D0124DA84215D1802594
:1007A000AA434D69AD012A434025AA438D68AD0196
:1007B0002A430125AD02AB438D69AD002B430125D2
:1007C000ED02AB43CD69ED002B4343608461C96802
:1007D00081630262002070BD002C01400040014096
:1007E000004401400048014070B5026AFF25013510
:1007F000AA430262026A4368C4697026A408A4007E
:10080000B4430E6834436E00B2430E69360232437D
:10081000AA434D682D022A43154DA84208D0154D14
:10082000A84205D0144DA84202D0144DA84217D1B9
:100830000125ED02AA434D69AD022A430125AD020F
:10084000AA438D68AD022A4301252D03AB438D6970
:100850002D012B4301256D03AB43CD696D012B4366
:100860004360C461C968C1630262002070BD0000BA
:10087000002C01400040014000440140004801407C
:10088000704770477047000010B525480121026885
:100890008A430A4302600168C907C90FFBD0214897
:1008A000016801221143016001688907C90FFBD06B
:1008B0000168F822914380221143016041687B2244
:1008C000D20391432122D20311434160C16A090935
:1008D0000901C16201680122120611430160016829
:1008E0008901C90FFBD04168F02291434160416802
:1008F000072212029143416042680221920892004D
:100900000A4342600C22416811400829FBD1064C81
:100910002046FFF79BFD2046FFF7A8FD10BD000015
:100920000020024000100240006CDC027047000012
:1009300008B51948012182690A4382618169C907A2
:10094000C90F0091C26901040A43C261C06908402D
:1009500000901248C16903220902090A9207114353
:10096000C161FFF791FFFFF72DFEFFF739FE0C4C39
:100970000120216A0143216220680121084320608F
:10098000E16A606B884201D2401C00E00020606395
:100990006420FFF707FEF3E70010024004ED00E0DB
:1009A00000040040000000000404040000080000EF
:1009B00000080000D4090008000000200400000026
:1009C000FC000008D80900080400002064060000AC
:0809D0001801000800127A0072
:04000005080000B936
:00000001FF
