:020000040800F2
:100000007806002065010008A10D00082105000800
:1000100000000000000000000000000000000000E0
:10002000000000000000000000000000A50D000816
:100030000000000000000000A30D0008A70D00084C
:100040007701000800000000770100087701000830
:10005000770100080902000877010008770100080D
:100060000000000077010008770100087701000810
:100070007701000877010008770100080000000000
:100080007701000800000000000000007701000870
:1000900000000000770100087701000877010008E0
:1000A000000000007701000800000000B90D000802
:1000B00077010008000000000000000000000000C0
:1000C00000F002F800F03EF80CA030C80838241800
:1000D0002D18671EA246AB4654465D46AC4201D180
:1000E00000F030F87E460F3EB6460FCC0126334274
:1000F00000D0FB1A3343A246AB461847F810000065
:1001000018110000103A02D378C878C1FAD8520703
:1001100001D330C830C101D504680C6070470000BD
:100120000023002400250026103A01D378C1FBD813
:10013000520700D330C100D50B6070471FB51FBDFB
:1001400010B510BD00F02DF81146FFF7F7FF00F0D5
:1001500035FE00F045F803B4FFF7F2FF03BC00F0F2
:100160004BF800000748804707480047FEE7FEE7D6
:10017000FEE7FEE7FEE7FEE704480549054A064BB1
:1001800070470000A90D0008C10000087800002099
:10019000780600207802002078020020704770471F
:1001A0007047754600F024F8AE4605006946534690
:1001B000C008C000854618B020B5FFF7DDFF60BC61
:1001C000B64600260027C0C5C0C5C0C5C0C5C0C54D
:1001D000C0C5C0C5C0C5403D490849008D467047EF
:1001E00010B50446C046C0462046FFF7B4FF10BD18
:1001F000004870470800002001491820ABBEFEE708
:10020000260002007047000003480168890701D5F5
:10021000022101607047C04610180240F0B581B05D
:10022000BA480168090708D40168090705D40168BC
:10023000090702D401680907F3D57F214904026840
:100240000A402D2189048A4218D101684268082396
:1002500013434360C90328D40168890638D4AD49E3
:1002600002E00268920633D402685207F9D5C268E8
:100270000B78CC1862705A1C0A70F2E741680822A9
:100280000A434260A24D40262E607D20C40001201A
:100290008705281F00680104304039400818704065
:1002A0002860204600F0FCFBF3E7994D40262E60C5
:1002B0007D20C40001208705281F0068010430400C
:1002C0003940081870402860204600F0E9FBF3E749
:1002D000426820210A4342608F487222C26002684D
:1002E000120608D40268120605D40268120602D467
:1002F00002681206F3D56522C26003681B0608D4A3
:1003000003681B0605D403681B0602D403681B069A
:10031000F3D56123C36003681B0608D403681B067A
:1003200005D403681B0602D403681B06F3D56423B7
:10033000C3600468240608D40468240605D404684D
:10034000240602D404682406F3D5C26002681206AB
:1003500008D40268120605D40268120602D40268A4
:100360001206F3D5C3600268120608D402681206AA
:1003700005D40268120602D402681206F3D5C160E1
:100380000168090608D40168090605D40168090650
:1003900002D401680906F3D55E490A78D5B26A1E0F
:1003A0003ED003231340AC1E002B12D04A78C2600B
:1003B0000268120608D40268120605D40268120602
:1003C00002D402681206F3D5012B04D18B1C2246FD
:1003D00024E04B1C22E08A78C2600268120608D42E
:1003E0000268120605D40268120602D402681206D8
:1003F000F3D5022B02D1CB1CEA1E0FE0CA78C260F3
:100400000268120608D40268120605D402681206B1
:1004100002D402681206F3D50B1D2A1F032C29D221
:100420000878401E02063A4D1DD0491C3B4A1378FD
:100430000C789C4257D1C3B2012B14D054784E781B
:10044000A64250D1022B0ED094788E78A6424AD183
:10045000032B08D0D378CC789C4244D1121D091DBF
:10046000001F0306E3D14020286101B0F0BD1B1D31
:10047000121FD5D01C78C4600468240608D4046810
:10048000240605D40468240602D404682406F3D59F
:100490005C78C4600468240608D40468240605D483
:1004A0000468240602D404682406F3D59C78C4604A
:1004B0000468240608D40468240605D404682406C5
:1004C00002D404682406F3D5DC78C46004682406EA
:1004D000CDD404682406CAD404682406C7D40468AA
:1004E0002406F3D5C3E740262E607D20C4000120FA
:1004F0008705281F00680104304039400818704003
:100500002860204600F0CCFAF3E7C04618540040BB
:1005100018040050680000201C380140EC1100084D
:10052000FEE70000014602680079002814D0002A86
:100530001BD0487902281AD001281CD0002834D1B9
:1005400023484368934343600368134303600020D8
:10055000897903291AD92CE01D480168914301606B
:10056000416891434160002070470020704718485F
:100570000368134302E0164803689343036043682B
:100580001343436000208979032912D879440979FB
:1005900049008F4401021014E6E70E494B6893436B
:1005A0004B600B6813430B60704701208979032966
:1005B000ECD90120704707490B68934302E00549D5
:1005C0000B6813430B604B6813434B607047C04686
:1005D0008018024000180240F0B584B00E460A6848
:1005E00011BA0B09744C23402140090159188B089A
:1005F000724C23402140890059184B08704C23400D
:10060000214049005B182027002A394605D1002BDC
:100610000CD11146F9400ED1C0E051421140694C55
:100620006143C90E68A4615C002BF2D00F461146ED
:10063000F94000D1B2E0039002960EE09300716998
:1006400099400F229A40036A93430B4303627F1C35
:1006500032681146F94000D1A0E00125BD401540A7
:10066000F5D029BA0A09544B1A401940090151180A
:100670008A08524B1A401940890051184A08504BB9
:100680001A401940490051180368766809D0002DB6
:1006900009D06A422A404B484243D20E4AA0825CAB
:1006A00002E0402404E0202254000322A2409343AD
:1006B0003246A2401A4303980260721E012A1BD8D8
:1006C00084680298836800290AD0002D009109D01F
:1006D0006A422A403B484243D20E3BA0825C02E081
:1006E000402205E020225200032191408C430099D2
:1006F0009340234303988360C36800290AD0002DE8
:1007000001960BD0684228402E494843C00E2EA1C6
:100710000A5C04E0022E029E99D110E02022029E83
:1007200030695100884003248C40A343034303985D
:10073000C360019902298AD1290600D07EE70346C9
:100740002C0A20BA0109284A11401040000108185B
:100750008108264A11401040800008184108184AB4
:10076000114010404000081872695B6A09D0002CE3
:100770000AD06042204013494843C00E12A1095CD0
:1007800003E08021039805E02021039889000F24CD
:100790008C40A3438A401A43426258E77168491E5D
:1007A000012905D8F36853434168914319434160D7
:1007B000002004B0F0BDC0460F0F0F0F33333333AA
:1007C0005555555531B57C0700011C021D0E180307
:1007D0001E16140F191104081F1B0D1715131007EF
:1007E0001A0C12060B050A09000F0F0F00333333E2
:1007F000B0B503680122934303608B68CC68240280
:100800001C431F231B0205689D43254305604B685D
:10081000036103681343036084680F4B1C408460CA
:1008200084680E4D25408C692C430D692C438460EF
:10083000002D03D0D2038468144384600322120580
:10084000046894430A682243026042681A40496976
:10085000114341600020B0BDFF7FFFFF00F8FFFFA4
:1008600080B57D21C90000F095FB401E9C49486081
:10087000002088600520086080BDC04610B5124980
:100880000A6838231340082B01D13D4A06E00A4686
:10089000083A12689204530F384ADA4002600B6833
:1008A0009B093C241C40384B1B591F242340DA4031
:1008B00042600968890A1C230B403249C95821400B
:1008C000CA40826010BDC0460810024010B5014603
:1008D0000020032949D125494A6D03231A401B04EE
:1008E000D218234B9A420CD0224B9A420FD0224866
:1008F000824217D1886838220240082A19D120483C
:1009000010BD0120C203C86D8003104010BD0A68ED
:1009100052052AD508680006400F411C174800F010
:1009200039FB10BD886838220240082A07D11448D4
:100930000AE008688004410F1048C84010BD0868EC
:100940008004420F0D48D0408A688968890A1C23B8
:100950000B400C49C9581F23194092093C241440EC
:10096000094A12591A40D040C84010BD0010024038
:10097000030003000200030001000300006CDC021E
:1009800000127A00CC1100088C110008014908609F
:100990007047C04600000020F0B583B004460068F0
:1009A000C00726D10D4620682D490140A86808439C
:1009B0002969014368690843E9690143216003200B
:1009C000010362688A43E968114361600002A1681B
:1009D0008143A8690843A0600126224884420CD0C4
:1009E0002148844233D10320FFF770FF00280AD149
:1009F0002DE00126304603B0F0BD6846FFF73EFF0C
:100A00000298002823D06F68002F20D02968002684
:100A10000B291CD8890015A2515800F0BBFA0121FE
:100A2000C903EA698A420BD1790840004018394667
:100A300000F0B0FA194901400007400F401805E0E6
:100A400079084018394600F0A5FA80B2E060E06A03
:100A50000F21884329880143E162304603B0F0BD8D
:100A6000F369FFEF0044004000380140010000003E
:100A70000200000004000000060000000800000062
:100A80000A0000000C000000100000002000000020
:100A9000400000008000000000010000F0FF0000A6
:100AA00081B00F490A680092401C01D30020C04366
:100AB000009A0A68D203D21710180ED00A68D2031F
:100AC000D217101809D00A68D203D217101804D010
:100AD0000A68D203D2171018EBD101B07047C04694
:100AE00010E000E0F0B589B0264807900221069199
:100AF00000260596A648026801252A43026002687E
:100B00002A400892089A02680A43026002680A4072
:100B1000089208990168042421430160006820407C
:100B2000089008984B484027876207200002164922
:100B30000A6882430A6006A8FFF7F4FC0520000754
:100B4000C168214308229143C16001680C2291438E
:100B500001600496039602960195009769463D4808
:100B6000FFF73AFD280409490A6802430A60FF209A
:100B7000000207490A6882430A6087482021016011
:100B800009B0F0BD01000200601802400000014001
:100B900004E400E0F0B58FB0032000037C4F396A15
:100BA0008143396238680226304338603868304003
:100BB000079007983868042108433860386808406F
:100BC00007900E2000900690012505950495039648
:100BD00002968020019007981E4801AC2146FFF73D
:100BE000FBFC009806900595049503960296A803D1
:100BF000019019482146FFF7EFFC6805B9680143E9
:100C0000B960B96801400E9100200D900C90B4219C
:100C10000B910A9609901149089107900E98104C73
:100C200007A92046FFF7E4FD68066168014361609B
:100C3000E0680C490140E160E803E1688143E1605C
:100C4000E8042168814321606804216881432160B0
:100C50000FB0F0BD00040050000800505B3D3000B4
:100C60000054004001F8FFFFF0B58FB04848016A1A
:100C70000322914301620126B103C2680A43C260A4
:100C8000C2680A4007920799016831430160006811
:100C90003040079006960027059704970397022097
:100CA000009002907002019007980520040701ADA2
:100CB00020462946FFF790FC069605970497039770
:100CC00000980290B002019020462946FFF784FC6C
:100CD000FF2000062F490A6882430A60F0062E4969
:100CE00008600E970D970C200C900B970A970997A8
:100CF0002A4808900797A54D2C461C3C07A920467A
:100D0000FFF74AFEEFF3108186F31088072253079E
:100D10002846143807689F43076081F31088EFF373
:100D2000108186F31088520603689343036081F3B1
:100D30001088710722688A4322600921C9022A4665
:100D4000183A13688B43136001682A2291430160AB
:100D50002068304320607005B1052A68024202D045
:100D60002A680A4211D12A68024202D02A680A423D
:100D70000BD12A68024202D02A680A4205D12A68A9
:100D80000242EAD02A680A42E7D00FB0F0BDC0465E
:100D90003410024018E400E000E100E040420F009F
:100DA00070477047704770470120C00601490860CE
:100DB0007047C04608ED00E07047000082B06F4801
:100DC000826B01210A438263826B0A400092009A7F
:100DD0000A07436B13434363436B13400193019A28
:100DE000674A136808241C431460136810241C43CA
:100DF0001460644A13680B430624A34313600B0278
:100E00000246083A14681C4314608B0214681C42A2
:100E100008D114681C4205D114681C4202D1146820
:100E20001C42F3D07F231B02041F25689D438903C6
:100E3000691821600721CB0214689C4314600F22BB
:100E40001202036893430360CA43036813400360BC
:100E500002689206520F0BD002689206520F07D01A
:100E600002689206520F03D002689206520FEFD129
:100E7000090302688A430260434C2046FFF7F0FCF6
:100E80002046FFF783FDFFF72DFEFFF783FEFFF7F8
:100E9000EBFE3E487321C1600168090608D4016871
:100EA000090605D40168090602D401680906F3D5CC
:100EB0007421C1600268120608D40268120605D4C3
:100EC0000268120602D402681206F3D56122C260DB
:100ED0000268120608D40268120605D402681206D7
:100EE00002D402681206F3D57222C26002681206AA
:100EF00008D40268120605D40268120602D40268F9
:100F00001206F3D5C1600168090608D40168090614
:100F100005D40168090602D401680906F3D52E211B
:100F2000C1600268120608D40268120605D402687D
:100F3000120602D402681206F3D5C16002681206D6
:100F400008D40268120605D40268120602D40268A8
:100F50001206F3D5C1600168090608D401680906C4
:100F600005D40168090602D401680906F3D50848CA
:100F700040210160FFF752F9FCE7C046081002402B
:100F80000000014000200240006CDC021C380140DF
:100F90001804005043088B421AD3002203098B42E5
:100FA00079D3030A8B425ED3030B8B4242D3030CEB
:100FB0008B4227D30902FF2212BA030C8B4202D3C1
:100FC0001212090203D0030B8B4233D31AE0D3E091
:100FD000411A8041401C704703460B4371D44308BB
:100FE0008B42F5D3002203098B4254D3030A8B4270
:100FF00039D3030B8B421DD3030C8B4202D394468F
:101000006EE0090AC30B8B4201D3CB03C01A5241D5
:10101000830B8B4201D38B03C01A5241430B8B428B
:1010200001D34B03C01A5241030B8B4201D30B0374
:10103000C01A5241C30A8B4201D3CB02C01A52419B
:10104000830A8B4201D38B02C01A5241430A8B425E
:1010500001D34B02C01A5241030A8B4201D30B0247
:10106000C01A5241CDD2C3098B4201D3CB01C01A61
:10107000524183098B4201D38B01C01A524143096B
:101080008B4201D34B01C01A524103098B4201D359
:101090000B01C01A5241C3088B4201D3CB00C01AC6
:1010A000524183088B4201D38B00C01A524143083E
:1010B0008B4201D34B00C01A5241411A52411000D9
:1010C0007047CA0F00D04942031000D3404253403A
:1010D00000229C4603098B422DD3030A8B4212D374
:1010E0008901FC2212BA030A8B420CD389019211A6
:1010F0008B4208D3890192118B4204D3890137D0E6
:10110000921100E08909C3098B4201D3CB01C01AB7
:10111000524183098B4201D38B01C01A52414309CA
:101120008B4201D34B01C01A524103098B4201D3B8
:101130000B01C01A5241C3088B4201D3CB00C01A25
:10114000524183088B4201D38B00C01A5241D9D23D
:1011500043088B4201D34B00C01A5241411A00D2BE
:1011600001465241104663465B1000D3404270472F
:1011700063465B1000D3404201B50021004201D01C
:10118000C9430846C046C04602BD0000000000003A
:10119000000000000000000000000000000000004F
:1011A000000000000000000000000000010000003E
:1011B0000200000003000000040000000600000020
:1011C0000700000008000000090000000000000007
:1011D000000000000000000000000000010000000E
:1011E0000200000003000000040000004C45442001
:1011F0004F4E0000181200080000002008000000F8
:1012000004010008201200080800002070060000F9
:101210002001000800000000006CDC02000000005B
:04000005080000C12E
:00000001FF
