:020000040800F2
:1000000000180020ED0600085D0400085F040008E9
:1000100000000000000000000000000000000000E0
:100020000000000000000000000000006104000863
:1000300000000000000000006304000865040008E0
:100040003D070008000000003D0700083D070008CC
:100050003D0700083D0700083D0700083D07000870
:10006000000000003D0700083D0700083D070008AC
:100070003D070008690400083D0700080000000073
:100080003D07000800000000000000003D070008D8
:10009000000000003D0700083D0700083D0700087C
:1000A000000000003D070008000000008504000873
:1000B0003D070008000000000000000000000000F4
:1000C00010B5064C2378002B07D1054B002B02D02E
:1000D000044800E000BF0123237010BD040000208D
:1000E00000000000F00C0008044B10B5002B03D0FA
:1000F0000349044800E000BF10BDC04600000000F6
:1001000008000020F00C0008002243088B4274D342
:1001100003098B425FD3030A8B4244D3030B8B4208
:1001200028D3030C8B420DD3FF22090212BA030C11
:100130008B4202D31212090265D0030B8B4219D3F2
:1001400000E0090AC30B8B4201D3CB03C01A524112
:10015000830B8B4201D38B03C01A5241430B8B425A
:1001600001D34B03C01A5241030B8B4201D30B0343
:10017000C01A5241C30A8B4201D3CB02C01A52416A
:10018000830A8B4201D38B02C01A5241430A8B422D
:1001900001D34B02C01A5241030A8B4201D30B0216
:1001A000C01A5241CDD2C3098B4201D3CB01C01A30
:1001B000524183098B4201D38B01C01A524143093A
:1001C0008B4201D34B01C01A524103098B4201D328
:1001D0000B01C01A5241C3088B4201D3CB00C01A95
:1001E000524183088B4201D38B00C01A524143080D
:1001F0008B4201D34B00C01A5241411A00D2014632
:10020000524110467047FFE701B5002000F006F8A4
:1002100002BDC0460029F7D076E770477047C04658
:100220001C2101231B04984201D3000C10391B0A26
:10023000984201D3000A08391B09984201D30009EA
:10024000043902A2105C40187047C0460403020241
:10025000010101010000000000000000054B82B018
:100260005A6B02435A635B6B18400190019B02B0CA
:100270007047C04600100240F0B587B01822002138
:10028000684600F02DFD2020FFF7E8FF0120FFF772
:10029000E5FF402680270220FFF7E0FF002404232B
:1002A0000F4D6946AE620F48AF620093019404940B
:1002B00000F045FA03236946009628003F3E02936A
:1002C00001960394049400F03AFA694628000097D6
:1002D000019602940394049400F031FA07B0F0BD43
:1002E00000040050001400508022034B9862D9692A
:1002F0001142FCD07047C0460038014010B50400E0
:100300002078002800D110BD0134FFF7EDFFF7E79A
:1003100007221A4910B50B6893431A0001231343AF
:1003200080220B60164B520019680A431A60802223
:10033000D20019681142FCD05A681249114080223B
:10034000D2010A435A601A680F490A401A609A6833
:100350000E490A4007219A609A688A439A603822B7
:1003600099681142FCD19A6809490A480A409A6082
:1003700000F066FC074800F089FC10BD0020024038
:1003800000100240FF80FFFFFFC7FFFFFFF0FFFFED
:10039000FF8FFFFF006CDC0237B50121294CFA25E5
:1003A000226CAD000A432264236C0B408021019330
:1003B000019BE26B49050A43E263C022E36B12062C
:1003C0000B4021490093009B0B6A1B021B0A13433D
:1003D00008220B621D4B19680A431A601022196823
:1003E0000A431A60FFF794FF8422A36892051B0258
:1003F0001B0A1343A360FFF73FFF802400F0BEF801
:1004000000F060F81248FFF779FFE403280000F0DD
:1004100027FC104B1A78012A01D100221A704021C2
:100420000D4A50690304814323400B4380219361AB
:100430005069090403040B40802181430B439361FD
:10044000E4E7C0460010024000ED00E0000001407B
:10045000080D00082000002000040050FEE7FEE721
:100460007047704770470000054B10B51A69D207F6
:1004700002D5022252421A6100F07AF810BDC0463D
:10048000002C01402022084BD96911420AD019687A
:10049000114207D00121054A11705A6A04490A70B5
:1004A000D2B29A627047C046003801402000002056
:1004B000210000208022024B12059A607047C0463E
:1004C00000ED00E030B587B001AD14220021280016
:1004D00000F006FC80201F4A0001116C01431164EA
:1004E000C321136C890003400093009B1A4B1B48E7
:1004F0005A5802405A50802292011A60184B092221
:100500002B800023174C290020006B60AA60EB6051
:100510002B6100F0E7FA802223681349934323609C
:10052000A3680B407021A36063688B4363606368BA
:100530000E490B406360A3689343A36002235B42B0
:100540002361E26803331A43E260226813432360A5
:1005500007B030BD0010024000E100E0FF00FFFFE7
:100560007FBBFFFF002C0140F8BFFEFFFFFF0FFF26
:100570000122014B1A7070472200002070B503243D
:1005800090B02022002108A800F0AAFB0822002138
:1005900005A800F0A5FB802001254D4BC0015A6D38
:1005A0000226A2435A65196C014319641A6C02A908
:1005B00002400192019A5A6BA0202A435A635B6B56
:1005C000C0052B400093009B80239B000293039661
:1005D0000494079500F0B3F88023A020049400242D
:1005E00003968026DB0002A9C005029305940694B9
:1005F000079500F0A4F8374BF6031A6832431A60E7
:100600008022196812040A43C6211A60324A8900FE
:1006100053581B021B0A535080231B051360E12310
:100620005B0209930C2308940A940B940C940E9487
:100630000F942A4C08A920000D9300F093FAEFF3D1
:10064000108285F31088A368DB00DB08A36082F3C7
:100650001088EFF3108285F310882149A3680B40BE
:10066000A36082F310881F4A2368134023606368E5
:100670001D4A13402A226360A36893438022A3602B
:10068000236892031D432560E3691342FCD0E369AC
:100690003342F9D0082302222362043B2362033B46
:1006A00023622262EFF3108183F3108820681E32E8
:1006B0000243226081F31088EFF3108283F31088E5
:1006C000A1680B43A36082F3108810B070BDC046D0
:1006D000001002400000014000E100E0003801404D
:1006E000FFFFFFF1FFFFFFDFFFB7FFFF0D4885466C
:1006F000FFF7E0FE002103E00B4B5B584350043151
:100700000A480B4B42189A42F6D30A4A02E00023E9
:1007100013600432084B9A42F9D300F0BDFAFFF798
:100720003BFEFEE700180020AC0D00080000002092
:10073000040000200400002024000020FEE7F0B5A3
:1007400087B00B6802911F220121019305000198D7
:100750005B08002B1ED190402033002802D0FFF709
:100760005FFDC3B20393029B039A5B680493019BF2
:10077000D34016D1049B013B012B08D86B68019A2A
:1007800001999343029AD2684A4313436B60002055
:1007900007B0F0BD1C0040000C402043013A5B084C
:1007A000D7E70123039A019C9340019A1C401A4207
:1007B00000D1D3E06608200033001F222F68002BF1
:1007C00070D190402033002802D0FFF729FDC3B23A
:1007D00003225B009A402000974333001F22002B26
:1007E00067D190402033002802D0FFF719FDC3B233
:1007F000049A5B009A40049B1743013B2F60012B36
:1008000024D8029B20009B681F2205933300AF6809
:10081000002B55D190402033002802D0FFF700FD77
:10082000C3B203225B009A402000974333001F228B
:10083000002B4CD190402033002802D0FFF7F0FC71
:10084000C3B2059A5B009A401743AF60029B200039
:100850001B691F2205933300EF68002B3ED19040A7
:100860002033002802D0FFF7DBFCC3B203225B0079
:100870009A402000974333001F22002B35D190402F
:100880002033002802D0FFF7CBFCC3B2059A5B00EF
:100890009A40049B1743EF60022B5FD12000330086
:1008A0001F222FE00121400019400843013A5B0854
:1008B00085E70121400019400843013A5B088EE7B3
:1008C0000121400019400843013A5B08A0E70121DB
:1008D000400019400843013A5B08A9E701214000A4
:1008E00019400843013A5B08B7E70121400019406D
:1008F0000843013A5B08C0E7012140001940084362
:10090000013A5B08002BF7D1029B90405B6904938E
:1009100035D0FFF785FC072831DC200033001F228B
:100920002F6A002B1DD190402033002802D0FFF702
:1009300077FCC3B20F229B009A401F239743002EDF
:1009400016D1200098402023002802D0FFF768FC31
:10095000C3B2049A9B009A4017432F62039B013352
:1009600000E70121400019400843013A5B08D8E73D
:100970000120640030400443013B7608DFE7260A8B
:10098000640A300023001F226F6A002B1BD19040A5
:100990002033002802D0FFF743FCC3B20F229B0094
:1009A0009A401F239743002C14D1300098402023F5
:1009B000002802D0FFF734FCC3B2049A9B009A408F
:1009C00017436F62CAE70121400019400843013A0A
:1009D0005B08DAE70120760020400643013B64080B
:1009E000E1E700003821064A93680B40082B05D048
:1009F000136804489B045B0FD84070470248FCE72B
:100A000000100240006CDC0200127A00054B064A1E
:100A10009B681B051B0F9B009B581F221340D8404F
:100A20007047C04600100240140D0008054B064AEE
:100A30009B685B045B0F9B009B581F221340D840B0
:100A40007047C04600100240540D000810B5040065
:100A5000FFF7C8FF2060FFF7D9FF6060FFF7E6FFF0
:100A6000A06010BD020010B50020032A10D1184B61
:100A7000586D0240C02080021043164A904208D0B0
:100A8000154A904214D0154B98421AD1FFF7AAFF8D
:100A900010BD196880220800D20010401142F7D022
:100AA00019680F480906490F0131FFF72DFBEFE7E1
:100AB000DA6D0223100018401A42E9D080200002AB
:100AC000E6E7FFF78FFFFFF7A1FFFFF7AFFFDFE7D5
:100AD00000100240020003000300030001000300B5
:100AE000006CDC02194A10B50368904202D0184C21
:100AF000A04208D17024A3434C68234390420BD0FA
:100B0000134CA04208D0134CA04205D0124CA04276
:100B100002D0124CA04203D1114C2340CC68234395
:100B200003608B68C3620B888362904205D00A4BD6
:100B3000984202D0094B984201D10B69036301230B
:100B4000426913434361002010BDC046002C0140A0
:100B500000040040002000400044014000480140E3
:100B6000FFFCFFFFF0B50126036804000D0085B00F
:100B7000334248D18B68096902680B4369690B43AA
:100B8000E9690B4327490A40134303604368264A37
:100B90001340EA68134343608368244A1340AA69F8
:100BA00013438360224B984222D10320FFF75AFF60
:100BB000002820D06F68002F1DD02B6800260B2B3B
:100BC0001AD81C4A9B009958FFF79EFA8022E969BF
:100BD0007B08120291421ED14000C0183900FFF775
:100BE00093FA154B03400007400F1843E06003E001
:100BF000124B98420AD001260F22E16A2B689143DA
:100C00009BB20B43E362300005B0F0BD01A8FFF7D3
:100C10001DFF0398CCE73900C018FFF775FA80B2C2
:100C2000E4E7C046F369FFEFFFCFFFFFFFFCFFFFE4
:100C300000380140740D0008F0FF0000004400403F
:100C4000FA2110B58900FFF75FFA0022034B013843
:100C500058609A6005321A6010BDC04610E000E08E
:100C6000094A82B013680193019B431C591E8B41B2
:100C7000C01880235B02002801D102B070471168C0
:100C80001942F8D00138F6E710E000E0014B186097
:100C90007047C0460000002070B500260C4D0D4C7A
:100CA000641BA410A64209D1002600F021F80A4DC9
:100CB0000A4C641BA410A64205D170BDB300EB58CA
:100CC00098470136EEE7B300EB5898470136F2E754
:100CD000A40D0008A40D0008A40D0008A80D00082C
:100CE00003008218934200D1704719700133F9E76D
:100CF000F8B5C046F8BC08BC9E467047F8B5C0467B
:080D0000F8BC08BC9E467047D8
:100D0800737461727431372E2E2E000000000000BB
:100D180000000000000000000000000000000000CB
:100D280000000000000000000000000001000000BA
:100D3800020000000300000004000000060000009C
:100D48000700000008000000090000000000000083
:100D5800000000000000000000000000010000008A
:100D68000200000003000000040000000100000071
:100D78000200000004000000060000000800000057
:100D88000A0000000C000000100000002000000015
:0C0D98004000000080000000000100008E
:040DA400E90000085A
:040DA800C10000087E
:040DAC00006CDC02F9
:04000005080006EDFC
:00000001FF
