:020000040800F2
:10000000180900206501000845110008E9080008EA
:1000100000000000000000000000000000000000E0
:10002000000000000000000000000000491100086E
:100030000000000000000000471100084B110008FC
:100040007701000800000000770100087701000830
:1000500077010008770100087701000877010008A0
:100060000000000077010008770100087701000810
:100070007701000865110008770100080000000002
:100080007701000800000000000000007701000870
:1000900000000000770100087701000877010008E0
:1000A0000000000077010008000000009511000822
:1000B00077010008000000000000000000000000C0
:1000C00000F002F800F03EF80CA030C80838241800
:1000D0002D18671EA246AB4654465D46AC4201D180
:1000E00000F030F87E460F3EB6460FCC0126334274
:1000F00000D0FB1A3343A246AB4618471418000041
:1001000034180000103A02D378C878C1FAD85207E0
:1001100001D330C830C101D504680C6070470000BD
:100120000023002400250026103A01D378C1FBD813
:10013000520700D330C100D50B6070471FB51FBDFB
:1001400010B510BD00F05AF81146FFF7F7FF01F0A7
:100150004BF800F072F803B4FFF7F2FF03BC00F0B5
:1001600079F800000748804707480047FEE7FEE7A8
:10017000FEE7FEE7FEE7FEE704480549054A064BB1
:100180007047000055110008C10000081803002046
:10019000180900201805002018050020034610B596
:1001A0000B439B070FD1042A0DD308C810C9121F97
:1001B000A342F8D018BA21BA884201D9012010BD53
:1001C0000020C04310BD002A03D0D30703D0521C27
:1001D00007E0002010BD03780C78401C491C1B1B55
:1001E00007D103780C78401C491C1B1B01D1921EBF
:1001F000F1D1184610BD704770477047754600F042
:1002000025F8AE46050069465346C008C00085463D
:1002100018B020B5FFF7B0FF60BCB6460026002737
:10022000C0C5C0C5C0C5C0C5C0C5C0C5C0C5C0C5A6
:10023000403D490849008D46704710B50446C04608
:10024000C0462046FFF787FF10BD000000487047FA
:100250003800002001491820ABBEFEE7260002004E
:10026000704772B6FEE70000F0B587B0002506952E
:100270005422825C012A03D10224204607B0F0BD3B
:100280000646543601243470026893685B0717D41D
:1002900007694B68022B1BD104200743A148874202
:1002A0006CD19F48C0430B68D9430143906A084012
:1002B00090620024002B65D43570204607B0F0BD55
:1002C000816D20220A4382653570204607B0F0BD5B
:1002D000059304231F43934CA7425ED10C6820462C
:1002E0008F4B1840936A0343936220025369834300
:1002F000896801408C480840184350612346002417
:10030000002BD9D58948006803218A050146114090
:10031000874F0493BB4200D093E0814B5F1C0346A0
:100320003B4000D08DE0814B186890430143394336
:10033000196081480068814901F0BEF90C214143F0
:10034000481C069006980028B6D00698401E0690D5
:1003500006980028B0D00698401E069006980028FF
:10036000AAD00698401E069006980028A4D00698A9
:10037000401E069006980028E7D19DE70B680024F0
:10038000002B99D5FC4801686A4A93426DD0684AAF
:10039000934291D10122920569E01F27059C2740D5
:1003A0000F2400940397BC40076E0194A743029763
:1003B0000C685B4F3C4265D00494049CE407049CA9
:1003C0002F466AD12746A4075FD47C0760D43C0738
:1003D00061D4FC063C461F465FD4A30673D4630673
:1003E00073D4230673D4E30573D4A30573D4049B99
:1003F0005B0573D4049B1B0573D4049BDB0473D48B
:10040000049B9B0473D4049B5B0473D4049C23045B
:10041000009F42D4E30370D4049B9B0370D4049BDD
:100420005B0370D4049B1B0370D4049BDB0270D469
:10043000049B9B0270D4049C6302DB1716271F40A9
:100440002BE03C4B049F9F4200D035E701239F05E2
:10045000384000D030E7C84B186890430143394317
:1004600019603570204607B0F0BD2D4A521C11406E
:1004700003229205036893435918016035702046A2
:1004800007B0F0BD6300DF0E07E03C46012704E043
:100490003C46022701E03C460327039B9F40029B0A
:1004A0001F430766059B9B08C069984200D81CE75C
:1004B0000198C043936A0340A000000F039FB84017
:1004C0001843906211E70527E7E70627E5E70727C6
:1004D000E3E70827E1E70927049CDEE70A27049CF5
:1004E000DBE70B27049CD8E70C27049CD5E70D27F6
:1004F000049CD2E70E27049CCFE71027049CCCE78E
:100500001127049CC9E71227049CC6E71327049C03
:10051000C3E71427049CC0E71527049CBDE7C04629
:10052000FFFF7F000400008000FFFF7F08270140DD
:10053000000200A4000400A808000020400D0300F1
:10054000F0B587B0044600200690002C74D00590CA
:10055000A06D002807D125465435204600F00EF93D
:1005600000202870E06501273D072668B068C000BC
:1005700026D4B0687C4901402943B160A94800688D
:100580007A4901F099F8400006900698002817D0A3
:100590000698401E06900698002811D00698401E26
:1005A0000690069800280BD00698401E06900698E4
:1005B000002805D00698401E069006980028E7D12E
:1005C000B068284208D1A06D10210143A165E06DFB
:1005D000012105910843E065B06804210140A26D46
:1005E000102002405118A26D29D103900F20C3435F
:1005F0000493F33B1A40921CA265B268D2076DD1F6
:10060000029027462037226B531E9A411503A26899
:10061000237E9B031343627ED1031943A27E5003C2
:100620000843E36803432B430121C8072569002DD4
:10063000009009DA854308E0012007B0F0BD0243CD
:10064000A265384607B0F0BD4D052B43387B450009
:100650001D43387801280AD1002A7DD0A06D0A46B2
:1006600020210143A1651146E06D1043E065626AF7
:10067000002A019105D00720800102402A43A56A83
:100680001543F0683A4901402943F160032082078D
:10069000656828461040E36C0343387F012807D182
:1006A0002746403783CF03430B433B430198034323
:1006B00030693049014019433161009885420299FF
:1006C0000CD095420AD001988007854206D0880454
:1006D000054029490A688243501908607069072259
:1006E0009043656B28437061706970218843A16BEA
:1006F000090101437161276901235805874205D02B
:10070000002F0ED1B06A0499084309E0B06AE0698D
:1007100080001C301C210140049F8F40206E384314
:10072000B06270691040A8420AD10020E065A06D57
:100730000121014302208143A165059807B0F0BD66
:10074000A06D0399084302218843A065E06D18431A
:10075000E065184607B0F0BD08040543626A002A48
:10076000019188D18DE7C046E8FFFF6F400D03007F
:100770000102DEFF02FCFF1F0827014081B0006874
:100780000A49884201D001B0704703208007084918
:100790004A6982434A61012000050A6802430A60EF
:1007A000096801400091009801B0704700240140A1
:1007B000401002401A48007802490A681018086080
:1007C0007047C0461403002080B5032000F008F8ED
:1007D000002801D0012080BD00F026F8002080BD57
:1007E00070B50F4E31780124002916D005467D20C2
:1007F000C00000F061FF01460A48006800F05CFF9D
:1008000000F058F8032D08D8002806D10024E04352
:100810002946224600F026F87560204670BDC04685
:10082000000000200800002080B582B00C4841681C
:100830000122114341604168114001910199110762
:1008400002680A430260006808400090009808208F
:1008500000F028F8102000F025F802B080BDC04656
:100860003C100240002805D40322034693430C4A5F
:100870009A1806E00F220240083A03239A43074BD6
:10088000D2188007C00E8901C9B28140FF2383407E
:1008900010689843084310607047C0461CED00E0A4
:1008A00000E400E002490A6802430A607047C0465B
:1008B00000000140401E010E01D001207047074991
:1008C000074A5060074803680B40032189075918FD
:1008D000016000209060072111607047FFFFFF005A
:1008E00010E000E020ED00E0FEE70000F0B585B08C
:1008F00002900F460A6811BA0B098F4C2340214021
:10090000090159188B088D48034001408900591886
:100910004B088B4D2B40294049005918894E00D176
:10092000F4E0511E91434B082B40C91A8B0801403B
:100930000340C9180B09C918214071430E0E3B46EC
:100940001146F14000D1E7E00299084620300090BE
:10095000084624300190049310E08B000F2098404B
:1009600000990D6885439A402A430A600299049BC6
:10097000761C1A681046F04000D1CEE00127B7403F
:100980001740F5D039BA0A0922402140090151180F
:100990008A086A4D2A402940890051184A08684847
:1009A0000240014049005118039102990B6814D08C
:1009B0007A1EBA4354080440121B94082A402C4063
:1009C0001219140912195C4802405E484243120E83
:1009D00054000322A240934300E04024049842685C
:1009E0001546A5401D430D60531E012B20D88C6871
:1009F0000398002816D07B1EBB435D085048054075
:100A00005B1B9D084D48034005405B191D095B19A0
:100A1000494803404B4843431B0E5B0003259D4060
:100A2000AC4300E04023049885689D4025438D60D9
:100A3000CB6804690398002817D07D1EBD43690860
:100A40003F480140691A8D083C480140054049195A
:100A50000D094919384801403A484143090E4D00F3
:100A60000321A9408B43029900E04025AC401C4380
:100A7000CC60022A049B304C00D079E75A69039875
:100A8000002814D0781EB84341082D4B1940401A55
:100A900081082A4B1840194040180109401820408D
:100AA00028494843010E1820084000D155E73B0A69
:100AB00018BA0109244D294028400001081881086E
:100AC000224D294028408000081841081C4F394019
:100AD00038404000081801990D6815D0581E9843F9
:100AE00041083940401A8108144B184019404018F9
:100AF00001094018204013494843000E83000F208D
:100B00009840854301992EE780232CE720263B4619
:100B10001146F14000D017E702995868401E01289D
:100B200006D8D86850430B46496891430143596041
:100B3000002005B0F0BDC0460F0F0F0F3333333325
:100B40005555555501010101000F0F0F0033333387
:100B500010B512490A6838231340082B01D13D4AC9
:100B600006E00A46083A12689204530F384ADA40FF
:100B700002600B689B093C241C40384B1B591F2406
:100B80002340DA4042600968890A1C230B4032493D
:100B9000C9582140CA40826010BDC04608100240BA
:100BA00010B501460020032949D125494A6D032388
:100BB0001A401B04D218234B9A420CD0224B9A4263
:100BC0000FD02248824217D1886838220240082A72
:100BD00019D1204810BD0120C203C86D8003104008
:100BE00010BD0A6852052AD508680006400F411C4E
:100BF000174800F061FD10BD886838220240082ABD
:100C000007D114480AE008688004410F1048C84022
:100C100010BD08688004420F0D48D0408A6889687A
:100C2000890A1C230B400C49C9581F2319409209FB
:100C30003C241440094A12591A40D040C84010BD03
:100C40000010024003000300020003000100030043
:100C5000006CDC0200127A00F0180008B0180008DE
:100C6000014908607047C0460800002010B50468BC
:100C7000D14A904202D01C4B98420FD170239C4322
:100C80004B682343194CA0420CDD904210D0184C05
:100C9000A0420DD0174CA0420AD023E02346134CAB
:100CA000A042F2DC104CA04202D0134CA04219D159
:100CB00003242402A343CC681C4304608B68C362F2
:100CC0000B888362904205D0094A904202D0094ABB
:100CD000904201D109690163416901220A434261DD
:100CE000002010BD1C46E8E700040040FF2B014037
:100CF000004801400044014000200040F0B583B0AE
:100D000004460068C00726D10D4620682D490140E1
:100D1000A86808432969014368690843E9690143F0
:100D200021600320010362688A43E968114361601E
:100D30000002A1688143A8690843A06001262248F7
:100D400084420CD02148844233D10320FFF728FF8E
:100D500000280AD12DE00126304603B0F0BD6846D8
:100D6000FFF7F6FE0298002823D06F68002F20D0EE
:100D7000296800260B291CD8890015A2515800F0BB
:100D80009BFC0121C903EA698A420BD17908400022
:100D90004018394600F090FC194901400007400F07
:100DA000401805E079084018394600F085FC80B20B
:100DB000E060E06A0F21884329880143E162304600
:100DC00003B0F0BDF369FFEF00440040003801407C
:100DD0000100000002000000040000000600000006
:100DE000080000000A0000000C00000010000000D5
:100DF0002000000040000000800000000001000012
:100E0000F0FF000010B584B02C2118480024445491
:100E100020214454C464446284620121C161847607
:100E200004830422124B8907036041608460C4601C
:100E3000046142610394029401943C21445404638C
:100E400044638463FFF77CFB002801D0FFF709FAB5
:100E50000394029407480190044801A9FFF704FA9B
:100E6000002801D0FFF7FDF904B010BDB00000204C
:100E700000240140000400A8F0B589B000260796C0
:100E8000069605960496A948016820221143016040
:100E900001681140089108990168012739430160F0
:100EA00001683940089108990168022421430160D2
:100EB00000682040089008981948402100918162FC
:100EC00080210191816206960396042002901548C4
:100ED00002AD2946FFF70AFD0496039438020290FA
:100EE000059606960796052000072946FFF7FEFCA3
:100EF0000696059603200490039700980290084CEC
:100F000020462946FFF7F2FC0696059604960397BD
:100F10000198029020462946FFF7E8FC09B0F0BD91
:100F20000004005000140050B0B586B000200090BE
:100F30000125E9021D4A13680B43136012680A4039
:100F400005920599FF210902194A13688B43136022
:100F50006903794A11606946164A0A800490039031
:100F6000092202920190144C2046FFF77FFE802058
:100F7000C043216801402160A168104A0A40A26074
:100F800061687022914361600F21090562688A439C
:100F90006260A1680140A160E8432061E0682843E5
:100FA000E06020682843206006B0B0BD40100240D9
:100FB0000CE400E0BF120000002C0140F8BFFEFF6F
:100FC000F0B591B00320C143034602905748026A2E
:100FD0000A4002620126B103C2680A43C260C268C5
:100FE0000A40099209990168314301600068304064
:100FF0000990089600270797069705930224049402
:1010000070020390099805200007019003AD29465E
:10101000FFF76CFC089607970697029805900294D4
:101020000494B002039001982946FFF75FFCB505D0
:101030003F48016829430160F10502680A430260E4
:10104000FF2000063B490A6882430A60F0063A49DD
:10105000086010970F970C200E900D970C970B9728
:1010600036480A900997364C2746083F09A9384662
:10107000FFF744FEEFF3108086F3108807214A073C
:1010800023689343236080F31088EFF3108086F386
:101090001088490622688A43226080F3108870070E
:1010A0003968814339600920C002211F0A688243E0
:1010B0000A6020682A2188432060386830433860FD
:1010C00070056169014202D06169294211D16169EB
:1010D000014202D0616929420BD16169014202D00B
:1010E0006169294205D161690142EAD061692942F9
:1010F000E7D00820A0610420A061A6610298A06149
:10110000EFF3108086F31088396820220A433A6092
:1011100080F31088EFF3108086F310882168314344
:10112000216080F3108811B0F0BDC0463410024039
:101130000000014018E400E000E100E040420F0040
:1011400008380140FEE77047704780B5FFF732FB73
:1011500080BD00000120C006014908607047C046FC
:1011600008ED00E080B505480168C90702D00121FB
:10117000C943016000F004F880BDC046102C014056
:101180000348012101704168491C41607047C04615
:10119000A000002070B51049C86980061AD50868FB
:1011A000800617D50D484268521C42604A6A43685F
:1011B0000B495B185B1E1A7042682C2A0AD3094A35
:1011C00038C938C278C978C278C978C2002141606C
:1011D0000121017070BDC04600380140A800002008
:1011E000140100201402002088B0FFF7EDFAEE4849
:1011F0000168012319430622914301601A02EB4C56
:1012000020460838016805921143016001939D0250
:101210000168294208D10168294205D101682942A3
:1012200002D101682942F3D07F210902221F1368ED
:101230008B4301998903591811600721CA02036879
:10124000934303600F200002226882432260C84358
:1012500022680240226020688006400F0BD0206880
:101260008006400F07D020688006400F03D020681A
:101270008006400FEFD10803216881432160CC48EC
:10128000FFF7EEFC0320FFF7ABFA002801D072B69F
:10129000FEE702952068C74908404018401C2060BE
:1012A000206808402121090640182060FFF7E4FD6E
:1012B000FFF786FEFFF738FEFFF7A4FDF74D73201A
:1012C000E8602868000608D42868000605D4286865
:1012D000000602D428680006F3D574200390E86065
:1012E0002868000608D42868000605D42868000687
:1012F00002D428680006F3D56123EB602868000655
:1013000008D42868000605D42868000602D4286896
:101310000006F3D572200490E8602868000608D41F
:101320002868000605D42868000602D4286800064C
:10133000F3D50398E8602868000608D428680006FA
:1013400005D42868000602D428680006F3D52E20AC
:10135000E8602968090608D42968090605D42968BF
:10136000090602D429680906F3D5E8602968090648
:1013700008D42968090605D42968090602D4296811
:101380000906F3D5E8602868000608D42868000636
:1013900005D42868000602D428680006F3D5019811
:1013A00080050690BF4CC14E02E0C148079901700C
:1013B000206800284BD0002020600598BA4902E040
:1013C000091D001F38D00A78EA602A68120608D47E
:1013D0002A68120605D42A68120602D42A68120660
:1013E000F3D54A78EA602A68120608D42A681206F9
:1013F00005D42A68120602D42A681206F3D58A7820
:10140000EA602A68120608D42A68120605D42A68F7
:10141000120602D42A681206F3D5CA78EA602A684E
:101420001206CDD42A681206CAD42A681206C7D476
:101430002A681206F3D5C3E7994F386840210204A1
:101440000840069E3240101848407860974E307829
:101450000128ADD11F46002007903070944948689C
:10146000401C48602C2290489249FEF797FE642168
:10147000E960002800D19FE02868000608D42868A9
:10148000000605D42868000602D428680006F3D5B3
:101490003B46EF602868000608D42868000605D49B
:1014A0002868000602D428680006F3D50398E8608F
:1014B0002868000608D42868000605D428680006B5
:1014C00002D428680006F3D5EB602868000608D42B
:1014D0002868000605D42868000602D4286800069B
:1014E000F3D56520E8602868000608D4286800065F
:1014F00005D42868000602D428680006F3D50498AD
:10150000E8602868000608D42868000605D4286822
:10151000000602D428680006F3D50498E86028681D
:10152000000608D42868000605D42868000602D4FE
:1015300028680006F3D50D20E8602868000608D466
:101540002868000605D42868000602D4286800062A
:10155000F3D50A20E8602868000608D42868000649
:1015600005D42868000602D428680006F3D501983F
:101570004F490870029819384D494968814200D88E
:1015800016E74B48079941600078002800D00CE727
:10159000434E3068402102040840069F3A4010182C
:1015A00048407060414E00E70020024008100240B1
:1015B000006CDC02FFFFFF002868000608D42868E2
:1015C000000605D42868000602D428680006F3D572
:1015D0003B46EF602868000608D42868000605D45A
:1015E0002868000602D428680006F3D50398E8604E
:1015F0002868000608D42868000605D42868000674
:1016000002D428680006F3D5EB602868000608D4E9
:101610002868000605D42868000602D42868000659
:10162000F3D56F20E8602868000608D42868000613
:1016300005D42868000602D428680006F3D56B207C
:10164000E8602868000608D42868000605D42868E1
:10165000000602D428680006F3D50D20E86028684B
:10166000000608D42868000605D42868000602D4BD
:1016700028680006F3D50A20E8602868000600D52F
:1016800078E72868000600D574E72868000600D5CA
:1016900070E728680006F0D56CE7C0461C380140AA
:1016A00014040050A40000200C000020A80000201A
:1016B000980000201402002043088B421AD3002215
:1016C00003098B4279D3030A8B425ED3030B8B420F
:1016D00042D3030C8B4227D30902FF2212BA030C18
:1016E0008B4202D31212090203D0030B8B4233D375
:1016F0001AE0D3E0411A8041401C704703460B4377
:1017000071D443088B42F5D3002203098B4254D392
:10171000030A8B4239D3030B8B421DD3030C8B423C
:1017200002D394466EE0090AC30B8B4201D3CB036C
:10173000C01A5241830B8B4201D38B03C01A524112
:10174000430B8B4201D34B03C01A5241030B8B4214
:1017500001D30B03C01A5241C30A8B4201D3CB02FF
:10176000C01A5241830A8B4201D38B02C01A5241E4
:10177000430A8B4201D34B02C01A5241030A8B42E7
:1017800001D30B02C01A5241CDD2C3098B4201D3FF
:10179000CB01C01A524183098B4201D38B01C01A7D
:1017A000524143098B4201D34B01C01A52410309F4
:1017B0008B4201D30B01C01A5241C3088B4201D3A3
:1017C000CB00C01A524183088B4201D38B00C01A50
:1017D000524143088B4201D34B00C01A5241411A77
:1017E000524110007047CA0F00D04942031000D385
:1017F0004042534000229C4603098B422DD3030AEA
:101800008B4212D38901FC2212BA030A8B420CD3F9
:10181000890192118B4208D3890192118B4204D322
:10182000890137D0921100E08909C3098B4201D3A5
:10183000CB01C01A524183098B4201D38B01C01ADC
:10184000524143098B4201D34B01C01A5241030953
:101850008B4201D30B01C01A5241C3088B4201D302
:10186000CB00C01A524183088B4201D38B00C01AAF
:101870005241D9D243088B4201D34B00C01A524186
:10188000411A00D201465241104663465B1000D314
:101890004042704763465B1000D3404201B50021CF
:1018A000004201D0C9430846C046C04602BD000000
:1018B0000000000000000000000000000000000028
:1018C0000000000000000000000000000000000018
:1018D00001000000020000000300000004000000FE
:1018E00006000000070000000800000009000000DA
:1018F00000000000000000000000000000000000E8
:1019000001000000020000000300000004000000CD
:101910003019000800000020380000000401000811
:101920006819000838000020E008000020010008C5
:101930000100000004000000006CDC020001020352
:101940000405060708090A0B0C0D0E0F10111213DF
:101950001415161718191A1B1C1D1E1F20212223CF
:081960002425262728292A2B43
:04000005080000C12E
:00000001FF
