:020000040800F2
:10000000C80600205D01000811110008750A0008EB
:1000100000000000000000000000000000000000E0
:10002000000000000000000000000000991100081E
:10003000000000000000000013110008B1110008CA
:100040006F010008000000006F0100086F01000848
:100050006F0100086F0100086F0100086F010008C0
:10006000000000006F0100086F0100086F01000828
:100070006F0100086F0100086F0100080000000018
:100080006F0100086F0100086F0100086F01000890
:100090006F0100086F0100086F0100086F01000880
:1000A0006F0100086F0100086F0100086F01000870
:1000B0006F0100086F01000800F002F800F03EF840
:1000C0000CA030C8083824182D18A246671EAB466D
:1000D00054465D46AC4201D100F030F87E460F3EFA
:1000E0000FCCB6460126334200D0FB1AA246AB46DF
:1000F00033431847F812000018130000103A02D3D7
:1001000078C878C1FAD8520701D330C830C101D5B8
:1001100004680C60704700000023002400250026BE
:10012000103A01D378C1FBD8520700D330C100D5B3
:100130000B6070471FB51FBD10B510BD00F0FAF879
:100140001146FFF7F7FF01F0FDF800F012F903B4D4
:10015000FFF7F2FF03BC00F019F9000007488047E1
:1001600007480047FEE7FEE7FEE7FEE7FEE7FEE79B
:1001700004480549054A064B704700007112000803
:10018000B9000008C8000020C8060020C8020020EE
:10019000C802002001E004C0091F0429FBD28B071C
:1001A00001D50280801CC90700D002707047002969
:1001B0000BD0C30702D00270401C491E022904D391
:1001C000830702D50280801C891EE3E70022EEE748
:1001D0000022DFE7002203098B422CD3030A8B4263
:1001E00011D300239C464EE003460B433CD400222F
:1001F00043088B4231D303098B421CD3030A8B4241
:1002000001D394463FE0C3098B4201D3CB01C01A0E
:10021000524183098B4201D38B01C01A52414309D9
:100220008B4201D34B01C01A524103098B4201D3C7
:100230000B01C01A5241C3088B4201D3CB00C01A34
:10024000524183088B4201D38B00C01A52414308AC
:100250008B4201D34B00C01A5241411A00D20146D1
:100260005241104670475DE0CA0F00D0494203106A
:1002700000D34042534000229C4603098B422DD3B9
:10028000030A8B4212D3FC22890112BA030A8B4261
:100290000CD3890192118B4208D3890192118B42B0
:1002A00004D389013AD0921100E08909C3098B4235
:1002B00001D3CB01C01A524183098B4201D38B0178
:1002C000C01A524143098B4201D34B01C01A52411B
:1002D00003098B4201D30B01C01A5241C3088B4260
:1002E00001D3CB00C01A524183088B4201D38B004B
:1002F000C01A5241D9D243088B4201D34B00C01AD5
:100300005241411A00D20146634652415B101046E9
:1003100001D34042002B00D54942704763465B1031
:1003200000D3404201B50020C046C04602BD704720
:1003300070477047754600F025F8AE4605006946DF
:100340005346C008C000854618B020B5FFF710FF1F
:1003500060BC00274908B6460026C0C5C0C5C0C558
:10036000C0C5C0C5C0C5C0C5C0C5403D49008D465B
:10037000704710B50446C046C0462046FFF7E7FE6A
:1003800010BD00000048704764000020014918209B
:10039000ABBEFEE726000200704772B6FEE7000023
:1003A000F8B5002303240125BAE02E469E40B4464A
:1003B00032407CD00E79B607B60F012E01D0022E46
:1003C00017D186682746B6465E00B7400096764647
:1003D000BE43B646CF68009EB74076463743876037
:1003E00046686746BE430F79FF06FF0F9F403743BD
:1003F00047600E79F643B6070ED0C6682746B44666
:100400005E00B646B7406646BE43B4468F68764641
:10041000B74066463743C7600E79B607B60F022E5F
:1004200014D1DE08B60036180096366A5F07B44667
:10043000FE0E0F27B646B7406646BE43B4460F6968
:100440007646B74066463743009E376206682746C1
:10045000B4465E00B646B7406646BE430F79B44622
:10046000BF07BF0F7646B7406646374307604E6802
:10047000B603B60F53D02D4FBE692E43BE61BE6981
:100480009F08F607F60F2A4EBF00BE190096B66801
:100490000F27B4469E07360FB646B7406646BE43A2
:1004A0000927FF06B446B84202D1002710E036E023
:1004B000204FB84201D101270AE01F4FB84201D1B5
:1004C000022705E01D4FB84201D1032700E00527B0
:1004D0007646B74066463743009EB760184EB6680A
:1004E0004F689643FF0200D51643154FBE60FE6865
:1004F0004F689643BF0200D51643114FFE607E68D9
:100500004F689643BF0300D516430D4F7E603E688B
:100510004F689643FF0300D51643094A16605B1CDB
:100520000A681646DE4000D03FE7F8BD00100240E2
:10053000000001400004004800080048000C00488A
:10054000000401400148806870470000000000205E
:1005500070B5024640325378202B1CD11378012B02
:1005600019D00123137024245470046825689D4316
:100570002560046825681E03B54325600468256866
:100580000D43256000680168194301602020507008
:100590000020107070BD022070BD70B50246403260
:1005A0005378202B1BD11378012B18D00124147001
:1005B0002423537003681D68A5431D6005682B68DC
:1005C0000F263602B3430902194329600068016807
:1005D00021430160202050700020107070BD022067
:1005E00070BD000070B5040006D02546403568781F
:1005F0000026002802D005E0012070BD2E702046A4
:1006000000F09CF9242068702068016849084900BE
:1006100001600F216068090688432168086121682C
:100620008A680120C00382438A60E1680129A168C9
:100630002FD0212292021143226891600121E268A9
:10064000C902022A2268536825D08B43536021686F
:100650004A68124B1A434A602168CA688243CA60DA
:10066000616920690843A169090208432168C860DB
:10067000216AE06908432168086020680168012256
:10068000114301606664202068702663AE7000200C
:1006900070BD0143D0E70B43D8E7000000800002A3
:1006A000FFB5054604464035687883B0202873D1ED
:1006B0000C98002814D00D98002811D02878012813
:1006C0006AD001202870FFF73DFF07460122009005
:1006D0001923D103204600F0D9FA002872D103E093
:1006E0000120400260646DE0222068704020A87004
:1006F000002666640C9860620D98608566630E98AB
:100700000090019704A90EC9204600F049FA00287C
:1007100001D02E7056E0618D3348FF2904D90122A3
:1007200022851306009006E0618D21850090208DC2
:100730000123C2B25B062046049900F091FA0097AB
:100740000022042120460E9B00F0A0FA002839D197
:100750002068406A616A0870606A401C6062208D8F
:10076000401E81B22185608D401E6085608D00280D
:100770001ED000291CD100970022802120460E9B0C
:1007800000F084FA00281DD1608DFF2805D90122D0
:1007900022851306009607E024E0608D20850096F0
:1007A000208D0123C2B25B062046049900F058FA5E
:1007B000608D0028C3D13A4620460E9900F09FFA7A
:1007C000002802D0012007B0F0BD21682020C861B8
:1007D00021684A68054B1A404A606870AE702E70F6
:1007E0000020F0E70220EEE70024008000E800FE91
:1007F000FFB5054604464035687883B0202872D19D
:100800000C98002814D00D98002811D028780128C1
:1008100069D001202870FFF795FE0746012200905D
:100820001923D103204600F031FA002871D103E0EA
:100830000120400260646CE0212068704020A870B4
:10084000002666640C9860620D98608566630E9859
:100850000090019704A90EC9204600F0D1F90028A4
:1008600001D02E7055E0608DFF2805D9FF2222852A
:1008700001231B06009606E0608D20850096208DE2
:100880000123C2B25B062046049900F0E9F93A461A
:1008900020460E9900F05EFA00283AD1606A21687D
:1008A00000788862606A401C6062608D401E6085CE
:1008B000208D401E80B22085618D00291FD0002828
:1008C0001DD100970022802120460E9B00F0DEF90A
:1008D00000281ED1608DFF2806D9FF222285012322
:1008E0001B06009607E024E0608D20850096208D91
:1008F0000123C2B25B062046049900F0B1F9608D75
:100900000028C4D13A4620460E9900F0F8F9002894
:1009100002D0012007B0F0BD20682021C16120680D
:100920004268054B1A4042606970AE702E7000201C
:10093000F0E70220EEE7000000E800FE10B586B008
:10094000044614216846FFF743FC12492068884298
:100950001DD1114C6169012080040143616161690D
:1009600001400591C020009012200121019000203B
:1009700002910491039069460848FFF711FDE1696F
:10098000012040050143E161E1690140059106B0A4
:1009900010BD000000540040001002400004004858
:1009A0000248816802788918816070470000002041
:1009B00010B506480168102211430160032000F0C1
:1009C00007F800F027F8002010BD000000200240CA
:1009D00070B504460D4D7D202978C000FFF7FAFB65
:1009E00001460B480068FFF7F5FB00F02BF80028E4
:1009F00009D1042C07D200222146401E00F01EF827
:100A000000206C6070BD012070BD0000000000205F
:100A10000C00002008B5084881690122114381615A
:100A2000816911400091C26901040A43C261C06931
:100A30000840009008BD00000010024010B500F012
:100A400019FC10BD094910B5401E884201D901208A
:100A500010BD074C60610321081F00F00BFC002053
:100A6000A06107202061002010BD0000FFFFFF00F3
:100A700000E000E0FEE701688A69D243920701D4F2
:100A800000228A6200688169C943C90703D081696D
:100A90000122114381617047F7B50446006882B0B6
:100AA000816900262746C90640373546009200294D
:100AB00042DA1021C16131E00398401C2ED0FFF7CB
:100AC00041FD0099411A0398814201D8002825D19F
:100AD00020684168012292031140BA788369DB43A0
:100AE0001B0416D401239B03994212D0202A10D054
:100AF000416819434160FFF725FD009009E0FFF7C9
:100B000021FD0099401A192803D920200543012608
:100B100004E020688069C0438006F0D420688069C2
:100B20008006C00F3043C7D0002E02D1216820209C
:100B3000C86104200543012621688869C20504D5DF
:100B4000012215431202CA610126410508D5082178
:100B50000D432268C901D1610126800502D40AE053
:100B6000800506D50220054321680002C8610126E0
:100B700001E0002E0FD02046FFF77DFF206841687E
:100B8000064A11404160606C284360642020787000
:100B90000020B8703870304605B0F0BD00E800FEA7
:100BA000F8B50446164615481D46DAB20090079F70
:100BB0000023204600F054F83A462046069900F0FB
:100BC000C9F8002818D12846F5B2012809D02168B3
:100BD000300A88623A462046069900F0BBF80028A1
:100BE0000AD1206885620097002240212046069B9A
:100BF00000F04CF8002800D00120F8BD0020008053
:100C0000F8B50446164615481D46DAB2C3020090F0
:100C1000079F204600F024F83A462046069900F047
:100C200099F8002818D12846F5B2012809D0216882
:100C3000300A88623A462046069900F08BF8002870
:100C40000AD1206885620097002280212046069BF9
:100C500000F01CF8002800D00120F8BD0020008022
:100C6000890510B5890D12041143029C19430268CD
:100C70002143490050684908630D034C23439843BE
:100C80000843506010BD0000FF63FF03F8B51D4628
:100C900017460E46044626E029462046069AFFF7E8
:100CA000FBFE002801D00120F8BD681C1BD0FFF717
:100CB00049FC0699401AA84201D8002D13D120689A
:100CC0008169304688430CD00020B8420BD1616C5A
:100CD000202001436164403460700020A0702070C7
:100CE000E1E70120F1E7206881693046884304D0BC
:100CF0000020B842D0D00020F8BD0120F9E770B53F
:100D000016460D4604461EE0324629462046FFF7A9
:100D1000C3FE002801D0012070BDFFF713FC801B2B
:100D2000A84201D8002D0ED120688069C0438006FA
:100D300009D5616C2020014361644034607000205B
:100D4000A0702070E7E720688069C0438006DBD48C
:100D5000002070BD70B516460D46044620E03246B0
:100D600029462046FFF798FE002801D0012070BDDB
:100D7000681C15D0FFF7E6FB801BA84201D8002DA8
:100D80000ED120688069C043800709D5616C20209E
:100D900001436164403460700020A0702070E5E77A
:100DA00020688069C0438007D9D4002070BD00004E
:100DB00008B504494A6902434A6149690140009102
:100DC00008BD000000100240F0B500244DE00123F2
:100DD000A3401A4048D04B68012B01D0022B10D100
:100DE0008E688568134653435F00DF19BD43734324
:100DF0001D438560CD680B6846689E436B431E4368
:100E000046600F69C668134653435D005D19AE43E3
:100E10005F433E43C6604E68022E1FD1FF2A0ED8A4
:100E200017464A69066A94461A467A437A43170176
:100E3000BF1ABE4367467A43164306620EE0160A9F
:100E4000324672434F6972437243BC461601B71A69
:100E5000466ABE4367467A43164346624A68066856
:100E60005343AE431E430660641C0A681346E340C6
:100E7000ADD10020F0BD10B5044600F065F920604A
:100E800000F048F9606000F053F9A06010BD000068
:100E9000014610B5002000290FD110490A6B9207B6
:100EA000920F012A0AD0022A11D0032A09D000F099
:100EB0004BF900F02FF900F03BF910BD00F044F9B8
:100EC00010BD09688907C90FFAD0054810BD096A25
:100ED0008907C90FFAD00120C00310BD00100240DD
:100EE00000127A0001490860704700000C000020E1
:100EF000FEB5044600680D460126304050D1E96831
:100F00006868AA6908432969114308432168254A8A
:100F1000114008432060A9686068032212039043CF
:100F2000084360606969A068121190430843A0609B
:100F30001D48844203D10020FFF7AAFF12E01B489E
:100F400084420BD01A48844208D01A48844205D003
:100F50001948844202D01948844221D16846FFF7DB
:100F60008AFF029800281BD02968002918D0012385
:100F7000AA690026DB039A420CD140004A08801877
:100F8000FFF728F981B20E4808400907490F0143CD
:100F9000E16005E04A081018FFF71CF980B2E06034
:100FA0003046FEBDF369FFEF0038014000440040C9
:100FB00000480040004C0040005000400014014038
:100FC000F0FF000008B506490A690092421C00D0F3
:100FD000401C0A69D20300D5401E0028F9D108BD83
:100FE00000E000E010B501204004FFF7E1FE012021
:100FF0008004FFF7DDFE10BD10B5134811490160F4
:1010000012494160002181600161416181610122D9
:10101000C161C2600162FFF7E5FA002801D0FFF765
:10102000BCF900210848FFF793FA002801D0FFF728
:10103000B4F900210448FFF7B0FA002801D0FFF707
:10104000ACF910BD00540040100000200B0200005D
:10105000F0B58FB01C2106A8FFF7BAF81821684632
:10106000FFF7B6F827480121826989030A438261A4
:1010700082690A400D924269C9000A43426140698F
:10108000002408400D90081201250226032703942E
:101090006A4605950494C1C209206946C006FFF757
:1010A00093FEA80203946A4605950494C1C20920E0
:1010B0006946C006FFF788FE134806900794089417
:1010C00009940B940C940C20104C0A9006A920460D
:1010D000FFF70EFFEFF3108085F31088A26821154B
:1010E0008A43A26080F3108860684900884360608A
:1010F000A06808218843A0602068284320600FB0C2
:10110000F0BD00000010024040420F0000380140D6
:10111000FEE7704704494968F0221140034A090973
:10112000515CC8407047000000100240D413000812
:1011300003494968034A4905490F515CC840704753
:1011400000100240E413000810B5064841680C2066
:101150000140054805D0042903D0082901D100F039
:1011600005F810BD0010024000127A0010B5084CBE
:1011700060680848E16A0907090F491CFFF72AF867
:1011800061680F2292041140890C891C484310BDEC
:101190000010024000127A007047000003490881E5
:1011A00002482038C1690906FCD570472038014043
:1011B00010B5FFF7F5FB10BD10B52A4801210268F4
:1011C0008A430A4302600168C907C90FFBD0264C55
:1011D000206801210843206020688007C00FFBD0F1
:1011E0002068F821884380210843206060687B21C3
:1011F000C90388432121C90308436060E06A0009EC
:101200000001E0622068012109060843206020688F
:101210008001C00FFBD06068F02188436060606887
:1012200007210902884360606168022089088900FB
:10123000014361600C21606808400828FBD10B481D
:10124000FFF750FE0320FFF7C3FB002801D072B662
:10125000FEE7206B800880002063206B102188430C
:10126000206310BD0020024000100240006CDC0230
:10127000704700008307FF22DB0E9A408907090EA2
:101280009940002808DB830809489B001B18186850
:1012900090430843186070470007000F0838830820
:1012A00004489B001B18D86990430843D8617047D5
:1012B00000E400E000ED00E0002802D000BF401E86
:1012C000FCD170471FB503AA00927D240A46E400B2
:1012D00001230146029401930348FFF7E1F96846B0
:1012E000007B04B010BD00001000002017B583B0D3
:1012F00005AA00927D240A46E400012301460294D7
:1013000001930448FFF774FA002800D0012006B0CA
:1013100010BD00001000002000B50B46024603E09F
:101320001078521CFFF73AFF5B1EF9D200BD00B5E2
:10133000024602E0521CFFF731FF10780028F9D175
:1013400000BD000008B5FFF733FBFFF735FFFFF7DF
:1013500049FEFFF751FEFFF77BFE0A20FFF732FE42
:1013600018A0FFF7E4FF00257D26194CF600304653
:10137000FFF728FE6846057006220321A020FFF72C
:10138000B5FF2046FFF798FF0321A020FFF79AFF43
:101390000146684601700121FFF7BEFF08220321C4
:1013A000A020FFF7A3FF2046FFF786FF0321A02020
:1013B000FFF788FF0146684601700121FFF7ACFF87
:1013C000D5E7000073746172742E2E2E00000000A9
:1013D00050C30000000000000000000001020304F0
:1013E0000607080900000000010203040C140008AD
:1013F0000000002010000000FC0000081C14000881
:1014000010000020B80600001801000801000000CC
:0C141000040000000000000000127A0040
:04000005080000B936
:00000001FF
