:020000040800F2
:1000000000180020A90D0008190A00081B0A0008A2
:1000100000000000000000000000000000000000E0
:100020000000000000000000000000001D0A0008A1
:1000300000000000000000001F0A0008210A00085C
:10004000F90D000800000000F90D0008F90D000886
:10005000F90D0008F90D0008F90D0008F90D000868
:1000600000000000F90D0008F90D0008F90D000866
:10007000F90D0008250A0008F90D0008000000002D
:10008000F90D00080000000000000000F90D000854
:1000900000000000F90D0008F90D0008F90D000836
:1000A00000000000F90D000800000000410A0008EF
:1000B000F90D000800000000000000000000000032
:1000C00010B5064C2378002B07D1054B002B02D02E
:1000D000044800E000BF0123237010BD3C00002055
:1000E0000000000078150008044B10B5002B03D069
:1000F0000349044800E000BF10BDC04600000000F6
:100100004000002078150008002243088B4274D379
:1001100003098B425FD3030A8B4244D3030B8B4208
:1001200028D3030C8B420DD3FF22090212BA030C11
:100130008B4202D31212090265D0030B8B4219D3F2
:1001400000E0090AC30B8B4201D3CB03C01A524112
:10015000830B8B4201D38B03C01A5241430B8B425A
:1001600001D34B03C01A5241030B8B4201D30B0343
:10017000C01A5241C30A8B4201D3CB02C01A52416A
:10018000830A8B4201D38B02C01A5241430A8B422D
:1001900001D34B02C01A5241030A8B4201D30B0216
:1001A000C01A5241CDD2C3098B4201D3CB01C01A30
:1001B000524183098B4201D38B01C01A524143093A
:1001C0008B4201D34B01C01A524103098B4201D328
:1001D0000B01C01A5241C3088B4201D3CB00C01A95
:1001E000524183088B4201D38B00C01A524143080D
:1001F0008B4201D34B00C01A5241411A00D2014632
:10020000524110467047FFE701B5002000F006F8A4
:1002100002BDC0460029F7D076E770477047C04658
:100220001C2101231B04984201D3000C10391B0A26
:10023000984201D3000A08391B09984201D30009EA
:10024000043902A2105C40187047C0460403020241
:1002500001010101000000000000000080200F4AA1
:100260004001916B82B0014391636021936B034025
:100270000193019B0A4B9A688A439A609A682031DD
:100280008A439A60074A68395A619A688A439A6031
:10029000012252421A6102B07047C046001002406B
:1002A00000300240B71DC104054B82B05A6B0243B7
:1002B0005A635B6B18400190019B02B07047C046C7
:1002C0000010024070B586B018220021684601F087
:1002D0004AF92020FFF7E8FF0120FFF7E5FF40265D
:1002E0000220FFF7E1FF002404230B4D6946AE62B4
:1002F0000A4800930194049400F05EFE01236946CD
:10030000019328000233009602930394049400F0B2
:1003100053FE06B070BDC0460004005000140050EB
:10032000002800D17047C0460138F9E78022034B0E
:100330009862D9691142FCD07047C046003801402C
:1003400070B504004518AC4200D170BD2078FFF7AD
:10035000EDFF0134F7E700234118884201D1D8B2FC
:100360007047027801309B189BB2F6E7F7B5042579
:10037000082706000C4C0A200191FFF7D1FF2368E3
:100380003000AB432360236801993B432360FFF7B0
:10039000D7FFA0204000FFF7C3FF2368BB432360C3
:1003A00023681D432560F7BD00380140F7B5040000
:1003B00025009008019282000091A618AE420FD14C
:1003C0000323019D1D40032D1BD17378B5781B04B9
:1003D0002D022B43A45C240623438B50013014E0F0
:1003E0002B781B069C4667466B781B043B43EF78D3
:1003F0003B43AF7804353F023B43009F08C700975B
:10040000DCE7022D02D0012D04D0FEBDA3185B78DD
:100410001B04DFE7A35C1B06DFE70000054B890038
:100420001A614118884201D11868704704C81A60DF
:10043000F8E7C04600300240064A036810B5134092
:1004400080229205934203D14368034A1360984780
:1004500010BDC0460000FE2F8C020020F7B5CC4E28
:10046000F278D3B2C22A00D10AE1C22B06D8A12B5E
:1004700000D1AFE0C12B00D1C7E0F7BDC32BFCD149
:10048000C44B00241A68FF2A22D8C34BC34C1D68F2
:10049000C34B2100C3481A60FFF788FF2A00010000
:1004A0002000FFF7BBFF0025040000F0ADFCBC4FAF
:1004B0003B68AB4200D947E100F0B8FCBA4AB64B02
:1004C00011681C603B68CB1813600023B14A1360AD
:1004D0007379B1791B06F2790904307A5B181B181D
:1004E0001202D3180193AA225523AB4EAF4D3168A7
:1004F00001982A706B70814200D03AE1523BAB7098
:10050000D033EB70D23B2B7105212800FFF723FF7E
:10051000062168712800FFF729FF80220021A148E9
:10052000520001F020F8A24BA24D80272B6001233E
:100530005B4233607F009C4E3268002A00D04FE15E
:10054000019B9C4203D009219B48FFF70FFF042722
:1005500008269A4D0A20FFF7E3FE2B68200EBB43C6
:100560002B602B6833432B60FFF7E0FE200CC0B2FA
:10057000FFF7DCFE200AC0B2FFF7D8FEE0B2FFF7BB
:10058000D5FEA0204000FFF7CBFE2B68B3432B60C5
:100590002B683B432B6000F037FC8022884B120213
:1005A0001A6102238748884903600C3343600D3B7E
:1005B000836000F0B9FC00F039FC844800F08AFF49
:1005C0002B687B481F432F602B681E432E60FFF76C
:1005D00033FF52E7AA23754C21212370553B6370EA
:1005E000363BA3709233E370B03B2371784B621CAF
:1005F0005B6A2000E3779BB21B0AD377FFF7ABFE61
:100600002221A31CD877200081E000F0FDFB80228E
:100610006B4B12021A6102236A486B490360043370
:100620004360023B836000F07FFC002803D011216F
:100630006848FFF79BFE00F0F9FBAA235B4C0521FD
:100640002370553B6370523BA370CE33E370D03BB5
:1006500023712000FFF77FFE062160712000FFF765
:1006600085FE544B524A01211A600023494A4942EF
:1006700013604B4A1360484A11604B4A1360FCE612
:100680008024444DB178286803394218002364005F
:10069000A2423AD8434C00198B423BD380232A60B4
:1006A0005B009A421FD13D4C3D4E21003D483260D7
:1006B000FFF77CFE384B01001A682000FFF7AEFE02
:1006C0000024019000F0A0FB3368A34227D800F07B
:1006D000ADFB314B019A1A60334A33681168CB186D
:1006E000136000232B60AA23304C05212370553B57
:1006F0006370523BA370CF33E370D13B2000237172
:10070000FFF729FE062160717DE70A213248FFF7D5
:100710002DFEB2E65C1D345DC4540133BCE7214BB1
:10072000244FE31801201A685B68396800F0BAFBAF
:10073000002804D13B6808333B600834C4E710212B
:100740002648FFF713FEF8E7164B1A4FEB18012067
:100750001A685B68396800F0A5FB002804D13B6883
:1007600008333B600835A2E610211C48FFF7FEFD68
:10077000F8E70323AB70E033EB70E23B0521280080
:100780002B71FFF7E8FD062168712800BFE7C0461E
:100790000C030020740200206C0100207001002076
:1007A00084020020640000206801002090020020E4
:1007B0000030000878020020CE1500080038014003
:1007C000002002405800002064010020983A0000F8
:1007D00000480140A0150008B2150008BD1500082A
:1007E000BA4200D93A00134B13481A602B689C4652
:1007F000002361465C182468191804330C609A427F
:10080000F7D80E4C2100FFF7D1FD0D4B01001A68FF
:100810002000FFF703FE0A4B0649326818600B6898
:100820000400D21A32602A68D3182B6000230B60B0
:1008300081E6C04684020020640000207001002090
:100840006C01002007221A4910B50B6893431A0067
:100850000123134380220B60164B520019680A4390
:100860001A608022D20019681142FCD05A681249DD
:1008700011408022D2010A435A601A680F490A4087
:100880001A609A680E490A4007219A609A688A435A
:100890009A60382299681142FCD19A6809490A483D
:1008A0000A409A6000F006FE074800F029FE10BDDD
:1008B0000020024000100240FF80FFFFFFC7FFFF43
:1008C000FFF0FFFFFF8FFFFF006CDC020120424BB7
:1008D000F0B5196C87B00143196480211A6C490581
:1008E00002400592059ADA6B08240A43DA63C022B3
:1008F000DB6B12060B4039490493049B0B6A1B0205
:100900001B0A13430B62364B1A6822431A601022EB
:1009100019680A431A60FFF795FFFFF7D3FC00F050
:1009200095F900F031F9FFF799FC0A2000F0D2FDAB
:1009300003212C48FFF71AFD002303932A4B1B6861
:100940000393039A294B9A420AD00422284B294840
:1009500019680A431A601A6814431C60FFF76CFD9B
:100960000025254B254C1A78012A07D11D702368D4
:10097000234A01332360136801331360214B1A7833
:10098000012A17D1204E1D703379204FDBB2396810
:100990000193019A1E4B300001391A70FFF7DBFCFE
:1009A0003B68013BF35C834204D1019B012B01D1E5
:1009B000FFF754FDFA22236892009342D1D380229C
:1009C000144925604869D20303041340402282433E
:1009D00013438B61C5E7C0460010024000ED00E004
:1009E00000000140D8150008007000085555AAAA5B
:1009F0000038014000300008540300208802002025
:100A00007C020020B20200200C030020C002002063
:100A10008002002000040050FEE7FEE770477047A8
:100A200070470000054B10B51A69D20702D50222A3
:100A300052421A6100F0FEF810BDC046002C014081
:100A40002022F0B5414B85B0D969114256D01968C2
:100A5000114253D03E4D596A2878CBB200280AD1B2
:100A6000552B13D11F3A3B492A700A68501C086065
:100A700039498B540AE0394E3278002A0AD10128CC
:100A800019D13449AA2B03D02A700A6005B0F0BDF1
:100A90003070EAE7012A0ED131480478002C0AD1DF
:100AA000304CC9B221602B4C027021684D1C25606E
:100AB000294C6354EAE72A4A12780192012AE5D1C7
:100AC000244C284F2268511C216023498B543B68D9
:100AD000226803339342D9D82268234800F03AFDB4
:100AE0002268224B1A60224B019A1A7000231C4A7A
:100AF00023602B703B6033701370C7E7DA69012104
:100B0000039204220398104209D01A4801601A6225
:100B1000802212011A62802292011A62B6E70398BB
:100B2000084204D00220134A10601962F0E708213D
:100B30000398084202D003200E4AF5E702210398E9
:100B40000842E5D00B480260EFE7C046003801409C
:100B5000B3020020BC020020C4020020B402002026
:100B6000B5020020B80200200C030020C0020020C3
:100B7000B20200205C0300208022024B12059A6022
:100B80007047C04600ED00E030B587B001AD1422DB
:100B90000021280000F0E7FC80201F4A0001116CB2
:100BA00001431164C321136C890003400093009B2F
:100BB0001A4B1B485A5802405A50802292011A6020
:100BC000184B09222B800023174C290020006B6052
:100BD000AA60EB602B6100F0BFFB80222368134901
:100BE00093432360A3680B407021A36063688B4329
:100BF000636063680E490B406360A3689343A3601E
:100C000002235B422361E26803331A43E2602268F5
:100C10001343236007B030BD0010024000E100E044
:100C2000FF00FFFFBF120000002C0140F8BFFEFFD5
:100C3000FFFF0FFF0122034B1A70034A13680133B1
:100C4000136070475403002058030020F0B50827B4
:100C50004D4C91B023680021BB43236004232268DC
:100C600008A813432360202200F07DFC032180208C
:100C70000125464BC0015A6D80268A435A65196C7E
:100C8000F603014319641A6C02A902400192019A09
:100C90005A6BA0202A435A635B6BC0052B4000931C
:100CA000009B80239B000293FF3BFF3B0393049335
:100CB00005950695079500F07FF9C621344A89000D
:100CC000136833431360334A5358BB40FB405350BF
:100CD00080231B051360304A002309920C22200058
:100CE00008A908930A930B930C930D920F9300F0AD
:100CF00073FBEFF3108285F31088A368DB00DB0839
:100D0000A36082F31088EFF3108285F310882349E3
:100D1000A3680B40A36082F31088214A2368134024
:100D2000236063681F4A134022226360A3689343D1
:100D30008022A360A36892031F43A76023681D431A
:100D40002560E3691342FCD0E3693342F9D00823FC
:100D500002222362043B2362033B23622262EFF3FD
:100D6000108183F3108820681E320243226081F3D1
:100D70001088EFF3108283F31088A1680B43A360FF
:100D800082F3108811B0F0BD00380140001002401D
:100D90000000014000E100E040420F00FFFFFFF1D2
:100DA000FFFFFFDFFFB7FFFF0D488546FFF7E4FEBB
:100DB000002103E00B4B5B58435004310A480B4BB6
:100DC00042189A42F6D30A4A02E000231360043222
:100DD000084B9A42F9D300F099FBFFF777FDFEE745
:100DE0000018002074160008000000203C000020BD
:100DF0003C0000207C030020FEE70000014B186847
:100E00007047C046600300200020054B5A698242AB
:100E100005DA044A9A60044A9A605869C00F70471C
:100E20000020024023016745AB89EFCD8022044BAF
:100E3000120659690A435A615869C043C00F704786
:100E400000200240F8B505008027FFF7D7FF7F029A
:100E50004619114C23693B4205D0FFF7CFFFB04242
:100E6000F7D3032007E023690C4A1340236103D022
:100E700001200B4A5360F8BDFFF7C0FF80262D18F4
:100E8000F6022369180030403342F4D0FFF7B6FF72
:100E90008542F6D8E5E7C04600200240FAC30000CC
:100EA00064030020F7B5174E0193337804000D005A
:100EB00002200092012B1ED00123FA203370002360
:100EC00080007360FFF7BEFF002812D10E4F012C87
:100ED00012D17B6923437B61009B2B60BFF36F8F33
:100EE000019B6B60FA208000FFF7ACFF7B69A34396
:100EF0007B6100233370FEBD2800009900F048FBA1
:100F0000F0E7C04664030020002002407821044A34
:100F1000C00053698B431843024B1843506170471C
:100F20000020024002000100F7B5204F05003B7889
:100F300002240191012B18D00123FA203B700023D9
:100F400080007B60FFF77EFF041E0CD12B68042B12
:100F50000DD1FA20164A174B516980000B4353619B
:100F6000FFF770FF040000233B702000FEBD01234B
:100F7000019A5B4213606E686B68AA689B18B34263
:100F80000BD93000FFF7C2FFFA208000FFF75AFFAD
:100F9000002808D00400019B1E600221044A536906
:100FA0008B435361DFE70136E6E7C0466403002068
:100FB0000020024004000100F0B587B00B680291E8
:100FC0001F2201210193050001985B08002B1ED10F
:100FD00090402033002802D0FFF722F9C3B20393D8
:100FE000029B039A5B680493019BD34016D1049B38
:100FF000013B012B08D86B68019A01999343029A2F
:10100000D2684A4313436B60002007B0F0BD1C0058
:1010100040000C402043013A5B08D7E70123039AC4
:10102000019C9340019A1C401A4200D1D3E066080B
:10103000200033001F222F68002B70D190402033F6
:10104000002802D0FFF7ECF8C3B203225B009A40FD
:101050002000974333001F22002B67D1904020339C
:10106000002802D0FFF7DCF8C3B2049A5B009A4074
:10107000049B1743013B2F60012B24D8029B2000C7
:101080009B681F2205933300AF68002B55D1904019
:101090002033002802D0FFF7C3F8C3B203225B005D
:1010A0009A402000974333001F22002B4CD19040E0
:1010B0002033002802D0FFF7B3F8C3B2059A5B00D3
:1010C0009A401743AF60029B20001B691F220593C3
:1010D0003300EF68002B3ED190402033002802D02F
:1010E000FFF79EF8C3B203225B009A4020009743AB
:1010F00033001F22002B35D190402033002802D02E
:10110000FFF78EF8C3B2059A5B009A40049B174321
:10111000EF60022B5FD1200033001F222FE001215E
:10112000400019400843013A5B0885E7012140006F
:1011300019400843013A5B088EE70121400019403D
:101140000843013A5B08A0E7012140001940084329
:10115000013A5B08A9E70121400019400843013A20
:101160005B08B7E70121400019400843013A5B08DA
:10117000C0E70121400019400843013A5B08002BF9
:10118000F7D1029B90405B69049335D0FFF748F894
:10119000072831DC200033001F222F6A002B1DD1CD
:1011A00090402033002802D0FFF73AF8C3B20F2254
:1011B0009B009A401F239743002E16D12000984091
:1011C0002023002802D0FFF72BF8C3B2049A9B001B
:1011D0009A4017432F62039B013300E7012140002F
:1011E00019400843013A5B08D8E701206400304009
:1011F0000443013B7608DFE7260A640A3000230037
:101200001F226F6A002B1BD190402033002802D090
:10121000FFF706F8C3B20F229B009A401F239743A3
:10122000002C14D1300098402023002802D0FEF773
:10123000F7FFC3B2049A9B009A4017436F62CAE754
:101240000121400019400843013A5B08DAE7012018
:10125000760020400643013B6408E1E73822064956
:101260008B681340054A1000082B04D00B689B04C0
:101270005B0FDA401000704700100240006CDC0287
:10128000054B064A9B681B051B0F9B009B581F22A2
:101290001340D8407047C04600100240DC150008DB
:1012A000054B064A9B685B045B0F9B009B581F2203
:1012B0001340D8407047C046001002401C1600087A
:1012C00010B50400FFF7CAFF2060FFF7D9FF606088
:1012D000FFF7E6FFA06010BD020010B50020032A52
:1012E00010D1184B586D0240C02080021043164A9E
:1012F000904208D0154A904214D0154B98421AD10A
:10130000FFF7ACFF10BD196880220800D200104022
:101310001142F7D019680F480906490F0131FEF74D
:10132000F3FEEFE7DA6D0223100018401A42E9D00D
:1013300080200002E6E7FFF791FFFFF7A1FFFFF72C
:10134000AFFFDFE7001002400200030003000300CC
:1013500001000300006CDC02194A10B503689042DA
:1013600002D0184CA04208D17024A3434C682343F8
:1013700090420BD0134CA04208D0134CA04205D091
:10138000124CA04202D0124CA04203D1114C234077
:10139000CC68234303608B68C3620B8883629042EE
:1013A00005D00A4B984202D0094B984201D10B69F3
:1013B00003630123426913434361002010BDC0460B
:1013C000002C014000040040002000400044014087
:1013D00000480140FFFCFFFFF0B501260368040050
:1013E0000D0085B0334248D18B68096902680B4310
:1013F00069690B43E9690B4327490A4013430360BA
:101400004368264A1340EA68134343608368244ACA
:101410001340AA6913438360224B984222D10320D0
:10142000FFF75AFF002820D06F68002F1DD02B68CF
:1014300000260B2B1AD81C4A9B009958FEF764FE15
:101440008022E9697B08120291421ED14000C01837
:101450003900FEF759FE154B03400007400F1843B3
:10146000E06003E0124B98420AD001260F22E16AA5
:101470002B6891439BB20B43E362300005B0F0BD93
:1014800001A8FFF71DFF0398CCE73900C018FEF74D
:101490003BFE80B2E4E7C046F369FFEFFFCFFFFFFA
:1014A000FFFCFFFF003801403C160008F0FF000081
:1014B00000440040FA2110B58900FEF725FE002205
:1014C000034B013858609A6005321A6010BDC0465F
:1014D00010E000E0094A82B013680193019B431CAD
:1014E000591E8B41C01880235B02002801D102B035
:1014F000704711681942F8D00138F6E710E000E0B3
:10150000014B18607047C0460000002070B50026EF
:101510000C4D0D4C641BA410A64209D1002600F00E
:101520002BF80A4D0A4C641BA410A64205D170BDCD
:10153000B300EB5898470136EEE7B300EB589847F5
:101540000136F2E76C1600086C1600086C160008ED
:1015500070160008002310B59A4200D110BDCC5C73
:10156000C4540133F8E703008218934200D1704756
:1015700019700133F9E70000F8B5C046F8BC08BCA3
:101580009E467047F8B5C046F8BC08BC9E467047FA
:1015900001B40248844601BC604700BF050000203A
:1015A000657261736520666C617368206572720D87
:1015B0000A0064617461206572720D0A00736176BD
:1015C0006520666C617368206572720D0A00637233
:1015D00063206572720D0A002E2E2E00000000009E
:1015E00000000000000000000000000000000000FB
:1015F00000000000000000000000000001000000EA
:1016000002000000030000000400000006000000CB
:1016100007000000080000000900000000000000B2
:1016200000000000000000000000000001000000B9
:1016300002000000030000000400000001000000A0
:101640000200000004000000060000000800000086
:101650000A0000000C000000100000002000000044
:0C166000400000008000000000010000BD
:04166C00E900000889
:04167000C1000008AD
:10167400006CDC0280220C4B30B55C69D202224340
:101684005A61EFF3108272B64C1CFF34401A0D6895
:1016940045500431A142FAD1802149021869084217
:0C16A400FCD182F3108830BD0020024011
:0400000508000DA939
:00000001FF
