:020000040800F2
:10300000980900209D310008613F00086D350008D7
:1030100000000000000000000000000000000000B0
:10302000000000000000000000000000673F0008F2
:103030000000000000000000633F0008693F000836
:10304000AF31000800000000AF310008AF310008C8
:10305000AF310008AF310008AF310008AF310008D0
:1030600000000000AF310008AF310008AF310008A8
:10307000AF310008813F0008AF31000800000000B8
:10308000AF3100080000000000000000AF31000870
:1030900000000000AF3100087D3F0008AF3100089C
:1030A00000000000653F000800000000B13F00087C
:1030B000AF31000800000000000000000000000028
:1030C00000F002F800F03EF80CA030C808382418D0
:1030D0002D18671EA246AB4654465D46AC4201D150
:1030E00000F030F87E460F3EB6460FCC0126334244
:1030F00000D0FB1A3343A246AB461847A84600004F
:10310000C8460000103A02D378C878C1FAD85207EE
:1031100001D330C830C101D504680C60704700008D
:103120000023002400250026103A01D378C1FBD8E3
:10313000520700D330C100D50B6070471FB51FBDCB
:1031400010B510BD00F072F81146FFF7F7FF03F05D
:10315000E1F900F08AF803B4FFF7F2FF03BC00F0D6
:1031600091F8000070B505460C46164602E00FCCFB
:103170000FC5103E102EFAD2082E02D303CC03C581
:10318000083E042E07D301CC01C5361F03E0217889
:103190002970641C6D1C761EF9D270BD07488047EB
:1031A00007480047FEE7FEE7FEE7FEE7FEE7FEE72B
:1031B00004480549054A064B704700006D3F00086A
:1031C000C1300008980300209809002098050020CD
:1031D00098050020D2B210B513029A1813049A1859
:1031E00000F00EF810BD01E004C0091F0429FBD255
:1031F0008B0701D50280801CC90700D00270704780
:1032000000290BD0C30702D00270401C491E0229BE
:1032100004D3830702D50280801C891EE3E70022C5
:10322000EEE70022DFE7704770477047754600F011
:1032300025F8AE46050069465346C008C0008546DD
:1032400018B020B5FFF7B4FF60BCB64600260027D3
:10325000C0C5C0C5C0C5C0C5C0C5C0C5C0C5C0C546
:10326000403D490849008D46704710B50446C046A8
:10327000C0462046FFF76FFF10BD000000487047B2
:103280000800002001491820ABBEFEE7260002001E
:103290007047000070B5044600F062F90619A44DAD
:1032A0002868C00305D500F05BF9B042F8D30320CD
:1032B00070BD29689F480840286003D09B4948603A
:1032C000012070BD00F04CF904192868400305D5B1
:1032D00000F046F9A042F8D3032070BD002070BD75
:1032E000F0B583B00546914C2078012802D1022028
:1032F00003B0F0BD029100276760012020707D209F
:10330000C6003046FFF7C6FF002802D0277003B082
:10331000F0BD286804280BD11C48801C22490A688B
:1033200002430A603046FFF7B5FF277003B0F0BDD7
:10333000F8430299086039466F68A868C019874247
:103340000191084619D2FC0017490868104A10403C
:1033500020430E4A104308603046FFF79BFF0028C9
:1033600008D16868A968081808347F1C8742EBD325
:10337000019801E002990F606C4C0B4B1968022216
:1033800091431960019F277003B0F0BD0200010056
:1033900085FFFEFF0120C00703490A6802430A6057
:1033A0000868C043C00F704714200240F0B589B0D0
:1033B0000E465E490C78012C03D10222104609B05A
:1033C000F0BD06930292039000200790486001240C
:1033D0000C707D20C50000F0C3F8049547190594D2
:1033E0002504534C2068284206D000F0B9F8B842B2
:1033F000F8D303224D4F94E020684E4908402060E6
:1034000003D04A4F7860059A8BE000F0A9F8049940
:103410004718012005908004089020680899084208
:1034200004D000F09DF8B842F7D3E2E703980128F2
:103430000AD1606801210143616002983060BFF3E6
:103440006F8F0698706044E0606808990843606078
:10345000EFF31080019072B6079A11460696029E0D
:103460007058069B58505B18701847685F608768F3
:103470009F60C768DF6007691F6147695F6187698F
:103480009F61C769DF61076A1F62476A5F62876A77
:103490009F62C76ADF62076B1F63476B5F63876B5F
:1034A0009F63C06BD8630F201043403110323F2818
:1034B000D6D308E02068284208D02068284205D0EA
:1034C0002068284202D020682842F3D1019880F376
:1034D0001088164F00F044F80499461820682842D6
:1034E00005D000F03DF8B042F8D3032215E0206883
:1034F00010490840206002D07860059A0DE000F085
:103500002FF80499451820680899084204D000F063
:1035100027F8A842F7D3E8E70022606803998843B8
:10352000606007983870104609B0F0BD7403002041
:1035300010200240FAC300000648C168002901D4E7
:10354000002070470449016004490160C068C00F51
:103550007047C0460820024023016745AB89EFCD84
:10356000014800687047C04690030020FEE7000055
:10357000F0B584B00E460A6811BA0B09744C2340AA
:103580002140090159188B08724C234021408900C1
:1035900059184B08704C2340214049005B182027E4
:1035A000002A394605D1002B0CD11146F9400ED125
:1035B000C0E051421140694C6143C90E68A4615C8E
:1035C000002BF2D00F461146F94000D1B2E0039033
:1035D00002960EE09300716999400F229A40036AA7
:1035E00093430B4303627F1C32681146F94000D1BC
:1035F000A0E00125BD401540F5D029BA0A09544B79
:103600001A401940090151188A08524B1A401940B2
:10361000890051184A08504B1A4019404900511866
:103620000368766809D0002D09D06A422A404B48C9
:103630004243D20E4AA0825C02E0402404E02022F1
:1036400054000322A24093433246A2401A430398F7
:103650000260721E012A1BD88468029883680029C0
:103660000AD0002D009109D06A422A403B484243CB
:10367000D20E3BA0825C02E0402205E020225200F4
:10368000032191408C430099934023430398836026
:10369000C36800290AD0002D01960BD0684228404B
:1036A0002E494843C00E2EA10A5C04E0022E029E61
:1036B00099D110E02022029E3069510088400324F5
:1036C0008C40A34303430398C360019902298AD124
:1036D000290600D07EE703462C0A20BA0109284AB1
:1036E00011401040000108188108264A114010407E
:1036F000800008184108184A11401040400008187E
:1037000072695B6A09D0002C0AD0604220401349DC
:103710004843C00E12A1095C03E08021039805E034
:103720002021039889000F248C40A3438A401A4328
:10373000426258E77168491E012905D8F36853436E
:103740004168914319434160002004B0F0BDC04678
:103750000F0F0F0F333333335555555531B57C07A4
:1037600000011C021D0E18031E16140F1911040867
:103770001F1B0D17151310071A0C12060B050A094B
:10378000000F0F0F0033333380B57D21C90003F0E4
:10379000DDFE401EDA494860002088600520086090
:1037A00080BDC04610B5114A116838230B403A4914
:1037B000082B05D01346083B1B689B045B0FD940C0
:1037C000016013689B093C241C40354B1B591F2486
:1037D0002340D94041601268920A1C2313402F4AAB
:1037E000D2582240D140816010BDC046081002402E
:1037F00010B501460020032945D123494A6D032312
:103800001A401B04D218214B9A4210D0204B9A42E6
:1038100013D0204882421BD18868382202401E48BB
:10382000082A30D009688904490FC84010BD01201A
:10383000C203C86D8003104010BD0A68520522D52E
:1038400008680006400F411C134803F07FFE10BDBE
:103850008868382202401048082A03D00A68920477
:10386000520FD0408A688968890A1C230B400B4993
:10387000C9581F23194092093C241440084A125980
:103880001A40D040C84010BD0010024003000300A1
:103890000200030001000300006CDC0284770008D2
:1038A0004477000870B50268012352061A4629D4ED
:1038B0000268174C14400A6822434C681443CA68D3
:1038C00022430C6914438A692243CD6915434A692E
:1038D00015430C6A2543056045680E4E2E40120CB8
:1038E00032438D682A434260EA0A04D1012212035E
:1038F000456815434560012255030022AC4201D1C1
:10390000898C0161D902C3698B43C361104670BDC4
:103910004000FFFFFBF0FFFF014908607047C04611
:103920000000002010B504681D4A904202D01D4BD3
:1039300098420FD170239C434B6823431A4CA042FA
:103940000CDD904210D0194CA0420DD0184CA04272
:103950000AD023E02346144CA042F2DC114CA042D2
:1039600002D0144CA04219D103242402A343CC68F2
:103970001C4304608B68C3620B888362904205D04D
:10398000F84A904202D00A4A904201D10969016383
:10399000416901220A434261002010BD1C46E8E74C
:1039A000002C014000040040FF2B01400048014072
:1039B0000044014000200040F0B583B00446006898
:1039C000C00726D10D4620682D490140A86808434C
:1039D0002969014368690843E969014321600320BB
:1039E000010362688A43E968114361600002A168CB
:1039F0008143A8690843A0600126224884420CD074
:103A00002148844233D10320FFF7F2FE00280AD177
:103A10002DE00126304603B0F0BD6846FFF7C2FE38
:103A20000298002823D06F68002F20D02968002634
:103A30000B291CD8890015A2515803F087FD0121DC
:103A4000C903EA698A420BD1790840004018394617
:103A500003F07CFD194901400007400F401805E0C4
:103A600079084018394603F071FD80B2E060E06AE1
:103A70000F21884329880143E162304603B0F0BD3D
:103A8000F369FFEF004400400038014001000000EE
:103A90000200000004000000060000000800000012
:103AA0000A0000000C0000001000000020000000D0
:103AB000400000008000000000010000F0FF000056
:103AC00081B00F490A680092401C01D30020C04316
:103AD000009A0A68D203D21710180ED00A68D203CF
:103AE000D217101809D00A68D203D217101804D0C0
:103AF0000A68D203D2171018EBD101B07047C04644
:103B000010E000E081B0012000030E490A68024382
:103B10000A6009680140009100980B480168602222
:103B20009143016001688022914301600749C160AF
:103B300001681822914301600021C943816001B0EE
:103B40007047C0463810024008300240B71DC1041B
:103B5000F0B58DB000270B970A970997089767482B
:103B60000168202211430160016811400C910C99F9
:103B70000168012631430160016831400C910C99C4
:103B80000168022211430160006810400C900C98FB
:103B9000052005070420A861024600900820019036
:103BA000A86110200290A8611D4840210391816204
:103BB0000A97079706921B4806A90591FFF7D8FCBC
:103BC0000A9709970324089404960796009806908C
:103BD00028460599FFF7CCFC0A97099708940796A1
:103BE000019806902846059E3146FFF7C1FC0A97CA
:103BF0000997089404980790029806902846314641
:103C0000FFF7B6FC0A970997089404980790039861
:103C1000069003483146FFF7ABFC0DB0F0BDC0463F
:103C20000004005000140050F0B593B00327B9030E
:103C3000C548026A8A43026201231903C2680A4323
:103C4000C260C2680A400992099901680193194348
:103C500001600068184009900026089607960696AD
:103C600005970220029004902020039009980520D7
:103C7000040703AD20462946FFF77AFC089607960D
:103C80000696059702980490402003902046294606
:103C9000FFF76EFC08960796069605970298049023
:103CA0008020039020462946FFF762FCFF20000297
:103CB000A7490A6882430A6001984006A54908603E
:103CC000119610960D960C960996412080000A9048
:103CD000FC300E900720129000020B9010240F94DD
:103CE000074D281F09A9FFF7DDFD2868A0432860BC
:103CF000286808210143296013B0F0BD3410024048
:103D000004300140B0B586B0002000900125A90420
:103D1000364A13680B43136012680A4005920599EE
:103D2000FF2109040D4A13688B431360A905894AD2
:103D3000116069462F220A8004900390084A02927B
:103D40000190084C2046FFF7EDFD20688021884354
:103D5000206020682843206006B0B0BD14E400E075
:103D6000FFFF000000480140B0B586B00020009081
:103D70000125E9021D4A13680B43136012680A40CB
:103D800005920599FF210902194A13688B431360B4
:103D90006903704A11606946164A0A8004900390CC
:103DA000092202920190144C2046FFF7BBFD8020AF
:103DB000C043216801402160A168104A0A40A26006
:103DC00061687022914361600F21090562688A432E
:103DD0006260A1680140A160E8432061E068284377
:103DE000E06020682843206006B0B0BD401002406B
:103DF0000CE400E0BF120000002C0140F8BFFEFF01
:103E0000F0B591B000240E940320C1434E48026ADD
:103E10000A4002620125A903C2680A43C260C2685F
:103E20000A40029202990168294301600068284013
:103E30001090079506950595022004900190039037
:103E40006802029010980520000702A9FFF790FB76
:103E5000AF053E48016839430160FF2000063C4938
:103E60000A6882430A60E8063A4908600F940C2009
:103E70000D900C940B940A94374809900894374C91
:103E80002646083E08A93046FFF796FDEFF310805E
:103E900085F3108807214A0723689343236080F342
:103EA0001088EFF3108085F31088490622688A4352
:103EB000226080F3108868073168814331600920EF
:103EC000C002211F0A6882430A60206822218843B9
:103ED0002060216808200143216031682943316056
:103EE000690562690A4202D062693A4211D1626987
:103EF0000A4202D062693A420BD162690A4202D098
:103F000062693A4205D162690A42EAD062693A427C
:103F1000E7D0A0610420A061A5610198A061EFF342
:103F2000108085F31088316820220A43326080F3C4
:103F30001088EFF3108085F31088216829432160F1
:103F400080F3108811B0F0BD341002400000014031
:103F500018E400E000E100E040420F0008380140B2
:103F6000FEE77047704770477047000001480249FC
:103F70000160704708ED00E0003000087047000065
:103F800080B505480168C90702D00121C943016015
:103F900000F004F880BDC046102C01400348012108
:103FA00001704168491C41607047C046C000002054
:103FB000F0B581B04348011F0A68920604D5024655
:103FC000203A1268920613D40968009100994907B3
:103FD0000BD40099C90715D10099090721D400997C
:103FE000890723D5022104221DE0042101221AE0C1
:103FF0004068354C6278C1B2002A06D1552904D0F8
:1040000001B0F0BD012102220DE0012513466B40F5
:104010000E46553E774277411F40012F0DD1657006
:104020001EE0082103222A4B1A6001600121CA0206
:1040300002604903016001B0F0BDA3789A43012AF0
:1040400006D1AA2904D00020A060607001B0F0BDA4
:104050000E46AA3E774277413A40012A07D1A57021
:10406000A1684A1CA2606118087401B0F0BDE27832
:1040700016466E403340012B08D16160A1684A1C8E
:10408000A26061180874E57001B0F0BD002AB7D0D5
:10409000A1684A1CA26061180874A0686168C91C04
:1040A0008842ADD3A268214610310848FFF75AF87C
:1040B000A068E06025700020A06060806070606093
:1040C00001B0F0BD20380140C80000202C030020C2
:1040D0008C030020F0B58DB0464BD8780146A1394D
:1040E000222900D9B1E049007944898849008F44E8
:1040F0002200930A930A930A930A930A930A930A53
:10410000930A930A930A930A930A930A930A930AC7
:10411000930A930A930A930A930A930A930A930AB7
:10412000930A930A930A930A930A930A930A930AA7
:10413000E5001703490402F031FE2F4801463431EF
:1041400001220A712D4A42632D4A1268130A54242F
:104150000355CA778C794D792C19CD7964190D7A6C
:1041600064194D7A64198D7A6419CD7A64190D7BBE
:1041700064194D7B64198D7B6419CD7B64190D7CAA
:1041800064194D7C64198D7C6419CD7C64190D7D96
:1041900064194D7D64198D7D6419CD7D64190D7E82
:1041A00064194D7E64198D7E6419CD7E64190D7F6E
:1041B00064194D7F64198D7F6419A218D218303AA2
:1041C0005523C25400BF00BF00BF00BF00BF00BFE7
:1041D00000BF00BF00BF00BF0A4C20461C38036868
:1041E000042293430360056808231D4305602225CC
:1041F0000EE0C0462C03002068000020AA551FB125
:10420000244801401C380140891CAD1E00D1DEE36A
:104210000E78E6602668360608D42668360605D489
:104220002668360602D426683606F3D54E78E66050
:1042300026683606E8D426683606E5D426683606AB
:10424000E2D426683606F3D5DEE7612801D001F016
:10425000E3F9FFF771F90124E003124908601249FC
:104260000E2002228A62C8620C630846283014318C
:10427000FFF736F80020C3430C490D4A2046FFF7EC
:1042800095F8FFF787F884F31088BFF34F8F09483C
:1042900009490160BFF34F8F00BF00BF00BF00BFDF
:1042A000FAE7C046102002406800002000700008B5
:1042B0005555AAAA0CED00E00400FA05FFF73CF9F9
:1042C0000120C103094A1160094C0F210222A26298
:1042D000E16220632046283021461431FFF700F8C0
:1042E000044E054D002809D154E1C046102002407B
:1042F000680000201C380140C0FEFFFF00BF00BF67
:1043000000BF00BF00BF00BF00BF00BF00BF00BFB5
:1043100030461C38016804220C9291430160016808
:1043200008220B92114301606527F7603168090686
:1043300008D43168090605D43168090602D4316809
:104340000906F3D572210A91F1603168090608D493
:104350003168090605D43168090602D431680906B6
:10436000F3D56121F1603268120608D43268120672
:1043700005D43268120602D432681206F3D57322CD
:10438000F26033681B0608D433681B0605D4336813
:104390001B0602D433681B06F3D50997F760336810
:1043A0001B0608D433681B0605D433681B0602D4E9
:1043B00033681B06F3D52023F36037683F0608D423
:1043C00037683F0605D437683F0602D437683F0692
:1043D000F3D56627F76037683F0608D437683F068D
:1043E00005D437683F0602D437683F06F3D56C27FB
:1043F000F76037683F0608D437683F0605D437684A
:104400003F0602D437683F06F3D5F16031680906EC
:1044100008D43168090605D43168090602D4316828
:104420000906F3D5F260099F3168090608D431689E
:10443000090605D43168090602D431680906F3D5A6
:104440006821F1600A9A3168090608D431680906C2
:1044500005D43168090602D431680906F3D5F36042
:104460003168090608D43168090605D4316809069F
:1044700002D431680906F3D5F7603168090608D41B
:104480003168090605D43168090602D43168090685
:10449000F3D5F2603168090608D43168090605D4FD
:1044A0003168090602D431680906F3D5F260316833
:1044B000090608D43168090605D43168090602D412
:1044C00031680906F3D50D21F1603168090608D479
:1044D0003168090605D43168090602D43168090635
:1044E000F3D50A21F1603168090608D4316809065C
:1044F00005D43168090602D431680906F3D5294686
:1045000000BF00BF00BF00BF00BF00BF00BF00BFB3
:1045100000BF00BF00BF00BF00BF00BF00BF00BFA3
:1045200000BF00BF00BF00BF00BF00BF00BF00BF93
:1045300000BF00BF00BF00BF00BF00BF00BF00BF83
:1045400000BF00BF00BF00BF00BF00BF00BF00BF73
:1045500000BF00BF00BF00BF00BF00BF00BF00BF63
:1045600000BF00BF00BF00BF00BF00BF00BF00BF53
:1045700000BF00BF00BF00BF00BF00BF00BF00BF43
:104580004031BDD101680B9A9143016001680C9ADA
:1045900011430160FEF7FEFEF3482087F348606395
:1045A00000BF00BF00BF00BF00BF00BF00BF00BF13
:1045B00000BF00BF30461C38026804218A430260F5
:1045C00003680822134303603423E35CF360336819
:1045D0001B0608D433681B0605D433681B0602D4B7
:1045E00033681B06F3D53523E35CF36033681B06A1
:1045F00008D433681B0605D433681B0602D433681D
:104600001B06F3D53623E35CF36033681B0608D43E
:1046100033681B0605D433681B0602D433681B06B7
:10462000F3D53723E35CF36033681B0608D43368A3
:104630001B0605D433681B0602D433681B06F3D56A
:104640003823E35CF36033681B0608D433681B0629
:1046500005D433681B0602D433681B06F3D539230F
:10466000E35CF36033681B0608D433681B0605D48B
:1046700033681B0602D433681B06F3D500BF00BFA6
:1046800000BF00BF00BF00BF00BF00BF00BF00BF32
:1046900000BF00BF00BF00BF00BF00BF00BF00BF22
:1046A00000BF00BF00BF00BF00BF00BF00BF00BF12
:1046B00000BF00BF00BF00BF00BF00BF00BF00BF02
:1046C00000BF00BF00BF00BF00BF00BF00BF00BFF2
:1046D00000BF00BF00BF00BF00BF00BF00BF00BFE2
:1046E00000BF00BF00BF00BF00BF00BF00BF00BFD2
:1046F00000BF00BF00BF00BF00BF00BF4035BDD13D
:1047000003689343036002680A4302600020C143C8
:10471000A16197496060A060E06021610DB0F0BDCB
:10472000944A90689D78EC1E20189349884200D2E4
:1047300098E100BF00BF00BF00BF00BF00BF00BFC7
:1047400000BF00BF00BF8D4B18461C380268042113
:104750008A43026004680822144304606D24DC600C
:104760001C68240608D41C68240605D41C6824068A
:1047700002D41C682406F3D56124DC601D682D0674
:1047800008D41D682D0605D41D682D0602D41D68A9
:104790002D06F3D57825DD601D682D0608D41D682B
:1047A0002D0605D41D682D0602D41D682D06F3D5EF
:1047B0002025DD601E68360608D41E68360605D43E
:1047C0001E68360602D41E683606F3D56426DE60FF
:1047D0001E68360608D41E68360605D41E683606DE
:1047E00002D41E683606F3D5DC601E68360608D48F
:1047F0001E68360605D41E68360602D41E683606C4
:10480000F3D57426DE601E68360608D41E683606A8
:1048100005D41E68360602D41E683606F3D5DC6061
:104820001C68240608D41C68240605D41C682406C9
:1048300002D41C682406F3D5DD601C68240608D465
:104840001C68240605D41C68240602D41C682406AF
:10485000F3D56524DC601C68240608D41C68240693
:1048600005D41C68240602D41C682406F3D57224DF
:10487000DC601D682D0608D41D682D0605D41D6852
:104880002D0602D41D682D06F3D5DC601C682406B5
:1048900008D41C68240605D41C68240602D41C68AD
:1048A0002406F3D50D24DC601C68240608D41C689B
:1048B000240605D41C68240602D41C682406F3D5FB
:1048C0000A24DC601C68240608D41C68240605D46D
:1048D0001C68240602D41C682406F3D5284B00BFAC
:1048E00000BF00BF00BF00BF00BF00BF00BF00BFD0
:1048F00000BF00BF00BF00BF00BF00BF00BF00BFC0
:1049000000BF00BF00BF00BF00BF00BF00BF00BFAF
:1049100000BF00BF00BF00BF00BF00BF00BF00BF9F
:1049200000BF00BF00BF00BF00BF00BF00BF00BF8F
:1049300000BF00BF00BF00BF00BF00BF00BF00BF7F
:1049400000BF00BF00BF00BF00BF00BF00BF00BF6F
:1049500000BF00BF00BF00BF00BF00BF00BF4033AB
:10496000BDD101F08DFAC04601D40000AA5503D193
:104970000078000868000020018040FC1C380140DD
:10498000C0FEFFFFF64E7468200AF64F00D054E1D7
:104990000721214006D0F44800190822511AFF22AD
:1049A000FEF718FCF460A50800D15CE1012D2A4651
:1049B00000D8012209940A950320114601400B9169
:1049C000511E03290C9200D350E1002386E1E749F0
:1049D00000BF00BF00BF00BF00BF00BF00BF00BFDF
:1049E00000BF00BF00BF00BF00BF00BF00BF00BFCF
:1049F00000BF00BF00BF00BF00BF00BF00BF00BFBF
:104A000000BF00BF00BF00BF00BF00BF00BF00BFAE
:104A100000BF00BF00BF00BF00BF00BF00BF00BF9E
:104A200000BF00BF00BF00BF00BF00BF00BF00BF8E
:104A300000BF00BF00BF00BF00BF00BF00BF00BF7E
:104A400000BF00BF00BF00BF00BF00BF00BF00BF6E
:104A50004031BDD101689943016001681143016093
:104A60000DB0F0BD5268111901200002814200D83A
:104A7000E7E000BF00BF00BF00BF00BF00BF00BF36
:104A800000BF00BF00BFB74B18461C3802680421A6
:104A90008A43026004680822144304606424DC60D2
:104AA0001C68240608D41C68240605D41C68240647
:104AB00002D41C682406F3D56124DC601D682D0631
:104AC00008D41D682D0605D41D682D0602D41D6866
:104AD0002D06F3D57425DD601D682D0608D41D68EC
:104AE0002D0605D41D682D0602D41D682D06F3D5AC
:104AF000DC601C68240608D41C68240605D41C68E5
:104B0000240602D41C682406F3D52024DC601C682B
:104B1000240608D41C68240605D41C68240602D484
:104B20001C682406F3D56524DC601C68240608D4C0
:104B30001C68240605D41C68240602D41C682406BC
:104B4000F3D57224DC601D682D0608D41D682D067F
:104B500005D41D682D0602D41D682D06F3D5DC6032
:104B60001C68240608D41C68240605D41C68240686
:104B700002D41C682406F3D50D24DC601C682406CE
:104B800008D41C68240605D41C68240602D41C68BA
:104B90002406F3D50A24DC601C68240608D41C68AB
:104BA000240605D41C68240602D41C682406F3D508
:104BB0006E4B00BF00BF00BF00BF00BF00BF00BF03
:104BC00000BF00BF00BF00BF00BF00BF00BF00BFED
:104BD00000BF00BF00BF00BF00BF00BF00BF00BFDD
:104BE00000BF00BF00BF00BF00BF00BF00BF00BFCD
:104BF00000BF00BF00BF00BF00BF00BF00BF00BFBD
:104C000000BF00BF00BF00BF00BF00BF00BF00BFAC
:104C100000BF00BF00BF00BF00BF00BF00BF00BF9C
:104C200000BF00BF00BF00BF00BF00BF00BF00BF8C
:104C300000BF4033BDD101F023F9B46900200A90D0
:104C4000FBE1002C01D100F0F3FD032726463E4096
:104C50000A962D1F032D0C900B9201D300F0C2FD7C
:104C6000002500F0D2FD00200C906EE01546854333
:104C700000263F4A33463C49885D00068C19677818
:104C80003F043818A7783F02C019E778C01990513F
:104C90002079000667793F043818A7793F02C019C8
:104CA000E779C71990194760277A3F06617A0904A6
:104CB000C919A77A3F02C919E77AC9198160217B0E
:104CC0000906677B3F047918A77B3F02C919E47B7B
:104CD0000919C16010361B1D9D42CCD10B9F002FBE
:104CE0001F4E10D09900204A505C000653185C7883
:104CF000240420189C7824020019DB78C0181C4B6F
:104D00005850012F01D1174F1DE0081D145C2406D7
:104D100015186E7836043419AE783602A419ED7879
:104D200064191C50022F0CD00831505C0006521838
:104D3000547824042018947824020019D27880181A
:104D40005850084F064E0A9D099C032320461840E0
:104D5000084AC04678440079400087440D1219245F
:104D6000680000201C38014020010020C0FEFFFF29
:104D70002002002000300240B0691061042C26D2CD
:104D80004AE00B930C9B98002949085C000617E049
:104D90000B930C9B980026490C5C2406081840785D
:104DA000000400190CE00B930C9B980020490C5C4C
:104DB00024060818417809040919807800020818A7
:104DC00099001C4C6050B06910616D1C0B9B29460A
:104DD0001940681E032801D200230EE09D430023E2
:104DE0001448046814604468146084681460C468DB
:104DF000146010301B1D9D42F3D100290CD0980087
:104E00000C4B1C581460012906D0C018436813606D
:104E1000022901D08068106010680290FEF78CFBB8
:104E2000F068002800D1FDE031690024004D0CE05D
:104E30002001002020020020F64E31690831316146
:104E40000834F068844200D3ECE0285D2B195A78CE
:104E5000120210189A78DE783602B218120412186C
:104E600018795E79360230189E79DB791B029B191E
:104E70001B041B180120FEF799FA0028DCD000BFA4
:104E800000BF00BF00BF00BF00BF00BF00BF00BF2A
:104E900000BF38461C38026804218A430260036858
:104EA0000822134303607323FB603B681B0608D48E
:104EB0003B681B0605D43B681B0602D43B681B06F7
:104EC000F3D56123FB603E68360608D43E6836069B
:104ED00005D43E68360602D43E683606F3D57626FB
:104EE000FE603E68360608D43E68360605D43E6845
:104EF000360602D43E683606F3D56526FE603E6867
:104F0000360608D43E68360605D43E68360602D416
:104F10003E683606F3D52026FE603E68360608D485
:104F20003E68360605D43E68360602D43E6836062C
:104F3000F3D56626FE603E68360608D43E6836061F
:104F400005D43E68360602D43E683606F3D56C2694
:104F5000FE603E68360608D43E68360605D43E68D4
:104F6000360602D43E683606F3D5FB60A94E3B6890
:104F70001B0608D43B681B0605D43B681B0602D4FD
:104F80003B681B06F3D5A44B00BF00BF00BF00BFAA
:104F900000BF00BF00BF00BF00BF00BF00BF00BF19
:104FA00000BF00BF00BF00BF00BF00BF00BF00BF09
:104FB00000BF00BF00BF00BF00BF00BF00BF00BFF9
:104FC00000BF00BF00BF00BF00BF00BF00BF00BFE9
:104FD00000BF00BF00BF00BF00BF00BF00BF00BFD9
:104FE00000BF00BF00BF00BF00BF00BF00BF00BFC9
:104FF00000BF00BF00BF00BF00BF00BF00BF00BFB9
:1050000000BF00BF00BF00BF4033BDD10368934362
:10501000036002680A43026031690834F068844220
:1050200000D212E7FEF7B6F9029CB461002070606E
:10503000B068F1684018B0600A94E548B086304620
:10504000343003238370E34D69790906AA79120489
:105050005118EA79120289182A7A89188C4200D0EC
:105060001BE222460893DC493187D321C17000BF7F
:1050700000BF00BF00BF00BF00BF00BF00BF00BF38
:1050800000BF39461C39086804240094A043086016
:105090000868082306931843019108603420305CA7
:1050A000F8603868000608D43868000605D4386807
:1050B000000602D438680006F3D53520305CF8606D
:1050C0000A9C3868000608D43868000605D4386899
:1050D000000602D438680006F3D53620305CF8604C
:1050E0003868000608D43868000605D43868000619
:1050F00002D438680006F3D53720305CF860386891
:10510000000608D43868000605D43868000602D4C2
:1051100038680006F3D53820305CF860386800063F
:1051200008D43868000605D43868000602D4386808
:105130000006F3D53920305CF8600292386800062A
:1051400008D43868000605D43868000602D43868E8
:105150000006F3D5304800BF00BF00BF00BF00BF4E
:1051600000BF00BF00BF00BF00BF00BF00BF00BF47
:1051700000BF00BF00BF00BF00BF00BF00BF00BF37
:1051800000BF00BF00BF00BF00BF00BF00BF00BF27
:1051900000BF00BF00BF00BF00BF00BF00BF00BF17
:1051A00000BF00BF00BF00BF00BF00BF00BF00BF07
:1051B00000BF00BF00BF00BF00BF00BF00BF00BFF7
:1051C00000BF00BF00BF00BF00BF00BF00BF00BFE7
:1051D00000BF00BF00BF4030BDD101990868069AEA
:1051E000904308600868009A10430860012003900B
:1051F00001027A480491FEF714F800200590C2439A
:10520000B26177483061B368002B00D101E21446E7
:1052100012E0C04668000020C0FEFFFF2C68B461A9
:10522000F0680021F160B1680B1AB36031690818A9
:105230003061002B00D1ECE10A94FF2B00D9049BD4
:10524000F360069C65490A19114608390619354666
:10525000083D2D680D702F0ECF702F0C8F702D0A0A
:105260004D70211F994225D2111F351F2D680D70D9
:105270002F0ECF702F0C8F702D0A4D709C4219D2BB
:105280000159564D29550D0ED5700D0C9570090A12
:105290005170211D99420DD2716811710D0ED57199
:1052A0000D0C9571090A51712146103108349C4248
:1052B0000C46C7D3980805990B91089C494D099055
:1052C0007CD00128014600D803990D4625404A1E8E
:1052D000032A0B91079501D2002239E07C20084077
:1052E0000C9000242246404E3C48055D2F060519CF
:1052F00069780904C919AF783F02C919EF78C9194B
:105300003151297909066F793F047918AF793F0245
:10531000C919EF79C91937197960297A0906687AA4
:1053200000044018A97A09024018E97A4018B860C8
:10533000287B0006697B09040818A97B090240182C
:10534000E97B4018F8601034121D0C989042CBD1C4
:10535000079D002D30D09200204EB05C0006B118A1
:105360004C78240420188C7824020019C97840183D
:105370001D4FB850012D1FD0101D315C0906341887
:105380002F4665782D046918A5782D024919E4780F
:105390000919154C21501449022F0DD00832B05C68
:1053A00000060D46B1184C78240420188C7824028D
:1053B0000019C9784018A850089C0A4D1A46224086
:1053C0000A4F0B4E7A4412795200974413191F2941
:1053D000AA5500002C03002001D600002001002067
:1053E0000078000800300240200200201C380140F4
:1053F000680000200A982861042B099923D20DE740
:105400000B9B9800F349085C020615E00B9B980083
:10541000F04A115C090610184078000442180BE0AD
:105420000B9B9800EB4A115C090610184278120495
:105430005118807800020A189800E7490A500A9823
:1054400028610999491C0A462240481E032801D2B6
:1054500000230EE0A1430023DF4C20682860606831
:105460002860A0682860E068286010341B1D9942FD
:10547000F3D1002A00D1D1E69800D7490958296014
:10548000012A00D1CAE6D449401841682960022A9D
:1054900000D1C3E680682860C0E6D0493187E321A7
:1054A000C17000BF00BF00BF00BF00BF00BF00BF92
:1054B00000BF00BF00BF38461C38026804218A4381
:1054C000026003680822134303603423F35CFB602B
:1054D0003B681B0608D43B681B0605D43B681B06CB
:1054E00002D43B681B06F3D53523F35CFB603B68B5
:1054F0001B0608D43B681B0605D43B681B0602D478
:105500003B681B06F3D53623F35CFB603B681B0648
:1055100008D43B681B0605D43B681B0602D43B68D5
:105520001B06F3D53723F35CFB603B681B0608D4EE
:105530003B681B0605D43B681B0602D43B681B0670
:10554000F3D53823F35CFB603B681B0608D43B684B
:105550001B0605D43B681B0602D43B681B06F3D52B
:105560003923F35CFB603B681B0608D43B681B06D1
:1055700005D43B681B0602D43B681B06F3D5984B49
:1055800000BF00BF00BF00BF00BF00BF00BF00BF23
:1055900000BF00BF00BF00BF00BF00BF00BF00BF13
:1055A00000BF00BF00BF00BF00BF00BF00BF00BF03
:1055B00000BF00BF00BF00BF00BF00BF00BF00BFF3
:1055C00000BF00BF00BF00BF00BF00BF00BF00BFE3
:1055D00000BF00BF00BF00BF00BF00BF00BF00BFD3
:1055E00000BF00BF00BF00BF00BF00BF00BF00BFC3
:1055F00000BF00BF00BF00BF00BF00BF00BF00BFB3
:105600004033BDD103689343036002680A430260DC
:1056100002E00298844201D10DB0F0BD00BF00BF8E
:1056200000BF00BF00BF00BF00BF00BF00BF00BF82
:10563000019A10680099884310601168082001439E
:1056400011606322FA603968090608D439680906CE
:1056500005D43968090602D439680906F3D57221E0
:10566000F9603B681B0608D43B681B0605D43B6801
:105670001B0602D43B681B06F3D5FA603A68120693
:1056800008D43A68120605D43A68120602D43A6879
:105690001206F3D52022FA60514B3A68120608D45C
:1056A0003A68120605D43A68120602D43A6812061D
:1056B000F3D56522FA603A68120608D43A681206F1
:1056C00005D43A68120602D43A681206F3D5F96096
:1056D0003A68120608D43A68120605D43A681206E7
:1056E00002D43A681206F3D5F9603968090608D47D
:1056F0003968090605D43968090602D439680906EB
:10570000F3D50D21F9603968090608D4396809060E
:1057100005D43968090602D439680906F3D50A2187
:10572000F9603968090608D43968090605D439686A
:10573000090602D439680906F3D500BF00BF00BFCF
:1057400000BF00BF00BF00BF00BF00BF00BF00BF61
:1057500000BF00BF00BF00BF00BF00BF00BF00BF51
:1057600000BF00BF00BF00BF00BF00BF00BF00BF41
:1057700000BF00BF00BF00BF00BF00BF00BF00BF31
:1057800000BF00BF00BF00BF00BF00BF00BF00BF21
:1057900000BF00BF00BF00BF00BF00BF00BF00BF11
:1057A00000BF00BF00BF00BF00BF00BF00BF00BF01
:1057B00000BF00BF00BF00BF00BF4033BDD1019A92
:1057C00011688143116010680099084310600DB0A2
:1057D000F0BDC046200100202002002001E60000AC
:1057E000C0FEFFFF8A4DAE18BC4300255F191A4664
:1057F0007B7973557319B8795870F8799870387A3D
:10580000D87013462D1DAC42F0D10A9F002F0C9882
:105810000B9A0DD0AC18EA1856797D4D2E55012FF4
:1058200006D0641995796570022F01D0D279A270E3
:10583000784D6960784E794C814200D06CE2E86026
:10584000002140227248435C1D0643185F783F04E4
:105850007D199F783F02ED19DF78ED1970484550AA
:105860001D792D065F793F047D199F793F02ED195F
:10587000DF79EF1945186F601F7A3F06587A0004E8
:10588000C0199F7A3F02C019DF7AC019A860187B3F
:1058900000065F7B3F0438189F7B3F02C019DB7B0B
:1058A000C018E860121F1031002ACBD1594DA869E9
:1058B0005C4908615A4A106808605068086090683E
:1058C0000860D068086010690860506908609069D5
:1058D0000860D0690860106A0860506A0860906AC1
:1058E0000860D06A0860106B0860506B0860906BAD
:1058F0000860D06B0860106C0860506C0860906C99
:105900000860D06C0860106D0860506D0860906D84
:105910000860D06D0860106E0860506E0860906E70
:105920000860D06E0860106F0860506F0860906F5C
:105930000860D06F086080201058086084201058DC
:1059400008608820105808608C201058086090204B
:10595000105808609420105808609820105808606B
:105960009C2010580860A02010580860A4201058EF
:105970000860A82010580860AC2010580860B020BB
:1059800010580860B42010580860B82010580860FB
:10599000BC2010580860C02010580860C42010585F
:1059A0000860C82010580860CC2010580860D0202B
:1059B00010580860D42010580860D820105808608B
:1059C000DC2010580860E02010580860E4201058CF
:1059D0000860E82010580860EC2010580860F0209B
:1059E00010580860F42010580860F820105808601B
:1059F000FC201058086008680990FDF79DFDE868D4
:105A00000028034A00D17DE1296900271AE0C04639
:105A100020010020680000201C380140C0FEFFFF6C
:105A20002002002000300240044D2969083129611C
:105A3000034A0837E868874204D363E1680000201E
:105A400020010020D05DD3195A78120210189A78DC
:105A5000DD782D02AA181204121818795D792D022A
:105A600028189D79DB791B025B191B041B18012088
:105A7000FDF79CFC0028D7D000BF00BF00BF00BFCF
:105A800000BF00BF00BF00BF00BF00BF30461C38D2
:105A9000016804220C9291430160016808220B9274
:105AA0001143016073210A91F1603168090608D43D
:105AB0003168090605D43168090602D4316809063F
:105AC000F3D56121F1603268120608D432681206FB
:105AD00005D43268120602D432681206F3D5762253
:105AE000F2603268120608D43268120605D43268B1
:105AF000120602D432681206F3D56525F5603268C5
:105B0000120608D43268120605D43268120602D48E
:105B100032681206F3D52022F26033681B0608D4DF
:105B200033681B0605D433681B0602D433681B0692
:105B3000F3D56623F36033681B0608D433681B066D
:105B400005D433681B0602D433681B06F3D56C23D7
:105B5000F36033681B0608D433681B0605D433682A
:105B60001B0602D433681B06F3D5F16031680906C1
:105B700008D43168090605D43168090602D43168B1
:105B80000906F3D50A99F1603168090608D431682D
:105B9000090605D43168090602D431680906F3D52F
:105BA0006821F1603168090608D43168090605D416
:105BB0003168090602D431680906F3D5F26031680C
:105BC000090608D43168090605D43168090602D4EB
:105BD00031680906F3D5F5603168090608D43168E3
:105BE000090605D43168090602D431680906F3D5DF
:105BF0007221F160A64D3268120608D4326812068E
:105C000005D43268120602D432681206F3D5F16068
:105C10003168090608D43168090605D431680906D7
:105C200002D431680906F3D50D21F160994A316833
:105C3000090608D43168090605D43168090602D47A
:105C400031680906F3D50A21F1603168090608D4E4
:105C50003168090605D43168090602D4316809069D
:105C6000F3D5214600BF00BF00BF00BF00BF00BF8B
:105C700000BF00BF00BF00BF00BF00BF00BF00BF2C
:105C800000BF00BF00BF00BF00BF00BF00BF00BF1C
:105C900000BF00BF00BF00BF00BF00BF00BF00BF0C
:105CA00000BF00BF00BF00BF00BF00BF00BF00BFFC
:105CB00000BF00BF00BF00BF00BF00BF00BF00BFEC
:105CC00000BF00BF00BF00BF00BF00BF00BF00BFDC
:105CD00000BF00BF00BF00BF00BF00BF00BF00BFCC
:105CE00000BF00BF4031BDD101680B9B99430160EB
:105CF00001680C9B1943016029690837E8688742ED
:105D000000D29FE6FDF746FB0998A8610020686075
:105D1000A868E9684018A8605F4828875F486863FA
:105D200000BF00BF00BF00BF00BF00BF00BF00BF7B
:105D300000BF00BF30461C38026804218A4302605D
:105D400003680822134303603423EB5CF360336879
:105D50001B0608D433681B0605D433681B0602D41F
:105D600033681B06F3D53523EB5CF36033681B0601
:105D700008D433681B0605D433681B0602D4336885
:105D80001B06F3D53623EB5CF36033681B0608D49F
:105D900033681B0605D433681B0602D433681B0620
:105DA000F3D53723EB5CF36033681B0608D4336804
:105DB0001B0605D433681B0602D433681B06F3D5D3
:105DC0003823EB5CF36033681B0608D433681B068A
:105DD00005D433681B0602D433681B06F3D5392378
:105DE000EB5CF36033681B0608D433681B0605D4EC
:105DF00033681B0602D433681B06F3D500BF00BF0F
:105E000000BF00BF00BF00BF00BF00BF00BF00BF9A
:105E100000BF00BF00BF00BF00BF00BF00BF00BF8A
:105E200000BF00BF00BF00BF00BF00BF00BF00BF7A
:105E300000BF00BF00BF00BF00BF00BF00BF00BF6A
:105E400000BF00BF00BF00BF00BF00BF00BF00BF5A
:105E500000BF00BF00BF00BF00BF00BF00BF00BF4A
:105E600000BF00BF00BF00BF00BF00BF00BF00BF3A
:105E700000BF00BF00BF00BF00BF00BF4034BDD1A6
:105E800003689343036002680A4302600DB0F0BDEB
:105E9000680000202001002001D50000AA5503D28F
:105EA000F0B583B0F54D04262E61F54F76243C7194
:105EB0003868800712D4386880070FD438688007A4
:105EC0000CD438688007F3D508E03868C00708D1DB
:105ED0003868C00705D13868C00702D13868C007E4
:105EE000F3D0387900223A713868800712D43868C4
:105EF00080070FD4386880070CD438688007F3D542
:105F000008E03868C00708D13868C00705D138688C
:105F1000C00702D13868C007F3D038792E602E61EF
:105F2000F52038713868800712D4386880070FD49C
:105F3000386880070CD438688007F3D508E03868E3
:105F4000C00708D13868C00705D13868C00702D13A
:105F50003868C007F3D038793A713868800712D4AE
:105F6000386880070FD4386880070CD438688007F9
:105F7000F3D508E03868C00708D13868C00705D1F4
:105F80003868C00702D13868C007F3D038792E606E
:105F9000422800D0BBE22E6111203871386880079A
:105FA00012D4386880070FD4386880070CD438685A
:105FB0008007F3D508E03868C00708D13868C00703
:105FC00005D13868C00702D13868C007F3D03879E6
:105FD000012038713868800708D43868800705D4F4
:105FE0003868800702D438688007F3D50292386891
:105FF000C00708D13868C00705D13868C00702D18A
:106000003868C007F3D038792E6064200190FDF71E
:1060100057FD2E614E2038713868800712D43868D9
:1060200080070FD4386880070CD438688007F3D510
:1060300008E03868C00708D13868C00705D138685B
:10604000C00702D13868C007F3D038790F20387103
:106050003868800712D4386880070FD43868800702
:106060000CD438688007F3D508E03868C00708D139
:106070003868C00705D13868C00702D13868C00742
:10608000F3D038792E600120FDF71AFD2E614F20E4
:1060900038713868800708D43868800705D43868B4
:1060A000800702D438688007F3D5029B3868C007A0
:1060B00008D13868C00705D13868C00702D13868F0
:1060C000C007F3D03879662038713968890712D44F
:1060D000396889070FD4396889070CD4396889076A
:1060E000F3D508E03968C90708D13968C90705D16F
:1060F0003968C90702D13968C907F3D039792E60E8
:106100002E61502139713968890712D4396889079D
:106110000FD4396889070CD439688907F3D508E0AA
:106120003968C90708D13968C90705D13968C9076D
:1061300002D13968C907F3D03979387138688007D6
:1061400012D4386880070FD4386880070CD43868B8
:106150008007F3D508E03868C00708D13868C00761
:1061600005D13868C00702D13868C007F3D0387944
:106170002E602E61512038713868800712D438683B
:1061800080070FD4386880070CD438688007F3D5AF
:1061900008E03868C00708D13868C00705D13868FA
:1061A000C00702D13868C007F3D03879D6203871DB
:1061B0003868800712D4386880070FD438688007A1
:1061C0000CD438688007F3D508E03868C00708D1D8
:1061D0003868C00705D13868C00702D13868C007E1
:1061E000F3D038792E602E6114203871386880071A
:1061F00012D4386880070FD4386880070CD4386808
:106200008007F3D508E03868C00708D13868C007B0
:1062100005D13868C00702D13868C007F3D0387993
:10622000032038713868800712D4386880070FD48B
:10623000386880070CD438688007F3D508E03868E0
:10624000C00708D13868C00705D13868C00702D137
:106250003868C007F3D038792E602E610198387104
:106260003868800717D43868800714D438688007E6
:1062700011D438688007F3D50DE0C04618000050EF
:10628000083001403868C00708D13868C00705D118
:106290003868C00702D13868C007F3D038793B713D
:1062A0003868800712D4386880070FD438688007B0
:1062B0000CD438688007F3D508E03868C00708D1E7
:1062C0003868C00705D13868C00702D13868C007F0
:1062D000F3D038792E602E616520387139688907CE
:1062E00012D4396889070FD4396889070CD4396802
:1062F0008907F3D508E03968C90708D13968C907A3
:1063000005D13968C90702D13968C907F3D039798D
:10631000092139713968890712D4396889070FD47E
:10632000396889070CD439688907F3D508E03968DA
:10633000C90708D13968C90705D13968C90702D129
:106340003968C907F3D039792E602E613C713968FC
:10635000890712D4396889070FD4396889070CD4A2
:1063600039688907F3D508E03968C90708D1396861
:10637000C90705D13968C90702D13968C907F3D0FF
:1063800039793E713968890712D4396889070FD481
:10639000396889070CD439688907F3D508E039686A
:1063A000C90708D13968C90705D13968C90702D1B9
:1063B0003968C907F3D039792E602E613871386891
:1063C000800712D4386880070FD4386880070CD44F
:1063D00038688007F3D508E03868C00708D1386806
:1063E000C00705D13868C00702D13868C007F3D0AC
:1063F00038798F2038713868800712D43868800760
:106400000FD4386880070CD438688007F3D508E0CB
:106410003868C00708D13868C00705D13868C00798
:1064200002D13868C007F3D038792E602E613C71F4
:106430003868800712D4386880070FD4386880071E
:106440000CD438688007F3D508E03868C00708D155
:106450003868C00705D13868C00702D13868C0075E
:10646000F3D038793B713868800712D438688007D8
:106470000FD4386880070CD438688007F3D508E05B
:106480003868C00708D13868C00705D13868C00728
:1064900002D13868C007F3D038792E602E61AD2064
:1064A00038713868800712D4386880070FD438688C
:1064B00080070CD438688007F3D508E03868C00737
:1064C00008D13868C00705D13868C00702D13868DC
:1064D000C007F3D038793B713868800712D4386828
:1064E00080070FD4386880070CD438688007F3D54C
:1064F00008E03868C00708D13868C00705D1386897
:10650000C00702D13868C007F3D038792E6003B0D5
:10651000F0BD00008AB0D04CA06B01231843A063EB
:10652000A06B1840089008981807616B01436163DD
:10653000616B014009910998C8480168C84A114037
:1065400003220292920789180160C6480168082751
:10655000394301600168102631430160C248016877
:106560001943062291430160190220460838026847
:106570000A43026005939A020168114208D101683A
:10658000114205D10168114202D101681142F3D0D4
:1065900007927F210902221F13688B430599890303
:1065A000591811600721CA020368934303600F2042
:1065B0000002226882432260C843226802402260AF
:1065C00020688006400F0BD020688006400F07D05F
:1065D00020688006400F03D020688006400FEFD16E
:1065E0000803216881432160E44D2846FDF7CCF87B
:1065F0002846FDF791F9FDF7ABFAFDF701FCFDF731
:10660000B3FBFDF711FBFDF77DFBFDF77BFA20687F
:10661000D949084021210906401820600A20FDF7C9
:106620004FFA00BF00BF00BF00BF00BF00BF00BFE8
:1066300000BF00BF00BFD24A10461C3803680421C7
:106640008B43036003683B4303607323D360136889
:106650001B0608D413681B0605D413681B0602D456
:1066600013681B06F3D57423D3601468240608D47A
:106670001468240605D41468240602D41468240679
:10668000F3D56124D4601468240608D41468240661
:1066900005D41468240602D414682406F3D57224A1
:1066A000D4601468240608D41468240605D4146839
:1066B000240602D414682406F3D5D36013681B069D
:1066C00008D413681B0605D413681B0602D413688C
:1066D0001B06F3D5AB4A00BF00BF00BF00BF00BF21
:1066E00000BF00BF00BF00BF00BF00BF00BF00BFB2
:1066F00000BF00BF00BF00BF00BF00BF00BF00BFA2
:1067000000BF00BF00BF00BF00BF00BF00BF00BF91
:1067100000BF00BF00BF00BF00BF00BF00BF00BF81
:1067200000BF00BF00BF00BF00BF00BF00BF00BF71
:1067300000BF00BF00BF00BF00BF00BF00BF00BF61
:1067400000BF00BF00BF00BF00BF00BF00BF00BF51
:1067500000BF00BF00BF4032BDD10268BA43026033
:1067600002680A430260884D2846083801684022C2
:1067700003921143016000F017F900F011FAFFF7DE
:106780008FFB844B864C0197049681480078012842
:106790000BD100207E490870D869401CD861186A66
:1067A000401C1862586A401C58627B4800780128D7
:1067B00042D1002678480670784800790690187013
:1067C00021684B1E27D01C4602980440891E0026D3
:1067D00003293146714A0FD302988343002631467C
:1067E000575CBE19571878788019BE783018FE7833
:1067F0003618091D8B42F3D1002C019F0BD0674A3C
:10680000505C8619012C06D0891848788619022C0C
:1068100001D088788619624C206860494018401E73
:106820000078F1B28142049E5A4B05D106980128A6
:1068300002D1FDF74FFC574B186A5A49884201D3E1
:106840000020186207981938596A81420ED8D96910
:1068500081429AD980E0C0460810024020ED00E055
:10686000FFFFFF00000001400020024000215962AC
:10687000C9490F61092129712A68920708D42A6839
:10688000920705D42A68920702D42A689207F3D5A2
:106890002A68D20708D12A68D20705D12A68D20708
:1068A00002D12A68D207F3D02A792E712A6892077A
:1068B00008D42A68920705D42A68920702D42A6865
:1068C0009207F3D52A68D20708D12A68D20705D1E2
:1068D0002A68D20702D12A68D207F3D02A79AE4AB1
:1068E0001760166129712968890708D42968890702
:1068F00005D42968890702D429688907F3D529684E
:10690000C90708D12968C90705D12968C90702D173
:106910002968C907F3D029792E712968890708D415
:106920002968890705D42968890702D42968890755
:10693000F3D52968C90708D12968C90705D129688D
:10694000C90702D12968C907F3D0297992490E6095
:10695000D969814200D818E70020D8610B48006847
:10696000059989050204039B18400A4010185840F5
:10697000084B0649486008E7FFFFFF00006CDC0297
:106980001C380140C0FEFFFF0830014014040050D5
:10699000C000002068000020C80000202C03002058
:1069A000D400002010270000F0B581B0F84C082575
:1069B0002561F84EAF2030713068800712D43068FE
:1069C00080070FD4306880070CD430688007F3D577
:1069D00008E03068C00708D13068C00705D13068CA
:1069E000C00702D13068C007F3D030790027377173
:1069F0003068800712D4306880070FD43068800771
:106A00000CD430688007F3D508E03068C00708D19F
:106A10003068C00705D13068C00702D13068C007B0
:106A2000F3D030792560302800D0B2E025610A200B
:106A3000009030713068800712D4306880070FD41E
:106A4000306880070CD430688007F3D508E03068E0
:106A5000C00708D13068C00705D13068C00702D12F
:106A60003068C007F3D030798020307130688007FB
:106A700012D4306880070FD4306880070CD4306897
:106A80008007F3D508E03068C00708D13068C00738
:106A900005D13068C00702D13068C007F3D0307923
:106AA00025601420FDF70CF825610920307130684D
:106AB000800712D4306880070FD4306880070CD468
:106AC00030688007F3D508E03068C00708D1306827
:106AD000C00705D13068C00702D13068C007F3D0C5
:106AE000307937713068800712D4306880070FD44E
:106AF000306880070CD430688007F3D508E0306830
:106B0000C00708D13068C00705D13068C00702D17E
:106B10003068C007F3D030792560204807602561D0
:106B2000009830713068800712D4306880070FD425
:106B3000306880070CD430688007F3D508E03068EF
:106B4000C00708D13068C00705D13068C00702D13E
:106B50003068C007F3D03079032030713068800787
:106B600012D4306880070FD4306880070CD43068A6
:106B70008007F3D508E03068C00708D13068C00747
:106B800005D13068C00702D13068C007F3D0307932
:106B9000256001B0F0BDC04618000050240300205D
:106BA000F0B581B07A4C102525617A4EAF20307156
:106BB0003068800712D4306880070FD430688007AF
:106BC0000CD430688007F3D508E03068C00708D1DE
:106BD0003068C00705D13068C00702D13068C007EF
:106BE000F3D03079002737713068800712D43068CD
:106BF00080070FD4306880070CD430688007F3D545
:106C000008E03068C00708D13068C00705D1306897
:106C1000C00702D13068C007F3D030792560302832
:106C200000D0B2E025610A20009030713068800702
:106C300012D4306880070FD4306880070CD43068D5
:106C40008007F3D508E03068C00708D13068C00776
:106C500005D13068C00702D13068C007F3D0307961
:106C6000802030713068800712D4306880070FD4DC
:106C7000306880070CD430688007F3D508E03068AE
:106C8000C00708D13068C00705D13068C00702D1FD
:106C90003068C007F3D0307925601420FCF710FF6E
:106CA0002561092030713068800712D43068800770
:106CB0000FD4306880070CD430688007F3D508E023
:106CC0003068C00708D13068C00705D13068C007F8
:106CD00002D13068C007F3D030793771306880074F
:106CE00012D4306880070FD4306880070CD4306825
:106CF0008007F3D508E03068C00708D13068C007C6
:106D000005D13068C00702D13068C007F3D03079B0
:106D10002560214807602561009830713068800740
:106D200012D4306880070FD4306880070CD43068E4
:106D30008007F3D508E03068C00708D13068C00785
:106D400005D13068C00702D13068C007F3D0307970
:106D5000032030713068800712D4306880070FD468
:106D6000306880070CD430688007F3D508E03068BD
:106D7000C00708D13068C00705D13068C00702D10C
:106D80003068C007F3D03079256001B0F0BDC0464F
:106D9000180000500830014028030020F0B5F748E3
:106DA000002343638363C363036443648364C364F2
:106DB000F34908250D6110240C61F24A0926167169
:106DC0001668B60712D41668B6070FD41668B60749
:106DD0000CD41668B607F3D508E01668F60708D194
:106DE0001668F60705D11668F60702D11668F60789
:106DF000F3D01679012616711668B60712D41668F4
:106E0000B6070FD41668B6070CD41668B607F3D5C4
:106E100008E01668F60708D11668F60705D1166867
:106E2000F60702D11668F607F3D016790D600C60EC
:106E30000D61802616711768BF0712D41768BF0747
:106E40000FD41768BF070CD41768BF07F3D508E045
:106E50001768FF0708D11768FF0705D11768FF07F4
:106E600002D11768FF07F3D0177913711768BF07AE
:106E700012D41768BF070FD41768BF070CD4176860
:106E8000BF07F3D508E01768FF0708D11768FF07A9
:106E900005D11768FF0702D11768FF07F3D01779EC
:106EA0003921475413711168890712D41168890771
:106EB0000FD4116889070CD411688907F3D508E04D
:106EC0001168C90708D11168C90705D11168C90738
:106ED00002D11168C907F3D011793A27C15513714E
:106EE0001168890712D4116889070FD411688907BE
:106EF0000CD411688907F3D508E01168C90708D1D7
:106F00001168C90705D11168C90702D11168C907FD
:106F1000F3D011793B27C15513711168890712D439
:106F2000116889070FD4116889070CD41168890783
:106F3000F3D508E01168C90708D11168C90705D160
:106F40001168C90702D11168C907F3D011793C272C
:106F5000C15513711168890712D4116889070FD4BC
:106F6000116889070CD411688907F3D508E0116806
:106F7000C90708D11168C90705D11168C90702D12D
:106F80001168C907F3D011793D27C15513711168F4
:106F9000890712D4116889070FD4116889070CD4A6
:106FA00011688907F3D508E01168C90708D111688D
:106FB000C90705D11168C90702D11168C907F3D003
:106FC00011793E27C15513711168890712D41168D0
:106FD00089070FD4116889070CD411688907F3D584
:106FE00008E01168C90708D11168C90705D11168FF
:106FF000C90702D11168C907F3D011793F27C155DC
:107000005F4F3D603C6116711168890712D41168A9
:1070100089070FD4116889070CD411688907F3D543
:1070200008E01168C90708D11168C90705D11168BE
:10703000C90702D11168C907F3D01179137111681A
:10704000890712D4116889070FD4116889070CD4F5
:1070500011688907F3D508E01168C90708D11168DC
:10706000C90705D11168C90702D11168C907F3D052
:1070700011794025415513711168890712D411689F
:1070800089070FD4116889070CD411688907F3D5D3
:1070900008E01168C90708D11168C90705D111684E
:1070A000C90702D11168C907F3D0117941254155AB
:1070B00013711168890712D4116889070FD41168F8
:1070C00089070CD411688907F3D508E01168C9074E
:1070D00008D11168C90705D11168C90702D1116823
:1070E000C907F3D0117942254155137111688907F9
:1070F00012D4116889070FD4116889070CD411685C
:107100008907F3D508E01168C90708D11168C907D4
:1071100005D11168C90702D11168C907F3D01179E7
:107120004325415513711168890712D411688907E5
:107130000FD4116889070CD411688907F3D508E0CA
:107140001168C90708D11168C90705D11168C907B5
:1071500002D11168C907F3D0117944254155137143
:107160001168890719D41168890716D4116889072D
:1071700013D411688907F3D50FE0C04668000020DA
:1071800018000050083001401168C90708D1116883
:10719000C90705D11168C90702D11168C907F3D021
:1071A00011794525415513711168890712D4116869
:1071B00089070FD4116889070CD411688907F3D5A2
:1071C00008E01168C90708D11168C90705D111681D
:1071D000C90702D11168C907F3D011794625415575
:1071E0003C6004243C61762111711168890712D436
:1071F000116889070FD4116889070CD411688907B1
:10720000F3D508E01168C90708D11168C90705D18D
:107210001168C90702D11168C907F3D01179137138
:107220001168890712D4116889070FD4116889077A
:107230000CD411688907F3D508E01168C90708D193
:107240001168C90705D11168C90702D11168C907BA
:10725000F3D011793C603C619F211171116889075D
:1072600012D4116889070FD4116889070CD41168EA
:107270008907F3D508E01168C90708D11168C90763
:1072800005D11168C90702D11168C907F3D0117976
:1072900013711168890712D4116889070FD4116816
:1072A00089070CD411688907F3D508E01168C9076C
:1072B00008D11168C90705D11168C90702D1116841
:1072C000C907F3D011794725415513711168890712
:1072D00012D4116889070FD4116889070CD411687A
:1072E0008907F3D508E01168C90708D11168C907F3
:1072F00005D11168C90702D11168C907F3D0117906
:107300004825415513711168890712D411688907FE
:107310000FD4116889070CD411688907F3D508E0E8
:107320001168C90708D11168C90705D11168C907D3
:1073300002D11168C907F3D011794925415513715C
:107340001168890712D4116889070FD41168890759
:107350000CD411688907F3D508E01168C90708D172
:107360001168C90705D11168C90702D11168C90799
:10737000F3D011794A25415513711168890712D448
:10738000116889070FD4116889070CD4116889071F
:10739000F3D508E01168C90708D11168C90705D1FC
:1073A0001168C90702D11168C907F3D011794B25BB
:1073B000415513711168890712D4116889070FD4D8
:1073C000116889070CD411688907F3D508E01168A2
:1073D000C90708D11168C90705D11168C90702D1C9
:1073E0001168C907F3D011794C2541551371116803
:1073F000890712D4116889070FD4116889070CD442
:1074000011688907F3D508E01168C90708D1116828
:10741000C90705D11168C90702D11168C907F3D09E
:1074200011794D25415513711168890712D41168DE
:1074300089070FD4116889070CD411688907F3D51F
:1074400008E01168C90708D11168C90705D111689A
:10745000C90702D11168C907F3D011794E254155EA
:1074600013711168890712D4116889070FD4116844
:1074700089070CD411688907F3D508E01168C9079A
:1074800008D11168C90705D11168C90702D111686F
:10749000C907F3D011794F25415513711168890738
:1074A00012D4116889070FD4116889070CD41168A8
:1074B0008907F3D508E01168C90708D11168C90721
:1074C00005D11168C90702D11168C907F3D0117934
:1074D0005025415513711168890712D41168890725
:1074E0000FD4116889070CD411688907F3D508E017
:1074F0001168C90708D11168C90705D11168C90702
:1075000002D11168C907F3D0117951254155137182
:107510001168890712D4116889070FD41168890787
:107520000CD411688907F3D508E01168C90708D1A0
:107530001168C90705D11168C90702D11168C907C7
:10754000F3D01179522281543C60F0BD43088B4244
:107550001AD3002203098B4279D3030A8B425ED3EC
:10756000030B8B4242D3030C8B4227D30902FF2229
:1075700012BA030C8B4202D31212090203D0030B7E
:107580008B4233D31AE0D3E0411A8041401C70474C
:1075900003460B4371D443088B42F5D30022030901
:1075A0008B4254D3030A8B4239D3030B8B421DD336
:1075B000030C8B4202D394466EE0090AC30B8B4244
:1075C00001D3CB03C01A5241830B8B4201D38B03EF
:1075D000C01A5241430B8B4201D34B03C01A524194
:1075E000030B8B4201D30B03C01A5241C30A8B42D7
:1075F00001D3CB02C01A5241830A8B4201D38B02C2
:10760000C01A5241430A8B4201D34B02C01A524165
:10761000030A8B4201D30B02C01A5241CDD2C309D7
:107620008B4201D3CB01C01A524183098B4201D353
:107630008B01C01A524143098B4201D34B01C01A3E
:10764000524103098B4201D30B01C01A5241C308B6
:107650008B4201D3CB00C01A524183088B4201D325
:107660008B00C01A524143088B4201D34B00C01A11
:107670005241411A524110007047CA0F00D049428E
:10768000031000D34042534000229C4603098B4222
:107690002DD3030A8B4212D38901FC2212BA030AAA
:1076A0008B420CD3890192118B4208D3890192112C
:1076B0008B4204D3890137D0921100E08909C309B4
:1076C0008B4201D3CB01C01A524183098B4201D3B3
:1076D0008B01C01A524143098B4201D34B01C01A9E
:1076E000524103098B4201D30B01C01A5241C30816
:1076F0008B4201D3CB00C01A524183088B4201D385
:107700008B00C01A5241D9D243088B4201D34B009F
:10771000C01A5241411A00D20146524110466346F6
:107720005B1000D34042704763465B1000D3404279
:1077300001B50021004201D0C9430846C046C046F9
:1077400002BD00000000000000000000000000007A
:107750000000000000000000000000000000000029
:107760000000000001000000020000000300000013
:1077700004000000060000000700000008000000F0
:1077800009000000000000000000000000000000F0
:1077900000000000010000000200000003000000E3
:1077A00004000000C8770008000000200800000066
:1077B00004310008D077000808000020900900007C
:1077C0002031000800000000006CDC020000000016
:04000005080030C1FE
:00000001FF
