:020000040800F2
:10000000480700205D010008E10700089B03000885
:1000100000000000000000000000000000000000E0
:100020000000000000000000000000006908000857
:100030000000000000000000E3070008810800083D
:100040006F010008000000006F0100086F01000848
:100050006F0100086F0100086F0100086F010008C0
:10006000000000006F0100086F0100086F01000828
:100070006F0100086F0100086F0100080000000018
:100080006F0100086F0100086F0100086F01000890
:100090006F0100086F0100086F0100086F01000880
:1000A0006F0100086F0100086F0100086F01000870
:1000B0006F0100086F01000800F002F800F03EF840
:1000C0000CA030C8083824182D18A246671EAB466D
:1000D00054465D46AC4201D100F030F87E460F3EFA
:1000E0000FCCB6460126334200D0FB1AA246AB46DF
:1000F00033431847540A0000740A0000103A02D330
:1001000078C878C1FAD8520701D330C830C101D5B8
:1001100004680C60704700000023002400250026BE
:10012000103A01D378C1FBD8520700D330C100D5B3
:100130000B6070471FB51FBD10B510BD00F0FAF879
:100140001146FFF7F7FF00F029FC00F012F903B4A5
:10015000FFF7F2FF03BC00F019F9000007488047E1
:1001600007480047FEE7FEE7FEE7FEE7FEE7FEE79B
:1001700004480549054A064B70470000310900084C
:10018000B90000084801002048070020480300206B
:100190004803002001E004C0091F0429FBD28B079B
:1001A00001D50280801CC90700D002707047002969
:1001B0000BD0C30702D00270401C491E022904D391
:1001C000830702D50280801C891EE3E70022EEE748
:1001D0000022DFE7002203098B422CD3030A8B4263
:1001E00011D300239C464EE003460B433CD400222F
:1001F00043088B4231D303098B421CD3030A8B4241
:1002000001D394463FE0C3098B4201D3CB01C01A0E
:10021000524183098B4201D38B01C01A52414309D9
:100220008B4201D34B01C01A524103098B4201D3C7
:100230000B01C01A5241C3088B4201D3CB00C01A34
:10024000524183088B4201D38B00C01A52414308AC
:100250008B4201D34B00C01A5241411A00D20146D1
:100260005241104670475DE0CA0F00D0494203106A
:1002700000D34042534000229C4603098B422DD3B9
:10028000030A8B4212D3FC22890112BA030A8B4261
:100290000CD3890192118B4208D3890192118B42B0
:1002A00004D389013AD0921100E08909C3098B4235
:1002B00001D3CB01C01A524183098B4201D38B0178
:1002C000C01A524143098B4201D34B01C01A52411B
:1002D00003098B4201D30B01C01A5241C3088B4260
:1002E00001D3CB00C01A524183088B4201D38B004B
:1002F000C01A5241D9D243088B4201D34B00C01AD5
:100300005241411A00D20146634652415B101046E9
:1003100001D34042002B00D54942704763465B1031
:1003200000D3404201B50020C046C04602BD704720
:1003300070477047754600F025F8AE4605006946DF
:100340005346C008C000854618B020B5FFF710FF1F
:1003500060BC00274908B6460026C0C5C0C5C0C558
:10036000C0C5C0C5C0C5C0C5C0C5403D49008D465B
:10037000704710B50446C046C0462046FFF7E7FE6A
:1003800010BD000000487047E4000020014918201B
:10039000ABBEFEE7260002007047FEE708B5044941
:1003A0004A6902434A6149690140009108BD000061
:1003B00000100240F0B500244DE00123A3401A4094
:1003C00048D04B68012B01D0022B10D18E68856874
:1003D000134653435F00DF19BD4373431D438560DC
:1003E000CD680B6846689E436B431E4346600F69A9
:1003F000C668134653435D005D19AE435F433E43F9
:10040000C6604E68022E1FD1FF2A0ED817464A69D1
:10041000066A94461A467A437A431701BF1ABE43C6
:1004200067467A43164306620EE0160A3246724366
:100430004F6972437243BC461601B71A466ABE43FF
:1004400067467A43164346624A6806685343AE439A
:100450001E430660641C0A681346E340ADD10020C9
:10046000F0BD000010B57D21C900FFF7B3FE0449BF
:10047000401E4861002088610520086110BD000011
:1004800000E000E010B5044600F0C6F9206000F07E
:10049000A9F9606000F0B4F9A06010BD014610B584
:1004A000002000290FD110490A6B9207920F012AF0
:1004B0000AD0022A11D0032A09D000F0ADF900F0C9
:1004C00091F900F09DF910BD00F0A6F910BD096882
:1004D0008907C90FFAD0054810BD096A8907C90FF5
:1004E000FAD00120C00310BD0010024000127A00B3
:1004F00010B5036801225B06DB0F2FD10CC98C6895
:100500001A434B6823431A43CB681A430B691A43B7
:100510004B691A438B691A430368114C23401A43F1
:10052000026042680F4B1A40CB681B0C1A430B68E1
:100530001A43426001230A68DB0208399A4204D256
:1005400042685B009A431A43426001230A6A5B03D4
:100550009A4202D1898C89B201610022104610BDF5
:100560004000FFFFFBF0FFFF0149086070470000FB
:1005700020000020FEB5044600680D4601263040EC
:1005800050D1E9686868AA6908432969114308439A
:100590002168254A114008432060A9686068032249
:1005A00012039043084360606969A0681211904388
:1005B0000843A0601D48844203D10020FFF76EFF6E
:1005C00012E01B4884420BD01A48844208D01A48D3
:1005D000844205D01948844202D01948844221D16E
:1005E0006846FFF74FFF029800281BD029680029B2
:1005F00018D00123AA690026DB039A420CD14000DF
:100600004A088018FFF7E6FD81B20E480840090746
:10061000490F0143E16005E04A081018FFF7DAFDD1
:1006200080B2E0603046FEBDF369FFEF0038014064
:100630000044004000480040004C00400050004092
:1006400000140140F0FF000000B587B01821684693
:10065000FFF7BEFD0120C004FFF7A0FE012040040B
:10066000FFF79CFE012107484903816200910121A7
:10067000019100210291039104916946FFF79AFECE
:1006800007B000BD0008004870B592B0282106A848
:10069000FFF79EFD18216846FFF79AFD25480121C6
:1006A000826909030A43826182690A4010924269A1
:1006B00049010A434261406900240840109020200B
:1006C000092605940225F6060090029403940494EA
:1006D000694601953046FFF76DFE80200594009035
:1006E000029403940494694601953046FFF762FE34
:1006F000032080030690FF200530079007200002AA
:10070000089001200A90099440020D940E940B90D9
:100710000720094C10250F900C9506A92046FFF7DD
:10072000E7FE6068A84360606068082188436060F5
:1007300012B070BD001002400030014030B58FB0E3
:100740001C216846FFF744FD182107A8FFF740FD6C
:100750001F480121826989030A43826182690A4034
:100760000D924269C9000A4342614069012508406F
:100770000D9008120790022008900320099009208C
:100780000A950B9507A90C95C006FFF713FE1148B3
:10079000AA050168114301600F48009000200190F4
:1007A000029003900C200490D0110C4C06906946E6
:1007B0002046FFF7DFFE6068E11488436060A068B0
:1007C00008210843A0602068284320600FB030BD96
:1007D000001002400000014040420F00003801407C
:1007E000FEE7704704494968F0221140034A0909AD
:1007F000515CC8407047000000100240300B0008F8
:1008000003494968034A4905490F515CC84070478C
:1008100000100240400B000810B5064841680C204B
:100820000140054805D0042903D0082901D100F072
:1008300005F810BD0010024000127A0010B5084CF7
:1008400060680848E16A0907090F491CFFF7C2FC04
:1008500061680F2292041140890C891C484310BD25
:100860000010024000127A0070470000034908811E
:1008700002482038C1690906FCD57047203801407C
:100880007047000070B52748012102688A430A4377
:1008900002600168C907C90FFBD0234C2068012101
:1008A0000843206020688007C00FFBD02068F82133
:1008B000884380210843206060687B21C903884306
:1008C0002121C90308436060E06A00090001E06279
:1008D0002068012109060843206020688001C00FBC
:1008E000FBD06068F02188436060606807210902DE
:1008F0008843606061680220890889000143616063
:100900000C21606808400828FBD1084D2846FFF7F5
:10091000A9FD2846FFF728FE206B80088000206391
:1009200070BD00000020024000100240006CDC029C
:100930007047002802D000BF401EFCD1704700B5B0
:10094000024602E0521CFFF791FF10780028F9D10F
:1009500000BD0000F0B515460E460024054F06E028
:10096000E0008119385D00F007F8641CE4B2AC4285
:10097000F6D3F0BD0800002030B50022F823C024D3
:10098000050601D50B7000E00C704006521C000EED
:10099000D2B2491C082AF3D330BD000008B5224862
:1009A000012182690A4382618169C907C90F0091E7
:1009B000C26901040A43C261C069084000901B4833
:1009C000C16903220902090A92071143C161FFF7B5
:1009D00059FFFFF739FEFFF7B1FEFFF755FE14A0F0
:1009E00000F088F815480168402211430160144F57
:1009F000144C154E45142068401C2060B842FAD9AA
:100A00000020206000F040F86068082801D2401CF7
:100A1000606000F01BF8716928460A460240120423
:100A200088430243B261E6E70010024004ED00E0B3
:100A300073746172742E2E2E00000000003001408D
:100A4000809698000000002000080048F8B50D4A84
:100A50006846177807705578457094788470002040
:100A6000410043189918CE78D6540B794B70401C2E
:100A70004B79C0B28B700728F2D357759575D47532
:100A8000F8BD00000800002010B50E4C2068402181
:100A90000843206018220C490C48FFF75BFFC02177
:100AA000094800F015F80020FF22F53200212173DB
:100AB000A1688907C90FFBD0401C80B29042F5D3D2
:100AC00010BD00000030014024000020080000207C
:100AD00010B50023064A07E0C45C14739468A407A9
:100AE000E40FFBD05B1C9BB28B42F5D310BD000022
:100AF0000030014030B501460A20FFF71AFF0B4BCA
:100B000018680424A0431860186808252843186052
:100B10000846FFF714FFFF204130FFF70AFF18686F
:100B2000A843186018682043186030BD00380140A1
:100B3000000000000000000001020304060708098D
:100B40000000000001020304680B00080000002000
:100B500024000000FC0000088C0B0008240000208A
:100B60002407000018010008000000000000000039
:100B7000FF000000FF000000FF00FFFFFF00FFFF7D
:0C0B8000FF00FFFFFF00000000127A00E1
:04000005080000B936
:00000001FF
