:020000040800F2
:1000000000180020350F00085D0B00085F0B00088A
:1000100000000000000000000000000000000000E0
:10002000000000000000000000000000610B00085C
:100030000000000000000000630B0008650B0008D2
:10004000850F000800000000850F0008850F0008DC
:10005000850F0008690B0008850F00088D0B00084C
:1000600000000000850F0008850F0008850F0008BC
:10007000850F0008A10B0008850F00080000000094
:10008000850F00080000000000000000850F000838
:1000900000000000850F0008BD0B0008850F000858
:1000A00000000000BF0B000800000000C10B0008AA
:1000B000850F0008000000000000000000000000A4
:1000C00010B5064C2378002B07D1054B002B02D02E
:1000D000044800E000BF0123237010BD040000208D
:1000E0000000000070160008044B10B5002B03D070
:1000F0000349044800E000BF10BDC04600000000F6
:100100000800002070160008002243088B4274D3B8
:1001100003098B425FD3030A8B4244D3030B8B4208
:1001200028D3030C8B420DD3FF22090212BA030C11
:100130008B4202D31212090265D0030B8B4219D3F2
:1001400000E0090AC30B8B4201D3CB03C01A524112
:10015000830B8B4201D38B03C01A5241430B8B425A
:1001600001D34B03C01A5241030B8B4201D30B0343
:10017000C01A5241C30A8B4201D3CB02C01A52416A
:10018000830A8B4201D38B02C01A5241430A8B422D
:1001900001D34B02C01A5241030A8B4201D30B0216
:1001A000C01A5241CDD2C3098B4201D3CB01C01A30
:1001B000524183098B4201D38B01C01A524143093A
:1001C0008B4201D34B01C01A524103098B4201D328
:1001D0000B01C01A5241C3088B4201D3CB00C01A95
:1001E000524183088B4201D38B00C01A524143080D
:1001F0008B4201D34B00C01A5241411A00D2014632
:10020000524110467047FFE701B5002000F006F8A4
:1002100002BDC0460029F7D076E770477047C04658
:100220001C2101231B04984201D3000C10391B0A26
:10023000984201D3000A08391B09984201D30009EA
:10024000043902A2105C40187047C0460403020241
:10025000010101010000000000000000054B82B018
:100260005A6B02435A635B6B18400190019B02B0CA
:100270007047C04600100240F8B54D0804002B003E
:100280001F220127C668002B0ED191402033081E83
:1002900002D0FFF7C5FFC3B203225B009A4096432A
:1002A000002D08D1E660F8BD180049003840014330
:1002B000013A5B08E7E76D08F2E7F8B54D0804007E
:1002C0002B001F2201270668002B0ED191402033FE
:1002D000081E02D0FFF7A4FFC3B203225B009A40BE
:1002E0009643002D08D12660F8BD1800490038401B
:1002F0000143013A5B08E7E76D08F2E7F0B508272C
:1003000089B03A000021684601F0A9F918220021BD
:1003100002A801F0A4F90420FFF7A0FF2020FFF7B6
:100320009DFF0120FFF79AFFA0260220FFF796FF0E
:1003300004254022102300244849F605B5614848A9
:10034000B761B3618A6202A902950394069400F032
:1003500071FE0323029502A9033D30000493059426
:100360000694039500F066FE029702A9053F30004F
:10037000049705940694039500F05CFE102302A9EF
:1003800030000293049705940694039500F052FE02
:100390008023013F5B0002A930000293049405947E
:1003A00006940794039700F045FE4022032302A918
:1003B0002A480292049305940694039500F03AFEAD
:1003C0000721284B68461A6E80348A431A661A6ED3
:1003D00025490A401A665A6E244911408022520467
:1003E0000A435A666B469D809D71009500F0CCFDD6
:1003F0006B4668469D809D71009700F0C5FD6B4679
:1004000068469D809D71009400F0BEFD290030007B
:10041000FFF732FF39003000FFF72EFF21000F48B1
:10042000FFF72AFF29003000FFF747FF39003000AF
:10043000FFF743FF21000948FFF73FFFC1210C4BA5
:1004400089005A580B4802405A5020221A605A58C4
:100450001202120A5A501C6009B0F0BD000400508C
:100460000014005000180240FFF8FFFFFFFFFFF8E4
:1004700000E100E0FF00FFFF002800D17047C04608
:100480000138F9E78022034B9862D9691142FCD008
:100490007047C0460038014070B504004518AC42B2
:1004A00000D170BD2078FFF7EDFF0134F7E70000C1
:1004B0000222064B187399681142FCD001229968F8
:1004C0001142FCD0187BC0B27047C04600300140DA
:1004D00070B5A02408258023E405A5621843FFF722
:1004E000E7FF0020FFF7E4FFA56170BD70B5A02510
:1004F00008260C00ED05AE62FFF7DAFF2000FFF7DB
:10050000D7FFAE6170BD70B5A0260823F605B362B3
:1005100078330D0014001843FFF7CAFF6519AC4289
:1005200002D10823B36170BD0020FFF7C1FF207026
:100530000134F4E770B52F20FFF7CAFF302825D12A
:10054000002424212738FFF7D1FF0F210B20FFF7CC
:10055000CDFF012001F03AF800210920FFF7C6FF86
:100560000B4D21000B202C60FFF7C0FF80210A20DB
:10057000FFF7BCFF142001F029F821000920FFF744
:10058000B5FF03210A202C60FFF7B0FF70BDC04605
:1005900020000020F8B57F2605000C00124F09202E
:1005A00039683140FFF7A2FF01210920FFF79EFFC4
:1005B0002A0021000020FFF7A6FFFA220B4B920031
:1005C000196891420ED300223968092031401A601F
:1005D000FFF78CFF12210920FFF788FF03210A2073
:1005E000FFF784FFF8BDC046200000202C0000204B
:1005F00070B5A02410258023E405A5621843FFF7F9
:1006000057FF0020FFF754FFA56170BD70B5A0250E
:1006100010260C00ED05AE62FFF74AFF2000FFF741
:1006200047FFAE6170BD70B5A0261023F605B3621A
:1006300070330D0014001843FFF73AFF6519AC4200
:1006400002D11023B36170BD0020FFF731FF20708D
:100650000134F4E770B52F20FFF7CAFF302825D109
:10066000002424212738FFF7D1FF0F210B20FFF7AB
:10067000CDFF012000F0AAFF00210920FFF7C6FFEF
:100680000B4D21000B202C60FFF7C0FF80210A20BA
:10069000FFF7BCFF142000F099FF21000920FFF7AD
:1006A000B5FF03210A202C60FFF7B0FF70BDC046E4
:1006B00024000020F8B57F2605000C00124F092009
:1006C00039683140FFF7A2FF01210920FFF79EFFA3
:1006D0002A0021000020FFF7A6FFFA220B4B920010
:1006E000196891420ED300223968092031401A60FE
:1006F000FFF78CFF12210920FFF788FF03210A2052
:10070000FFF784FFF8BDC046240000202800002029
:1007100070B5A02404258023E405A5621843FFF7E3
:10072000C7FE0020FFF7C4FEA56170BD70B5A0250F
:1007300004260C00ED05AE62FFF7BAFE2000FFF7BD
:10074000B7FEAE6170BD70B5A0260423F605B36296
:100750007C330D0014001843FFF7AAFE6519AC4264
:1007600002D10423B36170BD0020FFF7A1FE207009
:100770000134F4E7762010B50021FFF7D7FF75208C
:10078000FFF7C6FF422834D101213138FFF7CEFFF1
:10079000642000F01BFF0F214E20FFF7C7FF012050
:1007A00000F014FF66214F20FFF7C0FF66215020A4
:1007B000FFF7BCFFD6215120FFF7B8FF032114201B
:1007C000FFF7B4FF00216420FFF7B0FF0921652087
:1007D000FFF7ACFF04217620FFF7A8FF8F216520EB
:1007E000FFF7A4FF76200021FFF7A0FF2D20FFF7E1
:1007F0008FFF10BD70B505000C0076200021FFF7BB
:1008000095FF2A0021001F20FFF79DFF70BD00000B
:1008100010B50A20FFF730FE0422114C23689343E1
:10082000236008232268134323600E4B1B78552B4B
:1008300009D10D4B0D485B6A202103779BB21B0A3F
:100840004377FFF729FEA0204000FFF715FE08229E
:10085000236893432360042322681343236010BD5D
:10086000003801408A00002000480140300000208C
:1008700010B50E4C1E220021200000F0F0FEAA232D
:100880002370553B6370483BA377033BE377A01C81
:100890000721FFF77FFE200007210930FFF70AFF3D
:1008A00020000C211030FFF7A5FF10BD3000002004
:1008B00007221E4910B50B681D4C93431A000123F3
:1008C00013430B60802322685B0013432360802363
:1008D000DB0022681A42FCD06368164A1A40802363
:1008E000DB01134363602368134A13402360A3684A
:1008F000124A13400722A360A3689343A3603823DE
:10090000A2681A42FCD1A3680D4A0E481340A360A6
:1009100000F04CFE0B4800F06FFE8022A3685204EA
:100920001B021B0A1343A36010BDC04600200240F7
:1009300000100240FF80FFFFFFC7FFFFFFF0FFFF37
:10094000FF8FFFFF006CDC02F7B501213C4CFA255C
:10095000226CAD000A432264236C0B40802101937A
:10096000019BE26B49050A43E263C022E36B120676
:100970000B4034490093009B0B6A1B021B0A134374
:1009800008220B62304B19680A431A60102219685A
:100990000A431A60FFF78CFFFFF7B0FC00F01CFA67
:1009A00000F07AF900F060F800F0CCF98422A36836
:1009B00092051B021B0A1343A3604023234A002411
:1009C00011680B431360FFF7B5FDFFF743FEFFF718
:1009D000D1FE1F4B1F4E1A781F4F012A06D11C70E3
:1009E0003368013333603B6801333B601B4B1A783B
:1009F000012A02D11C70FFF70BFF3B68002B02D0CD
:100A00003C60FFF735FF164B1A68AA4208D3102145
:100A100009201C60FFF76AFD10210920FFF7F6FD91
:100A20003368AB42D5D380220E4934604869D20383
:100A3000030413404022824313438B61C9E7C0463D
:100A40000010024000ED00E00000014000300140D5
:100A5000AC00002058000020540000205E00002060
:100A60005000002000040050F0B593B0282200216F
:100A700008A800F0F4FD0C22002105A800F0EFFD0D
:100A80008020314B31495A6D40010A405A65196C3A
:100A9000A0250143196401211A6C0227024001922A
:100AA000019A5A6B03260A435A635B6BED050B40B0
:100AB0000093009B202302A928000024029303979F
:100AC000049600F0B7FA402302A928000293039786
:100AD000049605940694079400F0ACFA802302A9CA
:100AE000280002930397049605940694079400F057
:100AF000A1FAC621164B89005A58164802405A508E
:100B0000802292041A6082235B000993E023DB00B9
:100B10000A938023102508940B940C940F9410943E
:100B20009B000D4C0D93FA3BFF3B200008A911934D
:100B30000E9500F04FFC6368AB4363600823626866
:100B40001343636013B0F0BD00100240FF3FFFFF8E
:100B500000E100E0FF00FFFF00300140FEE7FEE79C
:100B600070477047704700000122064BD968114258
:100B700002D00549DA600A800222D968114200D009
:100B8000DA607047001802405C0000208022034BAE
:100B9000D968114200D0DA607047C04600180240A0
:100BA000054B10B51A69D20702D5022252421A61CA
:100BB00000F006F910BDC046002C01407047704798
:100BC00037B52022284BD969114225D01968114226
:100BD00022D00025254A264C15605B6A2268DBB2CC
:100BE000511C216023498B540A2B0FD12368023BEF
:100BF000CB5C0D2B0AD122681F4800F027FD22682C
:100C00001E4B1A6001221E4B25601A702368202B90
:100C100001D90023236037BDDA6901210192042242
:100C20000198104209D0174801601A62802212010F
:100C30001A62802292011A62EDE70198084204D0FC
:100C40000220104A10601962F0E70821019808425A
:100C500002D003200B4AF5E7022101980842E5D0B3
:100C600008480260EFE7C04600380140B0000020AD
:100C700060000020680000208A000020640000203E
:100C80005E000020B40000208022024B12059A6012
:100C90007047C04600ED00E030B587B001AD1422CA
:100CA0000021280000F0DBFC80201F4A0001116CAD
:100CB00001431164C321136C890003400093009B1E
:100CC0001A4B1B485A5802405A50802292011A600F
:100CD000184B09222B800023174C290020006B6041
:100CE000AA60EB602B6100F0B3FB802223681349FC
:100CF00093432360A3680B407021A36063688B4318
:100D0000636063680E490B406360A3689343A3600C
:100D100002235B422361E26803331A43E2602268E4
:100D20001343236007B030BD0010024000E100E033
:100D3000FF00FFFFBF120000002C0140F8BFFEFFC4
:100D4000FFFF0FFF30B587B001AC14220021200057
:100D500000F085FC8020154AC002116C014311642B
:100D6000C521136C890003400093009B104B114870
:100D70005A5802405A508022D2031A602F232380EF
:100D800000230D4D0D4A210028006360A260E3603E
:100D9000236100F05DFB80222B6893432B600123CD
:100DA0002A6813432B6007B030BDC04600100240D4
:100DB00000E100E0FFFF00FF00480140FFFF0000EE
:100DC0000122034B1A70034A136801331360704702
:100DD000AC000020B0000020F0B508274D4C91B0C9
:100DE00023680021BB4323600423226808A813431F
:100DF0002360202200F033FC032180200125464B94
:100E0000C0015A6D80268A435A65196CF603014366
:100E100019641A6C02A902400192019A5A6BA0202F
:100E20002A435A635B6BC0052B400093009B8023D1
:100E30009B000293FF3BFF3B0393049305950695AC
:100E4000079500F0F7F8C621344A89001368334348
:100E50001360334A5358BB40FB40535080231B055B
:100E60001360304A002309920C22200008A908933D
:100E70000A930B930C930D920F9300F029FBEFF361
:100E8000108285F31088A368DB00DB08A36082F37F
:100E90001088EFF3108285F310882349A3680B4074
:100EA000A36082F31088214A23681340236063689B
:100EB0001F4A134022226360A36893438022A360E9
:100EC000A36892031F43A76023681D432560E3695D
:100ED0001342FCD0E3693342F9D008230222236293
:100EE000043B2362033B23622262EFF3108183F30E
:100EF000108820681E320243226081F31088EFF3CD
:100F0000108283F31088A1680B43A36082F31088DA
:100F100011B0F0BD00380140001002400000014057
:100F200000E100E040420F00FFFFFFF1FFFFFFDFA5
:100F3000FFB7FFFF0D488546FFF7A6FE002103E03F
:100F40000B4B5B58435004310A480B4B42189A42F2
:100F5000F6D30A4A02E0002313600432084B9A4297
:100F6000F9D300F04FFBFFF7EFFCFEE7001800207D
:100F700020170008000000200400002004000020CA
:100F8000B8000020FEE70000020010B500791368E9
:100F900000283ED0002083421ED0507901281CD06A
:100FA000022824D0002826D11F4CE16F9943E16725
:100FB0001E4CE16F1943E1679279002A0CD0022A96
:100FC0001BD0032A21D0012A2CD1194A51689943F8
:100FD000516011680B43136010BD1448C16F9943F1
:100FE000C1671148C16F1943C1670020E4E70F488A
:100FF000C16F1943F4E70120DEE70D4A11689943F8
:10100000116051680B435360E6E7094A11681943C0
:10101000F6E70649CA6F9A43CA670349CA6F9A43FB
:10102000CA67D9E70120D7E7081802400418024030
:1010300000180240F0B587B00B6802911F22012111
:101040000193050001985B08002B1ED190402033CE
:10105000002802D0FFF7E4F8C3B20393029B039A7F
:101060005B680493019BD34016D1049B013B012B89
:1010700008D86B68019A01999343029AD2684A434F
:1010800013436B60002007B0F0BD1C0040000C4013
:101090002043013A5B08D7E70123039A019C934060
:1010A000019A1C401A4200D1D3E0660820003300A8
:1010B0001F222F68002B70D190402033002802D0CF
:1010C000FFF7AEF8C3B203225B009A4020009743BB
:1010D00033001F22002B67D190402033002802D01C
:1010E000FFF79EF8C3B2049A5B009A40049B174333
:1010F000013B2F60012B24D8029B20009B681F22FC
:1011000005933300AF68002B55D190402033002861
:1011100002D0FFF785F8C3B203225B009A4020009B
:10112000974333001F22002B4CD1904020330028DE
:1011300002D0FFF775F8C3B2059A5B009A401743D7
:10114000AF60029B20001B691F2205933300EF68EC
:10115000002B3ED190402033002802D0FFF760F8EA
:10116000C3B203225B009A402000974333001F2242
:10117000002B35D190402033002802D0FFF750F8E3
:10118000C3B2059A5B009A40049B1743EF60022BA1
:101190005FD1200033001F222FE0012140001940C1
:1011A0000843013A5B0885E70121400019400843E4
:1011B000013A5B088EE70121400019400843013ADB
:1011C0005B08A0E70121400019400843013A5B0891
:1011D000A9E70121400019400843013A5B08B7E73D
:1011E0000121400019400843013A5B08C0E7012192
:1011F000400019400843013A5B08002BF7D1029BDD
:1012000090405B69049335D0FFF70AF8072831DC7A
:10121000200033001F222F6A002B1DD19040203365
:10122000002802D0FEF7FCFFC3B20F229B009A40B9
:101230001F239743002E16D120009840202300281A
:1012400002D0FEF7EDFFC3B2049A9B009A40174309
:101250002F62039B013300E701214000194008433E
:10126000013A5B08D8E70120640030400443013BA9
:101270007608DFE7260A640A300023001F226F6A1F
:10128000002B1BD190402033002802D0FEF7C8FF6E
:10129000C3B20F229B009A401F239743002C14D106
:1012A000300098402023002802D0FEF7B9FFC3B2D7
:1012B000049A9B009A4017436F62CAE701214000DD
:1012C00019400843013A5B08DAE701207600204024
:1012D0000643013B6408E1E7382206498B68134066
:1012E000054A1000082B04D00B689B045B0FDA4002
:1012F0001000704700100240006CDC02054B064AEB
:101300009B681B051B0F9B009B581F221340D84056
:101310007047C0460010024088160008054B064A78
:101320009B685B045B0F9B009B581F221340D840B7
:101330007047C04600100240C816000810B50400EF
:10134000FFF7CAFF2060FFF7D9FF6060FFF7E6FFF5
:10135000A06010BD020010B50020032A10D1184B68
:10136000586D0240C02080021043164A904208D0B7
:10137000154A904214D0154B98421AD1FFF7ACFF92
:1013800010BD196880220800D20010401142F7D029
:1013900019680F480906490F0131FEF7B5FEEFE75E
:1013A000DA6D0223100018401A42E9D080200002B2
:1013B000E6E7FFF791FFFFF7A1FFFFF7AFFFDFE7DA
:1013C00000100240020003000300030001000300BC
:1013D000006CDC020368020070B501205B062CD4AF
:1013E0004E680B6848693343CE68156833430E690D
:1013F0000C6A33438E6903433343CE69000C334395
:10140000104E234335402B43136053688D680E4EB6
:10141000284333401843802350601B019D4204D26F
:1014200080205368400103435360802300209B01C8
:101430009C4202D14B6A9BB21361D36903490B40B2
:10144000D36170BD4000FFFFFBF0FFFFFFF7FFFF20
:10145000194A10B50368904202D0184CA04208D136
:101460007024A3434C68234390420BD0134CA042FA
:1014700008D0134CA04205D0124CA04202D0124C0E
:10148000A04203D1114C2340CC68234303608B68F6
:10149000C3620B888362904205D00A4B984202D007
:1014A000094B984201D10B6903630123426913433D
:1014B0004361002010BDC046002C014000040040E4
:1014C000002000400044014000480140FFFCFFFFB5
:1014D000F0B50126036804000D0085B0334248D101
:1014E0008B68096902680B4369690B43E9690B431F
:1014F00027490A40134303604368264A1340EA68B9
:10150000134343608368244A1340AA6913438360EA
:10151000224B984222D10320FFF71CFF002820D045
:101520006F68002F1DD02B6800260B2B1AD81C4A81
:101530009B009958FEF7E8FD8022E9697B081202BA
:1015400091421ED14000C0183900FEF7DDFD154B59
:1015500003400007400F1843E06003E0124B98423D
:101560000AD001260F22E16A2B6891439BB20B43FC
:10157000E362300005B0F0BD01A8FFF7DFFE03987D
:10158000CCE73900C018FEF7BFFD80B2E4E7C046E3
:10159000F369FFEFFFCFFFFFFFFCFFFF00380140C3
:1015A000E8160008F0FF000000440040FA2110B5E2
:1015B0008900FEF7A9FD0022034B013858609A60AC
:1015C00005321A6010BDC04610E000E0094A82B042
:1015D00013680193019B431C591E8B41C018802343
:1015E0005B02002801D102B0704711681942F8D09F
:1015F0000138F6E710E000E0014B18607047C04684
:101600000000002070B500260C4D0D4C641BA4108A
:10161000A64209D1002600F02BF80A4D0A4C641BA3
:10162000A410A64205D170BDB300EB58984701360F
:10163000EEE7B300EB5898470136F2E718170008B9
:1016400018170008181700081C170008002310B509
:101650009A4200D110BDCC5CC4540133F8E70300BA
:101660008218934200D1704719700133F9E70000E6
:10167000F8B5C046F8BC08BC9E467047F8B5C046F1
:08168000F8BC08BC9E4670474F
:101688000000000000000000000000000000000052
:101698000000000000000000000000000000000042
:1016A8000100000002000000030000000400000028
:1016B8000600000007000000080000000900000004
:1016C8000000000000000000000000000000000012
:1016D80001000000020000000300000004000000F8
:1016E80001000000020000000400000006000000E5
:1016F800080000000A0000000C00000010000000B4
:1017080020000000400000008000000000010000F0
:04171800E9000008DC
:04171C00C100000800
:04172000006CDC027B
:0400000508000F35AB
:00000001FF
