:020000040800F2
:10300000C80600209D310008053B00089D340008DB
:1030100000000000000000000000000000000000B0
:10302000000000000000000000000000093B000854
:103030000000000000000000073B00080B3B0008F8
:10304000AF31000800000000AF310008AF310008C8
:10305000AF310008AF310008AF310008AF310008D0
:1030600000000000AF310008AF310008AF310008A8
:10307000AF310008193B0008AF3100080000000024
:10308000AF3100080000000000000000AF31000870
:1030900000000000AF310008AF310008AF31000878
:1030A00000000000AF31000800000000413B0008B4
:1030B000AF31000800000000000000000000000028
:1030C00000F002F800F03EF80CA030C808382418D0
:1030D0002D18671EA246AB4654465D46AC4201D150
:1030E00000F030F87E460F3EB6460FCC0126334244
:1030F00000D0FB1A3343A246AB46184740120000EB
:1031000060120000103A02D378C878C1FAD852078A
:1031100001D330C830C101D504680C60704700008D
:103120000023002400250026103A01D378C1FBD8E3
:10313000520700D330C100D50B6070471FB51FBDCB
:1031400010B510BD00F08AF81146FFF7F7FF00F048
:1031500073FD00F0A2F803B4FFF7F2FF03BC00F028
:10316000A9F8000070B505460C46164602E00FCCE3
:103170000FC5103E102EFAD2082E02D303CC03C581
:10318000083E042E07D301CC01C5361F03E0217889
:103190002970641C6D1C761EF9D270BD07488047EB
:1031A00007480047FEE7FEE7FEE7FEE7FEE7FEE72B
:1031B00004480549054A064B704700000D3B0008CE
:1031C000C1300008C8000020C8060020C802002046
:1031D000C8020020F8B5042A2CD3830712D00B783C
:1031E000491C0370401C521E83070BD00B78491CEE
:1031F0000370401C521E830704D00B78491C0370D7
:10320000401C521E8B079B0F05D0C91ADF002023DC
:10321000DE1B08C90AE0FFF7A5FFF8BD1D4608C977
:10322000FD401C46B4402C4310C0121F042AF5D2A6
:10323000F308C91A521EF0D40B78491C0370401CC5
:10324000521EEAD40B78491C0370401C012AE4D4B6
:1032500009780170F8BD704770477047754600F0F7
:1032600025F8AE46050069465346C008C0008546AD
:1032700018B020B5FFF79CFF60BCB64600260027BB
:10328000C0C5C0C5C0C5C0C5C0C5C0C5C0C5C0C516
:10329000403D490849008D46704710B50446C04678
:1032A000C0462046FFF757FF10BD0000004870479A
:1032B0000800002001491820ABBEFEE726000200EE
:1032C000704700000120C00703490A6802430A60F2
:1032D0000868C043C00F704714200240F0B589B0A1
:1032E0000E465E490C78012C03D10222104609B02B
:1032F000F0BD0693029203900020079048600124DD
:103300000C707D20C50000F0C3F8049547190594A2
:103310002504534C2068284206D000F0B9F8B84282
:10332000F8D303224D4F94E020684E4908402060B6
:1033300003D04A4F7860059A8BE000F0A9F8049911
:1033400047180120059080040890206808990842D9
:1033500004D000F09DF8B842F7D3E2E703980128C3
:103360000AD1606801210143616002983060BFF3B7
:103370006F8F0698706044E0606808990843606049
:10338000EFF31080019072B6079A11460696029EDE
:103390007058069B58505B18701847685F608768C4
:1033A0009F60C768DF6007691F6147695F61876960
:1033B0009F61C769DF61076A1F62476A5F62876A48
:1033C0009F62C76ADF62076B1F63476B5F63876B30
:1033D0009F63C06BD8630F201043403110323F28E9
:1033E000D6D308E02068284208D02068284205D0BB
:1033F0002068284202D020682842F3D1019880F347
:103400001088164F00F044F80499461820682842A6
:1034100005D000F03DF8B042F8D3032215E0206853
:1034200010490840206002D07860059A0DE000F055
:103430002FF80499451820680899084204D000F034
:1034400027F8A842F7D3E8E7002260680399884389
:10345000606007983870104609B0F0BDA8000020E1
:1034600010200240FAC300000648C168002901D4B8
:10347000002070470449016004490160C068C00F22
:103480007047C0460820024023016745AB89EFCD55
:10349000014800687047C046C0000020FEE70000F9
:1034A000F0B584B00E460A6811BA0B09744C23407B
:1034B0002140090159188B08724C23402140890092
:1034C00059184B08704C2340214049005B182027B5
:1034D000002A394605D1002B0CD11146F9400ED1F6
:1034E000C0E051421140694C6143C90E68A4615C5F
:1034F000002BF2D00F461146F94000D1B2E0039004
:1035000002960EE09300716999400F229A40036A77
:1035100093430B4303627F1C32681146F94000D18C
:10352000A0E00125BD401540F5D029BA0A09544B49
:103530001A401940090151188A08524B1A40194083
:10354000890051184A08504B1A4019404900511837
:103550000368766809D0002D09D06A422A404B489A
:103560004243D20E4AA0825C02E0402404E02022C2
:1035700054000322A24093433246A2401A430398C8
:103580000260721E012A1BD8846802988368002991
:103590000AD0002D009109D06A422A403B4842439C
:1035A000D20E3BA0825C02E0402205E020225200C5
:1035B000032191408C4300999340234303988360F7
:1035C000C36800290AD0002D01960BD0684228401C
:1035D0002E494843C00E2EA10A5C04E0022E029E32
:1035E00099D110E02022029E3069510088400324C6
:1035F0008C40A34303430398C360019902298AD1F5
:10360000290600D07EE703462C0A20BA0109284A81
:1036100011401040000108188108264A114010404E
:10362000800008184108184A11401040400008184E
:1036300072695B6A09D0002C0AD0604220401349AD
:103640004843C00E12A1095C03E08021039805E005
:103650002021039889000F248C40A3438A401A43F9
:10366000426258E77168491E012905D8F36853433F
:103670004168914319434160002004B0F0BDC04649
:103680000F0F0F0F333333335555555531B57C0775
:1036900000011C021D0E18031E16140F1911040838
:1036A0001F1B0D17151310071A0C12060B050A091C
:1036B000000F0F0F0033333380B57D21C90000F0B8
:1036C00011FD401E98494860002088600520086070
:1036D00080BDC04610B5114A116838230B403A49E5
:1036E000082B05D01346083B1B689B045B0FD94091
:1036F000016013689B093C241C40354B1B591F2457
:103700002340D94041601268920A1C2313402F4A7B
:10371000D2582240D140816010BDC04608100240FE
:1037200010B501460020032945D123494A6D0323E2
:103730001A401B04D218214B9A4210D0204B9A42B7
:1037400013D0204882421BD18868382202401E488C
:10375000082A30D009688904490FC84010BD0120EB
:10376000C203C86D8003104010BD0A68520522D5FF
:1037700008680006400F411C134800F0B3FC10BD60
:103780008868382202401048082A03D00A68920448
:10379000520FD0408A688968890A1C230B400B4964
:1037A000C9581F23194092093C241440084A125951
:1037B0001A40D040C84010BD001002400300030072
:1037C0000200030001000300006CDC021C4300083F
:1037D000DC420008014908607047C0460000002034
:1037E000F0B583B004460068C00726D10D462068B6
:1037F0002D490140A86808432969014368690843C5
:10380000E969014321600320010362688A43E96892
:10381000114361600002A1688143A8690843A06068
:103820000126224884420CD02148844233D103200F
:10383000FFF776FF00280AD12DE00126304603B0BD
:10384000F0BD6846FFF746FF0298002823D06F6856
:10385000002F20D0296800260B291CD8890015A22A
:10386000515800F03FFC0121C903EA698A420BD19B
:10387000790840004018394600F034FC19490140ED
:103880000007400F401805E079084018394600F05D
:1038900029FC80B2E060E06A0F2188432988014357
:1038A000E162304603B0F0BDF369FFEF0044004031
:1038B0000038014001000000020000000400000088
:1038C00006000000080000000A0000000C000000D4
:1038D00010000000200000004000000080000000F8
:1038E00000010000F0FF000081B00F490A6800925B
:1038F000401C01D30020C043009A0A68D203D217AB
:1039000010180ED00A68D203D217101809D00A680E
:10391000D203D217101804D00A68D203D217101895
:10392000EBD101B07047C04610E000E0F0B587B0C1
:10393000002605960496039602966C48016820229C
:103940001143016001681140069106990168012741
:1039500039430160016839400691069901680222E5
:103960001143016000681040069006980B484024FF
:103970008462049601960420009009486D46294609
:10398000FFF78EFD049603960320029001970094A2
:1039900002482946FFF784FD07B0F0BD000400503F
:1039A00000140050F0B591B000240E944F48016A05
:1039B00003220492D2430A4002620125A903C2688D
:1039C0000A43C260C2680A401092109901682943F4
:1039D0000160006828401090079506950595022023
:1039E000019003906802029010980520000702A938
:1039F000FFF756FDAF053E48016839430160FF20DF
:103A000000063C490A6882430A60E8063A490860B1
:103A10000F940C200D900C940B940A943748099045
:103A20000894374C2646083E08A93046FFF7D8FED2
:103A3000EFF3108085F3108807214A07236893432A
:103A4000236080F31088EFF3108085F31088490617
:103A500022688A43226080F31088680731688143B6
:103A600031600920C002211F0A6882430A60206871
:103A700022218843206021680820014321603168A9
:103A800029433160690562690A4202D062693A429B
:103A900011D162690A4202D062693A420BD162696D
:103AA0000A4202D062693A4205D162690A42EAD00A
:103AB00062693A42E7D0A0610420A061A561019843
:103AC000A061EFF3108085F31088316820220A434B
:103AD000326080F31088EFF3108085F3108821683E
:103AE0002943216080F3108811B0F0BD34100240EA
:103AF0000000014018E400E000E100E040420F0057
:103B000008380140FEE77047704770470148E349B5
:103B10000160704708ED00E080B505480168C907FD
:103B200002D00121C943016000F004F880BDC04605
:103B3000102C01400148012101707047A0000020B5
:103B4000F0B581B03A480168890604D501461C39B0
:103B50000968890615D401680091009949070CD4B9
:103B60000099C90717D10099090724D4009989073A
:103B70000FD50221416001B0F0BD0421416001B0C8
:103B8000F0BD80682B4C6278C1B2002A07D155295C
:103B900005D001B0F0BD0121416001B0F0BD0125AB
:103BA00013466B400E46553E774277411F40012F2A
:103BB00005D1657016E00821416001B0F0BDA37821
:103BC0009A43012A06D1AA2904D0002060606070BF
:103BD00001B0F0BD0E46AA3E774277413A40012A35
:103BE00007D1A57061684A1C62606118087301B052
:103BF000F0BD002BCDD06268531C6360A218107317
:103C00000A29C6D160680019807A0D28C1D162687E
:103C10002046223021460C31FFF7DCFA6068A060B4
:103C200025700020A0706070606001B0F0BDC046DB
:103C30001C3801406800002088B0974B184618389F
:103C4000964901609648816B012421438163816B11
:103C50002140069106992107426B0A434263426B59
:103C60000A4007920799FF2109061A688A4303212F
:103C700000918907511819608A490A68082313437B
:103C80000B600A68102313430B60874B19682143AC
:103C90000622914319602302014608390A680393FA
:103CA0001A430A600494A2020B68134208D10B68FD
:103CB000134205D10B68134202D10B681342F3D0B3
:103CC0007F221202031F1C689443049A9203A218D5
:103CD0001A600722D3020C689C430C600F21090272
:103CE00003688B430360D14303680B4003600168A2
:103CF0008906490F0BD001688906490F07D0016872
:103D00008906490F03D001688906490FEFD11103D5
:103D100002688A430260EA4D2846FFF7CDFC284638
:103D2000FFF758FDFFF702FEFFF73CFEE54E73205C
:103D3000F0603068000608D43068000605D43068AA
:103D4000000602D430680006F3D57420F0603068B5
:103D5000000608D43068000605D43068000602D496
:103D600030680006F3D53320F0603068000608D4D0
:103D70003068000605D43068000602D430680006BA
:103D8000F3D50D200290F0603068000608D430684A
:103D9000000605D43068000602D430680006F3D56A
:103DA0000A200190F0603068000608D430680006F0
:103DB00005D43068000602D430680006F3D5C24F3F
:103DC000C24C12E00398F430FFF78EFD38684021B2
:103DD000049A92050304084013401818484078607C
:103DE0002068411C2160092860D8002505957220B3
:103DF000F0603068000608D43068000605D43068EA
:103E0000000602D430680006F3D57520F0603068F3
:103E1000000608D43068000605D43068000602D4D5
:103E200030680006F3D56E20F0603068000608D4D4
:103E30003068000605D43068000602D430680006F9
:103E4000F3D53220F0603068000608D430680006F0
:103E500005D43068000602D430680006F3D5029815
:103E6000F0603068000608D43068000605D4306879
:103E7000000602D430680006F3D50198F06030687F
:103E800000069FD4306800069CD43068000699D4A0
:103E900030680006F3D595E720ED00E0003000081B
:103EA00008100240000001400020024025608848C0
:103EB00005900220F0603168090608D431680906CF
:103EC00005D43168090602D431680906F3D5F060DB
:103ED0003168090608D43168090605D43168090635
:103EE00002D431680906F3D5F0603168090608D4B8
:103EF0003168090605D43168090602D4316809061B
:103F0000F3D5F0603068000608D43068000605D4A8
:103F10003068000602D430680006F3D56D4F3A6869
:103F20000592D0B2F060100E110C120A33681B0615
:103F300008D433681B0605D433681B0602D43368E3
:103F40001B06F3D5D2B2F2603268120608D432688A
:103F5000120605D43268120602D432681206F3D56E
:103F6000C9B2F1603168090608D43168090605D480
:103F70003168090602D431680906F3D5F06030686B
:103F8000000608D43068000605D43068000602D464
:103F900030680006F3D5FFF767FA0498C103474A73
:103FA0001161EB434C4A3946FFF798F94B480590AD
:103FB0000099F1603068000608D43068000605D426
:103FC0003068000602D430680006F3D5F16030682E
:103FD000000608D43068000605D43068000602D414
:103FE00030680006F3D5F1603068000608D4306808
:103FF000000605D43068000602D430680006F3D508
:10400000F1603068000608D43068000605D43068D6
:10401000000602D430680006F3D53A680592D0B2A3
:10402000F060100E110C120A33681B0608D43368B6
:104030001B0605D433681B0602D433681B06F3D570
:10404000D2B2F2603268120608D43268120605D481
:104050003268120602D432681206F3D5C9B2F16092
:104060003168090608D43168090605D431680906A3
:1040700002D431680906F3D5F0603068000608D430
:104080003068000605D43068000602D430680006A7
:10409000F3D5FFF717F9049880F31088BFF34F8F1B
:1040A000054914390E480860BFF34F8F00BF00BFA9
:1040B00000BF00BFFAE7C04620ED00E0002002404C
:1040C000006CDC021C38014014040050A4000020E5
:1040D00002020202007000085555AAAA0303030356
:1040E0000400FA0543088B421AD3002203098B42CD
:1040F00079D3030A8B425ED3030B8B4242D3030C6A
:104100008B4227D30902FF2212BA030C8B4202D33F
:104110001212090203D0030B8B4233D31AE0D3E00F
:10412000411A8041401C704703460B4371D4430839
:104130008B42F5D3002203098B4254D3030A8B42EE
:1041400039D3030B8B421DD3030C8B4202D394460D
:104150006EE0090AC30B8B4201D3CB03C01A524154
:10416000830B8B4201D38B03C01A5241430B8B420A
:1041700001D34B03C01A5241030B8B4201D30B03F3
:10418000C01A5241C30A8B4201D3CB02C01A52411A
:10419000830A8B4201D38B02C01A5241430A8B42DD
:1041A00001D34B02C01A5241030A8B4201D30B02C6
:1041B000C01A5241CDD2C3098B4201D3CB01C01AE0
:1041C000524183098B4201D38B01C01A52414309EA
:1041D0008B4201D34B01C01A524103098B4201D3D8
:1041E0000B01C01A5241C3088B4201D3CB00C01A45
:1041F000524183088B4201D38B00C01A52414308BD
:104200008B4201D34B00C01A5241411A5241100057
:104210007047CA0F00D04942031000D340425340B8
:1042200000229C4603098B422DD3030A8B4212D3F2
:104230008901FC2212BA030A8B420CD38901921124
:104240008B4208D3890192118B4204D3890137D064
:10425000921100E08909C3098B4201D3CB01C01A36
:10426000524183098B4201D38B01C01A5241430949
:104270008B4201D34B01C01A524103098B4201D337
:104280000B01C01A5241C3088B4201D3CB00C01AA4
:10429000524183088B4201D38B00C01A5241D9D2BC
:1042A00043088B4201D34B00C01A5241411A00D23D
:1042B00001465241104663465B1000D340427047AE
:1042C00063465B1000D3404201B50021004201D09B
:1042D000C9430846C046C04602BD000000000000B9
:1042E00000000000000000000000000000000000CE
:1042F00000000000000000000000000001000000BD
:10430000020000000300000004000000060000009E
:104310000700000008000000090000000000000085
:10432000000000000000000000000000010000008C
:1043300002000000030000000400000060430008C9
:104340000000002008000000043100086843000855
:1043500008000020C0060000203100080000000016
:08436000006CDC02000000000B
:04000005080030C1FE
:00000001FF
