:020000040800F2
:10000000001800206D1B00082F1100083511000892
:1000100000000000000000000000000000000000E0
:100020000000000000000000000000003B1100087C
:100030000000000000000000451100084F110008FA
:10004000BD1B000800000000BD1B0008BD1B000810
:10005000BD1B000859110008BD1B0008BD1B00088E
:1000600000000000BD1B0008BD1B0008BD1B0008F0
:10007000BD1B00087D110008BD1B0008000000002A
:10008000BD1B00080000000000000000BD1B0008B0
:1000900000000000BD1B0008BD1B0008BD1B0008C0
:1000A00000000000BD1B000800000000A5110008B2
:1000B000BD1B000800000000000000000000000060
:1000C00010B5064C2378002B07D1054B002B02D02E
:1000D000044800E000BF0123237010BD040000208D
:1000E00000000000402C0008044B10B5002B03D08A
:1000F0000349044800E000BF10BDC04600000000F6
:1001000008000020402C0008002243088B4274D3D2
:1001100003098B425FD3030A8B4244D3030B8B4208
:1001200028D3030C8B420DD3FF22090212BA030C11
:100130008B4202D31212090265D0030B8B4219D3F2
:1001400000E0090AC30B8B4201D3CB03C01A524112
:10015000830B8B4201D38B03C01A5241430B8B425A
:1001600001D34B03C01A5241030B8B4201D30B0343
:10017000C01A5241C30A8B4201D3CB02C01A52416A
:10018000830A8B4201D38B02C01A5241430A8B422D
:1001900001D34B02C01A5241030A8B4201D30B0216
:1001A000C01A5241CDD2C3098B4201D3CB01C01A30
:1001B000524183098B4201D38B01C01A524143093A
:1001C0008B4201D34B01C01A524103098B4201D328
:1001D0000B01C01A5241C3088B4201D3CB00C01A95
:1001E000524183088B4201D38B00C01A524143080D
:1001F0008B4201D34B00C01A5241411A00D2014632
:10020000524110467047FFE701B5002000F006F8A4
:1002100002BDC0460029F7D076E770477047C04658
:100220001C2101231B04984201D3000C10391B0A26
:10023000984201D3000A08391B09984201D30009EA
:10024000043902A2105C40187047C0460403020241
:1002500001010101000000000000000080B582B033
:1002600000AF0200FB1D1A70FB1D1B787F2B09D805
:10027000FB1D1B781A001F231A40044B01219140DB
:100280000A001A60C046BD4602B080BD00E100E031
:1002900090B583B000AF02003960FB1D1A70FB1DE2
:1002A0001B787F2B28D82F4AFB1D1B785BB29B083D
:1002B000C0339B009B58FA1D1278110003220A409C
:1002C000D200FF2191400A00D2431A4011003B683E
:1002D0009B01FF221A40FB1D1B78180003230340DB
:1002E000DB009A401F48FB1D1B785BB29B080A434A
:1002F000C0339B001A5031E01B4AFB1D1B781900CC
:100300000F230B40083B9B0806339B00D318043394
:100310001B68FA1D1278110003220A40D200FF2147
:1003200091400A00D2431A4011003B689B01FF2212
:100330001A40FB1D1B78180003230340DB009A4082
:100340000948FB1D1B781C000F232340083B9B081A
:100350000A4306339B00C31804331A60C046BD46E7
:1003600003B090BD00E100E000ED00E080B584B096
:1003700000AF7860074B596B064B7A680A435A63A3
:10038000044B5B6B7A681340FB60FB68C046BD465C
:1003900004B080BD0010024090B583B000AF78601B
:1003A00039600F4A3B6803210B4018339B009B5870
:1003B0003A68120C072191400A00D2431A401100FA
:1003C0003B681B0C7A689A4005483B68032423402D
:1003D0000A4318339B001A50C046BD4603B090BD77
:1003E0000018024090B58DB000AFF860B9607A6037
:1003F000FB681C68BB68BB611F237B61BB693B61F9
:10040000BB695B08BB610EE03B695B003B61BB699C
:10041000012213403A6913433B617B69013B7B61D5
:10042000BB695B08BB61BB69002BEDD13A697B6995
:100430009A4013003B613B69FB61FB69002B01D1D2
:10044000202304E0F869FFF7EBFE0300DBB25B005A
:1004500003229A401300DB431C40BB68BB621F238E
:100460007B62BB6A3B62BB6A5B08BB620EE03B6AB5
:100470005B003B62BB6A012213403A6A13433B6252
:100480007B6A013B7B62BB6A5B08BB62BB6A002B79
:10049000EDD13A6A7B6A9A4013003B623B6AFB6289
:1004A000FB6A002B01D1202304E0F86AFFF7B8FEB5
:1004B0000300DBB25B007A689A40130022001A4303
:1004C000FB681A60C046BD460DB090BD90B58DB0BA
:1004D00000AFF860B9607A60FB68DC68BB68BB613C
:1004E0001F237B61BB693B61BB695B08BB610EE09D
:1004F0003B695B003B61BB69012213403A691343CE
:100500003B617B69013B7B61BB695B08BB61BB698C
:10051000002BEDD13A697B699A4013003B613B693E
:10052000FB61FB69002B01D1202304E0F869FFF790
:1005300077FE0300DBB25B0003229A401300DB432B
:100540001C40BB68BB621F237B62BB6A3B62BB6A09
:100550005B08BB620EE03B6A5B003B62BB6A012248
:1005600013403A6A13433B627B6A013B7B62BB6A7E
:100570005B08BB62BB6A002BEDD13A6A7B6A9A408A
:1005800013003B623B6AFB62FB6A002B01D1202314
:1005900004E0F86AFFF744FE0300DBB25B007A6810
:1005A0009A40130022001A43FB68DA60C046BD4639
:1005B0000DB090BD80B582B000AF786039607B68C7
:1005C0003A689A61C046BD4602B080BD80B582B02F
:1005D00000AF786039607B683A689A62C046BD4671
:1005E00002B080BD90B589B000AF18243B19180047
:1005F00008231A00002102F01BFB3B0018001823FF
:100600001A00002102F014FB0420FFF7AFFE2020A7
:10061000FFF7ACFE0120FFF7A9FE0220FFF7A6FEC0
:10062000A023DB0508211800FFF7C4FF434B40213E
:100630001800FFF7CBFF3B0004221A603B000022AA
:100640005A603B0000221A613B003D4A190010002D
:1006500001F02AFE3B0008221A603B0001225A608A
:100660003B0000229A603B000022DA603B0000223F
:100670001A613A00A023DB051100180001F014FEF6
:100680003B00802252001A603B0002225A603B006D
:1006900003229A603B000022DA603B0000221A61CC
:1006A0003B0000225A613A00A023DB05110018002C
:1006B00001F0FAFD3B0040221A603B0001225A6023
:1006C0003B0003229A603B000022DA603B000022DC
:1006D0001A613B00194A1900100001F0E5FD0021E4
:1006E0000020FFF759FE21007B1801221A607B18B9
:1006F00001221A717B1800225A717B1801229A710B
:100700007B18180001F0ECFAA023DB050022012180
:100710001800FFF7DBFEA023DB05002201211800F3
:10072000FFF760FE00210520FFF7B2FD0520FFF76F
:1007300095FDC046BD4609B090BDC04600040050BE
:100740000014005090B583B000AF02003960FB1D6B
:100750001A70FB1D1B787F2B28D82F4AFB1D1B7896
:100760005BB29B08C0339B009B58FA1D12781100A6
:1007700003220A40D200FF2191400A00D2431A40CE
:1007800011003B689B01FF221A40FB1D1B781800DB
:1007900003230340DB009A401F48FB1D1B785BB21C
:1007A0009B080A43C0339B001A5031E01B4AFB1DD3
:1007B0001B7819000F230B40083B9B0806339B0056
:1007C000D31804331B68FA1D1278110003220A4063
:1007D000D200FF2191400A00D2431A4011003B6829
:1007E0009B01FF221A40FB1D1B78180003230340C6
:1007F000DB009A400948FB1D1B781C000F23234097
:10080000083B9B080A4306339B00C31804331A6055
:10081000C046BD4603B090BD00E100E000ED00E041
:1008200080B500AF044B1A68034B802149000A438E
:100830001A60C046BD4680BD0010024080B500AFC2
:10084000074B1A688023DB001A408023DB009A42A2
:1008500001D1012300E000231800BD4680BDC04641
:100860000010024080B582B000AF7860064B5B6834
:10087000064A134019007B681A02034B0A435A6068
:10088000C046BD4602B080BD00100240FF80FFFFA1
:1008900080B582B000AF7860064B9B680722934317
:1008A0001900044B7A680A439A60C046BD4602B0FC
:1008B00080BDC0460010024080B500AF034B9B686E
:1008C000382213401800BD4680BDC04600100240CB
:1008D00080B582B000AF7860064B9B68064A134033
:1008E0001900044B7A680A439A60C046BD4602B0BC
:1008F00080BDC04600100240FFF0FFFF80B582B00F
:1009000000AF7860064B9B68064A13401900044B01
:100910007A680A439A60C046BD4602B080BDC046B0
:1009200000100240FF8FFFFF80B582B000AF7860FB
:10093000064B1B68064A13401900044B7A680A43A9
:100940001A60C046BD4602B080BDC04600100240DD
:10095000FFC7FFFF80B582B000AF78603960074BFA
:100960009B681B02190A7A683B681A43034B0A43C7
:100970009A60C046BD4602B080BDC046001002402D
:1009800080B584B000AF7860074BD96B064B7A68AE
:100990000A43DA63044BDB6B7A681340FB60FB6845
:1009A000C046BD4604B080BD0010024080B584B092
:1009B00000AF7860074B196C064B7A680A431A64DB
:1009C000044B1B6C7A681340FB60FB68C046BD4655
:1009D00004B080BD0010024080B582B000AF7860E6
:1009E000044B1968034B7A680A431A60C046BD4637
:1009F00002B080BD0000014080B582B000AF7860D9
:100A0000064B1B68072293431900044B7A680A437C
:100A10001A60C046BD4602B080BDC04600200240FC
:100A200080B582B000AF78607B681B6840221A43B3
:100A30007B681A60C046BD4602B080BD80B582B0FA
:100A400000AF78607B689B6801221340012B01D1C5
:100A5000012300E000231800BD4602B080BD80B530
:100A600082B000AF78607B689B6802221340022B43
:100A700001D1012300E000231800BD4602B080BD73
:100A800080B582B000AF78607B680C331B78DBB236
:100A90001800BD4602B080BD80B584B000AF78605C
:100AA0000A00FB1C1A707B680C33FB60FB68FA1CA5
:100AB00012781A70C046BD4604B080BD80B582B0C1
:100AC00000AF786039607B683A689A61C046BD467D
:100AD00002B080BD80B582B000AF786039607B68BD
:100AE0003A689A62C046BD4602B080BD80B584B007
:100AF00000AF786039607B685B69FB60FB683A68CF
:100B000013401A04FB68DB4339680B401A437B68C7
:100B10009A61C046BD4604B080BD80B582B000AFCA
:100B2000786006E07B685A1C7A601B78180000F039
:100B300021F87B681B78002BF4D1C046C046BD4627
:100B400002B080BD80B582B000AF7860396006E049
:100B50007B685A1C7A601B78180000F00BF83B6821
:100B60005A1E3A60002BF3D1C046C046BD4602B0C3
:100B700080BD000080B582B000AF0200FB1D1A707E
:100B8000074BFA1D12789A62C046054BDB6980223A
:100B90001340FAD0C046C046BD4602B080BDC04634
:100BA0000038014080B582B000AF0200FB1D1A7012
:100BB000FB1D1B780D4A19001000FFF76DFFC046A2
:100BC0000A4B1800FFF74BFF031EF9D0C046074B36
:100BD0001800FFF733FF031EF9D0044B1800FFF78E
:100BE0004FFF03001800BD4602B080BD0030014039
:100BF000B0B584B000AF0200FB1D1A70A023DB0566
:100C000008211800FFF766FFFB1D1B788022524267
:100C10001343DBB21800FFF7C5FF0F257C19002036
:100C2000FFF7C0FF03002370A023DB050821180095
:100C3000FFF744FF7B191B781800BD4604B0B0BD18
:100C400080B582B000AF0200FB1D1A70BB1D0A1CEC
:100C50001A70A023DB0508211800FFF73BFFFB1DDE
:100C60001B781800FFF79EFFBB1D1B781800FFF7CD
:100C700099FFA023DB0508211800FFF71FFFC046DE
:100C8000BD4602B080BD90B585B000AF3A60FB1D97
:100C9000021C1A70BB1D0A1C1A700023FB6010E0B6
:100CA000FB68DAB2FB1D1B78D318D9B2FB683A682F
:100CB000D4180800FFF79CFF03002370FB68013382
:100CC000FB60BB1D1B78FA689A42E9DBC046C04650
:100CD000BD4605B090BD0000B0B58CB000AF2F246C
:100CE0003B1900221A700120FFF760FE80235B058C
:100CF0001800FFF745FE01235B4203211800FFF7B0
:100D000021FD0820FFF768FE1020FFF765FE00F0C8
:100D100077F8FFF767FC00F063FE00F00BFC00F0D3
:100D200005F980239A0580235B0411001800FFF762
:100D300011FE2F4B1800FFF7F0FE2E4B1800FFF7A7
:100D40006FFE25007C192F20FFF752FF0300237050
:100D50007B191B78302B22D180210A20FFF770FFEE
:100D6000C82001F00FFF24210920FFF769FF0021AF
:100D70000A20FFF765FF0D210B20FFF761FF7C19AB
:100D80000820FFF735FF030023707B191B78012231
:100D90001340DBB219000820FFF752FF03E0164BA7
:100DA0001800FFF7BAFE642001F0ECFE2F257C1935
:100DB0000820FFF71DFF030023707B191B78012219
:100DC0001340DBB219000820FFF73AFF3B1D1A0061
:100DD00007210020FFF757FF3B1D07211800FFF7F1
:100DE000B1FE064B40211800FFF780FEDBE7C0464E
:100DF000602C0008003001406C2C000800040050FA
:100E000080B500AF0120FFF7F7FDFFF709FDC046F1
:100E1000FFF714FD0300012BFAD14020FFF722FD5C
:100E20000020FFF781FD0020FFF752FD0020FFF7B3
:100E30002FFDC046FFF740FD031EFBD10020FFF74A
:100E40005DFD084B180001F08DFE064B180001F007
:100E5000BDFE80235B0400211800FFF77BFDC04628
:100E6000BD4680BD006CDC0280B582B000AF78600A
:100E7000064B5B6D064A13401900044B7A680A431F
:100E80005A65C046BD4602B080BDC0460010024053
:100E9000FF3FFFFF80B584B000AF7860074B196C4F
:100EA000064B7A680A431A64044B1B6C7A68134039
:100EB000FB60FB68C046BD4604B080BD0010024028
:100EC00080B584B000AF7860074B596B064B7A68E9
:100ED0000A435A63044B5B6B7A681340FB60FB6800
:100EE000C046BD4604B080BD0010024080B582B04F
:100EF00000AF786039607B685B68102293431A000A
:100F00003B681A437B685A60C046BD4602B080BD4C
:100F100080B582B000AF78607B685B6808221A43B6
:100F20007B685A60C046BD4602B080BD90B591B0A6
:100F300000AF18243B19180028231A00002101F0E3
:100F400077FE3B00180018231A00002101F070FE04
:100F50000020FFF789FF80235B011800FFF79AFF4D
:100F60000120FFF7ADFF3B0020221A603B00022268
:100F70005A603B0000229A603B000022DA603B008E
:100F800000221A613B0000225A613A00A023DB05CF
:100F90001100180001F088F93B0040221A603B0064
:100FA00002225A603B0000229A603B000022DA6075
:100FB0003B0000221A613B0000225A613A00A02344
:100FC000DB051100180001F06FF93B0080221A6068
:100FD0003B0002225A603B0000229A603B00002244
:100FE000DA603B0000221A613B0000225A613A009D
:100FF000A023DB051100180001F056F921007B1831
:1010000000221A607B18822252005A607B18E0226C
:10101000D2009A607B180022DA607B1800221A61E5
:101020007B18802292005A617B1810229A617B18EB
:101030000022DA617B1800221A627B1807225A62AA
:101040007B18094A1900100001F04EFB064B0021E5
:101050001800FFF74BFF044B1800FFF759FFC0467D
:10106000BD4611B090BDC0460030014080B582B091
:1010700000AF7860064BDB687A6813407A689A4262
:1010800001D1012300E000231800BD4602B080BD5D
:101090000018024080B582B000AF7860034B7A68D8
:1010A000DA60C046BD4602B080BDC04600180240AE
:1010B00080B582B000AF78607B68022252421A612C
:1010C000C046BD4602B080BD80B582B000AF78603A
:1010D0007B681B6901221340012B01D1012300E031
:1010E00000231800BD4602B080BD80B582B000AFBD
:1010F00078607B68DB6920221340202B01D101231B
:1011000000E000231800BD4602B080BD80B582B06B
:1011100000AF78607B681B6820221340202B01D130
:10112000012300E000231800BD4602B080BD80B559
:1011300000AFFEE780B500AFFEE780B500AFC04668
:10114000BD4680BD80B500AFC046BD4680BD80B500
:1011500000AFC046BD4680BD80B500AF0120FFF79F
:1011600085FF031E05D00120FFF794FF024B0122EB
:101170001A80C046BD4680BD2000002080B500AF6B
:10118000074B1800FFF7A0FF0300012B03D1044B0E
:101190001800FFF78DFF00F023FAC046BD4680BD62
:1011A000002C014080B582B000AFFB1D00221A70F8
:1011B000434B1800FFF799FF031E00D17CE0404B22
:1011C0001800FFF7A3FF031E00D175E03C4B5A6ADD
:1011D000FB1D1A703B4B1B78DBB2002B03D1FB1DB0
:1011E0001B78A52B67D1374B1B78DBB2002B19D1AD
:1011F000FB1D1B78A52B15D1324B01221A70324BE7
:101200001B78DBB21800314B1B78DBB25A1CD1B211
:101210002E4A117019002E4A4301D318FA1D127874
:101220005A5449E0274B1B78DBB2012B44D1274BA2
:101230001B78DBB20133DAB2244B1A70234B1B78D4
:10124000DBB21F2B0ED8204B1B78DBB21A001F4BD2
:101250001B78DBB2013B1E4952018A18F91D09783F
:10126000D15429E0184B1B78DBB21A00174B1B78BE
:10127000DBB2013B164952018A18F91D0978D15495
:10128000124B1B78DAB2134B1A700F4B1B78DBB280
:10129000002B03D10C4B01221A7002E00A4B0022F2
:1012A0001A700D4B01221A70064B00221A70074B60
:1012B00000221A7000E0C046BD4602B080BDC046A4
:1012C0000038014065000020640000206600002016
:1012D00024000020670000202200002080B500AF1D
:1012E000034B802212059A60C046BD4680BDC046B1
:1012F00000ED00E080B582B000AF0200FB1D1A7067
:10130000FB1D1B787F2B09D8FB1D1B781A001F23A0
:101310001A40044B012191400A001A60C046BD46A4
:1013200002B080BD00E100E090B583B000AF0200E4
:101330003960FB1D1A70FB1D1B787F2B28D82F4AA4
:10134000FB1D1B785BB29B08C0339B009B58FA1DAA
:101350001278110003220A40D200FF2191400A00B6
:10136000D2431A4011003B689B01FF221A40FB1D2B
:101370001B78180003230340DB009A401F48FB1D25
:101380001B785BB29B080A43C0339B001A5031E0C4
:101390001B4AFB1D1B7819000F230B40083B9B08C1
:1013A00006339B00D31804331B68FA1D1278110012
:1013B00003220A40D200FF2191400A00D2431A4082
:1013C00011003B689B01FF221A40FB1D1B7818008F
:1013D00003230340DB009A400948FB1D1B781C00D7
:1013E0000F232340083B9B080A4306339B00C31886
:1013F00004331A60C046BD4603B090BD00E100E072
:1014000000ED00E080B584B000AF7860074B196C48
:10141000064B7A680A431A64044B1B6C7A681340C3
:10142000FB60FB68C046BD4604B080BD00100240B2
:1014300080B582B000AF78607B681B6801221A43D8
:101440007B681A60C046BD4602B080BD80B582B0E0
:1014500000AF78607B681B68802293431A007B682A
:101460001A60C046BD4602B080BD000080B582B0A3
:1014700000AF786039607B689B68054A1A403B681A
:101480001A437B689A60C046BD4602B080BDC04624
:10149000F8BFFEFF80B582B000AF786039607B682E
:1014A0005B68702293431A003B681A437B685A605A
:1014B000C046BD4602B080BD80B582B000AF786046
:1014C00039607B685B68054A1A403B681A437B6851
:1014D0005A60C046BD4602B080BDC046FFFF0FFF48
:1014E00080B582B000AF78607B689B6880229343B0
:1014F0001A007B689A60C046BD4602B080BD80B5C8
:1015000082B000AF78607B68022252421A61C04606
:10151000BD4602B080BD80B582B000AF78607B6808
:10152000DB6801221A437B68DA60C046BD4602B020
:1015300080BD000080B586B000AF3B1D18001423AD
:101540001A00002101F074FB80231B011800FFF733
:1015500059FF00210D20FFF7E7FE0D20FFF7CAFE1F
:101560003B1D1D4A1A803B1D00225A603B1D09226B
:101570009A603B1D0022DA603B1D00221A613B1D70
:10158000164A1900100001F04DF9144B1800FFF72E
:101590005DFF124B00211800FFF768FF0F4B002181
:1015A0001800FFF777FF0D4B00211800FFF784FFAD
:1015B0000A4B1800FFF794FF084B1800FFF79FFF36
:1015C000064B1800FFF7A7FF044B1800FFF730FF8A
:1015D000C046BD4606B080BDBF120000002C0140D1
:1015E00080B500AF054B01221A70054B1B685A1CD1
:1015F000034B1A60C046BD4680BDC046680000204F
:101600006C00002080B582B000AF0200FB1D1A7094
:10161000FB1D1B787F2B09D8FB1D1B781A001F238D
:101620001A40044B012191400A001A60C046BD4691
:1016300002B080BD00E100E090B583B000AF0200D1
:101640003960FB1D1A70FB1D1B787F2B28D82F4A91
:10165000FB1D1B785BB29B08C0339B009B58FA1D97
:101660001278110003220A40D200FF2191400A00A3
:10167000D2431A4011003B689B01FF221A40FB1D18
:101680001B78180003230340DB009A401F48FB1D12
:101690001B785BB29B080A43C0339B001A5031E0B1
:1016A0001B4AFB1D1B7819000F230B40083B9B08AE
:1016B00006339B00D31804331B68FA1D12781100FF
:1016C00003220A40D200FF2191400A00D2431A406F
:1016D00011003B689B01FF221A40FB1D1B7818007C
:1016E00003230340DB009A400948FB1D1B781C00C4
:1016F0000F232340083B9B080A4306339B00C31873
:1017000004331A60C046BD4603B090BD00E100E05E
:1017100000ED00E080B582B000AF7860084B5B6DF3
:101720007A68120CD2431A4011007B681B041A0C11
:10173000034B0A435A65C046BD4602B080BDC04651
:101740000010024080B584B000AF7860074B196C80
:10175000064B7A680A431A64044B1B6C7A68134080
:10176000FB60FB68C046BD4604B080BD001002406F
:1017700080B584B000AF7860074B596B064B7A6830
:101780000A435A63044B5B6B7A681340FB60FB6847
:10179000C046BD4604B080BD0010024080B582B096
:1017A00000AF7860044B1968034B7A680A431A60EB
:1017B000C046BD4602B080BD0000014080B582B089
:1017C00000AF78607B681B6801221A437B681A604F
:1017D000C046BD4602B080BD80B582B000AF786023
:1017E0007B681B68034A1A407B681A60C046BD4686
:1017F00002B080BDFFFFFFDF80B586B000AF78602C
:101800003960EFF31083BB60BB687B610123FB6031
:10181000FB6883F31088C0467B689B68DB00DA08AE
:101820003B685B071A437B689A607B693B613B6955
:1018300083F31088C046C046BD4606B080BD000098
:1018400080B586B000AF78603960EFF31083BB607D
:10185000BB687B610123FB60FB6883F31088C04693
:101860007B689B68084A1A403B685B061A437B68A2
:101870009A607B693B613B6983F31088C046C04630
:10188000BD4606B080BDC046FFFFFFF180B582B007
:1018900000AF78607B685B68074A1A407B685A60D3
:1018A0007B689B682A2293431A007B689A60C04633
:1018B000BD4602B080BDC046FFB7FFFF80B582B015
:1018C00000AF78607B68DA6980239B031A4080232D
:1018D0009B039A4201D1012300E000231800BD467A
:1018E00002B080BD80B582B000AF78607B68DA69F5
:1018F0008023DB031A408023DB039A4201D10123BA
:1019000000E000231800BD4602B080BD80B582B063
:1019100000AF78607B6801221A62C046BD4602B003
:1019200080BD80B582B000AF78607B6802221A6209
:10193000C046BD4602B080BD80B582B000AF7860C1
:101940007B6804221A62C046BD4602B080BD80B5E5
:1019500082B000AF78607B6808221A62C046BD463C
:1019600002B080BD80B586B000AF7860EFF3108321
:10197000BB60BB687B610123FB60FB6883F310885D
:10198000C0467B681B6820221A437B681A607B690B
:101990003B613B6983F31088C046C046BD4606B034
:1019A00080BD80B586B000AF7860EFF31083BB6078
:1019B000BB687B610123FB60FB6883F31088C04632
:1019C0007B689B6801221A437B689A607B693B6154
:1019D0003B6983F31088C046C046BD4606B080BD53
:1019E00090B58FB000AF18243B19180020231A00BF
:1019F000002101F01DF93B00180018231A000021F6
:101A000001F016F9C0239B021800FFF783FE802324
:101A1000DB011800FFF796FE0120FFF7A9FE3B004F
:101A2000802292001A603B0002225A603B0003228F
:101A30009A603B000022DA603B0000221A613B0002
:101A400001225A613A00A023DB051100180000F0C2
:101A50002BFC3B008022D2001A603B0002225A601D
:101A60003B0003229A603B000022DA603B00002228
:101A70001A613B0001225A613A00A023DB051100E4
:101A8000180000F011FC8023DB031800FFF786FE2E
:101A900080231B041800FFF781FE00211B20FFF7A5
:101AA000CBFD1B20FFF7AEFD21007B1800221A6042
:101AB0007B182C4A5A607B1800229A607B180022FF
:101AC000DA607B1800221A617B180C225A617B189D
:101AD00000229A617B180022DA617B18224A1900E1
:101AE000100000F0B3FF204B00211800FFF784FE28
:101AF0001D4B00211800FFF7A3FE1B4B1800FFF73A
:101B00006BFE194B1800FFF7C1FE174B1800FFF7CB
:101B100055FEC046144B1800FFF7D0FE031EF9D047
:101B2000114B1800FFF7DEFE031EF3D00E4B18001A
:101B3000FFF70DFF0C4B1800FFF7FEFE0A4B1800D5
:101B4000FFF7E4FE084B1800FFF7EBFE064B18000A
:101B5000FFF708FF044B1800FFF723FFC046BD4600
:101B60000FB090BD40420F00003801400D4885463F
:101B7000FFF7B4FB002103E00B4B5B5843500431EB
:101B80000A480B4B42189A42F6D30A4A02E0002355
:101B900013600432084B9A42F9D301F025F8FFF79D
:101BA0009BF8FEE700180020102D00080000002020
:101BB000040000200400002070000020FEE7000068
:101BC00080B582B000AF7860054A8023D2580449BE
:101BD0007B68134380228B50C046BD4602B080BD57
:101BE0000018024080B582B000AF7860064A8023BA
:101BF000D3587A68D2430449134080228B50C046A0
:101C0000BD4602B080BDC0460018024080B582B01B
:101C100000AF7860054A8423D25804497B68134397
:101C200084228B50C046BD4602B080BD00180240E1
:101C300080B582B000AF7860064A8423D3587A68B2
:101C4000D2430449134084228B50C046BD4602B0A3
:101C500080BDC0460018024080B582B000AF7860F9
:101C6000044B1968034B7A680A431A60C046BD46A4
:101C700002B080BD0018024080B582B000AF78602D
:101C8000054B1A687B68D943034B0A401A60C0466B
:101C9000BD4602B080BDC0460018024080B582B08B
:101CA00000AF7860044B5968034B7A680A435A6066
:101CB000C046BD4602B080BD0018024080B582B06B
:101CC00000AF7860054B5A687B68D943034B0A40E4
:101CD0005A60C046BD4602B080BDC04600180240F2
:101CE00080B584B000AF78600F23FB1800221A7013
:101CF0007B681B79002B00D168E07B681B68002B98
:101D000000D16EE07B685B79022B1BD025DC002BB9
:101D100002D0012B0BD020E07B681B681800FFF776
:101D200087FF7B681B681800FFF74AFF1AE07B6893
:101D30001B681800FFF756FF7B681B681800FFF749
:101D400065FF0FE07B681B681800FFF739FF7B68B1
:101D50001B681800FFF75AFF04E00F23FB1801224D
:101D60001A70C0467B689B79002B3AD07B689B79C0
:101D7000032B1BD025DC012B02D0022B0BD020E043
:101D80007B681B681800FFF799FF7B681B681800C9
:101D9000FFF762FF26E07B681B681800FFF76CFF07
:101DA0007B681B681800FFF779FF1BE07B681B68E6
:101DB0001800FFF751FF7B681B681800FFF76EFFE4
:101DC00010E00F23FB1801221A700BE07B681B68E0
:101DD0001800FFF707FF7B681B681800FFF728FF54
:101DE00000E0C0460F23FB181B781800BD4604B066
:101DF00080BD90B58DB000AFF860B9607A60FB68C7
:101E00001C68BB68BB611F237B61BB693B61BB690D
:101E10005B08BB610EE03B695B003B61BB69012273
:101E200013403A6913433B617B69013B7B61BB69AA
:101E30005B08BB61BB69002BEDD13A697B699A40B5
:101E400013003B613B69FB61FB69002B01D120233F
:101E500004E0F869FEF7E4F90300DBB25B0003225B
:101E60009A401300DB431C40BB68BB621F237B62AC
:101E7000BB6A3B62BB6A5B08BB620EE03B6A5B000D
:101E80003B62BB6A012213403A6A13433B627B6A9E
:101E9000013B7B62BB6A5B08BB62BB6A002BEDD176
:101EA0003A6A7B6A9A4013003B623B6AFB62FB6AB8
:101EB000002B01D1202304E0F86AFEF7B1F90300FA
:101EC000DBB25B007A689A40130022001A43FB6879
:101ED0001A60C046BD460DB090BD80B584B000AF5D
:101EE000F860B9607A60FB685B68BA68D2431A40F0
:101EF000BB6879684B431A43FB685A60C046BD46CD
:101F000004B080BD90B58DB000AFF860B9607A6064
:101F1000FB689C68BB68BB611F237B61BB693B613D
:101F2000BB695B08BB610EE03B695B003B61BB6961
:101F3000012213403A6913433B617B69013B7B619A
:101F4000BB695B08BB61BB69002BEDD13A697B695A
:101F50009A4013003B613B69FB61FB69002B01D197
:101F6000202304E0F869FEF75BF90300DBB25B00B5
:101F700003229A401300DB431C40BB68BB621F2353
:101F80007B62BB6A3B62BB6A5B08BB620EE03B6A7A
:101F90005B003B62BB6A012213403A6A13433B6217
:101FA0007B6A013B7B62BB6A5B08BB62BB6A002B3E
:101FB000EDD13A6A7B6A9A4013003B623B6AFB624E
:101FC000FB6A002B01D1202304E0F86AFEF728F910
:101FD0000300DBB25B007A689A40130022001A43C8
:101FE000FB689A60C046BD460DB090BD90B58DB0FF
:101FF00000AFF860B9607A60FB68DC68BB68BB6101
:102000001F237B61BB693B61BB695B08BB610EE061
:102010003B695B003B61BB69012213403A69134392
:102020003B617B69013B7B61BB695B08BB61BB6951
:10203000002BEDD13A697B699A4013003B613B6903
:10204000FB61FB69002B01D1202304E0F869FEF756
:10205000E7F80300DBB25B0003229A401300DB4386
:102060001C40BB68BB621F237B62BB6A3B62BB6ACE
:102070005B08BB620EE03B6A5B003B62BB6A01220D
:1020800013403A6A13433B627B6A013B7B62BB6A43
:102090005B08BB62BB6A002BEDD13A6A7B6A9A404F
:1020A00013003B623B6AFB62FB6A002B01D12023D9
:1020B00004E0F86AFEF7B4F80300DBB25B007A686C
:1020C0009A40130022001A43FB68DA60C046BD46FE
:1020D0000DB090BD90B58DB000AFF860B9607A607A
:1020E000FB681C6ABB68BB611F237B61BB693B61EA
:1020F000BB695B08BB610EE03B695B003B61BB6990
:10210000012213403A6913433B617B69013B7B61C8
:10211000BB695B08BB61BB69002BEDD13A697B6988
:102120009A4013003B613B69FB61FB69002B01D1C5
:10213000202304E0F869FEF773F80300DBB29B008C
:102140000F229A401300DB431C40BB68BB621F2375
:102150007B62BB6A3B62BB6A5B08BB620EE03B6AA8
:102160005B003B62BB6A012213403A6A13433B6245
:102170007B6A013B7B62BB6A5B08BB62BB6A002B6C
:10218000EDD13A6A7B6A9A4013003B623B6AFB627C
:10219000FB6A002B01D1202304E0F86AFEF740F827
:1021A0000300DBB29B007A689A40130022001A43B6
:1021B000FB681A62C046BD460DB090BD90B58DB0AB
:1021C00000AFF860B9607A60FB685C6ABB681B0AA4
:1021D000BB611F237B61BB693B61BB695B08BB6162
:1021E0000EE03B695B003B61BB69012213403A6929
:1021F00013433B617B69013B7B61BB695B08BB614E
:10220000BB69002BEDD13A697B699A4013003B61B1
:102210003B69FB61FB69002B01D1202304E0F869D5
:10222000FDF7FEFF0300DBB29B000F229A40130074
:10223000DB431C40BB681B0ABB621F237B62BB6A7B
:102240003B62BB6A5B08BB620EE03B6A5B003B62C1
:10225000BB6A012213403A6A13433B627B6A013B2B
:102260007B62BB6A5B08BB62BB6A002BEDD13A6A3A
:102270007B6A9A4013003B623B6AFB62FB6A002B5D
:1022800001D1202304E0F86AFDF7CAFF0300DBB2A6
:102290009B007A689A40130022001A43FB685A6236
:1022A000C046BD460DB090BD80B58CB000AF786023
:1022B00039603B681B683B621F23FB613B6ABB6163
:1022C0003B6A5B083B620EE0BB695B00BB613B6A3B
:1022D00001221340BA691343BB61FB69013BFB61F7
:1022E0003B6A5B083B623B6A002BEDD1BA69FB6934
:1022F0009A401300BB61BB697B627B6A002B01D1F2
:10230000202304E0786AFDF78BFF0300DBB2FB6259
:102310006CE03B681B680121FA6A91400A00134097
:10232000BB62BB6A002B5ED03B685A68B96A7B68A7
:102330001800FFF75EFD3B685B68012B03D03B682C
:102340005B68022B06D13B689A68B96A7B68180003
:10235000FFF7D8FD3B681A69B96A7B681800FFF778
:1023600045FE3B685B68022B3DD1BB6A3B611F2386
:10237000FB603B69BB603B695B083B610EE0BB688F
:102380005B00BB603B6901221340BA681343BB602A
:10239000FB68013BFB603B695B083B613B69002BD1
:1023A000EDD1BA68FB689A401300BB60BB687B61E3
:1023B0007B69002B01D1202304E07869FDF730FF11
:1023C0000300DBB2072B07D83B685A69B96A7B6800
:1023D0001800FFF77FFE06E03B685A69B96A7B6820
:1023E0001800FFF7EBFEFB6A0133FB623B681A68DB
:1023F000FB6ADA40131E8CD13B685B68012B03D06B
:102400003B685B68022B07D13B6819683B68DA6858
:102410007B681800FFF761FD00231800BD460CB073
:1024200080BD000080B500AF034B1B68E022134065
:102430001800BD4680BDC0460010024080B500AF08
:10244000074B1A688023DB001A408023DB009A4286
:1024500001D1012300E000231800BD4680BDC04625
:102460000010024080B500AF054BDB6D0222134027
:10247000022B01D1012300E000231800BD4680BDDE
:102480000010024080B500AF034B9B683822134018
:102490001800BD4680BDC0460010024080B500AFA8
:1024A000034B9A68F0231B0113401800BD4680BD02
:1024B0000010024080B500AF034B9A68E023DB01B7
:1024C00013401800BD4680BD0010024080B582B0A8
:1024D00000AF7860054B5B6D7A681A407B681B041F
:1024E00013431800BD4602B080BDC0460010024034
:1024F00080B582B000AF786000F070F802007B68B1
:102500001A607B681B68180000F08CF802007B687A
:102510005A607B685B68180000F09CF802007B68DA
:102520009A60C046BD4602B080BD000080B584B050
:1025300000AF78600023FB607B68032B40D17B6891
:102540001800FFF7C3FF0300204A93421FD01F4A21
:10255000934225D81E4A934203D01E4A934205D087
:102560001EE000F03BF80300FB6029E0FFF766FF88
:102570000300012B21D1FFF755FF03005B09013355
:1025800019001548FDF7C0FD0300FB6015E0FFF7DB
:1025900069FF0300012B12D180231B02FB600EE0B8
:1025A00000F01CF80300180000F03CF803001800CD
:1025B00000F050F80300FB6002E0C04600E0C046B7
:1025C000FB681800BD4604B080BDC0460300030090
:1025D0000100030002000300006CDC0280B582B041
:1025E00000AFFFF74FFF0300082B02D10B4B7B60BE
:1025F0000FE00B4B1B68DB0A0722134001229A40B5
:1026000013003B6039680548FDF77EFD03007B60E1
:10261000C0467B681800BD4602B080BD006CDC027D
:102620000010024080B582B000AF7860FFF736FF3F
:1026300003001B0A0F221A40054B9200D3581F2299
:1026400013407A68DA4013001800BD4602B080BD1E
:10265000782C000880B582B000AF7860FFF72AFFC1
:1026600003001A0B054B9200D3581F2213407A68BF
:10267000DA4013001800BD4602B080BDB82C000837
:1026800080B582B000AF78607B681B684022134041
:10269000402B01D1012300E000231800BD4602B009
:1026A00080BD000080B582B000AF786039607B6883
:1026B0005B68054A1A403B681A437B685A60C0460B
:1026C000BD4602B080BDC046FFEFFFFF80B582B0BF
:1026D00000AF786039603B689BB21A007B681A6172
:1026E000C046BD4602B080BD80B584B000AF786002
:1026F00039600F23FB1801221A707B681800FFF75E
:10270000BFFF031E48D17B681B682A4A1A403B68FA
:1027100019683B685B6819433B68DB6819433B6891
:102720001B6919433B685B6919433B689B69194303
:102730003B68DB6919433B681B6A0B431A437B68A0
:102740001A607B685B681C4A1A403B6899683B6862
:102750005B691B0C0B431A437B685A603B689A68A1
:1027600080231B019A4206D280235A017B68110004
:102770001800FFF797FF3B681A6A80239B019A4273
:1027800006D13B685A6A7B6811001800FFF79EFF6C
:102790000F23FB1800221A707B68DB69074A1A4076
:1027A0007B68DA610F23FB181B781800BD4604B064
:1027B00080BDC0464000FFFFFBF0FFFFFFF7FFFFBB
:1027C00080B582B000AF786039607B683A689A6201
:1027D000C046BD4602B080BD80B582B000AF786013
:1027E00039607B683A68DA62C046BD4602B080BD97
:1027F00080B582B000AF786039607B683A681A6350
:10280000C046BD4602B080BD80B582B000AF7860E2
:102810007B685B6901221A437B685A61C046BD46EA
:1028200002B080BD80B584B000AF786039607B684D
:102830001B68FB607B682C4A934203D07B682B4A61
:10284000934207D1FB68702293431A003B685B6890
:102850001343FB607B68244A93420FD07B68234A72
:1028600093420BD07B68224A934207D07B68214A6F
:10287000934203D07B68204A934206D1FB681F4AEB
:102880001A403B68DB681343FB607B68FA681A6098
:102890003B689A687B6811001800FFF79DFF3B6852
:1028A0001B881A007B6811001800FFF789FF7B68FE
:1028B0000D4A934207D07B680E4A934203D07B684F
:1028C0000D4A934206D13B681A697B6811001800D3
:1028D000FFF78EFF7B681800FFF796FF00231800B4
:1028E000BD4604B080BDC046002C0140000400403D
:1028F000002000400044014000480140FFFCFFFF71
:1029000080B582B000AF78607B681B6801221340FD
:10291000012B01D1012300E000231800BD4602B0C5
:1029200080BD80B582B000AF786039607B68DB6ABB
:102930000F2293433A6892B21A437B68DA62C04628
:10294000BD4602B080BD000080B582B000AF7860A7
:1029500039607B685B68054A1A403B681A437B68AC
:102960005A60C046BD4602B080BDC046FFCFFFFFE3
:1029700080B582B000AF786039607B689B68054A9B
:102980001A403B681A437B689A60C046BD4602B055
:1029900080BDC046FFFCFFFF80B586B000AFF86089
:1029A000B9607A603B607B680B2B46D83B6A002B92
:1029B00043D03A6880231B029A4226D17B68DBB25F
:1029C0001A00204B9200D3581900B868FDF79CFB01
:1029D00003005A003B6A5B08D318396A1800FDF7F8
:1029E00093FB03009BB27B617B69174A13403B61F9
:1029F0007B695B089BB21A00072313403A691343B3
:102A00003B61FB683A69DA6017E07B68DBB21A0069
:102A10000C4B9200D3581900B868FDF775FB030002
:102A20001A003B6A5B08D318396A1800FDF76CFB83
:102A300003009BB21A00FB68DA60C046BD4606B0D0
:102A400080BDC046D82C0008F0FF000090B58BB0C8
:102A500002AF786039601F23FB1801221A7000232F
:102A6000BB617B681800FFF74BFF031E53D17B68E7
:102A70001B682C4A1A403B6899683B681B691943DC
:102A80003B685B6919433B68DB690B431A437B680E
:102A90001A603B68DA687B6811001800FFF754FF82
:102AA0003B689A697B6811001800FFF761FF7B683B
:102AB0001D4A934205D10320FFF738FD0300BB6197
:102AC0000BE07B68194A934207D10C243B1918008C
:102AD000FFF70EFD3B199B68BB61BB69002B13D050
:102AE0003B685B68002B0FD01F23FB1800221A7075
:102AF0003B681A683B68DC693B685B68B969786861
:102B000000932300FFF748FF3B681A687B681100B9
:102B10001800FFF706FF1F23FB181B781800BD469F
:102B200009B090BDF369FFEF003801400044004058
:102B300080B582B000AF7860396039687868FDF799
:102B4000E3FA03001A00064B013A5A60044B0022D4
:102B50009A60034B05221A60C046BD4602B080BD94
:102B600010E000E080B582B000AF7860FA239A00F0
:102B70007B6811001800FFF7DBFFC046BD4602B0BE
:102B800080BD000080B584B000AF78600E4B1B683C
:102B9000BB60BB687B68FB60FB6801330CD0FB68E3
:102BA0000133FB6008E0084B1A6880235B02134086
:102BB00002D0FB68013BFB60FB68002BF3D1C046F1
:102BC000C046BD4604B080BD10E000E080B582B0D4
:102BD00000AF7860034B7A681A60C046BD4602B009
:102BE00080BDC0460000002070B500260C4D0D4C85
:102BF000641BA410A64209D1002600F021F80A4D5A
:102C00000A4C641BA410A64205D170BDB300EB585A
:102C100098470136EEE7B300EB5898470136F2E7E4
:102C2000082D0008082D0008082D00080C2D0008AC
:102C300003008218934200D1704719700133F9E7FD
:102C4000F8B5C046F8BC08BC9E467047F8B5C0460B
:082C5000F8BC08BC9E46704769
:102C58006F6B00006572000073746172742E2E2E03
:102C6800000000006D6D6330206572720000000086
:102C7800000000000000000000000000000000004C
:102C8800000000000000000000000000000000003C
:102C98000100000002000000030000000400000022
:102CA80006000000070000000800000009000000FE
:102CB800000000000000000000000000000000000C
:102CC80001000000020000000300000004000000F2
:102CD80001000000020000000400000006000000DF
:102CE800080000000A0000000C00000010000000AE
:102CF80020000000400000008000000000010000EB
:042D0800E9000008D6
:042D0C00C1000008FA
:042D1000006CDC0275
:0400000508001B6D67
:00000001FF
