:020000040800F2
:10000000900900209D010008C10A0008C3020008F1
:1000100000000000000000000000000000000000E0
:10002000000000000000000000000000C50A0008F9
:100030000000000000000000C30A0008C70A000812
:10004000AF01000800000000AF010008AF01000888
:10005000AF010008AF010008AF010008AF010008C0
:1000600000000000AF010008AF010008AF01000868
:10007000AF010008A90B0008AF0100080000000054
:10008000AF0100080000000000000000AF01000800
:1000900000000000AF010008AF010008AF01000838
:1000A00000000000AF01000800000000D90B0008AC
:1000B000AF01000800000000000000000000000088
:1000C00000F002F800F03EF80CA030C80838241800
:1000D0002D18671EA246AB4654465D46AC4201D180
:1000E00000F030F87E460F3EB6460FCC0126334274
:1000F00000D0FB1A3343A246AB46184760100000FD
:1001000080100000103A02D378C878C1FAD852079C
:1001100001D330C830C101D504680C6070470000BD
:100120000023002400250026103A01D378C1FBD813
:10013000520700D330C100D50B6070471FB51FBDFB
:1001400010B510BD00F08AF81146FFF7F7FF00F078
:1001500081FD00F0A2F803B4FFF7F2FF03BC00F04A
:10016000A9F8000070B505460C46164602E00FCC13
:100170000FC5103E102EFAD2082E02D303CC03C5B1
:10018000083E042E07D301CC01C5361F03E02178B9
:100190002970641C6D1C761EF9D270BD074880471B
:1001A00007480047FEE7FEE7FEE7FEE7FEE7FEE75B
:1001B00004480549054A064B70470000990B0008A2
:1001C000C100000890030020900900209005002045
:1001D00090050020F8B5042A2CD3830712D00B78A1
:1001E000491C0370401C521E83070BD00B78491C1E
:1001F0000370401C521E830704D00B78491C037007
:10020000401C521E8B079B0F05D0C91ADF0020230C
:10021000DE1B08C90AE0FFF7A5FFF8BD1D4608C9A7
:10022000FD401C46B4402C4310C0121F042AF5D2D6
:10023000F308C91A521EF0D40B78491C0370401CF5
:10024000521EEAD40B78491C0370401C012AE4D4E6
:1002500009780170F8BD704770477047754600F027
:1002600025F8AE46050069465346C008C0008546DD
:1002700018B020B5FFF79CFF60BCB64600260027EB
:10028000C0C5C0C5C0C5C0C5C0C5C0C5C0C5C0C546
:10029000403D490849008D46704710B50446C046A8
:1002A000C0462046FFF757FF10BD000000487047CA
:1002B0000801002001491820ABBEFEE7260002001D
:1002C0007047FEE7F0B584B00E460A6811BA0B0914
:1002D000744C23402140090159188B08724C23406B
:1002E0002140890059184B08704C23402140490097
:1002F0005B182027002A394605D1002B0CD1114666
:10030000F9400ED1C0E051421140694C6143C90E21
:1003100068A4615C002BF2D00F461146F94000D171
:10032000B2E0039002960EE09300716999400F22AB
:100330009A40036A93430B4303627F1C3268114661
:10034000F94000D1A0E00125BD401540F5D029BA03
:100350000A09544B1A401940090151188A08524B96
:100360001A401940890051184A08504B1A40194048
:10037000490051180368766809D0002D09D06A42F7
:100380002A404B484243D20E4AA0825C02E04024FD
:1003900004E0202254000322A24093433246A240AC
:1003A0001A4303980260721E012A1BD884680298BF
:1003B000836800290AD0002D009109D06A422A40A2
:1003C0003B484243D20E3BA0825C02E0402205E063
:1003D00020225200032191408C43009993402343F3
:1003E00003988360C36800290AD0002D01960BD0C2
:1003F000684228402E494843C00E2EA10A5C04E002
:10040000022E029E99D110E02022029E30695100F6
:10041000884003248C40A34303430398C36001999D
:1004200002298AD1290600D07EE703462C0A20BA89
:100430000109284A11401040000108188108264A85
:1004400011401040800008184108184A114010401F
:100450004000081872695B6A09D0002C0AD060421B
:10046000204013494843C00E12A1095C03E08021DB
:10047000039805E02021039889000F248C40A343B2
:100480008A401A43426258E77168491E012905D81B
:10049000F36853434168914319434160002004B01D
:1004A000F0BDC0460F0F0F0F33333333555555553D
:1004B00031B57C0700011C021D0E18031E16140F17
:1004C000191104081F1B0D17151310071A0C12061B
:1004D0000B050A09000F0F0F0033333380B57D2160
:1004E000C90000F00FFD401E0349486000208860ED
:1004F0000520086080BDC04610E000E010B512493C
:100500000A6838231340082B01D13D4A06E00A4609
:10051000083A12689204530F384ADA4002600B68B6
:100520009B093C241C40384B1B591F242340DA40B4
:1005300042600968890A1C230B403249C95821408E
:10054000CA40826010BDC0460810024010B5014686
:100550000020032949D125494A6D03231A401B0471
:10056000D218234B9A420CD0224B9A420FD02248E9
:10057000824217D1886838220240082A19D12048BF
:1005800010BD0120C203C86D8003104010BD0A6871
:1005900052052AD508680006400F411C174800F094
:1005A000B1FC10BD886838220240082A07D11448DF
:1005B0000AE008688004410F1048C84010BD086870
:1005C0008004420F0D48D0408A688968890A1C233C
:1005D0000B400C49C9581F23194092093C24144070
:1005E000094A12591A40D040C84010BD00100240BC
:1005F000030003000200030001000300006CDC02A2
:1006000000127A003C110008FC1000080149086043
:100610007047C0460000002010B50468C84A9042E8
:1006200002D01C4B98420FD170239C434B6823434C
:10063000194CA0420CDD904210D0184CA0420DD0B5
:10064000174CA0420AD023E02346134CA042F2DC10
:10065000104CA04202D0134CA04219D10324240212
:10066000A343CC681C4304608B68C3620B8883621D
:10067000904205D0094A904202D0094A904201D1E5
:1006800009690163416901220A434261002010BDEA
:100690001C46E8E700040040FF2B014000480140F1
:1006A0000044014000200040F0B583B004460068DB
:1006B000C00726D10D4620682D490140A86808438F
:1006C0002969014368690843E969014321600320FE
:1006D000010362688A43E968114361600002A1680E
:1006E0008143A8690843A0600126224884420CD0B7
:1006F0002148844233D10320FFF728FF00280AD184
:100700002DE00126304603B0F0BD6846FFF7F6FE47
:100710000298002823D06F68002F20D02968002677
:100720000B291CD8890015A2515800F0EBFB0121C0
:10073000C903EA698A420BD179084000401839465A
:1007400000F0E0FB194901400007400F401805E0A8
:1007500079084018394600F0D5FB80B2E060E06AC5
:100760000F21884329880143E162304603B0F0BD80
:10077000F369FFEF00440040003801400100000031
:100780000200000004000000060000000800000055
:100790000A0000000C000000100000002000000013
:1007A000400000008000000000010000F0FF000099
:1007B000F0B589B000260796069605960496BA48C5
:1007C00001682022114301600168114008910899D5
:1007D000016801273943016001683940089108998F
:1007E00001680224214301600068204008900898B5
:1007F0001948402100918162802101918162069611
:10080000039604200290154802AD2946FFF75AFDD1
:1008100004960394380202900596069607960520E2
:1008200000072946FFF74EFD069605960320049023
:10083000039700980290084C20462946FFF742FD96
:10084000069605960496039701980290204629463D
:10085000FFF738FD09B0F0BD00040050001400504F
:100860000E4908460C380E4A02600E4A02600A46DB
:10087000083A002313600A1F0B4B13600A685207E3
:1008800008D00A68520705D00A68520702D00A68E1
:100890005207F3D1054901607047C0460C30004053
:1008A000CCCC000055550000FF0F0000AAAA0000A4
:1008B000B0B586B0002000900125E9021D4A1368FA
:1008C0000B43136012680A4005920599FF21090243
:1008D000194A13688B4313606903764A11606946AD
:1008E000164A0A8004900390092202920190144C47
:1008F0002046FFF791FE8020C0432168014021601F
:10090000A168104A0A40A260616870229143616048
:100910000F21090562688A436260A1680140A160F5
:10092000E8432061E0682843E060206828432060B5
:1009300006B0B0BD401002400CE400E0BF12000061
:10094000002C0140F8BFFEFFF0B591B05648016A97
:10095000032291431346029201620126B103C26849
:100960000A43C260C2680A4009920999016831438A
:1009700001600068304009900896002707970697A5
:10098000059302240494700203900998052000073F
:10099000019003AD2946FFF795FC08960797069747
:1009A0000298059002940494B0020390019829469D
:1009B000FFF788FCB5053D48016829430160F10552
:1009C00002680A430260FF20000639490A68824330
:1009D0000A60F0063749086010970F970C200E90B8
:1009E0000D970C970B9734480A900997334C27467C
:1009F0001C3F09A93846FFF757FEEFF3108001901E
:100A000086F310880722530720461438016899435B
:100A10000160019981F31088EFF3108186F310884B
:100A2000520603689343036081F3108871073A68A4
:100A30008A433A600921C9022246183A13688B4357
:100A4000136001682A22914301603868304338609E
:100A500070052168014202D02168294211D1216824
:100A6000014202D0216829420BD12168014202D003
:100A70002168294205D121680142EAD02168294232
:100A8000E7D00820606004206060666002986060C3
:100A9000EFF3108086F31088396820220A433A6009
:100AA00080F3108811B0F0BD341002400000014006
:100AB00018E400E000E100E040420F001C38014073
:100AC000FEE7704770477047B0B5304802680121B3
:100AD0000A4306239A43026008022D4D2A46083A2B
:100AE00013680343136088021368034208D1136834
:100AF000034205D11368034202D113680342F3D0C5
:100B00007F2000022B1F1C68844388032018186074
:100B10000720C30214689C431460AA6D0A43AA65A7
:100B2000A96D890708D4A96D890705D4A96D89071E
:100B300002D4A96D8907F3D50F2109022A688A43D7
:100B40002A6029688143296029688906490F0BD0EA
:100B500029688906490F07D029688906490F03D0FB
:100B600029688906490FEFD100032968814329606C
:100B7000084C2046FFF7B2FC2046FFF747FD2868E7
:100B8000D14908404018401C2860B0BD00200240F8
:100B900008100240006CDC020120C0060149086018
:100BA0007047C04608ED00E080B505480168C907F8
:100BB00002D00121C943016000F004F880BDC046A5
:100BC000102C01400348012101704168491C41601B
:100BD0007047C0467801002081B01C48011F0A6898
:100BE000920604D50246203A1268920613D4096888
:100BF0000091009949070BD40099C90717D10099B2
:100C0000090717D40099890719D50221042213E096
:100C10000421012210E0B44900220A604068B3496F
:100C20000A68531C0B60B349885401B07047012116
:100C3000022201E008210322054B1A600160012114
:100C4000CA0202604903016001B0704720380140C8
:100C50008803002084B09A4C6068012630436060AD
:100C6000606830400290029830072168014321609B
:100C7000216801400391039892480168924D2940F0
:100C800003229207891801609048016808220A43EC
:100C90000260016810220A430260FFF715FF343C2E
:100CA000206828402121090640182060FFF780FDB8
:100CB000FFF74AFEFFF7FCFDFFF7D2FD844F7320DC
:100CC000F8603868000608D43868000605D438682B
:100CD000000602D438680006F3D57420F86039683D
:100CE000090608D43968090605D43968090602D40A
:100CF00039680906F3D56121F9603968090608D415
:100D00003968090605D43968090602D43968090624
:100D1000F3D57221F9603968090608D439680906E3
:100D200005D43968090602D439680906F3D5F86094
:100D30003868000608D43868000605D4386800060C
:100D400002D438680006F3D52E20F8603968090609
:100D500008D43968090605D43968090602D4396807
:100D60000906F3D5F8603968090608D43968090618
:100D700005D43968090602D439680906F3D5F86044
:100D80003868000608D43868000605D438680006BC
:100D900002D438680006F3D5524D01964E484F49AB
:100DA00001604F48007801280ED100204C4908709E
:100DB0002868401C28606868401C6860A868401C5F
:100DC000A860E868401CE86047480068122812D311
:100DD00000264548066045482C46054602684448BA
:100DE0004449FFF7F7F92868434908602E60254613
:100DF000019E4248067028681E284ED300202860B5
:100E0000FF203F4902E0491D401F46D00A78FA60A2
:100E10003A68120608D43A68120605D43A681206EF
:100E200002D43A681206F3D54A78FA603A68120694
:100E300008D43A68120605D43A68120602D43A6811
:100E40001206F3D58A78FA603A68120608D43A682E
:100E5000120605D43A68120602D43A681206F3D58F
:100E6000CA78FA603A68120608D43A68120605D4BD
:100E70003A68120602D43A681206F3D50A79FA6083
:100E80003A681206BFD43A681206BCD43A68120611
:100E9000B9D43A681206F3D5B5E76868C0087D286A
:100EA00000D27BE7002068600A4C20684021B20530
:100EB0000304084013401818484060606EE7C046BD
:100EC0003C10024020ED00E0FFFFFF000000014069
:100ED0001C3801401404005000300040AAAA000051
:100EE00078010020680100207C01002080030020A0
:100EF0008002002081010020840300208001002066
:100F00000400002043088B421AD3002203098B42BD
:100F100079D3030A8B425ED3030B8B4242D3030C7B
:100F20008B4227D30902FF2212BA030C8B4202D351
:100F30001212090203D0030B8B4233D31AE0D3E021
:100F4000411A8041401C704703460B4371D443084B
:100F50008B42F5D3002203098B4254D3030A8B4200
:100F600039D3030B8B421DD3030C8B4202D394461F
:100F70006EE0090AC30B8B4201D3CB03C01A524166
:100F8000830B8B4201D38B03C01A5241430B8B421C
:100F900001D34B03C01A5241030B8B4201D30B0305
:100FA000C01A5241C30A8B4201D3CB02C01A52412C
:100FB000830A8B4201D38B02C01A5241430A8B42EF
:100FC00001D34B02C01A5241030A8B4201D30B02D8
:100FD000C01A5241CDD2C3098B4201D3CB01C01AF2
:100FE000524183098B4201D38B01C01A52414309FC
:100FF0008B4201D34B01C01A524103098B4201D3EA
:101000000B01C01A5241C3088B4201D3CB00C01A56
:10101000524183088B4201D38B00C01A52414308CE
:101020008B4201D34B00C01A5241411A5241100069
:101030007047CA0F00D04942031000D340425340CA
:1010400000229C4603098B422DD3030A8B4212D304
:101050008901FC2212BA030A8B420CD38901921136
:101060008B4208D3890192118B4204D3890137D076
:10107000921100E08909C3098B4201D3CB01C01A48
:10108000524183098B4201D38B01C01A524143095B
:101090008B4201D34B01C01A524103098B4201D349
:1010A0000B01C01A5241C3088B4201D3CB00C01AB6
:1010B000524183088B4201D38B00C01A5241D9D2CE
:1010C00043088B4201D34B00C01A5241411A00D24F
:1010D00001465241104663465B1000D340427047C0
:1010E00063465B1000D3404201B50021004201D0AD
:1010F000C9430846C046C04602BD000000000000CB
:1011000000000000000000000000000000000000DF
:1011100000000000000000000000000001000000CE
:1011200002000000030000000400000006000000B0
:101130000700000008000000090000000000000097
:10114000000000000000000000000000010000009E
:1011500002000000030000000400000080110008ED
:1011600000000020080100000401000888120008A7
:10117000080100208808000020010008000000008D
:10118000006CDC020F0F0F0F0F0F0F0F0F0F0F0F61
:101190000F0F0F0F0F0F0F0F0F0F0F0F0F0F0F0F5F
:1011A0000F0F0F0F0F0F0F0F0F0F0F0F0F0F0F0F4F
:1011B0000F0F0F0F0F0F0F0F0F0F0F0F0F0F0F0F3F
:1011C0000F0F0F0F0F0F0F0F0F0F0F0F0F0F0F0F2F
:1011D0000F0F0F0F0F0F0F0F0F0F0F0F0F0F0F0F1F
:1011E0000F0F0F0F0F0F0F0F0F0F0F0F0F0F0F0F0F
:1011F0000F0F0F0F0F0F0F0F0F0F0F0F0F0F0F0FFF
:101200000F0F0F0F0F0F0F0F0F0F0F0F0F0F0F0FEE
:101210000F0F0F0F0F0F0F0F0F0F0F0F0F0F0F0FDE
:101220000F0F0F0F0F0F0F0F0F0F0F0F0F0F0F0FCE
:101230000F0F0F0F0F0F0F0F0F0F0F0F0F0F0F0FBE
:101240000F0F0F0F0F0F0F0F0F0F0F0F0F0F0F0FAE
:101250000F0F0F0F0F0F0F0F0F0F0F0F0F0F0F0F9E
:101260000F0F0F0F0F0F0F0F0F0F0F0F0F0F0F0F8E
:101270000F0F0F0F0F0F0F0F0F0F0F0F0F0F0F0F7E
:081280000F0F0F000000000039
:04000005080000C12E
:00000001FF
