:020000040800F2
:10000000400F00209D010008BD0D00087D02000882
:1000100000000000000000000000000000000000E0
:10002000000000000000000000000000C30D0008F8
:100030000000000000000000BF0D0008C50D000812
:10004000AF01000800000000AF010008AF01000888
:10005000AF01000841020008AF0100086902000872
:1000600000000000AF010008AF010008AF01000868
:10007000AF010008DD0D0008AF010008000000001E
:10008000AF0100080000000000000000AF01000800
:1000900000000000AF010008D90D0008AF01000802
:1000A00000000000C10D0008000000000D0E000857
:1000B000AF01000800000000000000000000000088
:1000C00000F002F800F03EF80CA030C80838241800
:1000D0002D18671EA246AB4654465D46AC4201D180
:1000E00000F030F87E460F3EB6460FCC0126334274
:1000F00000D0FB1A3343A246AB461847242C00001D
:10010000442C0000103A02D378C878C1FAD85207BC
:1001100001D330C830C101D504680C6070470000BD
:100120000023002400250026103A01D378C1FBD813
:10013000520700D330C100D50B6070471FB51FBDFB
:1001400010B510BD00F049F81146FFF7F7FF01F0B8
:10015000EFFC00F061F803B4FFF7F2FF03BC00F01E
:1001600067F8000070B505460C46164602E00FCC55
:100170000FC5103E102EFAD2082E02D303CC03C5B1
:10018000083E042E07D301CC01C5361F03E02178B9
:100190002970641C6D1C761EF9D270BD074880471B
:1001A00007480047FEE7FEE7FEE7FEE7FEE7FEE75B
:1001B00004480549054A064B70470000C90D000870
:1001C000C100000840090020400F0020400B002023
:1001D000400B0020704770477047754600F024F8C8
:1001E000AE46050069465346C008C000854618B0B3
:1001F00020B5FFF7DDFF60BCB64600260027C0C56E
:10020000C0C5C0C5C0C5C0C5C0C5C0C5C0C5403DCE
:10021000490849008D46704710B50446C046C0469F
:100220002046FFF798FF10BD0048704708000020E7
:1002300001491820ABBEFEE726000200704700000F
:100240000D480168C90703D10168890707D47047C1
:1002500001210160034A118001688907F7D5022155
:10026000016070473001002003480168090601D58C
:10027000802101607047C0460C180240FEE7000074
:10028000014602680079002814D0002A1BD0487962
:1002900002281AD001281CD0002834D123484368F2
:1002A0009343436003681343036000208979032963
:1002B0001AD92CE01D4801689143016041689143BF
:1002C00041600020704700207047184803681343BE
:1002D00002E0164803689343036043681343436096
:1002E00000208979032912D87944097949008F447B
:1002F00001021014E6E70E494B6893434B600B680C
:1003000013430B607047012089790329ECD9012040
:10031000704707490B68934302E005490B68134394
:100320000B604B6813434B607047C0468018024017
:1003300000180240F0B584B00E460A6811BA0B09E5
:10034000744C23402140090159188B08724C2340FA
:100350002140890059184B08704C23402140490026
:100360005B182027002A394605D1002B0CD11146F5
:10037000F9400ED1C0E051421140694C6143C90EB1
:1003800068A4615C002BF2D00F461146F94000D101
:10039000B2E0039002960EE09300716999400F223B
:1003A0009A40036A93430B4303627F1C32681146F1
:1003B000F94000D1A0E00125BD401540F5D029BA93
:1003C0000A09544B1A401940090151188A08524B26
:1003D0001A401940890051184A08504B1A401940D8
:1003E000490051180368766809D0002D09D06A4287
:1003F0002A404B484243D20E4AA0825C02E040248D
:1004000004E0202254000322A24093433246A2403B
:100410001A4303980260721E012A1BD8846802984E
:10042000836800290AD0002D009109D06A422A4031
:100430003B484243D20E3BA0825C02E0402205E0F2
:1004400020225200032191408C4300999340234382
:1004500003988360C36800290AD0002D01960BD051
:10046000684228402E494843C00E2EA10A5C04E091
:10047000022E029E99D110E02022029E3069510086
:10048000884003248C40A34303430398C36001992D
:1004900002298AD1290600D07EE703462C0A20BA19
:1004A0000109284A11401040000108188108264A15
:1004B00011401040800008184108184A11401040AF
:1004C0004000081872695B6A09D0002C0AD06042AB
:1004D000204013494843C00E12A1095C03E080216B
:1004E000039805E02021039889000F248C40A34342
:1004F0008A401A43426258E77168491E012905D8AB
:10050000F36853434168914319434160002004B0AC
:10051000F0BDC0460F0F0F0F3333333355555555CC
:1005200031B57C0700011C021D0E18031E16140FA6
:10053000191104081F1B0D17151310071A0C1206AA
:100540000B050A09000F0F0F0033333380B57D21EF
:10055000C90001F0B9FE401EDA49486000208860F9
:100560000520086080BDC04610B5114A11683823C7
:100570000B403A49082B05D01346083B1B689B04E7
:100580005B0FD940016013689B093C241C40354B2C
:100590001B591F242340D94041601268920A1C2332
:1005A00013402F4AD2582240D140816010BDC0462E
:1005B0000810024010B501460020032945D1234907
:1005C0004A6D03231A401B04D218214B9A4210D0C3
:1005D000204B9A4213D0204882421BD1886838228F
:1005E00002401E48082A30D009688904490FC840D3
:1005F00010BD0120C203C86D8003104010BD0A6801
:10060000520522D508680006400F411C134801F02E
:100610005BFE10BD8868382202401048082A03D0CB
:100620000A689204520FD0408A688968890A1C239C
:100630000B400B49C9581F23194092093C24144010
:10064000084A12591A40D040C84010BD001002405C
:10065000030003000200030001000300006CDC0241
:1006600000250008C024000870B502680123520666
:100670001A4629D40268174C14400A6822434C6871
:100680001443CA6822430C6914438A692243CD6922
:1006900015434A6915430C6A2543056045680E4EAB
:1006A0002E40120C32438D682A434260EA0A04D17C
:1006B00001221203456815434560012255030022BB
:1006C000AC4201D1898C0161D902C3698B43C361FA
:1006D000104670BD4000FFFFFBF0FFFF01490860BE
:1006E0007047C0460000002010B504681D4A9042C3
:1006F00002D01D4B98420FD170239C434B6823437B
:100700001A4CA0420CDD904210D0194CA0420DD0E2
:10071000184CA0420AD023E02346144CA042F2DC3D
:10072000114CA04202D0144CA04219D1032424023F
:10073000A343CC681C4304608B68C3620B8883624C
:10074000904205D00A4A904202D00A4A904201D112
:1007500009690163416901220A434261002010BD19
:100760001C46E8E7002C014000040040FF2B01403C
:10077000004801400044014000200040F0B583B033
:1007800004460068C00726D10D4620682D49014067
:10079000A86808432969014368690843E969014376
:1007A00021600320010362688A43E96811436160A4
:1007B0000002A1688143A8690843A060012622487D
:1007C00084420CD02148844233D10320FFF7F2FE4B
:1007D00000280AD12DE00126304603B0F0BD68465E
:1007E000FFF7C2FE0298002823D06F68002F20D0A8
:1007F000296800260B291CD8890015A2515801F040
:1008000063FD0121C903EA698A420BD179084000DE
:100810004018394601F058FD194901400007400FC2
:10082000401805E079084018394601F04DFD80B2C6
:10083000E060E06A0F21884329880143E162304685
:1008400003B0F0BDF369FFEF004400400038014001
:10085000010000000200000004000000060000008B
:10086000080000000A0000000C000000100000005A
:100870002000000040000000800000000001000097
:10088000F0FF000081B00F490A680092401C01D3BC
:100890000020C043009A0A68D203D21710180ED065
:1008A0000A68D203D217101809D00A68D203D217E7
:1008B000101804D00A68D203D2171018EBD101B077
:1008C0007047C04610E000E0F0B591B063480F906B
:1008D00001240E9400250D950C950B950A959B48C7
:1008E0000168042211430160016811401346109110
:1008F000109901682022049211430160016811409F
:100900001091109901682143016001682140264639
:100910000794109110990168022206921143016018
:100920000068104010901098052004070093A36100
:1009300008200190A06110200290A0614848402149
:10094000039181620C9509950893464808AF394692
:10095000FFF7F0FC0C950B95032005900A90099683
:100960000098089020463946FFF7E4FC0C950B955B
:10097000059E0A96079809900198089020463946E6
:10098000FFF7D8FC0C950B950A96079E09960298DE
:10099000089020463946FFF7CDFC0A950698099045
:1009A000300208900B950C950D9520463946FFF7BF
:1009B000C1FC0C950B95059D0A9509960398089026
:1009C00027483946FFF7B6FC2748016807229143BC
:1009D0000160110203688B430360110642688A4379
:1009E00022495118491C41600EAE3046FFF748FCC1
:1009F000079FB771B78006980E903046FFF740FC0E
:100A0000B771B78080270E973046FFF739FCE8436F
:100A1000E1680140E1600C21C943E2680A40E260FC
:100A20000F4EF268124B1A40F260226802402260B8
:100A3000206808402060306818403060FF200002C5
:100A40000C490A6882430A60DA48049A02600A681C
:100A5000064B1A400A60076011B0F0BD01000100AA
:100A6000000400500014005060180240FFFFFF0017
:100A7000FF3FFFFF04E400E0F0B593B00327B903A4
:100A8000C948026A8A43026201231903C2680A4301
:100A9000C260C2680A40099209990168019319432A
:100AA000016000681840099000260896079606968F
:100AB00005970220029004902020039009980520B9
:100AC000040703AD20462946FFF734FC0896079635
:100AD00006960597029804904020039020462946E8
:100AE000FFF728FC0896079606960597029804904B
:100AF0008020039020462946FFF71CFCFF200002BF
:100B0000AB490A6882430A6001984006A949086017
:100B1000119610960D960C960996412080000A9029
:100B2000FC300E900720129000020B9010240F94BE
:100B3000074D281F09A9FFF797FD2868A0432860E3
:100B4000286808210143296013B0F0BD3410024029
:100B500004300140B0B586B0002000900125A90402
:100B6000364A13680B43136012680A4005920599D0
:100B7000FF2109040D4A13688B431360A9058D4AB0
:100B8000116069462F220A8004900390084A02925D
:100B90000190084C2046FFF7A7FD2068802188437C
:100BA000206020682843206006B0B0BD14E400E057
:100BB000FFFF000000480140B0B586B00020009063
:100BC0000125E9021D4A13680B43136012680A40AD
:100BD00005920599FF210902194A13688B43136096
:100BE0006903744A11606946164A0A8004900390AA
:100BF000092202920190144C2046FFF775FD8020D7
:100C0000C043216801402160A168104A0A40A260E7
:100C100061687022914361600F21090562688A430F
:100C20006260A1680140A160E8432061E068284358
:100C3000E06020682843206006B0B0BD401002404C
:100C40000CE400E0BF120000002C0140F8BFFEFFE2
:100C5000F0B593B0534C2068042103918843206081
:100C600020680821019108432060002610964E4814
:100C7000016A0322914301620125A903C2680A4364
:100C8000C260C2680A400492049901682943016065
:100C90000068284012900995089507950220069053
:100CA000029005906802049012980520000704A99C
:100CB000FFF740FBAF053D48016839430160FF2065
:100CC00000063B490A6882430A60E8063949086021
:100CD00011960C200F900E960D960C9636480B90A0
:100CE0000A960AA92046FFF749FDEFF3108085F325
:100CF000108807214A07A3689343A36080F31088F4
:100D0000EFF3108085F310884906A2688A43A26039
:100D1000019A80F3108868072168814321600920C7
:100D2000C002616881436160A06822218843A0609D
:100D3000A0681043A0602068284320606805E1692E
:100D4000014202D0E169394211D1E169014202D088
:100D5000E16939420BD1E169014202D0E1693942CE
:100D600005D1E1690142EAD0E1693942E7D0226266
:100D700003982062256202982062EFF3108085F3C9
:100D80001088216820220A43226080F31088EFF344
:100D9000108085F31088A1682943A16080F3108832
:100DA00013B0F0BD00380140341002400000014093
:100DB00018E400E000E100E040420F00FEE7704769
:100DC00070477047704700000120C0060149086065
:100DD0007047C04608ED00E07047000080B5054848
:100DE0000168C90702D00121C943016000F004F87D
:100DF00080BDC046102C01400348012101704168AC
:100E0000491C41607047C046D0000020F0B581B059
:100E10004448011F0A68920604D50246203A126827
:100E2000920613D409680091009949070BD40099E0
:100E3000C90715D10099090721D40099890723D53D
:100E4000022104221DE0042101221AE04068364CF0
:100E50006278C1B2002A06D1AA2904D001B0F0BD3F
:100E6000012102220DE0012513466B400E46AA3EE9
:100E7000774277411F40012F0DD165701EE0082198
:100E800003222A4B1A6001600121CA020260490351
:100E9000016001B0F0BDA3789A43012A06D155291B
:100EA00004D000206060607001B0F0BD0E46553E79
:100EB000774277413A40012A07D1A57061684A1C00
:100EC00062606118087401B0F0BDE27816466E40A9
:100ED0003340012B08D1E16061684A1C62606118EF
:100EE0000874E57001B0F0BD002AB7D061684A1CF3
:100EF0006260611808746068E168C91C8842ADD3FB
:100F000062682046343021461031FFF72BF96068C3
:100F1000A06025700020606060806070E06001B0BB
:100F2000F0BDC04620380140D8000020380900201C
:100F3000B0B50022D243002900D1E6E0744B02E0B4
:100F4000491E00D1E1E010C854406200002C5DD47D
:100F50005400002A5ED46200002C5FD45400002AA2
:100F600060D46200002C61D45400002A62D4620074
:100F7000002C63D45400002A64D46200002C65D491
:100F80005400002A66D46200002C67D45400002A62
:100F900068D46200002C69D45400002A6AD462002C
:100FA000002C6BD45400002A6CD46200002C6DD449
:100FB0005400002A6ED46200002C6FD45400002A22
:100FC00070D46200002C71D45400002A72D46200E4
:100FD000002C73D45400002A74D46200002C75D401
:100FE0005400002A76D46200002C77D45400002AE2
:100FF00078D46200002C79D45400002A7AD4650099
:10100000002C7BD46A00002D9AD57CE05A40540015
:10101000002AA0D55C406200002C9FD55A405400A5
:10102000002A9ED55C406200002C9DD55A40540099
:10103000002A9CD55C406200002C9BD55A4054008D
:10104000002A9AD55C406200002C99D55A40540081
:10105000002A98D55C406200002C97D55A40540075
:10106000002A96D55C406200002C95D55A40540069
:10107000002A94D55C406200002C93D55A4054005D
:10108000002A92D55C406200002C91D55A40540051
:10109000002A90D55C406200002C8FD55A40540045
:1010A000002A8ED55C406200002C8DD55A40540039
:1010B000002A8CD55C406200002C8BD55A4054002D
:1010C000002A8AD55C406200002C89D55A40540021
:1010D000002A88D55C406200002C87D55A40540015
:1010E000002A86D55C406200002C85D55A40540009
:1010F000002A84D55C406500002C83D55D406A00E1
:10110000002D00D41CE75A401AE71046B0BDC04677
:10111000B71DC104F0B585B0DA4EB0687178DA4D0C
:10112000DA4F012904D10A2802D30120B07003E06C
:101130003278012A00D0FBE0D54830620020B06050
:1011400001210902318031462031F2780A713D3A9D
:101150004A713946143100BF00BF00BF00BF00BF55
:1011600000BF00BF00BF00BF00BF00BF00BF00BF87
:1011700000BF00BF00BF00BF00BF00BF00BF00BF77
:1011800000BF00BF00BF00BF00BF00BF00BF00BF67
:1011900000BF00BF00BF00BF00BF00BF00BF00BF57
:1011A00000BF00BF00BF00BF00BF00BF00BF00BF47
:1011B00000BF00BF00BF00BF00BF00BF00BF00BF37
:1011C00000BF00BF00BF00BF00BF00BF00BF3C3179
:1011D000C1D129461C390B68042293430B600C686B
:1011E00008231C430C602024345DEC602C6824062A
:1011F00008D42C68240605D42C68240602D42C6854
:101200002406F3D52124345DEC602C68240608D430
:101210002C68240605D42C68240602D42C682406E5
:10122000F3D52224345DEC602C68240608D42C68A5
:10123000240605D42C68240602D42C682406F3D591
:101240002324345DEC602C68240608D42C68240622
:1012500005D42C68240602D42C682406F3D5242453
:10126000345DEC602C68240608D42C68240605D470
:101270002C68240602D42C682406F3D52524345D7A
:10128000EC602C68240608D42C68240605D42C684D
:10129000240602D42C682406F3D500BF00BF00BF8B
:1012A00000BF00BF00BF00BF00BF00BF00BF00BF46
:1012B00000BF00BF00BF00BF00BF00BF00BF00BF36
:1012C00000BF00BF00BF00BF00BF00BF00BF00BF26
:1012D00000BF00BF00BF00BF00BF00BF00BF00BF16
:1012E00000BF00BF00BF00BF00BF00BF00BF00BF06
:1012F00000BF00BF00BF00BF00BF00BF00BF00BFF6
:1013000000BF00BF00BF00BF00BF00BF00BF00BFE5
:1013100000BF00BF00BF00BF00BF4037BDD10C6899
:101320009C430C600B6813430B60B070B06871781D
:10133000032909D10A2807D30020B0600120B0702A
:101340000320000230800CE03278022A00D0E9E16C
:101350000020B060032000023080B078012800D067
:101360002DE17069F168091AF1603169081830617E
:1013700040227261402803D80121717170610246D8
:101380004448308430462030C221C170F178017168
:10139000D11C01918170002A03923ED0F168049122
:1013A00000273C461346BA190499CE193A4FBE5D40
:1013B0002527D655334E01222243D2B2934225D956
:1013C000304E961904998A1833498A5CF2552D4E8D
:1013D00002222243D2B2934218D92A4E9619049976
:1013E0008A182D498A5CF255264E03222243D2B236
:1013F00093420BD9234E961904998A1826498A5C80
:10140000F255204E241DE7B2BB42CCD85C1D1A46D3
:1014100004D1002213461D4E42E005240323214639
:1014200019400491111D0329029402D200231F4682
:1014300014E02146994300231F46F2192124145D2C
:101440002026965DF3180F4EE3182224145DE3184E
:101450002324125DD3183F1DB942EED1049C002C09
:101460001CD0F11920228A5CD318012C074E16D00B
:1014700021228A5CD318022C11D02222895CCB183D
:101480000DE0C046680000201C380140C0FEFFFF90
:1014900055AA03C155AA000020250008ED4E029A66
:1014A000ED498A18202153543346143300BF00BF3E
:1014B00000BF00BF00BF00BF00BF00BF00BF00BF34
:1014C00000BF00BF00BF00BF00BF00BF00BF00BF24
:1014D00000BF00BF00BF00BF00BF00BF00BF00BF14
:1014E00000BF00BF00BF00BF00BF00BF00BF00BF04
:1014F00000BF00BF00BF00BF00BF00BF00BF00BFF4
:1015000000BF00BF00BF00BF00BF00BF00BF00BFE3
:1015100000BF00BF00BF00BF00BF00BF00BF00BFD3
:1015200000BF00BF3C33C1D12B461C3B1A680424CA
:101530000494A2431A601A680824029422431A6091
:10154000039A971D344600D196E003243C40561D73
:10155000002C2FD00096C048405CE8602868000648
:1015600008D42868000605D42868000602D4286834
:101570000006F3D5012C009E07D1B748213037462D
:10158000032EB44A144677D33CE02120B249085CCC
:10159000E8602868000608D42868000605D4286892
:1015A000000602D428680006F3D5022C0ED1AA4802
:1015B0002230171D032EA74A14465DD322E030695E
:1015C00040227261402800D8D6E6D9E62220A249FE
:1015D000085CE8602868000608D42868000605D47E
:1015E0002868000602D428680006F3D59A482330FC
:1015F000019F009E032E974A14463DD302E0001D32
:101600003F1F38D00178E9602968090608D42968A5
:10161000090605D42968090602D429680906F3D504
:101620004178E9602968090608D42968090605D4C3
:101630002968090602D429680906F3D58178E9608A
:101640002968090608D42968090605D42968090605
:1016500002D429680906F3D5C178E960296809062A
:10166000CDD429680906CAD429680906C7D42968CF
:101670000906F3D5C3E7144600BF00BF00BF00BF93
:1016800000BF00BF00BF00BF00BF00BF00BF00BF62
:1016900000BF00BF00BF00BF00BF00BF00BF00BF52
:1016A00000BF00BF00BF00BF00BF00BF00BF00BF42
:1016B00000BF00BF00BF00BF00BF00BF00BF00BF32
:1016C00000BF00BF00BF00BF00BF00BF00BF00BF22
:1016D00000BF00BF00BF00BF00BF00BF00BF00BF12
:1016E00000BF00BF00BF00BF00BF00BF00BF00BF02
:1016F00000BF00BF00BF00BF4034BDD118680299D1
:101700008843186018680499084318600020524EF6
:10171000B0707069F1680918F1603169081A3061B8
:10172000B0687178052904D10A2802D30120B0706D
:1017300003E03078032800D0EDE10024B4600520F8
:1017400000023080F36899087CD001290F4600D848
:10175000012703203C4604407A1E032A0391029786
:101760000193049401D2002336E0874300242346EA
:10177000EC48015D0906021956783604711896780E
:1017800036028919D6788919E7480151117B090673
:10179000567B36047118967B36028919D67B8E19D2
:1017A0000119CE60167A3606507A00048019967AAE
:1017B00036028019D67A8019886010790006567929
:1017C00036043018967936028019D279801848602C
:1017D00010341B1D9F42CBD1049E002E2ED09800AA
:1017E000D0490A5C12060B185C782404A2189C7875
:1017F00024021219DB78D318CB4A1350012E1DD0C6
:10180000031DCC5C24063246CE1877783F043C1981
:10181000B7783F02E419C44FF678A419FC50022AA5
:101820000CD008300B5C1B0609184C782404E31814
:101830008C7824021B19C97859183950B74E03996E
:10184000029C019B032003407B441B795B009F4467
:1018500022050A13C0FEFFFF68000020A000B14A65
:10186000105C000613E0A000AE4B1A5C12061818BC
:101870004078000480180AE0A000AA4B1A5C120607
:10188000181843781B049A18807800021018A300D7
:10189000A54AD050491CA448FFF74AFBA34931622E
:1018A000314620310872020ACA71030C8B71040E92
:1018B0004C71F6780E713419E3189A1810183738ED
:1018C0004872974C2046143000BF00BF00BF00BFD5
:1018D00000BF00BF00BF00BF00BF00BF00BF00BF10
:1018E00000BF00BF00BF00BF00BF00BF00BF00BF00
:1018F00000BF00BF00BF00BF00BF00BF00BF00BFF0
:1019000000BF00BF00BF00BF00BF00BF00BF00BFDF
:1019100000BF00BF00BF00BF00BF00BF00BF00BFCF
:1019200000BF00BF00BF00BF00BF00BF00BF00BFBF
:1019300000BF00BF00BF00BF00BF00BF00BF00BFAF
:101940003C30C1D128461C38026804218A43026019
:1019500003680822134303602023704EF35CEB609E
:101960002B681B0608D42B681B0605D42B681B06A6
:1019700002D42B681B06F3D52123F35CEB602B68A4
:101980001B0608D42B681B0605D42B681B0602D443
:101990002B681B06F3D52223F35CEB602B681B0638
:1019A00008D42B681B0605D42B681B0602D42B68B1
:1019B0001B06F3D52323F35CEB602B681B0608D4CE
:1019C0002B681B0605D42B681B0602D42B681B064C
:1019D000F3D52423F35CEB602B681B0608D42B683B
:1019E0001B0605D42B681B0602D42B681B06F3D5F7
:1019F0002523F35CEB602B681B0608D42B681B06C1
:101A000005D42B681B0602D42B681B06F3D52623AE
:101A1000F35CEB602B681B0608D42B681B0605D40F
:101A20002B681B0602D42B681B06F3D52723F35C17
:101A3000EB602B681B0608D42B681B0605D42B68AB
:101A40001B0602D42B681B06F3D52823F35CEB603E
:101A50002B681B0608D42B681B0605D42B681B06B5
:101A600002D42B681B06F3D52923F35CEB602B68AB
:101A70001B0608D42B681B0605D42B681B0602D452
:101A80002B681B06F3D500BF00BF00BF00BF00BF1F
:101A900000BF00BF00BF00BF00BF00BF00BF00BF4E
:101AA00000BF00BF00BF00BF00BF00BF00BF00BF3E
:101AB00000BF00BF00BF00BF00BF00BF00BF00BF2E
:101AC00000BF00BF00BF00BF00BF00BF00BF00BF1E
:101AD00000BF00BF00BF00BF00BF00BF00BF00BF0E
:101AE00000BF00BF00BF00BF00BF00BF00BF00BFFE
:101AF00000BF00BF00BF00BF00BF00BF00BF00BFEE
:101B000000BF00BF00BF4034BDD1036893430360F2
:101B100002680A43026005B0F0BDC04668000020BC
:101B2000C0FEFFFF202500083401002055AA07C38E
:101B300000B58BB0194CA06B01231843A063A06BB8
:101B40001840099009981807616B01436163616B44
:101B500001400A910A9812480168124D2940032257
:101B60000392920789180160FD48016808220192DA
:101B700011430160016810220A430260F9480168BC
:101B80001943062291430160190220460838026871
:101B90000A43026008939F0206E0C0460810024014
:101BA00020ED00E0FFFFFF000168394208D1016825
:101BB000394205D10168394202D101683942F3D076
:101BC0007F210902221F13688B4308998903591842
:101BD00011600721CA020368934303600F200002CB
:101BE000226882432260C843226802402260206843
:101BF0008006400F0BD020688006400F07D0206879
:101C00008006400F03D020688006400FEFD1080304
:101C1000216881432160DD4E3046FEF797FC304657
:101C2000FEF75CFD20682840691C01432160FEF737
:101C30004BFEFFF70DF8FEF7BFFFFEF71DFFFEF7A7
:101C400089FF206828402121029109064018206060
:101C50000A20FEF717FECE48143000BF00BF00BFB9
:101C600000BF00BF00BF00BF00BF00BF00BF00BF7C
:101C700000BF00BF00BF00BF00BF00BF00BF00BF6C
:101C800000BF00BF00BF00BF00BF00BF00BF00BF5C
:101C900000BF00BF00BF00BF00BF00BF00BF00BF4C
:101CA00000BF00BF00BF00BF00BF00BF00BF00BF3C
:101CB00000BF00BF00BF00BF00BF00BF00BF00BF2C
:101CC00000BF00BF00BF00BF00BF00BF00BF00BF1C
:101CD00000BF3C30C1D1AF4E31461C3908680422E8
:101CE0000692904308600868019D284307910860A8
:101CF0000298F0603068000608D43068000605D409
:101D00003068000602D430680006F3D50298F0600F
:101D10003068000608D43068000605D43068000634
:101D200002D430680006F3D50298F06030680006EF
:101D300008D43068000605D43068000602D4306844
:101D40000006F3D5924800BF00BF00BF00BF00BF30
:101D500000BF00BF00BF00BF00BF00BF00BF00BF8B
:101D600000BF00BF00BF00BF00BF00BF00BF00BF7B
:101D700000BF00BF00BF00BF00BF00BF00BF00BF6B
:101D800000BF00BF00BF00BF00BF00BF00BF00BF5B
:101D900000BF00BF00BF00BF00BF00BF00BF00BF4B
:101DA00000BF00BF00BF00BF00BF00BF00BF00BF3B
:101DB00000BF00BF00BF00BF00BF00BF00BF00BF2B
:101DC00000BF00BF00BF4030BDD107990868A843DD
:101DD00008600868069A104308606F4B08981870EE
:101DE000D8706E4C04976E480078012813D10020FB
:101DF0006B4908709869401C9861D869401CD8618B
:101E00005878052807D8089981402A20014202D035
:101E10009868401C986063480078012800D02EE143
:101E20000027604807702079059018715E480168A6
:101E30004B1E27D01A462046039C2240891E0027AD
:101E4000032939460FD303998B4300273946455C54
:101E5000ED1947187C786419BD782C19FD782F1975
:101E6000091D8B42F3D1002A019D04460AD0635C10
:101E7000DF19012A06D009194B78DF19022A01D08F
:101E80008978CF19484801680919491E0978FAB2BA
:101E90008A42049F404B00D0F1E05978052909D8C7
:101EA000089A8A402A231A423B4B03D000229A60A8
:101EB000491C5970D9780598884200D0DFE0344831
:101EC000143000BF00BF00BF00BF00BF00BF00BF95
:101ED00000BF00BF00BF00BF00BF00BF00BF00BF0A
:101EE00000BF00BF00BF00BF00BF00BF00BF00BFFA
:101EF00000BF00BF00BF00BF00BF00BF00BF00BFEA
:101F000000BF00BF00BF00BF00BF00BF00BF00BFD9
:101F100000BF00BF00BF00BF00BF00BF00BF00BFC9
:101F200000BF00BF00BF00BF00BF00BF00BF00BFB9
:101F300000BF00BF00BF00BF00BF3C30C1D1079948
:101F40000868069A90430860086828430860E078AB
:101F5000D138122848D804A1085C40008744C04604
:101F600000000140002002400E262B44444444441B
:101F700044444444444444444444380002201870D7
:101F800000200899C902D86019612DE0006CDC02BC
:101F9000C0FEFFFF1C380140680000200C0100203B
:101FA000D0000020D8000020E00000205879002850
:101FB00018D0039817E0C048FEF764FCBD49C87804
:101FC000012811D1002088604871BD4808600BE0ED
:101FD000002098605871987008981880B648FEF7ED
:101FE00051FC01E002201870B14800BF00BF00BFE3
:101FF00000BF00BF00BF00BF00BF00BF00BF00BFE9
:1020000000BF00BF00BF00BF00BF00BF00BF00BFD8
:1020100000BF00BF00BF00BF00BF00BF00BF00BFC8
:1020200000BF00BF00BF00BF00BF00BF00BF00BFB8
:1020300000BF00BF00BF00BF00BF00BF00BF00BFA8
:1020400000BF00BF00BF00BF00BF00BF00BF00BF98
:1020500000BF00BF00BF00BF00BF00BF00BF00BF88
:1020600000BF00BF00BF00BF00BF4030BDD1079917
:102070000868A84308600868069A10430860FFF7DC
:1020800049F88C4B9869002800D1FAE0002098614B
:1020900018780A2800D0F4E08A48186218462030E0
:1020A000D97801715D3941718148143000BF00BF9A
:1020B00000BF00BF00BF00BF00BF00BF00BF00BF28
:1020C00000BF00BF00BF00BF00BF00BF00BF00BF18
:1020D00000BF00BF00BF00BF00BF00BF00BF00BF08
:1020E00000BF00BF00BF00BF00BF00BF00BF00BFF8
:1020F00000BF00BF00BF00BF00BF00BF00BF00BFE8
:1021000000BF00BF00BF00BF00BF00BF00BF00BFD7
:1021100000BF00BF00BF00BF00BF00BF00BF00BFC7
:1021200000BF00BF3C30C1D107990868069A9043B0
:1021300008600868284308602020185CF060306858
:10214000000608D43068000605D43068000602D4C2
:1021500030680006F3D50298185CF060306800061D
:1021600008D43068000605D43068000602D4306810
:102170000006F3D52220185CF0603068000608D411
:102180003068000605D43068000602D430680006C6
:10219000F3D52320185CF0603068000608D430685E
:1021A000000605D43068000602D430680006F3D576
:1021B0002420185CF0603068000608D430680006FF
:1021C00005D43068000602D430680006F3D5252017
:1021D000185CF0603068000608D43068000605D44A
:1021E0003068000602D430680006F3D5304800BFDE
:1021F00000BF00BF00BF00BF00BF00BF00BF00BFE7
:1022000000BF00BF00BF00BF00BF00BF00BF00BFD6
:1022100000BF00BF00BF00BF00BF00BF00BF00BFC6
:1022200000BF00BF00BF00BF00BF00BF00BF00BFB6
:1022300000BF00BF00BF00BF00BF00BF00BF00BFA6
:1022400000BF00BF00BF00BF00BF00BF00BF00BF96
:1022500000BF00BF00BF00BF00BF00BF00BF00BF86
:1022600000BF00BF00BF00BF00BF00BF00BF4030C5
:10227000BDD107990868A84308600868069A10430A
:10228000086038461938D969814200D8ABE500208A
:10229000D8610A4800684021089A92050304084062
:1022A00013401818034B4840044948609BE5C0465A
:1022B000C0FEFFFF680000207017000014040050EB
:1022C0000100000255AA03A143088B421AD3002241
:1022D00003098B4279D3030A8B425ED3030B8B42F3
:1022E00042D3030C8B4227D30902FF2212BA030CFC
:1022F0008B4202D31212090203D0030B8B4233D359
:102300001AE0D3E0411A8041401C704703460B435A
:1023100071D443088B42F5D3002203098B4254D376
:10232000030A8B4239D3030B8B421DD3030C8B4220
:1023300002D394466EE0090AC30B8B4201D3CB0350
:10234000C01A5241830B8B4201D38B03C01A5241F6
:10235000430B8B4201D34B03C01A5241030B8B42F8
:1023600001D30B03C01A5241C30A8B4201D3CB02E3
:10237000C01A5241830A8B4201D38B02C01A5241C8
:10238000430A8B4201D34B02C01A5241030A8B42CB
:1023900001D30B02C01A5241CDD2C3098B4201D3E3
:1023A000CB01C01A524183098B4201D38B01C01A61
:1023B000524143098B4201D34B01C01A52410309D8
:1023C0008B4201D30B01C01A5241C3088B4201D387
:1023D000CB00C01A524183088B4201D38B00C01A34
:1023E000524143088B4201D34B00C01A5241411A5B
:1023F000524110007047CA0F00D04942031000D369
:102400004042534000229C4603098B422DD3030ACD
:102410008B4212D38901FC2212BA030A8B420CD3DD
:10242000890192118B4208D3890192118B4204D306
:10243000890137D0921100E08909C3098B4201D389
:10244000CB01C01A524183098B4201D38B01C01AC0
:10245000524143098B4201D34B01C01A5241030937
:102460008B4201D30B01C01A5241C3088B4201D3E6
:10247000CB00C01A524183088B4201D38B00C01A93
:102480005241D9D243088B4201D34B00C01A52416A
:10249000411A00D201465241104663465B1000D3F8
:1024A0004042704763465B1000D3404201B50021B3
:1024B000004201D0C9430846C046C04602BD0000E4
:1024C000000000000000000000000000000000000C
:1024D00000000000000000000000000000000000FC
:1024E00001000000020000000300000004000000E2
:1024F00006000000070000000800000009000000BE
:1025000000000000000000000000000000000000CB
:1025100001000000020000000300000004000000B1
:10252000000102030405060708090A0B0C0D0E0F33
:10253000101112131415161718191A1B1C1D1E1F23
:10254000202122232425262728292A2B2C2D2E2F13
:10255000303132333435363738393A3B3C3D3E3F03
:10256000404142434445464748494A4B4C4D4E4FF3
:10257000505152535455565758595A5B5C5D5E5FE3
:10258000606162636465666768696A6B6C6D6E6FD3
:10259000707172737475767778797A7B7C7D7E7FC3
:1025A000808182838485868788898A8B8C8D8E8FB3
:1025B000909192939495969798999A9B9C9D9E9FA3
:1025C000A0A1A2A3A4A5A6A7A8A9AAABACADAEAF93
:1025D000B0B1B2B3B4B5B6B7B8B9BABBBCBDBEBF83
:1025E000C0C1C2C3C4C5C6C7C8C9CACBCCCDCECF73
:1025F000D0D1D2D3D4D5D6D7D8D9DADBDCDDDEDF63
:10260000E0E1E2E3E4E5E6E7E8E9EAEBECEDEEEF52
:10261000F0F1F2F3F4F5F6F7F8F9FAFBFCFDFEFF42
:10262000000102030405060708090A0B0C0D0E0F32
:10263000101112131415161718191A1B1C1D1E1F22
:10264000202122232425262728292A2B2C2D2E2F12
:10265000303132333435363738393A3B3C3D3E3F02
:10266000404142434445464748494A4B4C4D4E4FF2
:10267000505152535455565758595A5B5C5D5E5FE2
:10268000606162636465666768696A6B6C6D6E6FD2
:10269000707172737475767778797A7B7C7D7E7FC2
:1026A000808182838485868788898A8B8C8D8E8FB2
:1026B000909192939495969798999A9B9C9D9E9FA2
:1026C000A0A1A2A3A4A5A6A7A8A9AAABACADAEAF92
:1026D000B0B1B2B3B4B5B6B7B8B9BABBBCBDBEBF82
:1026E000C0C1C2C3C4C5C6C7C8C9CACBCCCDCECF72
:1026F000D0D1D2D3D4D5D6D7D8D9DADBDCDDDEDF62
:10270000E0E1E2E3E4E5E6E7E8E9EAEBECEDEEEF51
:10271000F0F1F2F3F4F5F6F7F8F9FAFBFCFDFEFF41
:10272000000102030405060708090A0B0C0D0E0F31
:10273000101112131415161718191A1B1C1D1E1F21
:10274000202122232425262728292A2B2C2D2E2F11
:10275000303132333435363738393A3B3C3D3E3F01
:10276000404142434445464748494A4B4C4D4E4FF1
:10277000505152535455565758595A5B5C5D5E5FE1
:10278000606162636465666768696A6B6C6D6E6FD1
:10279000707172737475767778797A7B7C7D7E7FC1
:1027A000808182838485868788898A8B8C8D8E8FB1
:1027B000909192939495969798999A9B9C9D9E9FA1
:1027C000A0A1A2A3A4A5A6A7A8A9AAABACADAEAF91
:1027D000B0B1B2B3B4B5B6B7B8B9BABBBCBDBEBF81
:1027E000C0C1C2C3C4C5C6C7C8C9CACBCCCDCECF71
:1027F000D0D1D2D3D4D5D6D7D8D9DADBDCDDDEDF61
:10280000E0E1E2E3E4E5E6E7E8E9EAEBECEDEEEF50
:10281000F0F1F2F3F4F5F6F7F8F9FAFBFCFDFEFF40
:10282000000102030405060708090A0B0C0D0E0F30
:10283000101112131415161718191A1B1C1D1E1F20
:10284000202122232425262728292A2B2C2D2E2F10
:10285000303132333435363738393A3B3C3D3E3F00
:10286000404142434445464748494A4B4C4D4E4FF0
:10287000505152535455565758595A5B5C5D5E5FE0
:10288000606162636465666768696A6B6C6D6E6FD0
:10289000707172737475767778797A7B7C7D7E7FC0
:1028A000808182838485868788898A8B8C8D8E8FB0
:1028B000909192939495969798999A9B9C9D9E9FA0
:1028C000A0A1A2A3A4A5A6A7A8A9AAABACADAEAF90
:1028D000B0B1B2B3B4B5B6B7B8B9BABBBCBDBEBF80
:1028E000C0C1C2C3C4C5C6C7C8C9CACBCCCDCECF70
:1028F000D0D1D2D3D4D5D6D7D8D9DADBDCDDDEDF60
:10290000E0E1E2E3E4E5E6E7E8E9EAEBECEDEEEF4F
:10291000F0F1F2F3F4F5F6F7F8F9FAFBFCFDFEFF3F
:10292000000102030405060708090A0B0C0D0E0F2F
:10293000101112131415161718191A1B1C1D1E1F1F
:10294000202122232425262728292A2B2C2D2E2F0F
:10295000303132333435363738393A3B3C3D3E3FFF
:10296000404142434445464748494A4B4C4D4E4FEF
:10297000505152535455565758595A5B5C5D5E5FDF
:10298000606162636465666768696A6B6C6D6E6FCF
:10299000707172737475767778797A7B7C7D7E7FBF
:1029A000808182838485868788898A8B8C8D8E8FAF
:1029B000909192939495969798999A9B9C9D9E9F9F
:1029C000A0A1A2A3A4A5A6A7A8A9AAABACADAEAF8F
:1029D000B0B1B2B3B4B5B6B7B8B9BABBBCBDBEBF7F
:1029E000C0C1C2C3C4C5C6C7C8C9CACBCCCDCECF6F
:1029F000D0D1D2D3D4D5D6D7D8D9DADBDCDDDEDF5F
:102A0000E0E1E2E3E4E5E6E7E8E9EAEBECEDEEEF4E
:102A1000F0F1F2F3F4F5F6F7F8F9FAFBFCFDFEFF3E
:102A2000000102030405060708090A0B0C0D0E0F2E
:102A3000101112131415161718191A1B1C1D1E1F1E
:102A4000202122232425262728292A2B2C2D2E2F0E
:102A5000303132333435363738393A3B3C3D3E3FFE
:102A6000404142434445464748494A4B4C4D4E4FEE
:102A7000505152535455565758595A5B5C5D5E5FDE
:102A8000606162636465666768696A6B6C6D6E6FCE
:102A9000707172737475767778797A7B7C7D7E7FBE
:102AA000808182838485868788898A8B8C8D8E8FAE
:102AB000909192939495969798999A9B9C9D9E9F9E
:102AC000A0A1A2A3A4A5A6A7A8A9AAABACADAEAF8E
:102AD000B0B1B2B3B4B5B6B7B8B9BABBBCBDBEBF7E
:102AE000C0C1C2C3C4C5C6C7C8C9CACBCCCDCECF6E
:102AF000D0D1D2D3D4D5D6D7D8D9DADBDCDDDEDF5E
:102B0000E0E1E2E3E4E5E6E7E8E9EAEBECEDEEEF4D
:102B1000F0F1F2F3F4F5F6F7F8F9FAFBFCFDFEFF3D
:102B2000000102030405060708090A0B0C0D0E0F2D
:102B3000101112131415161718191A1B1C1D1E1F1D
:102B4000202122232425262728292A2B2C2D2E2F0D
:102B5000303132333435363738393A3B3C3D3E3FFD
:102B6000404142434445464748494A4B4C4D4E4FED
:102B7000505152535455565758595A5B5C5D5E5FDD
:102B8000606162636465666768696A6B6C6D6E6FCD
:102B9000707172737475767778797A7B7C7D7E7FBD
:102BA000808182838485868788898A8B8C8D8E8FAD
:102BB000909192939495969798999A9B9C9D9E9F9D
:102BC000A0A1A2A3A4A5A6A7A8A9AAABACADAEAF8D
:102BD000B0B1B2B3B4B5B6B7B8B9BABBBCBDBEBF7D
:102BE000C0C1C2C3C4C5C6C7C8C9CACBCCCDCECF6D
:102BF000D0D1D2D3D4D5D6D7D8D9DADBDCDDDEDF5D
:102C0000E0E1E2E3E4E5E6E7E8E9EAEBECEDEEEF4C
:102C1000F0F1F2F3F4F5F6F7F8F9FAFBFCFDFEFF3C
:102C2000000102030405060708090A0B0C0D0E0F2C
:102C3000101112131415161718191A1B1C1D1E1F1C
:102C4000202122232425262728292A2B2C2D2E2F0C
:102C5000303132333435363738393A3B3C3D3E3FFC
:102C6000404142434445464748494A4B4C4D4E4FEC
:102C7000505152535455565758595A5B5C5D5E5FDC
:102C8000606162636465666768696A6B6C6D6E6FCC
:102C9000707172737475767778797A7B7C7D7E7FBC
:102CA000808182838485868788898A8B8C8D8E8FAC
:102CB000909192939495969798999A9B9C9D9E9F9C
:102CC000A0A1A2A3A4A5A6A7A8A9AAABACADAEAF8C
:102CD000B0B1B2B3B4B5B6B7B8B9BABBBCBDBEBF7C
:102CE000C0C1C2C3C4C5C6C7C8C9CACBCCCDCECF6C
:102CF000D0D1D2D3D4D5D6D7D8D9DADBDCDDDEDF5C
:102D0000E0E1E2E3E4E5E6E7E8E9EAEBECEDEEEF4B
:102D1000F0F1F2F3F4F5F6F7F8F9FAFBFCFDFEFF3B
:102D2000402D0008000000200800000004010008F9
:102D3000482D000808000020380F0000200100087E
:082D4000006CDC020000000041
:04000005080000C12E
:00000001FF
