:020000040800F2
:10000000080A00209D010008D9100008C90800084E
:1000100000000000000000000000000000000000E0
:10002000000000000000000000000000DD100008DB
:100030000000000000000000DB100008DF100008D6
:10004000AF01000800000000AF010008AF01000888
:10005000AF010008AF010008AF010008AF010008C0
:1000600000000000AF010008AF010008AF01000868
:10007000AF010008F9100008AF01000800000000FF
:10008000AF0100080000000000000000AF01000800
:1000900000000000AF010008AF010008AF01000838
:1000A00000000000AF010008000000002911000856
:1000B000AF01000800000000000000000000000088
:1000C00000F002F800F03EF80CA030C80838241800
:1000D0002D18671EA246AB4654465D46AC4201D180
:1000E00000F030F87E460F3EB6460FCC0126334274
:1000F00000D0FB1A3343A246AB461847EC1500006C
:100100000C160000103A02D378C878C1FAD852070A
:1001100001D330C830C101D504680C6070470000BD
:100120000023002400250026103A01D378C1FBD813
:10013000520700D330C100D50B6070471FB51FBDFB
:1001400010B510BD00F049F81146FFF7F7FF01F0B8
:100150003BF800F061F803B4FFF7F2FF03BC00F0D6
:1001600067F8000070B505460C46164602E00FCC55
:100170000FC5103E102EFAD2082E02D303CC03C5B1
:10018000083E042E07D301CC01C5361F03E02178B9
:100190002970641C6D1C761EF9D270BD074880471B
:1001A00007480047FEE7FEE7FEE7FEE7FEE7FEE75B
:1001B00004480549054A064B70470000E91000084D
:1001C000C100000808040020080A002008060020DA
:1001D00008060020704770477047754600F024F805
:1001E000AE46050069465346C008C000854618B0B3
:1001F00020B5FFF7DDFF60BCB64600260027C0C56E
:10020000C0C5C0C5C0C5C0C5C0C5C0C5C0C5403DCE
:10021000490849008D46704710B50446C046C0469F
:100220002046FFF798FF10BD0048704710010020DE
:1002300001491820ABBEFEE726000200704772B6E7
:10024000FEE70000F0B587B0002506955422825CD9
:10025000012A03D10224204607B0F0BD06465436D9
:1002600001243470026893685B0717D407694B68F0
:10027000022B1BD104200743A14887426CD19F4821
:10028000C0430B68D9430143906A08409062002440
:10029000002B65D43570204607B0F0BD816D20225B
:1002A0000A4382653570204607B0F0BD05930423EC
:1002B0001F43934CA7425ED10C6820468F4B1840D9
:1002C000936A034393622002536983438968014020
:1002D0008C4808401843506123460024002BD9D590
:1002E0008948006803218A0501461140874F04931D
:1002F000BB4200D093E0814B5F1C03463B4000D0E3
:100300008DE0814B1868904301433943196081485F
:100310000068814901F0BCF80C214143481C06905B
:1003200006980028B6D00698401E06900698002829
:10033000B0D00698401E069006980028AAD00698CD
:10034000401E069006980028A4D00698401E0690ED
:1003500006980028E7D19DE70B680024002B99D56B
:10036000694801686A4A93426DD0684A934291D1C4
:100370000122920569E01F27059C27400F24009465
:100380000397BC40076E0194A74302970C685B4F2C
:100390003C4265D00494049CE407049C2F466AD137
:1003A0002746A4075FD47C0760D43C0761D4FC06D1
:1003B0003C461F465FD4A30673D4630673D423065A
:1003C00073D4E30573D4A30573D4049B5B0573D482
:1003D000049B1B0573D4049BDB0473D4049B9B0414
:1003E00073D4049B5B0473D4049C2304009F42D405
:1003F000E30370D4049B9B0370D4049B5B0370D411
:10040000049B1B0370D4049BDB0270D4049B9B02EF
:1004100070D4049C6302DB1716271F402BE03C4B73
:10042000049F9F4200D035E701239F05384000D04C
:1004300030E7CB4B1868904301433943196035705E
:10044000204607B0F0BD2D4A521C114003229205F0
:1004500003689343591801603570204607B0F0BD1A
:100460006300DF0E07E03C46012704E03C4602271C
:1004700001E03C460327039B9F40029B1F43076606
:10048000059B9B08C069984200D81CE70198C043AF
:10049000936A0340A000000F039FB8401843906286
:1004A00011E70527E7E70627E5E70727E3E708273A
:1004B000E1E70927049CDEE70A27049CDBE70B271A
:1004C000049CD8E70C27049CD5E70D27049CD2E7B1
:1004D0000E27049CCFE71027049CCCE71127049C2F
:1004E000C9E71227049CC6E71327049CC3E7142717
:1004F000049CC0E71527049CBDE7C046FFFF7F00B2
:100500000400008000FFFF7F08270140000200A4D4
:10051000000400A808000020400D0300F0B589B0D9
:10052000044600200890002C76D00790A06D00288B
:1005300007D125465435204600F014F900202870D4
:10054000E06501273D072668B068C00026D4B06882
:100550007F4901402943B160AC4800687D4900F003
:1005600097FF400008900898002817D00898401E70
:1005700008900898002811D00898401E0890089804
:1005800000280BD00898401E08900898002805D035
:100590000898401E089008980028E7D1B0682842C3
:1005A00008D1A06D10210143A165E06D01210791E3
:1005B0000843E065B06804210140A26D10200240AC
:1005C0005118A16D2BD106900F20C7433A46F33A3C
:1005D0001140891CA165B168C9077DD103900497BA
:1005E00027462037216B4A1E91410D03A168227EC8
:1005F00092030A43617EC9031143A27E500308435C
:10060000E36803432B430120C507216900290590B6
:10061000029509DAA94308E0012009B0F0BD0143C1
:10062000A165384609B0F0BD41050B43387B450054
:100630001D433878012809D1002A11D0A06D20214E
:100640000143A165E06D05990843E065626A002AEF
:100650000CD0072080010240A16A1143294306E023
:10066000059800040543626A002AF2D12946F06821
:10067000394A02400A43F2600320820763681D463C
:100680001540E16C387F01280ED1206C0090676C1A
:10069000A06C019000980743019807432F430F4334
:1006A000059807433D4600E00D43049F30692B4900
:1006B0000140294331610298834203990CD093424F
:1006C0000AD005988007834206D088040340244955
:1006D0000A688243D0180860706907229043656BEE
:1006E00028437061706970218843A16B090101433F
:1006F0007161216901235805814203D000290BD182
:10070000B06A07E0B06AE06980001C301C2101403B
:100710008F40206E3843B06270691040A8420AD101
:100720000020E065A06D0121014302208143A16505
:10073000079809B0F0BDA06D0699084302218843CF
:10074000A065E06D1843E065184609B0F0BDC046ED
:10075000E8FFFF6F400D03000102DEFF02FCFF1FF8
:100760000827014081B000680A49884201D001B0E1
:1007700070470320800708494A6982434A61012083
:1007800000050A6802430A60096801400091009868
:1007900001B0704700240140401002401A48007820
:1007A00002490A68101808607047C0460404002017
:1007B00080B5032000F008F8002801D0012080BD9A
:1007C00000F026F8002080BD70B50F4E317801246E
:1007D000002916D005467D20C00000F059FE0146D4
:1007E0000A48006800F054FE00F054F8032D08D8C1
:1007F000002806D10024E0432946224600F026F8CE
:100800007560204670BDC046000000200800002032
:1008100080B582B00C4841680122114341604168B3
:10082000114001910199110702680A4302600068B2
:10083000084000900098082000F024F8102000F0F4
:1008400021F802B080BDC0463C100240002805D40B
:100850000322034693430A4A9A1803E00C220240FB
:10086000064BD2188007C00E8901C9B28140FF2310
:1008700083401068984308431060704714ED00E00F
:1008800000E400E002490A6802430A607047C0467B
:1008900000000140401E010E01D0012070470749B1
:1008A000074A5060074803680B400321890759181D
:1008B000016000209060072111607047FFFFFF007A
:1008C00010E000E020ED00E0FEE70000F0B584B0AD
:1008D0000E460A6811BA0B09744C234021400901E5
:1008E00059188B08724C23402140890059184B0835
:1008F000704C2340214049005B182027002A3946CC
:1009000005D1002B0CD11146F9400ED1C0E0514267
:100910001140694C6143C90E68A4615C002BF2D0A0
:100920000F461146F94000D1B2E0039002960EE066
:100930009300716999400F229A40036A93430B43D5
:1009400003627F1C32681146F94000D1A0E0012506
:10095000BD401540F5D029BA0A09544B1A40194038
:10096000090151188A08524B1A4019408900511840
:100970004A08504B1A4019404900511803687668DC
:1009800009D0002D09D06A422A404B484243D20E7A
:100990004AA0825C02E0402404E0202254000322AA
:1009A000A24093433246A2401A4303980260721E4B
:1009B000012A1BD884680298836800290AD0002D78
:1009C000009109D06A422A403B484243D20E3BA0E4
:1009D000825C02E0402205E0202252000321914087
:1009E0008C4300999340234303988360C368002994
:1009F0000AD0002D01960BD0684228402E4948436A
:100A0000C00E2EA10A5C04E0022E029E99D110E0D5
:100A10002022029E30695100884003248C40A34369
:100A200003430398C360019902298AD1290600D0A3
:100A30007EE703462C0A20BA0109284A11401040DB
:100A4000000108188108264A11401040800008184B
:100A50004108184A114010404000081872695B6A4A
:100A600009D0002C0AD06042204013494843C00EF0
:100A700012A1095C03E08021039805E0202103987E
:100A800089000F248C40A3438A401A43426258E7EE
:100A90007168491E012905D8F368534341689143A1
:100AA00019434160002004B0F0BDC0460F0F0F0F86
:100AB000333333335555555531B57C0700011C028E
:100AC0001D0E18031E16140F191104081F1B0D17F5
:100AD000151310071A0C12060B050A09000F0F0F49
:100AE0000033333310B512490A6838231340082BFA
:100AF00001D13D4A06E00A46083A12689204530FB3
:100B0000384ADA4002600B689B093C241C40384B91
:100B10001B591F242340DA4042600968890A1C23BC
:100B20000B403249C9582140CA40826010BDC046BE
:100B30000810024010B501460020032949D125497B
:100B40004A6D03231A401B04D218234B9A420CD03F
:100B5000224B9A420FD02248824217D1886838220D
:100B60000240082A19D1204810BD0120C203C86DD7
:100B70008003104010BD0A6852052AD50868000697
:100B8000400F411C174800F083FC10BD88683822D4
:100B90000240082A07D114480AE008688004410F7F
:100BA0001048C84010BD08688004420F0D48D0406E
:100BB0008A688968890A1C230B400C49C9581F237D
:100BC000194092093C241440094A12591A40D04055
:100BD000C84010BD001002400300030002000300E3
:100BE00001000300006CDC0200127A00C816000845
:100BF00088160008014908607047C04608000020B8
:100C000010B50468D24A904202D01C4B98420FD1D2
:100C100070239C434B682343194CA0420CDD904247
:100C200010D0184CA0420DD0174CA0420AD023E09F
:100C30002346134CA042F2DC104CA04202D0134CCD
:100C4000A04219D103242402A343CC681C430460AE
:100C50008B68C3620B888362904205D0094A904238
:100C600002D0094A904201D1096901634169012218
:100C70000A434261002010BD1C46E8E70004004022
:100C8000FF2B01400048014000440140002000408B
:100C9000F0B583B004460068C00726D10D46206831
:100CA0002D490140A8680843296901436869084340
:100CB000E969014321600320010362688A43E9680E
:100CC000114361600002A1688143A8690843A060E4
:100CD0000126224884420CD02148844233D103208B
:100CE000FFF728FF00280AD12DE00126304603B087
:100CF000F0BD6846FFF7F6FE0298002823D06F6823
:100D0000002F20D0296800260B291CD8890015A2A5
:100D1000515800F0BDFB0121C903EA698A420BD199
:100D2000790840004018394600F0B2FB19490140EB
:100D30000007400F401805E079084018394600F0D8
:100D4000A7FB80B2E060E06A0F2188432988014355
:100D5000E162304603B0F0BDF369FFEF00440040AC
:100D60000038014001000000020000000400000003
:100D700006000000080000000A0000000C0000004F
:100D80001000000020000000400000008000000073
:100D900000010000F0FF0000B0B584B02C2119481C
:100DA00000244454C464446284620121C161847695
:100DB00004830422144B051D2C77890703604160CE
:100DC0008460C4600461426103940294019401460A
:100DD00030310C73046344638463FFF79FFB002886
:100DE00001D0FFF72CFA03940294084801900548BB
:100DF00001A9FFF727FA002801D0FFF720FA04B075
:100E0000B0BDC0469401002000240140000400A8A9
:100E1000F0B589B000260796069605960496A9486F
:100E2000016820221143016001681140089108996E
:100E30000168012739430160016839400891089928
:100E4000016802242143016000682040089008984E
:100E500019484021009181628021019181620696AA
:100E6000039604200290154802AD2946FFF72EFD97
:100E7000049603943802029005960696079605207C
:100E800000072946FFF722FD0696059603200490E9
:100E9000039700980290084C20462946FFF716FD5C
:100EA00006960596049603970198029020462946D7
:100EB000FFF70CFD09B0F0BD000400500014005015
:100EC000B0B586B0002000900125E9021D4A1368E4
:100ED0000B43136012680A4005920599FF2109022D
:100EE000194A13688B4313606903794A1160694694
:100EF000164A0A8004900390092202920190144C31
:100F00002046FFF77DFE8020C0432168014021601C
:100F1000A168104A0A40A260616870229143616032
:100F20000F21090562688A436260A1680140A160DF
:100F3000E8432061E0682843E0602068284320609F
:100F400006B0B0BD401002400CE400E0BF1200004B
:100F5000002C0140F8BFFEFFF0B591B00320C14363
:100F6000034602905748026A0A4002620126B10312
:100F7000C2680A43C260C2680A40099209990168BE
:100F800031430160006830400990089600270797B8
:100F90000697059302240494700203900998052093
:100FA0000007019003AD2946FFF790FC08960797CC
:100FB00006970298059002940494B0020390019859
:100FC0002946FFF783FCB5053F48016829430160C6
:100FD000F10502680A430260FF2000063B490A68E7
:100FE00082430A60F0063A49086010970F970C2078
:100FF0000E900D970C970B97E12040020A900997ED
:10100000344C2746083F09A93846FFF741FEEFF365
:10101000108086F3108807214A07236893432360D2
:1010200080F31088EFF3108086F310884906226859
:101030008A43226080F310887007396881433960E1
:101040000920C002211F0A6882430A6020682A2101
:101050008843206038683043386070056169014218
:1010600002D06169294211D16169014202D06169EE
:1010700029420BD16169014202D06169294205D13F
:1010800061690142EAD061692942E7D00820A06184
:101090000420A061A6610298A061EFF3108086F39E
:1010A0001088396820220A433A6080F31088EFF3F1
:1010B000108086F3108821683143216080F3108806
:1010C00011B0F0BD341002400000014018E400E00F
:1010D00000E100E008380140FEE77047704780B546
:1010E000FFF75CFB80BD00000120C00601490860DD
:1010F0007047C04608ED00E080B505480168C907A3
:1011000002D00121C943016000F004F880BDC0464F
:10111000102C01400348012101704168491C4160C5
:101120007047C04680010020B0B582B0D148016848
:10113000890604D501461C390968890613D401685B
:101140000191019949070BD40199C9072AD1019945
:1011500009072AD4019989072CD50221042226E007
:101160000421012223E0C74900240C608168124D4C
:101170006A68501C686011488154C9B2FF2919D1AE
:1011800069680818801E0078FE2813D16A680C4828
:101190000A49FEF7E7FF6868A8606C6001202870C4
:1011A00002B0B0BD0121022201E008210322054B5B
:1011B0001A60416002B0B0BD88010020F801002033
:1011C000FC0200200004002084B0FFF7F1FAA548DB
:1011D0000168012319430622914301601A02A24CBF
:1011E00020460838016801921143016002939D0274
:1011F0000168294208D10168294205D101682942C4
:1012000002D101682942F3D07F210902221F13680D
:101210008B4302998903591811600721CA02036898
:10122000934303600F200002226882432260C84378
:1012300022680240226020688006400F0BD02068A0
:101240008006400F07D020688006400F03D020683A
:101250008006400FEFD10803216881432160834855
:10126000FFF7C8FC0320FFF7AFFA002801D072B6E1
:10127000FEE720687E4908404018401C2060206836
:1012800008402121090640182060FFF7C1FDFFF743
:1012900063FEFFF715FEFFF77FFD76487321C160FF
:1012A0000168090608D40168090605D40168090621
:1012B00002D401680906F3D57421C16002681206E0
:1012C00008D40268120605D40268120602D4026825
:1012D0001206F3D56122C2600268120608D40268C1
:1012E000120605D40268120602D402681206F3D56B
:1012F0007222C2600268120608D40268120605D47F
:101300000268120602D402681206F3D5C1600168B1
:10131000090608D40168090605D40168090602D443
:1013200001680906F3D52E21C1600268120608D4AF
:101330000268120605D40268120602D40268120678
:10134000F3D5C1600268120608D40268120605D4FB
:101350000268120602D402681206F3D50395C16032
:101360000168090608D40168090605D40168090660
:1013700002D401680906F3D5404F414B414A3C78FD
:10138000012C0DD100243C701C68641C1C605C683E
:10139000641C5C609C68641C9C60DC68641CDC6091
:1013A0001468082C03D30024146037490C601C68AF
:1013B0001E2C42D300241C6001994C1C334D01E0CB
:1013C0002D1D241F2E78C6600668360608D40668D0
:1013D000360605D40668360602D406683606F3D506
:1013E000012C2AD06E78C6600668360608D40668D6
:1013F000360605D40668360602D406683606F3D5E6
:10140000AE78C6600668360608D40668360605D487
:101410000668360602D406683606F3D5EE78C6604E
:1014200006683606CCD406683606C9D40668360681
:10143000C6D406683606F3D5C2E7039C193C5D683E
:10144000A5429CD900245C600B490C684025029998
:101450008E0521042C40314009196940064C616019
:101460008DE7C0460020024008100240006CDC02FC
:10147000FFFFFF001C3801401404005080010020D1
:1014800070010020840100208C0100200C0000204D
:1014900043088B421AD3002203098B4279D3030AF3
:1014A0008B425ED3030B8B4242D3030C8B4227D378
:1014B0000902FF2212BA030C8B4202D31212090254
:1014C00003D0030B8B4233D31AE0D3E0411A80419F
:1014D000401C704703460B4371D443088B42F5D33D
:1014E000002203098B4254D3030A8B4239D3030BE6
:1014F0008B421DD3030C8B4202D394466EE0090A43
:10150000C30B8B4201D3CB03C01A5241830B8B42D6
:1015100001D38B03C01A5241430B8B4201D34B03BF
:10152000C01A5241030B8B4201D30B03C01A524124
:10153000C30A8B4201D3CB02C01A5241830A8B42A9
:1015400001D38B02C01A5241430A8B4201D34B0292
:10155000C01A5241030A8B4201D30B02C01A5241F6
:10156000CDD2C3098B4201D3CB01C01A52418309AA
:101570008B4201D38B01C01A524143098B4201D3E4
:101580004B01C01A524103098B4201D30B01C01A0F
:101590005241C3088B4201D3CB00C01A5241830889
:1015A0008B4201D38B00C01A524143088B4201D3B6
:1015B0004B00C01A5241411A524110007047CA0FE5
:1015C00000D04942031000D34042534000229C46C1
:1015D00003098B422DD3030A8B4212D38901FC22CB
:1015E00012BA030A8B420CD3890192118B4208D3A1
:1015F000890192118B4204D3890137D0921100E006
:101600008909C3098B4201D3CB01C01A5241830916
:101610008B4201D38B01C01A524143098B4201D343
:101620004B01C01A524103098B4201D30B01C01A6E
:101630005241C3088B4201D3CB00C01A52418308E8
:101640008B4201D38B00C01A5241D9D243088B423E
:1016500001D34B00C01A5241411A00D201465241F7
:10166000104663465B1000D34042704763465B10F0
:1016700000D3404201B50021004201D0C9430846D1
:10168000C046C04602BD000000000000000000008F
:10169000000000000000000000000000000000004A
:1016A0000000000000000000010000000200000037
:1016B0000300000004000000060000000700000016
:1016C0000800000009000000000000000000000009
:1016D0000000000000000000010000000200000007
:1016E00003000000040000000817000800000020AC
:1016F0001001000004010008181800081001002063
:10170000F8080000200100080100000004000000AB
:10171000006CDC0200000102030405060708090A48
:101720000B0C0D0E0F101112131415161718191A91
:101730001B1C1D1E1F202122232425262728292A81
:101740002B2C2D2E2F303132333435363738393A71
:101750003B3C3D3E3F404142434445464748494A61
:101760004B4C4D4E4F505152535455565758595A51
:101770005B5C5D5E5F606162636465666768696A41
:101780006B6C6D6E6F707172737475767778797A31
:101790007B7C7D7E7F808182838485868788898A21
:1017A0008B8C8D8E8F909192939495969798999A11
:1017B0009B9C9D9E9FA0A1A2A3A4A5A6A7A8A9AA01
:1017C000ABACADAEAFB0B1B2B3B4B5B6B7B8B9BAF1
:1017D000BBBCBDBEBFC0C1C2C3C4C5C6C7C8C9CAE1
:1017E000CBCCCDCECFD0D1D2D3D4D5D6D7D8D9DAD1
:1017F000DBDCDDDEDFE0E1E2E3E4E5E6E7E8E9EAC1
:10180000EBECEDEEEFF0F1F2F3F4F5F6F7F8F9FAB0
:08181000FBFCFDFEFF000000DF
:04000005080000C12E
:00000001FF
