:020000040800F2
:10000000A80600209D0100085D090008C302000841
:1000100000000000000000000000000000000000E0
:10002000000000000000000000000000610900085E
:1000300000000000000000005F09000863090008DC
:10004000AF01000800000000AF010008AF01000888
:10005000AF010008AF010008AF010008AF010008C0
:1000600000000000AF010008AF010008AF01000868
:10007000AF01000875090008AF010008000000008A
:10008000AF0100080000000000000000AF01000800
:1000900000000000AF010008AF010008AF01000838
:1000A00000000000AF010008000000009D090008EA
:1000B000AF01000800000000000000000000000088
:1000C00000F002F800F03EF80CA030C80838241800
:1000D0002D18671EA246AB4654465D46AC4201D180
:1000E00000F030F87E460F3EB6460FCC0126334274
:1000F00000D0FB1A3343A246AB461847580E000007
:10010000780E0000103A02D378C878C1FAD85207A6
:1001100001D330C830C101D504680C6070470000BD
:100120000023002400250026103A01D378C1FBD813
:10013000520700D330C100D50B6070471FB51FBDFB
:1001400010B510BD00F08AF81146FFF7F7FF00F078
:100150009FFC00F0A2F803B4FFF7F2FF03BC00F02D
:10016000A9F8000070B505460C46164602E00FCC13
:100170000FC5103E102EFAD2082E02D303CC03C5B1
:10018000083E042E07D301CC01C5361F03E02178B9
:100190002970641C6D1C761EF9D270BD074880471B
:1001A00007480047FEE7FEE7FEE7FEE7FEE7FEE75B
:1001B00004480549054A064B7047000065090008D8
:1001C000C1000008A8000020A8060020A802002006
:1001D000A8020020F8B5042A2CD3830712D00B788C
:1001E000491C0370401C521E83070BD00B78491C1E
:1001F0000370401C521E830704D00B78491C037007
:10020000401C521E8B079B0F05D0C91ADF0020230C
:10021000DE1B08C90AE0FFF7A5FFF8BD1D4608C9A7
:10022000FD401C46B4402C4310C0121F042AF5D2D6
:10023000F308C91A521EF0D40B78491C0370401CF5
:10024000521EEAD40B78491C0370401C012AE4D4E6
:1002500009780170F8BD704770477047754600F027
:1002600025F8AE46050069465346C008C0008546DD
:1002700018B020B5FFF79CFF60BCB64600260027EB
:10028000C0C5C0C5C0C5C0C5C0C5C0C5C0C5C0C546
:10029000403D490849008D46704710B50446C046A8
:1002A000C0462046FFF757FF10BD000000487047CA
:1002B0000800002001491820ABBEFEE7260002001E
:1002C0007047FEE7F0B584B00E460A6811BA0B0914
:1002D000744C23402140090159188B08724C23406B
:1002E0002140890059184B08704C23402140490097
:1002F0005B182027002A394605D1002B0CD1114666
:10030000F9400ED1C0E051421140694C6143C90E21
:1003100068A4615C002BF2D00F461146F94000D171
:10032000B2E0039002960EE09300716999400F22AB
:100330009A40036A93430B4303627F1C3268114661
:10034000F94000D1A0E00125BD401540F5D029BA03
:100350000A09544B1A401940090151188A08524B96
:100360001A401940890051184A08504B1A40194048
:10037000490051180368766809D0002D09D06A42F7
:100380002A404B484243D20E4AA0825C02E04024FD
:1003900004E0202254000322A24093433246A240AC
:1003A0001A4303980260721E012A1BD884680298BF
:1003B000836800290AD0002D009109D06A422A40A2
:1003C0003B484243D20E3BA0825C02E0402205E063
:1003D00020225200032191408C43009993402343F3
:1003E00003988360C36800290AD0002D01960BD0C2
:1003F000684228402E494843C00E2EA10A5C04E002
:10040000022E029E99D110E02022029E30695100F6
:10041000884003248C40A34303430398C36001999D
:1004200002298AD1290600D07EE703462C0A20BA89
:100430000109284A11401040000108188108264A85
:1004400011401040800008184108184A114010401F
:100450004000081872695B6A09D0002C0AD060421B
:10046000204013494843C00E12A1095C03E08021DB
:10047000039805E02021039889000F248C40A343B2
:100480008A401A43426258E77168491E012905D81B
:10049000F36853434168914319434160002004B01D
:1004A000F0BDC0460F0F0F0F33333333555555553D
:1004B00031B57C0700011C021D0E18031E16140F17
:1004C000191104081F1B0D17151310071A0C12061B
:1004D0000B050A09000F0F0F0033333380B57D2160
:1004E000C90000F00BFC401E98494860002088605D
:1004F0000520086080BDC04610B5114A1168382338
:100500000B403A49082B05D01346083B1B689B0457
:100510005B0FD940016013689B093C241C40354B9C
:100520001B591F242340D94041601268920A1C23A2
:1005300013402F4AD2582240D140816010BDC0469E
:100540000810024010B501460020032945D1234977
:100550004A6D03231A401B04D218214B9A4210D033
:10056000204B9A4213D0204882421BD188683822FF
:1005700002401E48082A30D009688904490FC84043
:1005800010BD0120C203C86D8003104010BD0A6871
:10059000520522D508680006400F411C134800F0A0
:1005A000ADFB10BD8868382202401048082A03D0ED
:1005B0000A689204520FD0408A688968890A1C230D
:1005C0000B400B49C9581F23194092093C24144081
:1005D000084A12591A40D040C84010BD00100240CD
:1005E000030003000200030001000300006CDC02B2
:1005F000340F0008F40E0008014908607047C04637
:1006000000000020F0B583B004460068C00726D182
:100610000D4620682D490140A86808432969014317
:1006200068690843E96901432160032001036268A6
:100630008A43E968114361600002A1688143A869A7
:100640000843A0600126224884420CD021488442FD
:1006500033D10320FFF776FF00280AD12DE00126D1
:10066000304603B0F0BD6846FFF746FF0298002809
:1006700023D06F68002F20D0296800260B291CD8B2
:10068000890015A2515800F039FB0121C903EA691C
:100690008A420BD1790840004018394600F02EFB01
:1006A000194901400007400F401805E0790840183B
:1006B000394600F023FB80B2E060E06A0F218843F6
:1006C00029880143E162304603B0F0BDF369FFEFD2
:1006D000004400400038014001000000020000001A
:1006E0000400000006000000080000000A000000EE
:1006F0000C0000001000000020000000400000007E
:100700008000000000010000F0FF000081B00F49F0
:100710000A680092401C01D30020C043009A0A6876
:10072000D203D21710180ED00A68D203D2171018AD
:1007300009D00A68D203D217101804D00A68D2036D
:10074000D2171018EBD101B07047C04610E000E09E
:10075000F0B587B00026059604960396029679496F
:100760000A68042002430A600A6802400692069A58
:100770000A6820231A430A600A681A400692069AF9
:100780000A6801273A430A600A683A400692069AC4
:100790000A6802231A430A600968194006910699FB
:1007A0000B4940248C6204960196009009486D46DE
:1007B0002946FFF787FD04960396032002900197D0
:1007C000009403482946FFF77DFD07B0F0BDC04601
:1007D0000004005000140050F0B591B00320C14354
:1007E000034602905748026A0A4002620126B1039A
:1007F000C2680A43C260C2680A4009920999016846
:10080000314301600068304009900896002707973F
:10081000069705930224049470020390099805201A
:100820000007019003AD2946FFF74CFD0896079796
:1008300006970298059002940494B00203900198E0
:100840002946FFF73FFDB5053F4801682943016090
:10085000F10502680A430260FF2000063B490A686E
:1008600082430A60F0063A49086010970F970C20FF
:100870000E900D970C970B9736480A900997364CB7
:100880002746083F09A93846FFF7BCFEEFF3108062
:1008900086F3108807214A0723689343236080F377
:1008A0001088EFF3108086F31088490622688A4387
:1008B000226080F31088700739688143396009200D
:1008C000C002211F0A6882430A6020682A218843E7
:1008D000206038683043386070056169014202D099
:1008E0006169294211D16169014202D061692942DD
:1008F0000BD16169014202D06169294205D1616968
:100900000142EAD061692942E7D00820A0610420B1
:10091000A061A6610298A061EFF3108086F31088B1
:10092000396820220A433A6080F31088EFF3108080
:1009300086F3108821683143216080F3108811B05C
:10094000F0BDC046341002400000014018E400E051
:1009500000E100E040420F0008380140FEE7704728
:10096000704770470120C006014908607047C046C3
:1009700008ED00E080B505480168C90702D00121F3
:10098000C943016000F004F880BDC046102C01404E
:100990000148012101707047A0000020F0B581B02E
:1009A000D1480168890604D501461C3909688906C1
:1009B00015D401680091009949070CD40099C90722
:1009C00017D10099090724D4009989070FD502216E
:1009D000416001B0F0BD0421416001B0F0BD80680C
:1009E0002A4C6278C1B2002A07D1552905D001B03E
:1009F000F0BD0121416001B0F0BD012513466B40FF
:100A00000E46553E774277411F40012F05D1657054
:100A100016E00821416001B0F0BDA3789A43012A95
:100A200006D1AA2904D000206060607001B0F0BD3A
:100A30000E46AA3E774277413A40012A07D1A57077
:100A400061684A1C62606118087301B0F0BD002B38
:100A5000CDD06268531C6360A21810730A29C6D1F6
:100A600060680019807A0D28C1D162682046223062
:100A700021460C31FFF7AEFB6068A06025700020B6
:100A8000A0706070606001B0F0BDC04668000020DA
:100A900084B09048816B012421438163816B2140A4
:100AA000029102992107426B0A434263426B0A405A
:100AB00003920399FF210906874A13688B43032198
:100AC00089075918116085490A68082313430B6088
:100AD0000A68102313430B6081490A6822430623E6
:100AE0009A430A602202014608390B6813430B60DF
:100AF0000094A2020B68134208D10B68134205D17F
:100B00000B68134202D10B681342F3D07F2212020A
:100B1000031F1C689443009A9203A2181A600722CC
:100B2000D3020C689C430C600F21090203688B43BD
:100B30000360D14303680B40036001688906490FD5
:100B40000BD001688906490F07D001688906490F53
:100B500003D001688906490FEFD1110302688A4367
:100B60000260604C2046FFF7B9FC2046FFF744FDC9
:100B7000FFF7EEFDFFF730FE5B487321C1600168AF
:100B8000090608D40168090605D40168090602D4DB
:100B900001680906F3D57421C1600268120608D401
:100BA0000268120605D40268120602D40268120610
:100BB000F3D56122C2600268120608D402681206E8
:100BC00005D40268120602D402681206F3D5722216
:100BD000C2600268120608D40268120605D40268D0
:100BE000120602D402681206F3D5C1600168090634
:100BF00008D40168090605D40168090602D4016811
:100C00000906F3D53221C1600168090608D40168DC
:100C1000090605D40168090602D401680906F3D55E
:100C20002E21C1600268120608D40268120605D49B
:100C30000268120602D402681206F3D5C160026887
:100C4000120608D40268120605D40268120602D4FD
:100C500002681206F3D5C1600168090608D401686C
:100C6000090605D40168090602D401680906F3D50E
:100C70000D21C1600168090608D40168090605D480
:100C80000168090602D401680906F3D50A21C1608A
:100C90000168090608D40168090605D40168090637
:100CA00002D401680906F3D5104C114E114F124DB4
:100CB00000200190C820FFF729FD206830400099EE
:100CC00049078842F4D16068386080474020286036
:100CD000EEE7C0460810024020ED00E000000140B1
:100CE00000200240006CDC021C380140005000086B
:100CF0000000FE2FA40000201804005043088B427F
:100D00001AD3002203098B4279D3030A8B425ED3A4
:100D1000030B8B4242D3030C8B4227D30902FF22E1
:100D200012BA030C8B4202D31212090203D0030B36
:100D30008B4233D31AE0D3E0411A8041401C704704
:100D400003460B4371D443088B42F5D300220309B9
:100D50008B4254D3030A8B4239D3030B8B421DD3EE
:100D6000030C8B4202D394466EE0090AC30B8B42FC
:100D700001D3CB03C01A5241830B8B4201D38B03A7
:100D8000C01A5241430B8B4201D34B03C01A52414C
:100D9000030B8B4201D30B03C01A5241C30A8B428F
:100DA00001D3CB02C01A5241830A8B4201D38B027A
:100DB000C01A5241430A8B4201D34B02C01A52411E
:100DC000030A8B4201D30B02C01A5241CDD2C30990
:100DD0008B4201D3CB01C01A524183098B4201D30C
:100DE0008B01C01A524143098B4201D34B01C01AF7
:100DF000524103098B4201D30B01C01A5241C3086F
:100E00008B4201D3CB00C01A524183088B4201D3DD
:100E10008B00C01A524143088B4201D34B00C01AC9
:100E20005241411A524110007047CA0F00D0494246
:100E3000031000D34042534000229C4603098B42DA
:100E40002DD3030A8B4212D38901FC2212BA030A62
:100E50008B420CD3890192118B4208D389019211E4
:100E60008B4204D3890137D0921100E08909C3096C
:100E70008B4201D3CB01C01A524183098B4201D36B
:100E80008B01C01A524143098B4201D34B01C01A56
:100E9000524103098B4201D30B01C01A5241C308CE
:100EA0008B4201D3CB00C01A524183088B4201D33D
:100EB0008B00C01A5241D9D243088B4201D34B0058
:100EC000C01A5241411A00D20146524110466346AF
:100ED0005B1000D34042704763465B1000D3404232
:100EE00001B50021004201D0C9430846C046C046B2
:100EF00002BD000000000000000000000000000033
:100F000000000000000000000000000000000000E1
:100F100000000000010000000200000003000000CB
:100F200004000000060000000700000008000000A8
:100F300009000000000000000000000000000000A8
:100F4000000000000100000002000000030000009B
:100F500004000000780F00080000002008000000D6
:100F600004010008800F000808000020A00600000F
:100F70002001000800000000006CDC0200000000FE
:04000005080000C12E
:00000001FF
