:020000040800F2
:10000000A80600205D010008FD070008B9030008EC
:1000100000000000000000000000000000000000E0
:10002000000000000000000000000000B709000808
:100030000000000000000000B5090008B909000830
:100040006F010008000000006F0100086F01000848
:100050006F0100086F0100086F0100089D03000890
:10006000000000006F0100086F0100086F01000828
:100070006F0100086F0100086F0100080000000018
:10008000650A00086F0100086F0100086F01000891
:100090006F0100086F0100086F0100086F01000880
:1000A0006F0100086F0100086F0100086F01000870
:1000B0006F0100086F01000800F002F800F03EF840
:1000C0000CA030C8083824182D18A246671EAB466D
:1000D00054465D46AC4201D100F030F87E460F3EFA
:1000E0000FCCB6460126334200D0FB1AA246AB46DF
:1000F00033431847A00A0000C00A0000103A02D398
:1001000078C878C1FAD8520701D330C830C101D5B8
:1001100004680C60704700000023002400250026BE
:10012000103A01D378C1FBD8520700D330C100D5B3
:100130000B6070471FB51FBD10B510BD00F0FAF879
:100140001146FFF7F7FF00F0CBFC00F012F903B403
:10015000FFF7F2FF03BC00F019F9000007488047E1
:1001600007480047FEE7FEE7FEE7FEE7FEE7FEE79B
:1001700004480549054A064B70470000610A00081B
:10018000B9000008A8000020A8060020A80200204E
:10019000A802002001E004C0091F0429FBD28B073C
:1001A00001D50280801CC90700D002707047002969
:1001B0000BD0C30702D00270401C491E022904D391
:1001C000830702D50280801C891EE3E70022EEE748
:1001D0000022DFE7002203098B422CD3030A8B4263
:1001E00011D300239C464EE003460B433CD400222F
:1001F00043088B4231D303098B421CD3030A8B4241
:1002000001D394463FE0C3098B4201D3CB01C01A0E
:10021000524183098B4201D38B01C01A52414309D9
:100220008B4201D34B01C01A524103098B4201D3C7
:100230000B01C01A5241C3088B4201D3CB00C01A34
:10024000524183088B4201D38B00C01A52414308AC
:100250008B4201D34B00C01A5241411A00D20146D1
:100260005241104670475DE0CA0F00D0494203106A
:1002700000D34042534000229C4603098B422DD3B9
:10028000030A8B4212D3FC22890112BA030A8B4261
:100290000CD3890192118B4208D3890192118B42B0
:1002A00004D389013AD0921100E08909C3098B4235
:1002B00001D3CB01C01A524183098B4201D38B0178
:1002C000C01A524143098B4201D34B01C01A52411B
:1002D00003098B4201D30B01C01A5241C3088B4260
:1002E00001D3CB00C01A524183088B4201D38B004B
:1002F000C01A5241D9D243088B4201D34B00C01AD5
:100300005241411A00D20146634652415B101046E9
:1003100001D34042002B00D54942704763465B1031
:1003200000D3404201B50020C046C04602BD704720
:1003300070477047754600F025F8AE4605006946DF
:100340005346C008C000854618B020B5FFF710FF1F
:1003500060BC00274908B6460026C0C5C0C5C0C558
:10036000C0C5C0C5C0C5C0C5C0C5403D49008D465B
:10037000704710B50446C046C0462046FFF7E7FE6A
:1003800010BD0000004870474400002001491820BB
:10039000ABBEFEE7260002007047000010B505491D
:1003A00001204B69400302469A4302D1486100F0A4
:1003B0007DFB10BD00040140FEE7000008B50449C4
:1003C0004A6902434A6149690140009108BD000041
:1003D0000010024010B50479002325490268002C62
:1003E0003DD0002A42D04479002C0FD0012C15D0EA
:1003F000022C16D001238279002A37D0012A18D086
:10040000022A1FD0032A21D001232FE04C689443F5
:100410004C6002680C6814430C60ECE70C68944371
:1004200001E00C6814430C6002684C6814434C6093
:10043000E1E70268CC689443CC6000688A680243B4
:100440008A6013E002688C68944302E002688C685A
:1004500014438C600068CA680243CA6006E00C68F6
:1004600094430C6000684A6882434A60184610BD95
:1004700000040140F0B500244DE00123A3401A40E0
:1004800048D04B68012B01D0022B10D18E688568B3
:10049000134653435F00DF19BD4373431D4385601B
:1004A000CD680B6846689E436B431E4346600F69E8
:1004B000C668134653435D005D19AE435F433E4338
:1004C000C6604E68022E1FD1FF2A0ED817464A6911
:1004D000066A94461A467A437A431701BF1ABE4306
:1004E00067467A43164306620EE0160A32467243A6
:1004F0004F6972437243BC461601B71A466ABE433F
:1005000067467A43164346624A6806685343AE43D9
:100510001E430660641C0A681346E340ADD1002008
:10052000F0BD000010B57D21C900FFF753FE04495E
:10053000401E4861002088610520086110BD000050
:1005400000E000E001490860704700004000002022
:10055000F0B50268194B1A4C984201D0A04203D161
:100560007025AA434D682A43164D174E174F9842DF
:100570000AD0A04208D0164CA04205D0A84203D011
:10058000B04201D0B84204D103242402A243CC6873
:10059000224302608A68C2620A888262984205D059
:1005A000A84203D0B04201D0B84201D10969016329
:1005B00041690122114341610020F0BD002C01403E
:1005C0000004004000400140004401400048014058
:1005D0000020004070B50B460121012B39D0102BB3
:1005E0003BD0FF3B5B1E3DD00F242402A3422ED103
:1005F000016A01252D03A9430162036A4168C469A8
:1006000073263602B4431668360234436E00B34391
:10061000166936033343AB4355682D032B43134D03
:10062000A84208D0124DA84205D0124DA84202D0CF
:10063000114DA84205D10125AD03A9439569AD012E
:1006400029434160C461D168016403620021084606
:1006500070BD114600F0D4F802E0114600F016F922
:100660000146F4E7114600F059F9F9E7002C014082
:100670000040014000440140004801407CB5002496
:1006800001200094C0040194FFF798FE012040046B
:10069000FFF794FE11498868F0229043202210430E
:1006A00088600F484B14C268C50309068A432A4371
:1006B000C26002688A4302600121684600930171AA
:1006C000447102218171FFF785FE06480168090225
:1006D000090A01600449802008607CBD0C000140CB
:1006E0000008004804E400E000E100E0F0B595B047
:1006F00014216846FFF76CFD202105A8FFF768FD6F
:1007000018210DA8FFF764FD344F0220F969014359
:10071000F961F96901403248139101680026090A1C
:100720000902016001202F49000408602E48694633
:10073000008808802D48019600682D4C0290039691
:100740002046FFF705FF2068802108432060A0684D
:1007500028490840A06028480178254818300D181D
:1007600028682549C91D0A78082191400843286056
:10077000602005901D4806960796006805AA401C53
:1007800040080890012109962046FFF723FF2968B9
:100790001948C01D02780420904081432960606898
:1007A000702188436060A16880208143A1607969DD
:1007B00080020143796179690F96014040200D90D4
:1007C000139102200E901190012012900920109692
:1007D0000DA9C006FFF74EFE15B0F0BD0010024097
:1007E00010E400E000E100E00C0000201000002018
:1007F00000040040F8BFFFFF840B0008FEE7000084
:1008000030B5026A520852000262026A4368846983
:100810007025A408A400AC430D682C430225AA430C
:100820000D692A4352084D6852002A43134DA842CD
:1008300008D0134DA84205D0124DA84202D0124D47
:10084000A84214D10825AA434D69AD002A430425C6
:10085000AA438D68AD002A43FF250135AB438D695E
:100860002B4301256D02AB43CD696D002B434360E3
:100870008461C96841630262002030BD002C0140E0
:1008800000400140004401400048014070B5026A48
:100890001025AA430262026A4368846973263602FD
:1008A000B4430E68360234432026B2430E69360143
:1008B0003243AA434D682D012A43144DA84208D063
:1008C000134DA84205D0134DA84202D0124DA842A4
:1008D00015D18025AA434D69AD012A434025AA437D
:1008E0008D68AD012A430125AD02AB438D69AD0092
:1008F0002B430125ED02AB43CD69ED002B43436053
:100900008461C96881630262002070BD002C0140CF
:1009100000400140004401400048014070B5026AB7
:10092000FF250135AA430262026A4368C469702642
:10093000A408A400B4430E6834436E00B2430E69A9
:1009400036023243AA434D682D022A43154DA84270
:1009500008D0154DA84205D0144DA84202D0144D20
:10096000A84217D10125ED02AA434D69AD022A43E1
:100970000125AD02AA438D68AD022A4301252D034E
:10098000AB438D692D012B4301256D03AB43CD692D
:100990006D012B434360C461C968C16302620020DA
:1009A00070BD0000002C01400040014000440140A7
:1009B00000480140704770477047000010B5254857
:1009C000012102688A430A4302600168C907C90F0E
:1009D000FBD02148016801221143016001688907A9
:1009E000C90FFBD00168F8229143802211430160B6
:1009F00041687B22D20391432122D20311434160FB
:100A0000C16A09090901C162016801221206114384
:100A1000016001688901C90FFBD04168F022914350
:100A200041604168072212029143416042680221FD
:100A3000920892000A4342600C2241681140082942
:100A4000FBD1064C2046FFF76DFD2046FFF77AFDEF
:100A500010BD00000020024000100240006CDC02CB
:100A60007047000010B5054801698907C90F04D017
:100A70000221C943016100F003F810BD00040040E9
:100A800010B5084A506AD16A526B8A4201D940189F
:100A9000401C64225043491CFFF79CFB02494860FC
:100AA00010BD0000000400400000002010B50A4CFA
:100AB0000B212078401CFFF78DFB21708800214618
:100AC0001431064C0858E16A491C48436421FFF779
:100AD00081FB606310BD00000000002000040040A6
:100AE00008B52348012182690A4382618169C907E7
:100AF000C90F0091C26901040A43C261C06908407C
:100B00000090FFF75BFF1B481B4E05681B49B56053
:100B10008D4205D34A10A818FFF75CFB441E00E085
:100B200000242846611CF460FFF754FB642808D3B6
:100B30006420641C444321462846FFF74BFB401EBB
:100B400000E000203061FFF799FDFFF7CFFD0C4872
:100B5000C16802221143C160026A01210A43026294
:100B600002680A43026042690A434261FEE70000EC
:100B7000001002404000002000000020102700006C
:100B8000000400400000000004040400000800000D
:100B900000080000B40B0008000000204400000022
:100BA000FC000008F80B0008440000206406000068
:100BB0001801000800000000000000000100000013
:100BC0000000000000000000000000000A0000001B
:100BD000140000001E000000280000003200000089
:100BE0003C00000046000000500000005A000000D9
:080BF0006400000000127A000D
:04000005080000B936
:00000001FF
