:020000040800F2
:10000000900900209D010008550D00086D050008AD
:1000100000000000000000000000000000000000E0
:10002000000000000000000000000000590D000862
:100030000000000000000000570D00085B0D0008E4
:10004000AF01000800000000AF010008AF01000888
:10005000AF010008AF010008AF010008AF010008C0
:1000600000000000AF010008AF010008AF01000868
:10007000AF0100086D0D0008AF010008000000008E
:10008000AF0100080000000000000000AF01000800
:1000900000000000AF010008AF010008AF01000838
:1000A00000000000AF010008000000009D0D0008E6
:1000B000AF01000800000000000000000000000088
:1000C00000F002F800F03EF80CA030C80838241800
:1000D0002D18671EA246AB4654465D46AC4201D180
:1000E00000F030F87E460F3EB6460FCC0126334274
:1000F00000D0FB1A3343A246AB461847942B0000AE
:10010000B42B0000103A02D378C878C1FAD852074D
:1001100001D330C830C101D504680C6070470000BD
:100120000023002400250026103A01D378C1FBD813
:10013000520700D330C100D50B6070471FB51FBDFB
:1001400010B510BD00F072F81146FFF7F7FF02F08E
:10015000D1FA00F08AF803B4FFF7F2FF03BC00F015
:1001600091F8000070B505460C46164602E00FCC2B
:100170000FC5103E102EFAD2082E02D303CC03C5B1
:10018000083E042E07D301CC01C5361F03E02178B9
:100190002970641C6D1C761EF9D270BD074880471B
:1001A00007480047FEE7FEE7FEE7FEE7FEE7FEE75B
:1001B00004480549054A064B704700005D0D0008DC
:1001C000C100000890030020900900209005002045
:1001D00090050020D2B210B513029A1813049A1891
:1001E00000F00EF810BD01E004C0091F0429FBD285
:1001F0008B0701D50280801CC90700D002707047B0
:1002000000290BD0C30702D00270401C491E0229EE
:1002100004D3830702D50280801C891EE3E70022F5
:10022000EEE70022DFE7704770477047754600F041
:1002300025F8AE46050069465346C008C00085460D
:1002400018B020B5FFF7B4FF60BCB6460026002703
:10025000C0C5C0C5C0C5C0C5C0C5C0C5C0C5C0C576
:10026000403D490849008D46704710B50446C046D8
:10027000C0462046FFF76FFF10BD000000487047E2
:100280000800002001491820ABBEFEE7260002004E
:100290007047000070B5044600F062F90619A44DDD
:1002A0002868C00305D500F05BF9B042F8D30320FD
:1002B00070BD29689F480840286003D09B4948606A
:1002C000012070BD00F04CF904192868400305D5E1
:1002D00000F046F9A042F8D3032070BD002070BDA5
:1002E000F0B583B00546914C2078012802D1022058
:1002F00003B0F0BD029100276760012020707D20CF
:10030000C6003046FFF7C6FF002802D0277003B0B2
:10031000F0BD286804280BD11C48801C22490A68BB
:1003200002430A603046FFF7B5FF277003B0F0BD07
:10033000F8430299086039466F68A868C019874277
:100340000191084619D2FC0017490868104A10406C
:1003500020430E4A104308603046FFF79BFF0028F9
:1003600008D16868A968081808347F1C8742EBD355
:10037000019801E002990F606C4C0B4B1968022246
:1003800091431960019F277003B0F0BD0200010086
:1003900085FFFEFF0120C00703490A6802430A6087
:1003A0000868C043C00F704714200240F0B589B000
:1003B0000E465E490C78012C03D10222104609B08A
:1003C000F0BD06930292039000200790486001243C
:1003D0000C707D20C50000F0C3F804954719059402
:1003E0002504534C2068284206D000F0B9F8B842E2
:1003F000F8D303224D4F94E020684E490840206016
:1004000003D04A4F7860059A8BE000F0A9F8049970
:100410004718012005908004089020680899084238
:1004200004D000F09DF8B842F7D3E2E70398012822
:100430000AD1606801210143616002983060BFF316
:100440006F8F0698706044E06068089908436060A8
:10045000EFF31080019072B6079A11460696029E3D
:100460007058069B58505B18701847685F60876823
:100470009F60C768DF6007691F6147695F618769BF
:100480009F61C769DF61076A1F62476A5F62876AA7
:100490009F62C76ADF62076B1F63476B5F63876B8F
:1004A0009F63C06BD8630F201043403110323F2848
:1004B000D6D308E02068284208D02068284205D01A
:1004C0002068284202D020682842F3D1019880F3A6
:1004D0001088164F00F044F8049946182068284206
:1004E00005D000F03DF8B042F8D3032215E02068B3
:1004F00010490840206002D07860059A0DE000F0B5
:100500002FF80499451820680899084204D000F093
:1005100027F8A842F7D3E8E70022606803998843E8
:10052000606007983870104609B0F0BD6C03002079
:1005300010200240FAC300000648C168002901D417
:10054000002070470449016004490160C068C00F81
:100550007047C0460820024023016745AB89EFCDB4
:10056000014800687047C04688030020FEE700008D
:10057000F0B584B00E460A6811BA0B09744C2340DA
:100580002140090159188B08724C234021408900F1
:1005900059184B08704C2340214049005B18202714
:1005A000002A394605D1002B0CD11146F9400ED155
:1005B000C0E051421140694C6143C90E68A4615CBE
:1005C000002BF2D00F461146F94000D1B2E0039063
:1005D00002960EE09300716999400F229A40036AD7
:1005E00093430B4303627F1C32681146F94000D1EC
:1005F000A0E00125BD401540F5D029BA0A09544BA9
:100600001A401940090151188A08524B1A401940E2
:10061000890051184A08504B1A4019404900511896
:100620000368766809D0002D09D06A422A404B48F9
:100630004243D20E4AA0825C02E0402404E0202221
:1006400054000322A24093433246A2401A43039827
:100650000260721E012A1BD88468029883680029F0
:100660000AD0002D009109D06A422A403B484243FB
:10067000D20E3BA0825C02E0402205E02022520024
:10068000032191408C430099934023430398836056
:10069000C36800290AD0002D01960BD0684228407B
:1006A0002E494843C00E2EA10A5C04E0022E029E91
:1006B00099D110E02022029E306951008840032425
:1006C0008C40A34303430398C360019902298AD154
:1006D000290600D07EE703462C0A20BA0109284AE1
:1006E00011401040000108188108264A11401040AE
:1006F000800008184108184A1140104040000818AE
:1007000072695B6A09D0002C0AD06042204013490C
:100710004843C00E12A1095C03E08021039805E064
:100720002021039889000F248C40A3438A401A4358
:10073000426258E77168491E012905D8F36853439E
:100740004168914319434160002004B0F0BDC046A8
:100750000F0F0F0F333333335555555531B57C07D4
:1007600000011C021D0E18031E16140F1911040897
:100770001F1B0D17151310071A0C12060B050A097B
:10078000000F0F0F0033333380B57D21C90002F015
:1007900053F9401EBC49486000208860052008606D
:1007A00080BDC04610B5114A116838230B403A4944
:1007B000082B05D01346083B1B689B045B0FD940F0
:1007C000016013689B093C241C40354B1B591F24B6
:1007D0002340D94041601268920A1C2313402F4ADB
:1007E000D2582240D140816010BDC046081002405E
:1007F00010B501460020032945D123494A6D032342
:100800001A401B04D218214B9A4210D0204B9A4216
:1008100013D0204882421BD18868382202401E48EB
:10082000082A30D009688904490FC84010BD01204A
:10083000C203C86D8003104010BD0A68520522D55E
:1008400008680006400F411C134802F0F5F810BD7F
:100850008868382202401048082A03D00A689204A7
:10086000520FD0408A688968890A1C230B400B49C3
:10087000C9581F23194092093C241440084A1259B0
:100880001A40D040C84010BD0010024003000300D1
:100890000200030001000300006CDC02702C000861
:1008A000302C0008014908607047C0460000002055
:1008B00010B50468CA4A904202D01C4B98420FD12E
:1008C00070239C434B682343194CA0420CDD90429B
:1008D00010D0184CA0420DD0174CA0420AD023E0F3
:1008E0002346134CA042F2DC104CA04202D0134C21
:1008F000A04219D103242402A343CC681C43046002
:100900008B68C3620B888362904205D0094A90428B
:1009100002D0094A904201D109690163416901226B
:100920000A434261002010BD1C46E8E70004004075
:10093000FF2B0140004801400044014000200040DE
:10094000F0B583B004460068C00726D10D46206884
:100950002D490140A8680843296901436869084393
:10096000E969014321600320010362688A43E96861
:10097000114361600002A1688143A8690843A06037
:100980000126224884420CD02148844233D10320DE
:10099000FFF72EFF00280AD12DE00126304603B0D4
:1009A000F0BD6846FFF7FEFE0298002823D06F686E
:1009B000002F20D0296800260B291CD8890015A2F9
:1009C000515802F039F80121C903EA698A420BD172
:1009D000790840004018394602F02EF819490140C4
:1009E0000007400F401805E079084018394602F02A
:1009F00023F880B2E060E06A0F2188432988014330
:100A0000E162304603B0F0BDF369FFEF00440040FF
:100A10000038014001000000020000000400000056
:100A200006000000080000000A0000000C000000A2
:100A300010000000200000004000000080000000C6
:100A400000010000F0FF000081B00F490A68009229
:100A5000401C01D30020C043009A0A68D203D21779
:100A600010180ED00A68D203D217101809D00A68DD
:100A7000D203D217101804D00A68D203D217101864
:100A8000EBD101B07047C04610E000E081B001201A
:100A900000030E490A6802430A6009680140009198
:100AA00000980B4801686022914301600168802230
:100AB000914301600749C1600168182291430160B8
:100AC0000021C943816001B07047C0463810024020
:100AD00008300240B71DC104F0B587B00026059666
:100AE00004960396029696480168202211430160FD
:100AF0000168114006910699016801273943016098
:100B0000016839400691069901680222114301608B
:100B100000681040069006980B48402484620496B2
:100B200001960420009009486D462946FFF720FDF4
:100B300004960396032002900197009402482946E8
:100B4000FFF716FD07B0F0BD000400500014005080
:100B5000B0B586B0002000900125E9021D4A136857
:100B60000B43136012680A4005920599FF210902A0
:100B7000194A13688B4313606903744A116069460C
:100B8000164A0A8004900390092202920190144CA4
:100B90002046FFF78DFE8020C04321680140216080
:100BA000A168104A0A40A2606168702291436160A6
:100BB0000F21090562688A436260A1680140A16053
:100BC000E8432061E0682843E06020682843206013
:100BD00006B0B0BD401002400CE400E0BF120000BF
:100BE000002C0140F8BFFEFFF0B593B0534C2068D5
:100BF0000821019188432060206804210391084363
:100C00002060002710974E48016A03229143016239
:100C10000125A903C2680A43C260C2680A4004925F
:100C200004990168294301600068284012900995E1
:100C3000089507950220069002900590680204909E
:100C400012980520000704A9FFF792FCAE053D4865
:100C5000016831430160FF2000063B490A68824376
:100C60000A60E8063949086011970C200F900E972A
:100C70000D970C9736480B900A970AA92046FFF764
:100C80005FFEEFF3108085F3108807214A07A36801
:100C90009343A36080F31088EFF3108085F31088EE
:100CA0004906A2688A43A260019A80F31088680707
:100CB0002168814321600920C0026168814361602D
:100CC000A06822218843A060A0681043A06020682B
:100CD000284320606805E169014202D0E1693142A0
:100CE00011D1E169014202D0E16931420BD1E169E0
:100CF000014202D0E169314205D1E1690142EAD005
:100D0000E1693142E7D022620398206225620298AD
:100D10002062EFF3108085F31088216820220A43B7
:100D2000226080F31088EFF3108085F31088A168AB
:100D30002943A16080F3108813B0F0BD0038014052
:100D4000341002400000014018E400E000E100E03F
:100D500040420F00FEE77047704770470120C00611
:100D6000014908607047C04608ED00E080B50548BD
:100D70000168C90702D00121C943016000F004F8ED
:100D800080BDC046102C014003480121017041681C
:100D9000491C41607047C046C0000020F0B581B0DA
:100DA0004348011F0A68920604D50246203A126899
:100DB000920613D409680091009949070BD4009951
:100DC000C90715D10099090721D40099890723D5AE
:100DD000022104221DE0042101221AE04068354C62
:100DE0006278C1B2002A06D1552904D001B0F0BD05
:100DF000012102220DE0012513466B400E46553EAF
:100E0000774277411F40012F0DD165701EE0082108
:100E100003222A4B1A6001600121CA0202604903C1
:100E2000016001B0F0BDA3789A43012A06D1AA2936
:100E300004D000206060607001B0F0BD0E46AA3E94
:100E4000774277413A40012A07D1A57061684A1C70
:100E500062606118087401B0F0BDE27816466E4019
:100E60003340012B08D1E16061684A1C626061185F
:100E70000874E57001B0F0BD002AB7D061684A1C63
:100E80006260611808746068E168C91C8842ADD36B
:100E90006268214610310848FFF764F96068A06075
:100EA00025700020606060806070E06001B0F0BD7F
:100EB00020380140C80000202403002084030020C3
:100EC000F0B58DB0454FF878A138222801D901F04E
:100ED0005EFA400078448088400087442200580A27
:100EE000580A580A580A580A580A580A580A580AF2
:100EF000580A580A580A580A580A580A580A580AE2
:100F0000580A580A580A580A580A580A580A580AD1
:100F1000580A580A580A580A580A580AAA00DB02FE
:100F2000C9032F482F494163024634320121117110
:100F30002D4909680B0A54240355D17794795579C2
:100F40002C19D5796419157A6419557A6419957A2A
:100F50006419D57A6419157B6419557B6419957BDE
:100F60006419D57B6419157C6419557C6419957CCA
:100F70006419D57C6419157D6419557D6419957DB6
:100F80006419D57D6419157E6419557E6419957EA2
:100F90006419D57E6419157F6419557F6419957F8E
:100FA00064196118C91830395523C15400BF00BFF6
:100FB00000BF00BF00BF00BF00BF00BF00BF00BF39
:100FC0000A4C20461C38036804218B4303600568E3
:100FD00008231D43056022250EE0C046240300209F
:100FE00068000020AA551FB1244801401C38014068
:100FF000921CAD1E00D16BE31678E66026683606BB
:1010000008D42668360605D42668360602D4266833
:101010003606F3D55678E66026683606E8D42668A4
:101020003606E5D426683606E2D426683606F3D5B9
:10103000DEE7FFF781FA0120C0030A4908600A4C85
:10104000042506200221A162E062256320462830A3
:1010500021461431FFF744F9044F054E002809D109
:1010600053E1C04610200240680000201C380140B7
:10107000C0FEFFFF00BF00BF00BF00BF00BF00BF3A
:1010800000BF00BF00BF00BF38461C380168A9433D
:101090000160016808220B92114301606523FB6027
:1010A0003968090608D43968090605D4396809067B
:1010B00002D439680906F3D572210A91F9603968BA
:1010C000090608D43968090605D43968090602D426
:1010D00039680906F3D50C956121F9603A68120662
:1010E00008D43A68120605D43A68120602D43A685F
:1010F0001206F3D57325FD603A68120608D43A68E3
:10110000120605D43A68120602D43A681206F3D5DC
:101110000993FB603A68120608D43A68120605D4AF
:101120003A68120602D43A681206F3D52022FA6011
:101130003B681B0608D43B681B0605D43B681B06AE
:1011400002D43B681B06F3D56623FB603B681B0695
:1011500008D43B681B0605D43B681B0602D43B68D9
:101160001B06F3D56C23FB603B681B0608D43B6869
:101170001B0605D43B681B0602D43B681B06F3D54F
:10118000F9603968090608D43968090605D4396850
:10119000090602D439680906F3D5FD60099B396850
:1011A000090608D43968090605D43968090602D445
:1011B00039680906F3D56821F9600C9D396809067C
:1011C00008D43968090605D43968090602D4396893
:1011D0000906F3D5FA603968090608D439680906A2
:1011E00005D43968090602D439680906F3D5FB60CD
:1011F0000A9A3968090608D43968090605D4396895
:10120000090602D439680906F3D5FA603968090677
:1012100008D43968090605D43968090602D4396842
:101220000906F3D5FA603968090608D43968090651
:1012300005D43968090602D439680906F3D50D21A9
:10124000F9603968090608D43968090605D439688F
:10125000090602D439680906F3D50A21F96039680C
:10126000090608D43968090605D43968090602D484
:1012700039680906F3D5314600BF00BF00BF00BF83
:1012800000BF00BF00BF00BF00BF00BF00BF00BF66
:1012900000BF00BF00BF00BF00BF00BF00BF00BF56
:1012A00000BF00BF00BF00BF00BF00BF00BF00BF46
:1012B00000BF00BF00BF00BF00BF00BF00BF00BF36
:1012C00000BF00BF00BF00BF00BF00BF00BF00BF26
:1012D00000BF00BF00BF00BF00BF00BF00BF00BF16
:1012E00000BF00BF00BF00BF00BF00BF00BF00BF06
:1012F00000BF00BF00BF00BF4031BDD101680B9AE5
:1013000091430160016829430160FFF743F8E94810
:101310002087E948606300BF00BF00BF00BF00BF77
:1013200000BF00BF00BF00BF00BF38461C380168C7
:10133000A9430160026808210A4302603422A25CCA
:10134000FA603A68120608D43A68120605D43A6878
:10135000120602D43A681206F3D53522A25CFA606E
:101360003A68120608D43A68120605D43A6812069A
:1013700002D43A681206F3D53622A25CFA603A68C3
:10138000120608D43A68120605D43A68120602D446
:101390003A681206F3D53722A25CFA603A68120660
:1013A00008D43A68120605D43A68120602D43A689C
:1013B0001206F3D53822A25CFA603A68120608D405
:1013C0003A68120605D43A68120602D43A68120640
:1013D000F3D53922A25CFA603A68120608D43A685A
:1013E000120605D43A68120602D43A681206F3D5FA
:1013F00000BF00BF00BF00BF00BF00BF00BF00BFF5
:1014000000BF00BF00BF00BF00BF00BF00BF00BFE4
:1014100000BF00BF00BF00BF00BF00BF00BF00BFD4
:1014200000BF00BF00BF00BF00BF00BF00BF00BFC4
:1014300000BF00BF00BF00BF00BF00BF00BF00BFB4
:1014400000BF00BF00BF00BF00BF00BF00BF00BFA4
:1014500000BF00BF00BF00BF00BF00BF00BF00BF94
:1014600000BF00BF00BF00BF00BF00BF00BF00BF84
:101470004036BDD102688A43026001682943016099
:101480000020C143A1618D496060A060E0602161DE
:101490000DB0F0BD8A484068BB780746DE1E3218A2
:1014A00001200102874D884C8A4200D857E100BFD5
:1014B00000BF00BF00BF00BF00BF00BF00BF00BF34
:1014C00000BF28461C38026804218A430260036872
:1014D0000822134303606423EB602B681B0608D4C7
:1014E0002B681B0605D42B681B0602D42B681B0631
:1014F000F3D56123EB602E68360608D42E683606D5
:1015000005D42E68360602D42E683606F3D5742626
:10151000EE602E68360608D42E68360605D42E688E
:10152000360602D42E683606F3D5EB602B681B0610
:1015300008D42B681B0605D42B681B0602D42B6825
:101540001B06F3D52023EB602B681B0608D42B6801
:101550001B0605D42B681B0602D42B681B06F3D58B
:101560006523EB602B681B0608D42B681B0605D48B
:101570002B681B0602D42B681B06F3D57223EB6085
:101580002E68360608D42E68360605D42E68360630
:1015900002D42E683606F3D5EB602B681B0608D400
:1015A0002B681B0605D42B681B0602D42B681B0670
:1015B000F3D50D23EB602B681B0608D42B681B06A4
:1015C00005D42B681B0602D42B681B06F3D50A230F
:1015D000EB602B681B0608D42B681B0605D42B6810
:1015E0001B0602D42B681B06F3D500BF00BF00BF4B
:1015F00000BF00BF00BF00BF00BF00BF00BF00BFF3
:1016000000BF00BF00BF00BF00BF00BF00BF00BFE2
:1016100000BF00BF00BF00BF00BF00BF00BF00BFD2
:1016200000BF00BF00BF00BF00BF00BF00BF00BFC2
:1016300000BF00BF00BF00BF00BF00BF00BF00BFB2
:1016400000BF00BF00BF00BF00BF00BF00BF00BFA2
:1016500000BF00BF00BF00BF00BF00BF00BF00BF92
:1016600000BF00BF00BF00BF00BF4034BDD1DDE2FE
:10167000134E7468200A00D080E00721214006D074
:10168000124800190822511AFF22FEF7A3FDF46048
:10169000A50876D0012D284600D801200321034655
:1016A0000B40421E032A0B950A9009940C936AD2B0
:1016B0000023A0E001D40000AA5503D100300008A7
:1016C000680000201C380140C0FEFFFF2001002000
:1016D000F24A00BF00BF00BF00BF00BF00BF00BF95
:1016E00000BF00BF00BF00BF00BF00BF00BF00BF02
:1016F00000BF00BF00BF00BF00BF00BF00BF00BFF2
:1017000000BF00BF00BF00BF00BF00BF00BF00BFE1
:1017100000BF00BF00BF00BF00BF00BF00BF00BFD1
:1017200000BF00BF00BF00BF00BF00BF00BF00BFC1
:1017300000BF00BF00BF00BF00BF00BF00BF00BFB1
:1017400000BF00BF00BF00BF00BF00BF00BF00BFA1
:1017500000BF4032BDD102689A43026069E20B9734
:101760000C92002E00D188E00327304638401B1F22
:10177000032B0A91099057D2002768E0B36900242F
:101780000FE300277AE205468D430026C44A33461C
:10179000C448845D24068719787800040019BC7851
:1017A00024020019FC7800199051387900067C79E0
:1017B00024042018BC7924020019FC79001994191A
:1017C0006060387A0006797A09040818B97A090243
:1017D0004018F97A4018A060387B0006797B09042C
:1017E0000818B97B09024018F97B4018E0601036F0
:1017F0001B1D9D42CCD10C9F002F11D09900A94AEE
:10180000505C000653185C78240420189C7824024D
:101810000019DB78C018A24B5850012F00D00DE200
:10182000A14E0B9D0A9F28E29E4B0B981B18BE43AE
:1018300000279E48C0194279DA55DA19817951702A
:10184000C1799170007AD0703F1DBE42F1D10998E4
:1018500000280A9911D006460B983B1893483A186D
:10186000304657798F4EF754012806D09B19967948
:101870005E70022801D0D2799A708B4F0C987860F4
:10188000884200D01EE1F960002140228548435C77
:101890001E0643185F783F04BE199F783F02F61971
:1018A000DF78F6197E4846501E7936065F793F0488
:1018B000BE199F793F02F619DF79F719461877604C
:1018C0001F7A3F06587A0004C0199F7A3F02C01958
:1018D000DF7AC019B060187B00065F7B3F043818C0
:1018E0009F7B3F02C019DB7BC018F060121F1031D4
:1018F000002ACBD16C4EB069E5490861684A10688E
:1019000008605068086090680860D06808601069D6
:1019100008605069086090690860D0690860106AC2
:101920000860506A0860906A0860D06A0860106BAE
:101930000860506B0860906B0860D06B0860106C9A
:101940000860506C0860906C0860D06C0860106D86
:101950000860506D0860906D0860D06D0860106E72
:101960000860506E0860906E0860D06E0860106F5E
:101970000860506F0860906F0860D06F086080202A
:10198000105808608420105808608820105808609B
:101990008C2010580860902010580860942010582F
:1019A00008609820105808609C2010580860A020FB
:1019B00010580860A42010580860A820105808602B
:1019C000AC2010580860B02010580860B42010589F
:1019D0000860B82010580860BC2010580860C0206B
:1019E00010580860C42010580860C82010580860BB
:1019F000CC2010580860D02010580860D42010580F
:101A00000860D82010580860DC2010580860E020DA
:101A100010580860E42010580860E820105808604A
:101A2000EC2010580860F02010580860F42010587E
:101A30000860F82010580860FC20105808600868FA
:101A40000C90FEF779FD3746F068002815492FD035
:101A5000002604E00836F8688642124928D2885DDC
:101A600089194A78120210188A78CB781B029A18C2
:101A70001204121808794B791B0218188B79C9794E
:101A80000902C91809040B1839690120FEF78EFCF8
:101A90000028DFD1386908303861DBE7C0FEFFFF7E
:101AA00020020020200100206800002024030020E4
:101AB000FEF770FC0C98B86100207860B868F9688F
:101AC0004018B860734838877348786300BF00BF18
:101AD00000BF00BF00BF00BF00BF00BF00BF00BF0E
:101AE00028461C38026804218A43026003680822E1
:101AF000134303603423FB5CEB602B681B0608D4A4
:101B00002B681B0605D42B681B0602D42B681B060A
:101B1000F3D53523FB5CEB602B681B0608D42B68E0
:101B20001B0605D42B681B0602D42B681B06F3D5B5
:101B30003623FB5CEB602B681B0608D42B681B0666
:101B400005D42B681B0602D42B681B06F3D537235C
:101B5000FB5CEB602B681B0608D42B681B0605D4C6
:101B60002B681B0602D42B681B06F3D53823FB5CBD
:101B7000EB602B681B0608D42B681B0605D42B686A
:101B80001B0602D42B681B06F3D53923FB5CEB60E4
:101B90002B681B0608D42B681B0605D42B681B0674
:101BA00002D42B681B06F3D500BF00BF00BF00BFE7
:101BB00000BF00BF00BF00BF00BF00BF00BF00BF2D
:101BC00000BF00BF00BF00BF00BF00BF00BF00BF1D
:101BD00000BF00BF00BF00BF00BF00BF00BF00BF0D
:101BE00000BF00BF00BF00BF00BF00BF00BF00BFFD
:101BF00000BF00BF00BF00BF00BF00BF00BF00BFED
:101C000000BF00BF00BF00BF00BF00BF00BF00BFDC
:101C100000BF00BF00BF00BF00BF00BF00BF00BFCC
:101C200000BF00BF00BF00BF4034BDD10368934375
:101C3000036002680A4302600DB0F0BD081D145C29
:101C4000240615186E7836043419AE783602A419B5
:101C5000ED7864191C50022F0A9F0CD00831505C9B
:101C6000000652185478240420189478240200198D
:101C7000D27880185850094E0B9D099C03232146A9
:101C80001940034A7944097949008F44090E131C0D
:101C90000030024001D50000AA5503D268000020A0
:101CA000B0691061042C1FD243E0B800E349085C1E
:101CB000010613E0B800E1490C5C240608184078DE
:101CC000000401190AE0B800DC490C5C240608187D
:101CD000417809040919807800020918B800D84C25
:101CE0002150B06910616D1C29461940681E0328F7
:101CF00001D200230EE09D430023D14C20681060E8
:101D000060681060A0681060E068106010341B1DEF
:101D10009D42F3D100290CD09800C94B1C58146087
:101D2000012906D0C01843681360022901D08068D9
:101D300010601768FEF700FCF068002825D000242A
:101D4000BE4D03E00834F06884421ED2285D291994
:101D50004A78120210188A78CB781B029A1812045B
:101D6000121808794B791B0218188B79C979090266
:101D7000C91809040B1831690120FEF717FB002868
:101D8000E0D1306908303061DCE7FEF703FB3B4609
:101D9000B76100207060B068F1684018B0603C46E0
:101DA000E64FE748B08630463430032585707979B0
:101DB0000906BA7912045118FA79120289183A7A86
:101DC0008918E04FE04A8B4200D025E20093DF49BA
:101DD0003187D321C17000BF00BF00BF00BF00BF6B
:101DE00000BF00BF00BF00BF00BF39461C390868F4
:101DF0000423019398430860086808230693184356
:101E0000029108603420305CF8603868000608D41D
:101E10003868000605D43868000602D43868000621
:101E2000F3D53520305CF8603868000608D438688F
:101E3000000605D43868000602D438680006F3D5D9
:101E40003620305CF8603868000608D43868000630
:101E500005D43868000602D438680006F3D5372068
:101E6000305CF8603868000608D43868000605D48D
:101E70003868000602D438680006F3D53820305C94
:101E8000F8603868000608D43868000605D4386859
:101E9000000602D438680006F3D53920305CF860BB
:101EA0003868000608D43868000605D4386800068B
:101EB00002D438680006F3D5104600BF00BF00BF4B
:101EC00000BF00BF00BF00BF00BF00BF00BF00BF1A
:101ED00000BF00BF00BF00BF00BF00BF00BF00BF0A
:101EE00000BF00BF00BF00BF00BF00BF00BF00BFFA
:101EF00000BF00BF00BF00BF00BF00BF00BF00BFEA
:101F000000BF00BF00BF00BF00BF00BF00BF00BFD9
:101F100000BF00BF00BF00BF00BF00BF00BF00BFC9
:101F200000BF00BF00BF00BF00BF00BF00BF00BFB9
:101F300000BF00BF00BF00BF00BF4030BDD102994D
:101F40000868069A904308600868019A1043086080
:101F500001200390010239480491FEF762F9002044
:101F60000590C043B0617A493161B368002B00D15C
:101F700018E2044676480B950DE00C68B461F068F1
:101F80000021F160B1680B1AB36031690818306143
:101F9000002B00D106E20A94FF2B00D9049BF360CA
:101FA000069C26490E193146083907193A46083A5F
:101FB00012680A70150ECD70150C8D70120A4A70D9
:101FC000211F994225D2311F3A1F12680A70150E3F
:101FD000CD70150C8D70120A4A709C4219D20159AD
:101FE000164A11550A0EF2700A0CB270090A717085
:101FF000211D99420DD2796831710A0EF2710A0CD5
:10200000B271090A71712146103108349C420C46A4
:10201000C7D39C08059D0B9800D184E00146012C94
:10202000204600D8039805460D40421E032A089416
:102030000790099506D200263EE0C0462001002008
:10204000200200207C2101400C9100273E46414C9B
:102050004148C25D1506C21951780904491995789D
:102060002D024919D5784919E15111790906557997
:102070002D04691895792D024919D5794919E51961
:102080006960117A0906507A00044018917A0902B1
:102090004018D17A4018A860107B0006517B0904D3
:1020A0000818917B09024018D17B4018E86010376E
:1020B000361D0C98B042CBD1099D002D30D0B40014
:1020C000254E305D000631194A78120410188A78BE
:1020D00012028018C97840181E4F3851012D1FD0A8
:1020E000201D315C090632182F4655782D046918D9
:1020F00095782D024919D2788918164A1150154938
:10210000022F0DD00834305D00060D4631194A7893
:10211000120410188A7812028018C97840182851C1
:102120000B98089C079D1A4602400C4E054FC0466E
:102130007A44127952009744131A1F28240300206E
:10214000AA5500001C380140C0FEFFFF01D6000068
:10215000003000082002002020010020680000203C
:102160000A988C490861042B0B9D22D205E7A80030
:102170008949085C020613E0A800874A115C090639
:1021800010184078000442180AE0A800824A115C46
:1021900009061018427812045118807800020A18B3
:1021A00028467C490B9D80007C4B1A500A98086198
:1021B000641C23462B40601E032802D235460022B1
:1021C00011E028463546844300222646734C206899
:1021D000086060680860A0680860E0680860103403
:1021E000121D9642F3D1002B2E4600D1C5E6900079
:1021F0006A490958674A11606649012B00D1BCE65B
:10220000664940184168634A11606249022B00D157
:10221000B3E680680860B0E661493187E321C170A8
:1022200000BF00BF00BF00BF00BF00BF00BF00BFB6
:1022300000BF00BF38461C38026804218A43026090
:1022400003680822134303603423F35CFB603B689C
:102250001B0608D43B681B0605D43B681B0602D44A
:102260003B681B06F3D53523F35CFB603B681B061C
:1022700008D43B681B0605D43B681B0602D43B68A8
:102280001B06F3D53623F35CFB603B681B0608D4C2
:102290003B681B0605D43B681B0602D43B681B0643
:1022A000F3D53723F35CFB603B681B0608D43B681F
:1022B0001B0605D43B681B0602D43B681B06F3D5FE
:1022C0003823F35CFB603B681B0608D43B681B06A5
:1022D00005D43B681B0602D43B681B06F3D53923A3
:1022E000F35CFB603B681B0608D43B681B0605D407
:1022F0003B681B0602D43B681B06F3D5FA4B00BFB4
:1023000000BF00BF00BF00BF00BF00BF00BF00BFD5
:1023100000BF00BF00BF00BF00BF00BF00BF00BFC5
:1023200000BF00BF00BF00BF00BF00BF00BF00BFB5
:1023300000BF00BF00BF00BF00BF00BF00BF00BFA5
:1023400000BF00BF00BF00BF00BF00BF00BF00BF95
:1023500000BF00BF00BF00BF00BF00BF00BF00BF85
:1023600000BF00BF00BF00BF00BF00BF00BF00BF75
:1023700000BF00BF00BF00BF00BF00BF00BF4033B1
:10238000BDD103689343036002680A4302600DB045
:10239000F0BDC04600300240200100202002002095
:1023A00001E6000000988442CF4B00D1D9E000BF85
:1023B00000BF00BF00BF00BF00BF00BF00BF00BF25
:1023C00000BF029A106801998843106011680820C4
:1023D000014311606322FA603968090608D439683C
:1023E000090605D43968090602D439680906F3D507
:1023F0007221F9603B681B0608D43B681B0605D4B4
:102400003B681B0602D43B681B06F3D5FA603A68AA
:10241000120608D43A68120605D43A68120602D4A5
:102420003A681206F3D52022FA603A68120608D4F8
:102430003A68120605D43A68120602D43A681206BF
:10244000F3D56522FA60A84B3A68120608D43A68B8
:10245000120605D43A68120602D43A681206F3D579
:10246000F9603A68120608D43A68120605D43A6848
:10247000120602D43A681206F3D5F96039680906E3
:1024800008D43968090605D43968090602D43968C0
:102490000906F3D50D21F9603968090608D43968B1
:1024A000090605D43968090602D439680906F3D546
:1024B0000A21F9603968090608D43968090605D483
:1024C0003968090602D439680906F3D5194600BFF0
:1024D00000BF00BF00BF00BF00BF00BF00BF00BF04
:1024E00000BF00BF00BF00BF00BF00BF00BF00BFF4
:1024F00000BF00BF00BF00BF00BF00BF00BF00BFE4
:1025000000BF00BF00BF00BF00BF00BF00BF00BFD3
:1025100000BF00BF00BF00BF00BF00BF00BF00BFC3
:1025200000BF00BF00BF00BF00BF00BF00BF00BFB3
:1025300000BF00BF00BF00BF00BF00BF00BF00BFA3
:1025400000BF00BF00BF00BF00BF00BF00BF4031E1
:10255000BDD1029A11688143116010680199084346
:10256000106000BF00BF00BF00BF00BF00BF00BFC2
:1025700000BF00BF00BF02990868019A904308603D
:102580000868082210430860200EF8602146386869
:10259000000608D43868000605D43868000602D45E
:1025A00038680006F3D5080CC0B2F8603868000639
:1025B00008D43868000605D43868000602D43868A4
:1025C0000006F3D5080AC0B2F8603868000608D4DF
:1025D0003868000605D43868000602D4386800065A
:1025E000F3D5C8B2F8603868000608D43868000629
:1025F00005D43868000602D438680006F3D500BF59
:1026000000BF00BF00BF00BF00BF00BF00BF00BFD2
:1026100000BF00BF00BF00BF00BF00BF00BF00BFC2
:1026200000BF00BF00BF00BF00BF00BF00BF00BFB2
:1026300000BF00BF00BF00BF00BF00BF00BF00BFA2
:1026400000BF00BF00BF00BF00BF00BF00BF00BF92
:1026500000BF00BF00BF00BF00BF00BF00BF00BF82
:1026600000BF00BF00BF00BF00BF00BF00BF00BF72
:1026700000BF00BF00BF00BF00BF00BF00BF4033AE
:10268000BDD1029F3868904338603868019D284367
:1026900038600C92FDF750FF0124E00313490860F5
:1026A0000E200221B162F062346330462830314698
:1026B0001431FDF715FEFDF76DFE0D48FEF7C4F968
:1026C00038682843386038680C9908433860D24A23
:1026D0001068D24901406007814200D057E6506837
:1026E000F06180470DB0F0BDC0FEFFFF102002403A
:1026F0001027000088B0BF48816B0124214381630B
:10270000816B2140069106992107426B0A4342637F
:10271000426B0A4007920799FF210906B64A1368DF
:102720008B4303210391890759181160B3490A6843
:1027300008252A430A600A68102313430B60B04936
:102740000A68224306239A430A6022020146083996
:102750000B6813430B600494A6020A68324208D146
:102760000A68324205D10A68324202D10A6832420E
:10277000F3D07F221202031F1C689443049A920331
:10278000A2181A600722D3020C689C430C600F2128
:10279000090203688B430360D14303680B40036065
:1027A00001688906490F0BD001688906490F07D0D7
:1027B00001688906490F03D001688906490FEFD1E6
:1027C000110302688A4302608E4C2046FDF7DCFF4D
:1027D0002046FEF767F8FEF77FF9FEF705FAFEF7E9
:1027E000B7F9FEF753F90A20FEF72EF900BF00BF34
:1027F00000BF00BF00BF00BF00BF00BF00BF00BFE1
:102800008148026804218A43026002682A43026008
:102810002E228262C3691B0608D4C3691B0605D435
:10282000C3691B0602D4C3691B06F3D58262C36960
:102830001B0608D4C3691B0605D4C3691B0602D452
:10284000C3691B06F3D58262C269120608D4C26945
:10285000120605D4C269120602D4C2691206F3D563
:102860006A4A00BF00BF00BF00BF00BF00BF00BF7B
:1028700000BF00BF00BF00BF00BF00BF00BF00BF60
:1028800000BF00BF00BF00BF00BF00BF00BF00BF50
:1028900000BF00BF00BF00BF00BF00BF00BF00BF40
:1028A00000BF00BF00BF00BF00BF00BF00BF00BF30
:1028B00000BF00BF00BF00BF00BF00BF00BF00BF20
:1028C00000BF00BF00BF00BF00BF00BF00BF00BF10
:1028D00000BF00BF00BF00BF00BF00BF00BF00BF00
:1028E00000BF4032BDD10268AA43026002680A43B9
:1028F000026000270597464A12680592454A059BE3
:10290000934211D002680A430260016829430160C2
:1029100041480168414A0A40049949078A4203D163
:1029200040683F49C86180473D4C414D0296019740
:102930003D480078012808D100203B490870206AF2
:10294000401C2062606A401C6062384800780128A0
:102950003CD13648077028792070364909684B1EEB
:102960003C4626D01A46039C2240891E0024032997
:1029700021460FD303998B43002421466E5C341902
:102980006E1877783C19B7783C19F6783419091D18
:102990008B42F3D1002A029E019F0AD06B5C1C1966
:1029A000012A06D049194B781C19022A01D08978CE
:1029B0000C19204909684919491E0978E2B28A426E
:1029C000174C03D1012801D1FEF77AFA30461938A5
:1029D000216A8142ACD92762124C20684021049AB6
:1029E00092050304084013401818484060600C4CDE
:1029F0009EE7C0460810024020ED00E000000140C4
:102A000000200240006CDC0200380140C0FEFFFFE5
:102A1000007000085555AAAA003000080000FE2FDB
:102A20006800002014040050C0000020C8000020EE
:102A300024030020D000002043088B421AD3002238
:102A400003098B4279D3030A8B425ED3030B8B427B
:102A500042D3030C8B4227D30902FF2212BA030C84
:102A60008B4202D31212090203D0030B8B4233D3E1
:102A70001AE0D3E0411A8041401C704703460B43E3
:102A800071D443088B42F5D3002203098B4254D3FF
:102A9000030A8B4239D3030B8B421DD3030C8B42A9
:102AA00002D394466EE0090AC30B8B4201D3CB03D9
:102AB000C01A5241830B8B4201D38B03C01A52417F
:102AC000430B8B4201D34B03C01A5241030B8B4281
:102AD00001D30B03C01A5241C30A8B4201D3CB026C
:102AE000C01A5241830A8B4201D38B02C01A524151
:102AF000430A8B4201D34B02C01A5241030A8B4254
:102B000001D30B02C01A5241CDD2C3098B4201D36B
:102B1000CB01C01A524183098B4201D38B01C01AE9
:102B2000524143098B4201D34B01C01A5241030960
:102B30008B4201D30B01C01A5241C3088B4201D30F
:102B4000CB00C01A524183088B4201D38B00C01ABC
:102B5000524143088B4201D34B00C01A5241411AE3
:102B6000524110007047CA0F00D04942031000D3F1
:102B70004042534000229C4603098B422DD3030A56
:102B80008B4212D38901FC2212BA030A8B420CD366
:102B9000890192118B4208D3890192118B4204D38F
:102BA000890137D0921100E08909C3098B4201D312
:102BB000CB01C01A524183098B4201D38B01C01A49
:102BC000524143098B4201D34B01C01A52410309C0
:102BD0008B4201D30B01C01A5241C3088B4201D36F
:102BE000CB00C01A524183088B4201D38B00C01A1C
:102BF0005241D9D243088B4201D34B00C01A5241F3
:102C0000411A00D201465241104663465B1000D380
:102C10004042704763465B1000D3404201B500213B
:102C2000004201D0C9430846C046C04602BD00006C
:102C30000000000000000000000000000000000094
:102C40000000000000000000000000000000000084
:102C5000010000000200000003000000040000006A
:102C60000600000007000000080000000900000046
:102C70000000000000000000000000000000000054
:102C8000010000000200000003000000040000003A
:102C9000B02C00080000002008000000040100081B
:102CA000B82C000808000020880900002001000856
:082CB000006CDC0200000000D2
:04000005080000C12E
:00000001FF
